{
	"contracts/Vehicle.sol": {
		"Vehicle": {
			"abi": [
				{
					"inputs": [
						{
							"internalType": "string",
							"name": "_registerId",
							"type": "string"
						},
						{
							"internalType": "string",
							"name": "_carBrand",
							"type": "string"
						},
						{
							"internalType": "string",
							"name": "_carModel",
							"type": "string"
						},
						{
							"internalType": "string",
							"name": "_carColor",
							"type": "string"
						},
						{
							"internalType": "string",
							"name": "_merikelrootvalue",
							"type": "string"
						}
					],
					"name": "AddVehicle",
					"outputs": [],
					"stateMutability": "nonpayable",
					"type": "function"
				},
				{
					"inputs": [],
					"name": "getvehicleBrand",
					"outputs": [
						{
							"internalType": "string",
							"name": "",
							"type": "string"
						}
					],
					"stateMutability": "view",
					"type": "function"
				},
				{
					"inputs": [],
					"name": "getvehicleColor",
					"outputs": [
						{
							"internalType": "string",
							"name": "",
							"type": "string"
						}
					],
					"stateMutability": "view",
					"type": "function"
				},
				{
					"inputs": [],
					"name": "getvehicleCreatedTime",
					"outputs": [
						{
							"internalType": "string",
							"name": "",
							"type": "string"
						}
					],
					"stateMutability": "view",
					"type": "function"
				},
				{
					"inputs": [],
					"name": "getvehicleMerikelrootvalue",
					"outputs": [
						{
							"internalType": "string",
							"name": "",
							"type": "string"
						}
					],
					"stateMutability": "view",
					"type": "function"
				},
				{
					"inputs": [],
					"name": "getvehicleModel",
					"outputs": [
						{
							"internalType": "string",
							"name": "",
							"type": "string"
						}
					],
					"stateMutability": "view",
					"type": "function"
				},
				{
					"inputs": [],
					"name": "getvehicleRegisterId",
					"outputs": [
						{
							"internalType": "string",
							"name": "",
							"type": "string"
						}
					],
					"stateMutability": "view",
					"type": "function"
				},
				{
					"inputs": [
						{
							"internalType": "string",
							"name": "currentMerikelrootvalue",
							"type": "string"
						}
					],
					"name": "verifyMerikelrootvalue",
					"outputs": [
						{
							"internalType": "bool",
							"name": "",
							"type": "bool"
						}
					],
					"stateMutability": "view",
					"type": "function"
				}
			],
			"devdoc": {
				"kind": "dev",
				"methods": {},
				"version": 1
			},
			"evm": {
				"assembly": "    /* \"contracts/Vehicle.sol\":129:1757  contract Vehicle{\r... */\n  mstore(0x40, 0x80)\n  callvalue\n  dup1\n  iszero\n  tag_1\n  jumpi\n  0x00\n  dup1\n  revert\ntag_1:\n  pop\n  dataSize(sub_0)\n  dup1\n  dataOffset(sub_0)\n  0x00\n  codecopy\n  0x00\n  return\nstop\n\nsub_0: assembly {\n        /* \"contracts/Vehicle.sol\":129:1757  contract Vehicle{\r... */\n      mstore(0x40, 0x80)\n      callvalue\n      dup1\n      iszero\n      tag_1\n      jumpi\n      0x00\n      dup1\n      revert\n    tag_1:\n      pop\n      jumpi(tag_2, lt(calldatasize, 0x04))\n      shr(0xe0, calldataload(0x00))\n      dup1\n      0xced7142c\n      gt\n      tag_11\n      jumpi\n      dup1\n      0xced7142c\n      eq\n      tag_7\n      jumpi\n      dup1\n      0xd1d5400d\n      eq\n      tag_8\n      jumpi\n      dup1\n      0xd43cf416\n      eq\n      tag_9\n      jumpi\n      dup1\n      0xe12d7db4\n      eq\n      tag_10\n      jumpi\n      jump(tag_2)\n    tag_11:\n      dup1\n      0x1ba7b1f7\n      eq\n      tag_3\n      jumpi\n      dup1\n      0x22e5ba7c\n      eq\n      tag_4\n      jumpi\n      dup1\n      0xa8515f8e\n      eq\n      tag_5\n      jumpi\n      dup1\n      0xca3740de\n      eq\n      tag_6\n      jumpi\n    tag_2:\n      0x00\n      dup1\n      revert\n        /* \"contracts/Vehicle.sol\":1182:1278  function getvehicleModel() public view returns(string memory) {\r... */\n    tag_3:\n      tag_12\n      tag_13\n      jump\t// in\n    tag_12:\n      mload(0x40)\n      tag_14\n      swap2\n      swap1\n      tag_15\n      jump\t// in\n    tag_14:\n      mload(0x40)\n      dup1\n      swap2\n      sub\n      swap1\n      return\n        /* \"contracts/Vehicle.sol\":1286:1382  function getvehicleColor() public view returns(string memory) {\r... */\n    tag_4:\n      tag_16\n      tag_17\n      jump\t// in\n    tag_16:\n      mload(0x40)\n      tag_18\n      swap2\n      swap1\n      tag_15\n      jump\t// in\n    tag_18:\n      mload(0x40)\n      dup1\n      swap2\n      sub\n      swap1\n      return\n        /* \"contracts/Vehicle.sol\":744:968  function verifyMerikelrootvalue(string memory currentMerikelrootvalue) public view returns (bool){\r... */\n    tag_5:\n      tag_19\n      0x04\n      dup1\n      calldatasize\n      sub\n      dup2\n      add\n      swap1\n      tag_20\n      swap2\n      swap1\n      tag_21\n      jump\t// in\n    tag_20:\n      tag_22\n      jump\t// in\n    tag_19:\n      mload(0x40)\n      tag_23\n      swap2\n      swap1\n      tag_24\n      jump\t// in\n    tag_23:\n      mload(0x40)\n      dup1\n      swap2\n      sub\n      swap1\n      return\n        /* \"contracts/Vehicle.sol\":1078:1174  function getvehicleBrand() public view returns(string memory) {\r... */\n    tag_6:\n      tag_25\n      tag_26\n      jump\t// in\n    tag_25:\n      mload(0x40)\n      tag_27\n      swap2\n      swap1\n      tag_15\n      jump\t// in\n    tag_27:\n      mload(0x40)\n      dup1\n      swap2\n      sub\n      swap1\n      return\n        /* \"contracts/Vehicle.sol\":1624:1747  function getvehicleCreatedTime() public view returns(string memory) {\r... */\n    tag_7:\n      tag_28\n      tag_29\n      jump\t// in\n    tag_28:\n      mload(0x40)\n      tag_30\n      swap2\n      swap1\n      tag_15\n      jump\t// in\n    tag_30:\n      mload(0x40)\n      dup1\n      swap2\n      sub\n      swap1\n      return\n        /* \"contracts/Vehicle.sol\":1390:1493  function getvehicleRegisterId() public view returns(string memory) {\r... */\n    tag_8:\n      tag_31\n      tag_32\n      jump\t// in\n    tag_31:\n      mload(0x40)\n      tag_33\n      swap2\n      swap1\n      tag_15\n      jump\t// in\n    tag_33:\n      mload(0x40)\n      dup1\n      swap2\n      sub\n      swap1\n      return\n        /* \"contracts/Vehicle.sol\":297:736  function AddVehicle (\r... */\n    tag_9:\n      tag_34\n      0x04\n      dup1\n      calldatasize\n      sub\n      dup2\n      add\n      swap1\n      tag_35\n      swap2\n      swap1\n      tag_36\n      jump\t// in\n    tag_35:\n      tag_37\n      jump\t// in\n    tag_34:\n      stop\n        /* \"contracts/Vehicle.sol\":1501:1616  function getvehicleMerikelrootvalue() public view returns(string memory) {\r... */\n    tag_10:\n      tag_38\n      tag_39\n      jump\t// in\n    tag_38:\n      mload(0x40)\n      tag_40\n      swap2\n      swap1\n      tag_15\n      jump\t// in\n    tag_40:\n      mload(0x40)\n      dup1\n      swap2\n      sub\n      swap1\n      return\n        /* \"contracts/Vehicle.sol\":1182:1278  function getvehicleModel() public view returns(string memory) {\r... */\n    tag_13:\n        /* \"contracts/Vehicle.sol\":1229:1242  string memory */\n      0x60\n        /* \"contracts/Vehicle.sol\":1262:1270  carModel */\n      0x02\n        /* \"contracts/Vehicle.sol\":1255:1270  return carModel */\n      dup1\n      sload\n      tag_42\n      swap1\n      tag_43\n      jump\t// in\n    tag_42:\n      dup1\n      0x1f\n      add\n      0x20\n      dup1\n      swap2\n      div\n      mul\n      0x20\n      add\n      mload(0x40)\n      swap1\n      dup2\n      add\n      0x40\n      mstore\n      dup1\n      swap3\n      swap2\n      swap1\n      dup2\n      dup2\n      mstore\n      0x20\n      add\n      dup3\n      dup1\n      sload\n      tag_44\n      swap1\n      tag_43\n      jump\t// in\n    tag_44:\n      dup1\n      iszero\n      tag_45\n      jumpi\n      dup1\n      0x1f\n      lt\n      tag_46\n      jumpi\n      0x0100\n      dup1\n      dup4\n      sload\n      div\n      mul\n      dup4\n      mstore\n      swap2\n      0x20\n      add\n      swap2\n      jump(tag_45)\n    tag_46:\n      dup3\n      add\n      swap2\n      swap1\n      0x00\n      mstore\n      keccak256(0x00, 0x20)\n      swap1\n    tag_47:\n      dup2\n      sload\n      dup2\n      mstore\n      swap1\n      0x01\n      add\n      swap1\n      0x20\n      add\n      dup1\n      dup4\n      gt\n      tag_47\n      jumpi\n      dup3\n      swap1\n      sub\n      0x1f\n      and\n      dup3\n      add\n      swap2\n    tag_45:\n      pop\n      pop\n      pop\n      pop\n      pop\n      swap1\n      pop\n        /* \"contracts/Vehicle.sol\":1182:1278  function getvehicleModel() public view returns(string memory) {\r... */\n      swap1\n      jump\t// out\n        /* \"contracts/Vehicle.sol\":1286:1382  function getvehicleColor() public view returns(string memory) {\r... */\n    tag_17:\n        /* \"contracts/Vehicle.sol\":1333:1346  string memory */\n      0x60\n        /* \"contracts/Vehicle.sol\":1366:1374  carColor */\n      0x03\n        /* \"contracts/Vehicle.sol\":1359:1374  return carColor */\n      dup1\n      sload\n      tag_49\n      swap1\n      tag_43\n      jump\t// in\n    tag_49:\n      dup1\n      0x1f\n      add\n      0x20\n      dup1\n      swap2\n      div\n      mul\n      0x20\n      add\n      mload(0x40)\n      swap1\n      dup2\n      add\n      0x40\n      mstore\n      dup1\n      swap3\n      swap2\n      swap1\n      dup2\n      dup2\n      mstore\n      0x20\n      add\n      dup3\n      dup1\n      sload\n      tag_50\n      swap1\n      tag_43\n      jump\t// in\n    tag_50:\n      dup1\n      iszero\n      tag_51\n      jumpi\n      dup1\n      0x1f\n      lt\n      tag_52\n      jumpi\n      0x0100\n      dup1\n      dup4\n      sload\n      div\n      mul\n      dup4\n      mstore\n      swap2\n      0x20\n      add\n      swap2\n      jump(tag_51)\n    tag_52:\n      dup3\n      add\n      swap2\n      swap1\n      0x00\n      mstore\n      keccak256(0x00, 0x20)\n      swap1\n    tag_53:\n      dup2\n      sload\n      dup2\n      mstore\n      swap1\n      0x01\n      add\n      swap1\n      0x20\n      add\n      dup1\n      dup4\n      gt\n      tag_53\n      jumpi\n      dup3\n      swap1\n      sub\n      0x1f\n      and\n      dup3\n      add\n      swap2\n    tag_51:\n      pop\n      pop\n      pop\n      pop\n      pop\n      swap1\n      pop\n        /* \"contracts/Vehicle.sol\":1286:1382  function getvehicleColor() public view returns(string memory) {\r... */\n      swap1\n      jump\t// out\n        /* \"contracts/Vehicle.sol\":744:968  function verifyMerikelrootvalue(string memory currentMerikelrootvalue) public view returns (bool){\r... */\n    tag_22:\n        /* \"contracts/Vehicle.sol\":836:840  bool */\n      0x00\n        /* \"contracts/Vehicle.sol\":942:958  merikelrootvalue */\n      0x04\n        /* \"contracts/Vehicle.sol\":925:959  abi.encodePacked(merikelrootvalue) */\n      add(0x20, mload(0x40))\n      tag_55\n      swap2\n      swap1\n      tag_56\n      jump\t// in\n    tag_55:\n      mload(0x40)\n      0x20\n      dup2\n      dup4\n      sub\n      sub\n      dup2\n      mstore\n      swap1\n      0x40\n      mstore\n        /* \"contracts/Vehicle.sol\":915:960  keccak256(abi.encodePacked(merikelrootvalue)) */\n      dup1\n      mload\n      swap1\n      0x20\n      add\n      keccak256\n        /* \"contracts/Vehicle.sol\":886:909  currentMerikelrootvalue */\n      dup3\n        /* \"contracts/Vehicle.sol\":869:910  abi.encodePacked(currentMerikelrootvalue) */\n      add(0x20, mload(0x40))\n      tag_57\n      swap2\n      swap1\n      tag_58\n      jump\t// in\n    tag_57:\n      mload(0x40)\n      0x20\n      dup2\n      dup4\n      sub\n      sub\n      dup2\n      mstore\n      swap1\n      0x40\n      mstore\n        /* \"contracts/Vehicle.sol\":859:911  keccak256(abi.encodePacked(currentMerikelrootvalue)) */\n      dup1\n      mload\n      swap1\n      0x20\n      add\n      keccak256\n        /* \"contracts/Vehicle.sol\":859:960  keccak256(abi.encodePacked(currentMerikelrootvalue)) == keccak256(abi.encodePacked(merikelrootvalue)) */\n      eq\n        /* \"contracts/Vehicle.sol\":852:960  return keccak256(abi.encodePacked(currentMerikelrootvalue)) == keccak256(abi.encodePacked(merikelrootvalue)) */\n      swap1\n      pop\n        /* \"contracts/Vehicle.sol\":744:968  function verifyMerikelrootvalue(string memory currentMerikelrootvalue) public view returns (bool){\r... */\n      swap2\n      swap1\n      pop\n      jump\t// out\n        /* \"contracts/Vehicle.sol\":1078:1174  function getvehicleBrand() public view returns(string memory) {\r... */\n    tag_26:\n        /* \"contracts/Vehicle.sol\":1125:1138  string memory */\n      0x60\n        /* \"contracts/Vehicle.sol\":1158:1166  carBrand */\n      0x01\n        /* \"contracts/Vehicle.sol\":1151:1166  return carBrand */\n      dup1\n      sload\n      tag_60\n      swap1\n      tag_43\n      jump\t// in\n    tag_60:\n      dup1\n      0x1f\n      add\n      0x20\n      dup1\n      swap2\n      div\n      mul\n      0x20\n      add\n      mload(0x40)\n      swap1\n      dup2\n      add\n      0x40\n      mstore\n      dup1\n      swap3\n      swap2\n      swap1\n      dup2\n      dup2\n      mstore\n      0x20\n      add\n      dup3\n      dup1\n      sload\n      tag_61\n      swap1\n      tag_43\n      jump\t// in\n    tag_61:\n      dup1\n      iszero\n      tag_62\n      jumpi\n      dup1\n      0x1f\n      lt\n      tag_63\n      jumpi\n      0x0100\n      dup1\n      dup4\n      sload\n      div\n      mul\n      dup4\n      mstore\n      swap2\n      0x20\n      add\n      swap2\n      jump(tag_62)\n    tag_63:\n      dup3\n      add\n      swap2\n      swap1\n      0x00\n      mstore\n      keccak256(0x00, 0x20)\n      swap1\n    tag_64:\n      dup2\n      sload\n      dup2\n      mstore\n      swap1\n      0x01\n      add\n      swap1\n      0x20\n      add\n      dup1\n      dup4\n      gt\n      tag_64\n      jumpi\n      dup3\n      swap1\n      sub\n      0x1f\n      and\n      dup3\n      add\n      swap2\n    tag_62:\n      pop\n      pop\n      pop\n      pop\n      pop\n      swap1\n      pop\n        /* \"contracts/Vehicle.sol\":1078:1174  function getvehicleBrand() public view returns(string memory) {\r... */\n      swap1\n      jump\t// out\n        /* \"contracts/Vehicle.sol\":1624:1747  function getvehicleCreatedTime() public view returns(string memory) {\r... */\n    tag_29:\n        /* \"contracts/Vehicle.sol\":1677:1690  string memory */\n      0x60\n        /* \"contracts/Vehicle.sol\":1710:1739  Strings.toString(CreatedTime) */\n      tag_66\n        /* \"contracts/Vehicle.sol\":1727:1738  CreatedTime */\n      sload(0x05)\n        /* \"contracts/Vehicle.sol\":1710:1726  Strings.toString */\n      tag_67\n        /* \"contracts/Vehicle.sol\":1710:1739  Strings.toString(CreatedTime) */\n      jump\t// in\n    tag_66:\n        /* \"contracts/Vehicle.sol\":1703:1739  return Strings.toString(CreatedTime) */\n      swap1\n      pop\n        /* \"contracts/Vehicle.sol\":1624:1747  function getvehicleCreatedTime() public view returns(string memory) {\r... */\n      swap1\n      jump\t// out\n        /* \"contracts/Vehicle.sol\":1390:1493  function getvehicleRegisterId() public view returns(string memory) {\r... */\n    tag_32:\n        /* \"contracts/Vehicle.sol\":1442:1455  string memory */\n      0x60\n        /* \"contracts/Vehicle.sol\":1475:1485  registerId */\n      0x00\n        /* \"contracts/Vehicle.sol\":1468:1485  return registerId */\n      dup1\n      sload\n      tag_69\n      swap1\n      tag_43\n      jump\t// in\n    tag_69:\n      dup1\n      0x1f\n      add\n      0x20\n      dup1\n      swap2\n      div\n      mul\n      0x20\n      add\n      mload(0x40)\n      swap1\n      dup2\n      add\n      0x40\n      mstore\n      dup1\n      swap3\n      swap2\n      swap1\n      dup2\n      dup2\n      mstore\n      0x20\n      add\n      dup3\n      dup1\n      sload\n      tag_70\n      swap1\n      tag_43\n      jump\t// in\n    tag_70:\n      dup1\n      iszero\n      tag_71\n      jumpi\n      dup1\n      0x1f\n      lt\n      tag_72\n      jumpi\n      0x0100\n      dup1\n      dup4\n      sload\n      div\n      mul\n      dup4\n      mstore\n      swap2\n      0x20\n      add\n      swap2\n      jump(tag_71)\n    tag_72:\n      dup3\n      add\n      swap2\n      swap1\n      0x00\n      mstore\n      keccak256(0x00, 0x20)\n      swap1\n    tag_73:\n      dup2\n      sload\n      dup2\n      mstore\n      swap1\n      0x01\n      add\n      swap1\n      0x20\n      add\n      dup1\n      dup4\n      gt\n      tag_73\n      jumpi\n      dup3\n      swap1\n      sub\n      0x1f\n      and\n      dup3\n      add\n      swap2\n    tag_71:\n      pop\n      pop\n      pop\n      pop\n      pop\n      swap1\n      pop\n        /* \"contracts/Vehicle.sol\":1390:1493  function getvehicleRegisterId() public view returns(string memory) {\r... */\n      swap1\n      jump\t// out\n        /* \"contracts/Vehicle.sol\":297:736  function AddVehicle (\r... */\n    tag_37:\n        /* \"contracts/Vehicle.sol\":536:547  _registerId */\n      dup5\n        /* \"contracts/Vehicle.sol\":523:533  registerId */\n      0x00\n        /* \"contracts/Vehicle.sol\":523:547  registerId = _registerId */\n      swap1\n      dup1\n      mload\n      swap1\n      0x20\n      add\n      swap1\n      tag_75\n      swap3\n      swap2\n      swap1\n      tag_76\n      jump\t// in\n    tag_75:\n      pop\n        /* \"contracts/Vehicle.sol\":569:578  _carBrand */\n      dup4\n        /* \"contracts/Vehicle.sol\":558:566  carBrand */\n      0x01\n        /* \"contracts/Vehicle.sol\":558:578  carBrand = _carBrand */\n      swap1\n      dup1\n      mload\n      swap1\n      0x20\n      add\n      swap1\n      tag_77\n      swap3\n      swap2\n      swap1\n      tag_76\n      jump\t// in\n    tag_77:\n      pop\n        /* \"contracts/Vehicle.sol\":600:609  _carModel */\n      dup3\n        /* \"contracts/Vehicle.sol\":589:597  carModel */\n      0x02\n        /* \"contracts/Vehicle.sol\":589:609  carModel = _carModel */\n      swap1\n      dup1\n      mload\n      swap1\n      0x20\n      add\n      swap1\n      tag_78\n      swap3\n      swap2\n      swap1\n      tag_76\n      jump\t// in\n    tag_78:\n      pop\n        /* \"contracts/Vehicle.sol\":631:640  _carColor */\n      dup2\n        /* \"contracts/Vehicle.sol\":620:628  carColor */\n      0x03\n        /* \"contracts/Vehicle.sol\":620:640  carColor = _carColor */\n      swap1\n      dup1\n      mload\n      swap1\n      0x20\n      add\n      swap1\n      tag_79\n      swap3\n      swap2\n      swap1\n      tag_76\n      jump\t// in\n    tag_79:\n      pop\n        /* \"contracts/Vehicle.sol\":670:687  _merikelrootvalue */\n      dup1\n        /* \"contracts/Vehicle.sol\":651:667  merikelrootvalue */\n      0x04\n        /* \"contracts/Vehicle.sol\":651:687  merikelrootvalue = _merikelrootvalue */\n      swap1\n      dup1\n      mload\n      swap1\n      0x20\n      add\n      swap1\n      tag_80\n      swap3\n      swap2\n      swap1\n      tag_76\n      jump\t// in\n    tag_80:\n      pop\n        /* \"contracts/Vehicle.sol\":712:728  getCurrentTime() */\n      tag_81\n        /* \"contracts/Vehicle.sol\":712:726  getCurrentTime */\n      tag_82\n        /* \"contracts/Vehicle.sol\":712:728  getCurrentTime() */\n      jump\t// in\n    tag_81:\n        /* \"contracts/Vehicle.sol\":698:709  CreatedTime */\n      0x05\n        /* \"contracts/Vehicle.sol\":698:728  CreatedTime = getCurrentTime() */\n      dup2\n      swap1\n      sstore\n      pop\n        /* \"contracts/Vehicle.sol\":297:736  function AddVehicle (\r... */\n      pop\n      pop\n      pop\n      pop\n      pop\n      jump\t// out\n        /* \"contracts/Vehicle.sol\":1501:1616  function getvehicleMerikelrootvalue() public view returns(string memory) {\r... */\n    tag_39:\n        /* \"contracts/Vehicle.sol\":1559:1572  string memory */\n      0x60\n        /* \"contracts/Vehicle.sol\":1592:1608  merikelrootvalue */\n      0x04\n        /* \"contracts/Vehicle.sol\":1585:1608  return merikelrootvalue */\n      dup1\n      sload\n      tag_84\n      swap1\n      tag_43\n      jump\t// in\n    tag_84:\n      dup1\n      0x1f\n      add\n      0x20\n      dup1\n      swap2\n      div\n      mul\n      0x20\n      add\n      mload(0x40)\n      swap1\n      dup2\n      add\n      0x40\n      mstore\n      dup1\n      swap3\n      swap2\n      swap1\n      dup2\n      dup2\n      mstore\n      0x20\n      add\n      dup3\n      dup1\n      sload\n      tag_85\n      swap1\n      tag_43\n      jump\t// in\n    tag_85:\n      dup1\n      iszero\n      tag_86\n      jumpi\n      dup1\n      0x1f\n      lt\n      tag_87\n      jumpi\n      0x0100\n      dup1\n      dup4\n      sload\n      div\n      mul\n      dup4\n      mstore\n      swap2\n      0x20\n      add\n      swap2\n      jump(tag_86)\n    tag_87:\n      dup3\n      add\n      swap2\n      swap1\n      0x00\n      mstore\n      keccak256(0x00, 0x20)\n      swap1\n    tag_88:\n      dup2\n      sload\n      dup2\n      mstore\n      swap1\n      0x01\n      add\n      swap1\n      0x20\n      add\n      dup1\n      dup4\n      gt\n      tag_88\n      jumpi\n      dup3\n      swap1\n      sub\n      0x1f\n      and\n      dup3\n      add\n      swap2\n    tag_86:\n      pop\n      pop\n      pop\n      pop\n      pop\n      swap1\n      pop\n        /* \"contracts/Vehicle.sol\":1501:1616  function getvehicleMerikelrootvalue() public view returns(string memory) {\r... */\n      swap1\n      jump\t// out\n        /* \"@openzeppelin/contracts/utils/Strings.sol\":415:1111  function toString(uint256 value) internal pure returns (string memory) {... */\n    tag_67:\n        /* \"@openzeppelin/contracts/utils/Strings.sol\":471:484  string memory */\n      0x60\n        /* \"@openzeppelin/contracts/utils/Strings.sol\":520:534  uint256 length */\n      0x00\n        /* \"@openzeppelin/contracts/utils/Strings.sol\":557:558  1 */\n      0x01\n        /* \"@openzeppelin/contracts/utils/Strings.sol\":537:554  Math.log10(value) */\n      tag_90\n        /* \"@openzeppelin/contracts/utils/Strings.sol\":548:553  value */\n      dup5\n        /* \"@openzeppelin/contracts/utils/Strings.sol\":537:547  Math.log10 */\n      tag_91\n        /* \"@openzeppelin/contracts/utils/Strings.sol\":537:554  Math.log10(value) */\n      jump\t// in\n    tag_90:\n        /* \"@openzeppelin/contracts/utils/Strings.sol\":537:558  Math.log10(value) + 1 */\n      add\n        /* \"@openzeppelin/contracts/utils/Strings.sol\":520:558  uint256 length = Math.log10(value) + 1 */\n      swap1\n      pop\n        /* \"@openzeppelin/contracts/utils/Strings.sol\":572:592  string memory buffer */\n      0x00\n        /* \"@openzeppelin/contracts/utils/Strings.sol\":606:612  length */\n      dup2\n        /* \"@openzeppelin/contracts/utils/Strings.sol\":595:613  new string(length) */\n      0xffffffffffffffff\n      dup2\n      gt\n      iszero\n      tag_92\n      jumpi\n      tag_93\n      tag_94\n      jump\t// in\n    tag_93:\n    tag_92:\n      mload(0x40)\n      swap1\n      dup1\n      dup3\n      mstore\n      dup1\n      0x1f\n      add\n      not(0x1f)\n      and\n      0x20\n      add\n      dup3\n      add\n      0x40\n      mstore\n      dup1\n      iszero\n      tag_95\n      jumpi\n      dup2\n      0x20\n      add\n      0x01\n      dup3\n      mul\n      dup1\n      calldatasize\n      dup4\n      calldatacopy\n      dup1\n      dup3\n      add\n      swap2\n      pop\n      pop\n      swap1\n      pop\n    tag_95:\n      pop\n        /* \"@openzeppelin/contracts/utils/Strings.sol\":572:613  string memory buffer = new string(length) */\n      swap1\n      pop\n        /* \"@openzeppelin/contracts/utils/Strings.sol\":627:638  uint256 ptr */\n      0x00\n        /* \"@openzeppelin/contracts/utils/Strings.sol\":753:759  length */\n      dup3\n        /* \"@openzeppelin/contracts/utils/Strings.sol\":749:751  32 */\n      0x20\n        /* \"@openzeppelin/contracts/utils/Strings.sol\":745:760  add(32, length) */\n      add\n        /* \"@openzeppelin/contracts/utils/Strings.sol\":737:743  buffer */\n      dup3\n        /* \"@openzeppelin/contracts/utils/Strings.sol\":733:761  add(buffer, add(32, length)) */\n      add\n        /* \"@openzeppelin/contracts/utils/Strings.sol\":726:761  ptr := add(buffer, add(32, length)) */\n      swap1\n      pop\n        /* \"@openzeppelin/contracts/utils/Strings.sol\":788:1068  while (true) {... */\n    tag_96:\n        /* \"@openzeppelin/contracts/utils/Strings.sol\":795:799  true */\n      0x01\n        /* \"@openzeppelin/contracts/utils/Strings.sol\":788:1068  while (true) {... */\n      iszero\n      tag_97\n      jumpi\n        /* \"@openzeppelin/contracts/utils/Strings.sol\":819:824  ptr-- */\n      dup1\n      dup1\n      0x01\n      swap1\n      sub\n      swap2\n      pop\n      pop\n        /* \"@openzeppelin/contracts/utils/Strings.sol\":958:966  _SYMBOLS */\n      0x3031323334353637383961626364656600000000000000000000000000000000\n        /* \"@openzeppelin/contracts/utils/Strings.sol\":953:955  10 */\n      0x0a\n        /* \"@openzeppelin/contracts/utils/Strings.sol\":946:951  value */\n      dup7\n        /* \"@openzeppelin/contracts/utils/Strings.sol\":942:956  mod(value, 10) */\n      mod\n        /* \"@openzeppelin/contracts/utils/Strings.sol\":937:967  byte(mod(value, 10), _SYMBOLS) */\n      byte\n        /* \"@openzeppelin/contracts/utils/Strings.sol\":932:935  ptr */\n      dup2\n        /* \"@openzeppelin/contracts/utils/Strings.sol\":924:968  mstore8(ptr, byte(mod(value, 10), _SYMBOLS)) */\n      mstore8\n        /* \"@openzeppelin/contracts/utils/Strings.sol\":1012:1014  10 */\n      0x0a\n        /* \"@openzeppelin/contracts/utils/Strings.sol\":1003:1014  value /= 10 */\n      dup6\n      dup2\n      tag_98\n      jumpi\n      tag_99\n      tag_100\n      jump\t// in\n    tag_99:\n    tag_98:\n      div\n      swap5\n      pop\n        /* \"@openzeppelin/contracts/utils/Strings.sol\":1045:1046  0 */\n      0x00\n        /* \"@openzeppelin/contracts/utils/Strings.sol\":1036:1041  value */\n      dup6\n        /* \"@openzeppelin/contracts/utils/Strings.sol\":1036:1046  value == 0 */\n      eq\n        /* \"@openzeppelin/contracts/utils/Strings.sol\":1032:1053  if (value == 0) break */\n      iszero\n      tag_101\n      jumpi\n        /* \"@openzeppelin/contracts/utils/Strings.sol\":1048:1053  break */\n      jump(tag_97)\n        /* \"@openzeppelin/contracts/utils/Strings.sol\":1032:1053  if (value == 0) break */\n    tag_101:\n        /* \"@openzeppelin/contracts/utils/Strings.sol\":788:1068  while (true) {... */\n      jump(tag_96)\n    tag_97:\n        /* \"@openzeppelin/contracts/utils/Strings.sol\":1088:1094  buffer */\n      dup2\n        /* \"@openzeppelin/contracts/utils/Strings.sol\":1081:1094  return buffer */\n      swap4\n      pop\n      pop\n      pop\n      pop\n        /* \"@openzeppelin/contracts/utils/Strings.sol\":415:1111  function toString(uint256 value) internal pure returns (string memory) {... */\n      swap2\n      swap1\n      pop\n      jump\t// out\n        /* \"contracts/Vehicle.sol\":976:1070  function getCurrentTime() internal view returns(uint){\r... */\n    tag_82:\n        /* \"contracts/Vehicle.sol\":1024:1028  uint */\n      0x00\n        /* \"contracts/Vehicle.sol\":1047:1062  block.timestamp */\n      timestamp\n        /* \"contracts/Vehicle.sol\":1040:1062  return block.timestamp */\n      swap1\n      pop\n        /* \"contracts/Vehicle.sol\":976:1070  function getCurrentTime() internal view returns(uint){\r... */\n      swap1\n      jump\t// out\n        /* \"@openzeppelin/contracts/utils/math/Math.sol\":9889:10779  function log10(uint256 value) internal pure returns (uint256) {... */\n    tag_91:\n        /* \"@openzeppelin/contracts/utils/math/Math.sol\":9942:9949  uint256 */\n      0x00\n        /* \"@openzeppelin/contracts/utils/math/Math.sol\":9961:9975  uint256 result */\n      dup1\n        /* \"@openzeppelin/contracts/utils/math/Math.sol\":9978:9979  0 */\n      0x00\n        /* \"@openzeppelin/contracts/utils/math/Math.sol\":9961:9979  uint256 result = 0 */\n      swap1\n      pop\n        /* \"@openzeppelin/contracts/utils/math/Math.sol\":10026:10032  10**64 */\n      0x184f03e93ff9f4daa797ed6e38ed64bf6a1f010000000000000000\n        /* \"@openzeppelin/contracts/utils/math/Math.sol\":10017:10022  value */\n      dup4\n        /* \"@openzeppelin/contracts/utils/math/Math.sol\":10017:10032  value >= 10**64 */\n      lt\n        /* \"@openzeppelin/contracts/utils/math/Math.sol\":10013:10112  if (value >= 10**64) {... */\n      tag_104\n      jumpi\n        /* \"@openzeppelin/contracts/utils/math/Math.sol\":10061:10067  10**64 */\n      0x184f03e93ff9f4daa797ed6e38ed64bf6a1f010000000000000000\n        /* \"@openzeppelin/contracts/utils/math/Math.sol\":10052:10067  value /= 10**64 */\n      dup4\n      dup2\n      tag_105\n      jumpi\n      tag_106\n      tag_100\n      jump\t// in\n    tag_106:\n    tag_105:\n      div\n      swap3\n      pop\n        /* \"@openzeppelin/contracts/utils/math/Math.sol\":10095:10097  64 */\n      0x40\n        /* \"@openzeppelin/contracts/utils/math/Math.sol\":10085:10097  result += 64 */\n      dup2\n      add\n      swap1\n      pop\n        /* \"@openzeppelin/contracts/utils/math/Math.sol\":10013:10112  if (value >= 10**64) {... */\n    tag_104:\n        /* \"@openzeppelin/contracts/utils/math/Math.sol\":10138:10144  10**32 */\n      0x04ee2d6d415b85acef8100000000\n        /* \"@openzeppelin/contracts/utils/math/Math.sol\":10129:10134  value */\n      dup4\n        /* \"@openzeppelin/contracts/utils/math/Math.sol\":10129:10144  value >= 10**32 */\n      lt\n        /* \"@openzeppelin/contracts/utils/math/Math.sol\":10125:10224  if (value >= 10**32) {... */\n      tag_107\n      jumpi\n        /* \"@openzeppelin/contracts/utils/math/Math.sol\":10173:10179  10**32 */\n      0x04ee2d6d415b85acef8100000000\n        /* \"@openzeppelin/contracts/utils/math/Math.sol\":10164:10179  value /= 10**32 */\n      dup4\n      dup2\n      tag_108\n      jumpi\n      tag_109\n      tag_100\n      jump\t// in\n    tag_109:\n    tag_108:\n      div\n      swap3\n      pop\n        /* \"@openzeppelin/contracts/utils/math/Math.sol\":10207:10209  32 */\n      0x20\n        /* \"@openzeppelin/contracts/utils/math/Math.sol\":10197:10209  result += 32 */\n      dup2\n      add\n      swap1\n      pop\n        /* \"@openzeppelin/contracts/utils/math/Math.sol\":10125:10224  if (value >= 10**32) {... */\n    tag_107:\n        /* \"@openzeppelin/contracts/utils/math/Math.sol\":10250:10256  10**16 */\n      0x2386f26fc10000\n        /* \"@openzeppelin/contracts/utils/math/Math.sol\":10241:10246  value */\n      dup4\n        /* \"@openzeppelin/contracts/utils/math/Math.sol\":10241:10256  value >= 10**16 */\n      lt\n        /* \"@openzeppelin/contracts/utils/math/Math.sol\":10237:10336  if (value >= 10**16) {... */\n      tag_110\n      jumpi\n        /* \"@openzeppelin/contracts/utils/math/Math.sol\":10285:10291  10**16 */\n      0x2386f26fc10000\n        /* \"@openzeppelin/contracts/utils/math/Math.sol\":10276:10291  value /= 10**16 */\n      dup4\n      dup2\n      tag_111\n      jumpi\n      tag_112\n      tag_100\n      jump\t// in\n    tag_112:\n    tag_111:\n      div\n      swap3\n      pop\n        /* \"@openzeppelin/contracts/utils/math/Math.sol\":10319:10321  16 */\n      0x10\n        /* \"@openzeppelin/contracts/utils/math/Math.sol\":10309:10321  result += 16 */\n      dup2\n      add\n      swap1\n      pop\n        /* \"@openzeppelin/contracts/utils/math/Math.sol\":10237:10336  if (value >= 10**16) {... */\n    tag_110:\n        /* \"@openzeppelin/contracts/utils/math/Math.sol\":10362:10367  10**8 */\n      0x05f5e100\n        /* \"@openzeppelin/contracts/utils/math/Math.sol\":10353:10358  value */\n      dup4\n        /* \"@openzeppelin/contracts/utils/math/Math.sol\":10353:10367  value >= 10**8 */\n      lt\n        /* \"@openzeppelin/contracts/utils/math/Math.sol\":10349:10445  if (value >= 10**8) {... */\n      tag_113\n      jumpi\n        /* \"@openzeppelin/contracts/utils/math/Math.sol\":10396:10401  10**8 */\n      0x05f5e100\n        /* \"@openzeppelin/contracts/utils/math/Math.sol\":10387:10401  value /= 10**8 */\n      dup4\n      dup2\n      tag_114\n      jumpi\n      tag_115\n      tag_100\n      jump\t// in\n    tag_115:\n    tag_114:\n      div\n      swap3\n      pop\n        /* \"@openzeppelin/contracts/utils/math/Math.sol\":10429:10430  8 */\n      0x08\n        /* \"@openzeppelin/contracts/utils/math/Math.sol\":10419:10430  result += 8 */\n      dup2\n      add\n      swap1\n      pop\n        /* \"@openzeppelin/contracts/utils/math/Math.sol\":10349:10445  if (value >= 10**8) {... */\n    tag_113:\n        /* \"@openzeppelin/contracts/utils/math/Math.sol\":10471:10476  10**4 */\n      0x2710\n        /* \"@openzeppelin/contracts/utils/math/Math.sol\":10462:10467  value */\n      dup4\n        /* \"@openzeppelin/contracts/utils/math/Math.sol\":10462:10476  value >= 10**4 */\n      lt\n        /* \"@openzeppelin/contracts/utils/math/Math.sol\":10458:10554  if (value >= 10**4) {... */\n      tag_116\n      jumpi\n        /* \"@openzeppelin/contracts/utils/math/Math.sol\":10505:10510  10**4 */\n      0x2710\n        /* \"@openzeppelin/contracts/utils/math/Math.sol\":10496:10510  value /= 10**4 */\n      dup4\n      dup2\n      tag_117\n      jumpi\n      tag_118\n      tag_100\n      jump\t// in\n    tag_118:\n    tag_117:\n      div\n      swap3\n      pop\n        /* \"@openzeppelin/contracts/utils/math/Math.sol\":10538:10539  4 */\n      0x04\n        /* \"@openzeppelin/contracts/utils/math/Math.sol\":10528:10539  result += 4 */\n      dup2\n      add\n      swap1\n      pop\n        /* \"@openzeppelin/contracts/utils/math/Math.sol\":10458:10554  if (value >= 10**4) {... */\n    tag_116:\n        /* \"@openzeppelin/contracts/utils/math/Math.sol\":10580:10585  10**2 */\n      0x64\n        /* \"@openzeppelin/contracts/utils/math/Math.sol\":10571:10576  value */\n      dup4\n        /* \"@openzeppelin/contracts/utils/math/Math.sol\":10571:10585  value >= 10**2 */\n      lt\n        /* \"@openzeppelin/contracts/utils/math/Math.sol\":10567:10663  if (value >= 10**2) {... */\n      tag_119\n      jumpi\n        /* \"@openzeppelin/contracts/utils/math/Math.sol\":10614:10619  10**2 */\n      0x64\n        /* \"@openzeppelin/contracts/utils/math/Math.sol\":10605:10619  value /= 10**2 */\n      dup4\n      dup2\n      tag_120\n      jumpi\n      tag_121\n      tag_100\n      jump\t// in\n    tag_121:\n    tag_120:\n      div\n      swap3\n      pop\n        /* \"@openzeppelin/contracts/utils/math/Math.sol\":10647:10648  2 */\n      0x02\n        /* \"@openzeppelin/contracts/utils/math/Math.sol\":10637:10648  result += 2 */\n      dup2\n      add\n      swap1\n      pop\n        /* \"@openzeppelin/contracts/utils/math/Math.sol\":10567:10663  if (value >= 10**2) {... */\n    tag_119:\n        /* \"@openzeppelin/contracts/utils/math/Math.sol\":10689:10694  10**1 */\n      0x0a\n        /* \"@openzeppelin/contracts/utils/math/Math.sol\":10680:10685  value */\n      dup4\n        /* \"@openzeppelin/contracts/utils/math/Math.sol\":10680:10694  value >= 10**1 */\n      lt\n        /* \"@openzeppelin/contracts/utils/math/Math.sol\":10676:10740  if (value >= 10**1) {... */\n      tag_122\n      jumpi\n        /* \"@openzeppelin/contracts/utils/math/Math.sol\":10724:10725  1 */\n      0x01\n        /* \"@openzeppelin/contracts/utils/math/Math.sol\":10714:10725  result += 1 */\n      dup2\n      add\n      swap1\n      pop\n        /* \"@openzeppelin/contracts/utils/math/Math.sol\":10676:10740  if (value >= 10**1) {... */\n    tag_122:\n        /* \"@openzeppelin/contracts/utils/math/Math.sol\":10766:10772  result */\n      dup1\n        /* \"@openzeppelin/contracts/utils/math/Math.sol\":10759:10772  return result */\n      swap2\n      pop\n      pop\n        /* \"@openzeppelin/contracts/utils/math/Math.sol\":9889:10779  function log10(uint256 value) internal pure returns (uint256) {... */\n      swap2\n      swap1\n      pop\n      jump\t// out\n    tag_76:\n      dup3\n      dup1\n      sload\n      tag_123\n      swap1\n      tag_43\n      jump\t// in\n    tag_123:\n      swap1\n      0x00\n      mstore\n      keccak256(0x00, 0x20)\n      swap1\n      0x1f\n      add\n      0x20\n      swap1\n      div\n      dup2\n      add\n      swap3\n      dup3\n      tag_125\n      jumpi\n      0x00\n      dup6\n      sstore\n      jump(tag_124)\n    tag_125:\n      dup3\n      0x1f\n      lt\n      tag_126\n      jumpi\n      dup1\n      mload\n      not(0xff)\n      and\n      dup4\n      dup1\n      add\n      or\n      dup6\n      sstore\n      jump(tag_124)\n    tag_126:\n      dup3\n      dup1\n      add\n      0x01\n      add\n      dup6\n      sstore\n      dup3\n      iszero\n      tag_124\n      jumpi\n      swap2\n      dup3\n      add\n    tag_127:\n      dup3\n      dup2\n      gt\n      iszero\n      tag_128\n      jumpi\n      dup3\n      mload\n      dup3\n      sstore\n      swap2\n      0x20\n      add\n      swap2\n      swap1\n      0x01\n      add\n      swap1\n      jump(tag_127)\n    tag_128:\n    tag_124:\n      pop\n      swap1\n      pop\n      tag_129\n      swap2\n      swap1\n      tag_130\n      jump\t// in\n    tag_129:\n      pop\n      swap1\n      jump\t// out\n    tag_130:\n    tag_131:\n      dup1\n      dup3\n      gt\n      iszero\n      tag_132\n      jumpi\n      0x00\n      dup2\n      0x00\n      swap1\n      sstore\n      pop\n      0x01\n      add\n      jump(tag_131)\n    tag_132:\n      pop\n      swap1\n      jump\t// out\n        /* \"#utility.yul\":7:419   */\n    tag_134:\n        /* \"#utility.yul\":85:90   */\n      0x00\n        /* \"#utility.yul\":110:176   */\n      tag_136\n        /* \"#utility.yul\":126:175   */\n      tag_137\n        /* \"#utility.yul\":168:174   */\n      dup5\n        /* \"#utility.yul\":126:175   */\n      tag_138\n      jump\t// in\n    tag_137:\n        /* \"#utility.yul\":110:176   */\n      tag_139\n      jump\t// in\n    tag_136:\n        /* \"#utility.yul\":101:176   */\n      swap1\n      pop\n        /* \"#utility.yul\":199:205   */\n      dup3\n        /* \"#utility.yul\":192:197   */\n      dup2\n        /* \"#utility.yul\":185:206   */\n      mstore\n        /* \"#utility.yul\":237:241   */\n      0x20\n        /* \"#utility.yul\":230:235   */\n      dup2\n        /* \"#utility.yul\":226:242   */\n      add\n        /* \"#utility.yul\":275:278   */\n      dup5\n        /* \"#utility.yul\":266:272   */\n      dup5\n        /* \"#utility.yul\":261:264   */\n      dup5\n        /* \"#utility.yul\":257:273   */\n      add\n        /* \"#utility.yul\":254:279   */\n      gt\n        /* \"#utility.yul\":251:363   */\n      iszero\n      tag_140\n      jumpi\n        /* \"#utility.yul\":282:361   */\n      tag_141\n      tag_142\n      jump\t// in\n    tag_141:\n        /* \"#utility.yul\":251:363   */\n    tag_140:\n        /* \"#utility.yul\":372:413   */\n      tag_143\n        /* \"#utility.yul\":406:412   */\n      dup5\n        /* \"#utility.yul\":401:404   */\n      dup3\n        /* \"#utility.yul\":396:399   */\n      dup6\n        /* \"#utility.yul\":372:413   */\n      tag_144\n      jump\t// in\n    tag_143:\n        /* \"#utility.yul\":91:419   */\n      pop\n        /* \"#utility.yul\":7:419   */\n      swap4\n      swap3\n      pop\n      pop\n      pop\n      jump\t// out\n        /* \"#utility.yul\":439:779   */\n    tag_145:\n        /* \"#utility.yul\":495:500   */\n      0x00\n        /* \"#utility.yul\":544:547   */\n      dup3\n        /* \"#utility.yul\":537:541   */\n      0x1f\n        /* \"#utility.yul\":529:535   */\n      dup4\n        /* \"#utility.yul\":525:542   */\n      add\n        /* \"#utility.yul\":521:548   */\n      slt\n        /* \"#utility.yul\":511:633   */\n      tag_147\n      jumpi\n        /* \"#utility.yul\":552:631   */\n      tag_148\n      tag_149\n      jump\t// in\n    tag_148:\n        /* \"#utility.yul\":511:633   */\n    tag_147:\n        /* \"#utility.yul\":669:675   */\n      dup2\n        /* \"#utility.yul\":656:676   */\n      calldataload\n        /* \"#utility.yul\":694:773   */\n      tag_150\n        /* \"#utility.yul\":769:772   */\n      dup5\n        /* \"#utility.yul\":761:767   */\n      dup3\n        /* \"#utility.yul\":754:758   */\n      0x20\n        /* \"#utility.yul\":746:752   */\n      dup7\n        /* \"#utility.yul\":742:759   */\n      add\n        /* \"#utility.yul\":694:773   */\n      tag_134\n      jump\t// in\n    tag_150:\n        /* \"#utility.yul\":685:773   */\n      swap2\n      pop\n        /* \"#utility.yul\":501:779   */\n      pop\n        /* \"#utility.yul\":439:779   */\n      swap3\n      swap2\n      pop\n      pop\n      jump\t// out\n        /* \"#utility.yul\":785:1294   */\n    tag_21:\n        /* \"#utility.yul\":854:860   */\n      0x00\n        /* \"#utility.yul\":903:905   */\n      0x20\n        /* \"#utility.yul\":891:900   */\n      dup3\n        /* \"#utility.yul\":882:889   */\n      dup5\n        /* \"#utility.yul\":878:901   */\n      sub\n        /* \"#utility.yul\":874:906   */\n      slt\n        /* \"#utility.yul\":871:990   */\n      iszero\n      tag_152\n      jumpi\n        /* \"#utility.yul\":909:988   */\n      tag_153\n      tag_154\n      jump\t// in\n    tag_153:\n        /* \"#utility.yul\":871:990   */\n    tag_152:\n        /* \"#utility.yul\":1057:1058   */\n      0x00\n        /* \"#utility.yul\":1046:1055   */\n      dup3\n        /* \"#utility.yul\":1042:1059   */\n      add\n        /* \"#utility.yul\":1029:1060   */\n      calldataload\n        /* \"#utility.yul\":1087:1105   */\n      0xffffffffffffffff\n        /* \"#utility.yul\":1079:1085   */\n      dup2\n        /* \"#utility.yul\":1076:1106   */\n      gt\n        /* \"#utility.yul\":1073:1190   */\n      iszero\n      tag_155\n      jumpi\n        /* \"#utility.yul\":1109:1188   */\n      tag_156\n      tag_157\n      jump\t// in\n    tag_156:\n        /* \"#utility.yul\":1073:1190   */\n    tag_155:\n        /* \"#utility.yul\":1214:1277   */\n      tag_158\n        /* \"#utility.yul\":1269:1276   */\n      dup5\n        /* \"#utility.yul\":1260:1266   */\n      dup3\n        /* \"#utility.yul\":1249:1258   */\n      dup6\n        /* \"#utility.yul\":1245:1267   */\n      add\n        /* \"#utility.yul\":1214:1277   */\n      tag_145\n      jump\t// in\n    tag_158:\n        /* \"#utility.yul\":1204:1277   */\n      swap2\n      pop\n        /* \"#utility.yul\":1000:1287   */\n      pop\n        /* \"#utility.yul\":785:1294   */\n      swap3\n      swap2\n      pop\n      pop\n      jump\t// out\n        /* \"#utility.yul\":1300:3111   */\n    tag_36:\n        /* \"#utility.yul\":1445:1451   */\n      0x00\n        /* \"#utility.yul\":1453:1459   */\n      dup1\n        /* \"#utility.yul\":1461:1467   */\n      0x00\n        /* \"#utility.yul\":1469:1475   */\n      dup1\n        /* \"#utility.yul\":1477:1483   */\n      0x00\n        /* \"#utility.yul\":1526:1529   */\n      0xa0\n        /* \"#utility.yul\":1514:1523   */\n      dup7\n        /* \"#utility.yul\":1505:1512   */\n      dup9\n        /* \"#utility.yul\":1501:1524   */\n      sub\n        /* \"#utility.yul\":1497:1530   */\n      slt\n        /* \"#utility.yul\":1494:1614   */\n      iszero\n      tag_160\n      jumpi\n        /* \"#utility.yul\":1533:1612   */\n      tag_161\n      tag_154\n      jump\t// in\n    tag_161:\n        /* \"#utility.yul\":1494:1614   */\n    tag_160:\n        /* \"#utility.yul\":1681:1682   */\n      0x00\n        /* \"#utility.yul\":1670:1679   */\n      dup7\n        /* \"#utility.yul\":1666:1683   */\n      add\n        /* \"#utility.yul\":1653:1684   */\n      calldataload\n        /* \"#utility.yul\":1711:1729   */\n      0xffffffffffffffff\n        /* \"#utility.yul\":1703:1709   */\n      dup2\n        /* \"#utility.yul\":1700:1730   */\n      gt\n        /* \"#utility.yul\":1697:1814   */\n      iszero\n      tag_162\n      jumpi\n        /* \"#utility.yul\":1733:1812   */\n      tag_163\n      tag_157\n      jump\t// in\n    tag_163:\n        /* \"#utility.yul\":1697:1814   */\n    tag_162:\n        /* \"#utility.yul\":1838:1901   */\n      tag_164\n        /* \"#utility.yul\":1893:1900   */\n      dup9\n        /* \"#utility.yul\":1884:1890   */\n      dup3\n        /* \"#utility.yul\":1873:1882   */\n      dup10\n        /* \"#utility.yul\":1869:1891   */\n      add\n        /* \"#utility.yul\":1838:1901   */\n      tag_145\n      jump\t// in\n    tag_164:\n        /* \"#utility.yul\":1828:1901   */\n      swap6\n      pop\n        /* \"#utility.yul\":1624:1911   */\n      pop\n        /* \"#utility.yul\":1978:1980   */\n      0x20\n        /* \"#utility.yul\":1967:1976   */\n      dup7\n        /* \"#utility.yul\":1963:1981   */\n      add\n        /* \"#utility.yul\":1950:1982   */\n      calldataload\n        /* \"#utility.yul\":2009:2027   */\n      0xffffffffffffffff\n        /* \"#utility.yul\":2001:2007   */\n      dup2\n        /* \"#utility.yul\":1998:2028   */\n      gt\n        /* \"#utility.yul\":1995:2112   */\n      iszero\n      tag_165\n      jumpi\n        /* \"#utility.yul\":2031:2110   */\n      tag_166\n      tag_157\n      jump\t// in\n    tag_166:\n        /* \"#utility.yul\":1995:2112   */\n    tag_165:\n        /* \"#utility.yul\":2136:2199   */\n      tag_167\n        /* \"#utility.yul\":2191:2198   */\n      dup9\n        /* \"#utility.yul\":2182:2188   */\n      dup3\n        /* \"#utility.yul\":2171:2180   */\n      dup10\n        /* \"#utility.yul\":2167:2189   */\n      add\n        /* \"#utility.yul\":2136:2199   */\n      tag_145\n      jump\t// in\n    tag_167:\n        /* \"#utility.yul\":2126:2199   */\n      swap5\n      pop\n        /* \"#utility.yul\":1921:2209   */\n      pop\n        /* \"#utility.yul\":2276:2278   */\n      0x40\n        /* \"#utility.yul\":2265:2274   */\n      dup7\n        /* \"#utility.yul\":2261:2279   */\n      add\n        /* \"#utility.yul\":2248:2280   */\n      calldataload\n        /* \"#utility.yul\":2307:2325   */\n      0xffffffffffffffff\n        /* \"#utility.yul\":2299:2305   */\n      dup2\n        /* \"#utility.yul\":2296:2326   */\n      gt\n        /* \"#utility.yul\":2293:2410   */\n      iszero\n      tag_168\n      jumpi\n        /* \"#utility.yul\":2329:2408   */\n      tag_169\n      tag_157\n      jump\t// in\n    tag_169:\n        /* \"#utility.yul\":2293:2410   */\n    tag_168:\n        /* \"#utility.yul\":2434:2497   */\n      tag_170\n        /* \"#utility.yul\":2489:2496   */\n      dup9\n        /* \"#utility.yul\":2480:2486   */\n      dup3\n        /* \"#utility.yul\":2469:2478   */\n      dup10\n        /* \"#utility.yul\":2465:2487   */\n      add\n        /* \"#utility.yul\":2434:2497   */\n      tag_145\n      jump\t// in\n    tag_170:\n        /* \"#utility.yul\":2424:2497   */\n      swap4\n      pop\n        /* \"#utility.yul\":2219:2507   */\n      pop\n        /* \"#utility.yul\":2574:2576   */\n      0x60\n        /* \"#utility.yul\":2563:2572   */\n      dup7\n        /* \"#utility.yul\":2559:2577   */\n      add\n        /* \"#utility.yul\":2546:2578   */\n      calldataload\n        /* \"#utility.yul\":2605:2623   */\n      0xffffffffffffffff\n        /* \"#utility.yul\":2597:2603   */\n      dup2\n        /* \"#utility.yul\":2594:2624   */\n      gt\n        /* \"#utility.yul\":2591:2708   */\n      iszero\n      tag_171\n      jumpi\n        /* \"#utility.yul\":2627:2706   */\n      tag_172\n      tag_157\n      jump\t// in\n    tag_172:\n        /* \"#utility.yul\":2591:2708   */\n    tag_171:\n        /* \"#utility.yul\":2732:2795   */\n      tag_173\n        /* \"#utility.yul\":2787:2794   */\n      dup9\n        /* \"#utility.yul\":2778:2784   */\n      dup3\n        /* \"#utility.yul\":2767:2776   */\n      dup10\n        /* \"#utility.yul\":2763:2785   */\n      add\n        /* \"#utility.yul\":2732:2795   */\n      tag_145\n      jump\t// in\n    tag_173:\n        /* \"#utility.yul\":2722:2795   */\n      swap3\n      pop\n        /* \"#utility.yul\":2517:2805   */\n      pop\n        /* \"#utility.yul\":2872:2875   */\n      0x80\n        /* \"#utility.yul\":2861:2870   */\n      dup7\n        /* \"#utility.yul\":2857:2876   */\n      add\n        /* \"#utility.yul\":2844:2877   */\n      calldataload\n        /* \"#utility.yul\":2904:2922   */\n      0xffffffffffffffff\n        /* \"#utility.yul\":2896:2902   */\n      dup2\n        /* \"#utility.yul\":2893:2923   */\n      gt\n        /* \"#utility.yul\":2890:3007   */\n      iszero\n      tag_174\n      jumpi\n        /* \"#utility.yul\":2926:3005   */\n      tag_175\n      tag_157\n      jump\t// in\n    tag_175:\n        /* \"#utility.yul\":2890:3007   */\n    tag_174:\n        /* \"#utility.yul\":3031:3094   */\n      tag_176\n        /* \"#utility.yul\":3086:3093   */\n      dup9\n        /* \"#utility.yul\":3077:3083   */\n      dup3\n        /* \"#utility.yul\":3066:3075   */\n      dup10\n        /* \"#utility.yul\":3062:3084   */\n      add\n        /* \"#utility.yul\":3031:3094   */\n      tag_145\n      jump\t// in\n    tag_176:\n        /* \"#utility.yul\":3021:3094   */\n      swap2\n      pop\n        /* \"#utility.yul\":2815:3104   */\n      pop\n        /* \"#utility.yul\":1300:3111   */\n      swap3\n      swap6\n      pop\n      swap3\n      swap6\n      swap1\n      swap4\n      pop\n      jump\t// out\n        /* \"#utility.yul\":3117:3226   */\n    tag_177:\n        /* \"#utility.yul\":3198:3219   */\n      tag_179\n        /* \"#utility.yul\":3213:3218   */\n      dup2\n        /* \"#utility.yul\":3198:3219   */\n      tag_180\n      jump\t// in\n    tag_179:\n        /* \"#utility.yul\":3193:3196   */\n      dup3\n        /* \"#utility.yul\":3186:3220   */\n      mstore\n        /* \"#utility.yul\":3117:3226   */\n      pop\n      pop\n      jump\t// out\n        /* \"#utility.yul\":3232:3596   */\n    tag_181:\n        /* \"#utility.yul\":3320:3323   */\n      0x00\n        /* \"#utility.yul\":3348:3387   */\n      tag_183\n        /* \"#utility.yul\":3381:3386   */\n      dup3\n        /* \"#utility.yul\":3348:3387   */\n      tag_184\n      jump\t// in\n    tag_183:\n        /* \"#utility.yul\":3403:3474   */\n      tag_185\n        /* \"#utility.yul\":3467:3473   */\n      dup2\n        /* \"#utility.yul\":3462:3465   */\n      dup6\n        /* \"#utility.yul\":3403:3474   */\n      tag_186\n      jump\t// in\n    tag_185:\n        /* \"#utility.yul\":3396:3474   */\n      swap4\n      pop\n        /* \"#utility.yul\":3483:3535   */\n      tag_187\n        /* \"#utility.yul\":3528:3534   */\n      dup2\n        /* \"#utility.yul\":3523:3526   */\n      dup6\n        /* \"#utility.yul\":3516:3520   */\n      0x20\n        /* \"#utility.yul\":3509:3514   */\n      dup7\n        /* \"#utility.yul\":3505:3521   */\n      add\n        /* \"#utility.yul\":3483:3535   */\n      tag_188\n      jump\t// in\n    tag_187:\n        /* \"#utility.yul\":3560:3589   */\n      tag_189\n        /* \"#utility.yul\":3582:3588   */\n      dup2\n        /* \"#utility.yul\":3560:3589   */\n      tag_190\n      jump\t// in\n    tag_189:\n        /* \"#utility.yul\":3555:3558   */\n      dup5\n        /* \"#utility.yul\":3551:3590   */\n      add\n        /* \"#utility.yul\":3544:3590   */\n      swap2\n      pop\n        /* \"#utility.yul\":3324:3596   */\n      pop\n        /* \"#utility.yul\":3232:3596   */\n      swap3\n      swap2\n      pop\n      pop\n      jump\t// out\n        /* \"#utility.yul\":3602:3979   */\n    tag_191:\n        /* \"#utility.yul\":3708:3711   */\n      0x00\n        /* \"#utility.yul\":3736:3775   */\n      tag_193\n        /* \"#utility.yul\":3769:3774   */\n      dup3\n        /* \"#utility.yul\":3736:3775   */\n      tag_184\n      jump\t// in\n    tag_193:\n        /* \"#utility.yul\":3791:3880   */\n      tag_194\n        /* \"#utility.yul\":3873:3879   */\n      dup2\n        /* \"#utility.yul\":3868:3871   */\n      dup6\n        /* \"#utility.yul\":3791:3880   */\n      tag_195\n      jump\t// in\n    tag_194:\n        /* \"#utility.yul\":3784:3880   */\n      swap4\n      pop\n        /* \"#utility.yul\":3889:3941   */\n      tag_196\n        /* \"#utility.yul\":3934:3940   */\n      dup2\n        /* \"#utility.yul\":3929:3932   */\n      dup6\n        /* \"#utility.yul\":3922:3926   */\n      0x20\n        /* \"#utility.yul\":3915:3920   */\n      dup7\n        /* \"#utility.yul\":3911:3927   */\n      add\n        /* \"#utility.yul\":3889:3941   */\n      tag_188\n      jump\t// in\n    tag_196:\n        /* \"#utility.yul\":3966:3972   */\n      dup1\n        /* \"#utility.yul\":3961:3964   */\n      dup5\n        /* \"#utility.yul\":3957:3973   */\n      add\n        /* \"#utility.yul\":3950:3973   */\n      swap2\n      pop\n        /* \"#utility.yul\":3712:3979   */\n      pop\n        /* \"#utility.yul\":3602:3979   */\n      swap3\n      swap2\n      pop\n      pop\n      jump\t// out\n        /* \"#utility.yul\":4009:4854   */\n    tag_197:\n        /* \"#utility.yul\":4112:4115   */\n      0x00\n        /* \"#utility.yul\":4149:4154   */\n      dup2\n        /* \"#utility.yul\":4143:4155   */\n      sload\n        /* \"#utility.yul\":4178:4214   */\n      tag_199\n        /* \"#utility.yul\":4204:4213   */\n      dup2\n        /* \"#utility.yul\":4178:4214   */\n      tag_43\n      jump\t// in\n    tag_199:\n        /* \"#utility.yul\":4230:4319   */\n      tag_200\n        /* \"#utility.yul\":4312:4318   */\n      dup2\n        /* \"#utility.yul\":4307:4310   */\n      dup7\n        /* \"#utility.yul\":4230:4319   */\n      tag_195\n      jump\t// in\n    tag_200:\n        /* \"#utility.yul\":4223:4319   */\n      swap5\n      pop\n        /* \"#utility.yul\":4350:4351   */\n      0x01\n        /* \"#utility.yul\":4339:4348   */\n      dup3\n        /* \"#utility.yul\":4335:4352   */\n      and\n        /* \"#utility.yul\":4366:4367   */\n      0x00\n        /* \"#utility.yul\":4361:4498   */\n      dup2\n      eq\n      tag_202\n      jumpi\n        /* \"#utility.yul\":4512:4513   */\n      0x01\n        /* \"#utility.yul\":4507:4848   */\n      dup2\n      eq\n      tag_203\n      jumpi\n        /* \"#utility.yul\":4328:4848   */\n      jump(tag_201)\n        /* \"#utility.yul\":4361:4498   */\n    tag_202:\n        /* \"#utility.yul\":4445:4449   */\n      0xff\n        /* \"#utility.yul\":4441:4450   */\n      not\n        /* \"#utility.yul\":4430:4439   */\n      dup4\n        /* \"#utility.yul\":4426:4451   */\n      and\n        /* \"#utility.yul\":4421:4424   */\n      dup7\n        /* \"#utility.yul\":4414:4452   */\n      mstore\n        /* \"#utility.yul\":4481:4487   */\n      dup2\n        /* \"#utility.yul\":4476:4479   */\n      dup7\n        /* \"#utility.yul\":4472:4488   */\n      add\n        /* \"#utility.yul\":4465:4488   */\n      swap4\n      pop\n        /* \"#utility.yul\":4361:4498   */\n      jump(tag_201)\n        /* \"#utility.yul\":4507:4848   */\n    tag_203:\n        /* \"#utility.yul\":4574:4612   */\n      tag_204\n        /* \"#utility.yul\":4606:4611   */\n      dup6\n        /* \"#utility.yul\":4574:4612   */\n      tag_205\n      jump\t// in\n    tag_204:\n        /* \"#utility.yul\":4634:4635   */\n      0x00\n        /* \"#utility.yul\":4648:4802   */\n    tag_206:\n        /* \"#utility.yul\":4662:4668   */\n      dup4\n        /* \"#utility.yul\":4659:4660   */\n      dup2\n        /* \"#utility.yul\":4656:4669   */\n      lt\n        /* \"#utility.yul\":4648:4802   */\n      iszero\n      tag_208\n      jumpi\n        /* \"#utility.yul\":4736:4743   */\n      dup2\n        /* \"#utility.yul\":4730:4744   */\n      sload\n        /* \"#utility.yul\":4726:4727   */\n      dup2\n        /* \"#utility.yul\":4721:4724   */\n      dup10\n        /* \"#utility.yul\":4717:4728   */\n      add\n        /* \"#utility.yul\":4710:4745   */\n      mstore\n        /* \"#utility.yul\":4786:4787   */\n      0x01\n        /* \"#utility.yul\":4777:4784   */\n      dup3\n        /* \"#utility.yul\":4773:4788   */\n      add\n        /* \"#utility.yul\":4762:4788   */\n      swap2\n      pop\n        /* \"#utility.yul\":4684:4688   */\n      0x20\n        /* \"#utility.yul\":4681:4682   */\n      dup2\n        /* \"#utility.yul\":4677:4689   */\n      add\n        /* \"#utility.yul\":4672:4689   */\n      swap1\n      pop\n        /* \"#utility.yul\":4648:4802   */\n      jump(tag_206)\n    tag_208:\n        /* \"#utility.yul\":4831:4837   */\n      dup4\n        /* \"#utility.yul\":4826:4829   */\n      dup9\n        /* \"#utility.yul\":4822:4838   */\n      add\n        /* \"#utility.yul\":4815:4838   */\n      swap6\n      pop\n        /* \"#utility.yul\":4514:4848   */\n      pop\n      pop\n        /* \"#utility.yul\":4328:4848   */\n    tag_201:\n      pop\n        /* \"#utility.yul\":4116:4854   */\n      pop\n      pop\n        /* \"#utility.yul\":4009:4854   */\n      swap3\n      swap2\n      pop\n      pop\n      jump\t// out\n        /* \"#utility.yul\":4860:5135   */\n    tag_58:\n        /* \"#utility.yul\":4992:4995   */\n      0x00\n        /* \"#utility.yul\":5014:5109   */\n      tag_210\n        /* \"#utility.yul\":5105:5108   */\n      dup3\n        /* \"#utility.yul\":5096:5102   */\n      dup5\n        /* \"#utility.yul\":5014:5109   */\n      tag_191\n      jump\t// in\n    tag_210:\n        /* \"#utility.yul\":5007:5109   */\n      swap2\n      pop\n        /* \"#utility.yul\":5126:5129   */\n      dup2\n        /* \"#utility.yul\":5119:5129   */\n      swap1\n      pop\n        /* \"#utility.yul\":4860:5135   */\n      swap3\n      swap2\n      pop\n      pop\n      jump\t// out\n        /* \"#utility.yul\":5141:5410   */\n    tag_56:\n        /* \"#utility.yul\":5270:5273   */\n      0x00\n        /* \"#utility.yul\":5292:5384   */\n      tag_212\n        /* \"#utility.yul\":5380:5383   */\n      dup3\n        /* \"#utility.yul\":5371:5377   */\n      dup5\n        /* \"#utility.yul\":5292:5384   */\n      tag_197\n      jump\t// in\n    tag_212:\n        /* \"#utility.yul\":5285:5384   */\n      swap2\n      pop\n        /* \"#utility.yul\":5401:5404   */\n      dup2\n        /* \"#utility.yul\":5394:5404   */\n      swap1\n      pop\n        /* \"#utility.yul\":5141:5410   */\n      swap3\n      swap2\n      pop\n      pop\n      jump\t// out\n        /* \"#utility.yul\":5416:5626   */\n    tag_24:\n        /* \"#utility.yul\":5503:5507   */\n      0x00\n        /* \"#utility.yul\":5541:5543   */\n      0x20\n        /* \"#utility.yul\":5530:5539   */\n      dup3\n        /* \"#utility.yul\":5526:5544   */\n      add\n        /* \"#utility.yul\":5518:5544   */\n      swap1\n      pop\n        /* \"#utility.yul\":5554:5619   */\n      tag_214\n        /* \"#utility.yul\":5616:5617   */\n      0x00\n        /* \"#utility.yul\":5605:5614   */\n      dup4\n        /* \"#utility.yul\":5601:5618   */\n      add\n        /* \"#utility.yul\":5592:5598   */\n      dup5\n        /* \"#utility.yul\":5554:5619   */\n      tag_177\n      jump\t// in\n    tag_214:\n        /* \"#utility.yul\":5416:5626   */\n      swap3\n      swap2\n      pop\n      pop\n      jump\t// out\n        /* \"#utility.yul\":5632:5945   */\n    tag_15:\n        /* \"#utility.yul\":5745:5749   */\n      0x00\n        /* \"#utility.yul\":5783:5785   */\n      0x20\n        /* \"#utility.yul\":5772:5781   */\n      dup3\n        /* \"#utility.yul\":5768:5786   */\n      add\n        /* \"#utility.yul\":5760:5786   */\n      swap1\n      pop\n        /* \"#utility.yul\":5832:5841   */\n      dup2\n        /* \"#utility.yul\":5826:5830   */\n      dup2\n        /* \"#utility.yul\":5822:5842   */\n      sub\n        /* \"#utility.yul\":5818:5819   */\n      0x00\n        /* \"#utility.yul\":5807:5816   */\n      dup4\n        /* \"#utility.yul\":5803:5820   */\n      add\n        /* \"#utility.yul\":5796:5843   */\n      mstore\n        /* \"#utility.yul\":5860:5938   */\n      tag_216\n        /* \"#utility.yul\":5933:5937   */\n      dup2\n        /* \"#utility.yul\":5924:5930   */\n      dup5\n        /* \"#utility.yul\":5860:5938   */\n      tag_181\n      jump\t// in\n    tag_216:\n        /* \"#utility.yul\":5852:5938   */\n      swap1\n      pop\n        /* \"#utility.yul\":5632:5945   */\n      swap3\n      swap2\n      pop\n      pop\n      jump\t// out\n        /* \"#utility.yul\":5951:6080   */\n    tag_139:\n        /* \"#utility.yul\":5985:5991   */\n      0x00\n        /* \"#utility.yul\":6012:6032   */\n      tag_218\n      tag_219\n      jump\t// in\n    tag_218:\n        /* \"#utility.yul\":6002:6032   */\n      swap1\n      pop\n        /* \"#utility.yul\":6041:6074   */\n      tag_220\n        /* \"#utility.yul\":6069:6073   */\n      dup3\n        /* \"#utility.yul\":6061:6067   */\n      dup3\n        /* \"#utility.yul\":6041:6074   */\n      tag_221\n      jump\t// in\n    tag_220:\n        /* \"#utility.yul\":5951:6080   */\n      swap2\n      swap1\n      pop\n      jump\t// out\n        /* \"#utility.yul\":6086:6161   */\n    tag_219:\n        /* \"#utility.yul\":6119:6125   */\n      0x00\n        /* \"#utility.yul\":6152:6154   */\n      0x40\n        /* \"#utility.yul\":6146:6155   */\n      mload\n        /* \"#utility.yul\":6136:6155   */\n      swap1\n      pop\n        /* \"#utility.yul\":6086:6161   */\n      swap1\n      jump\t// out\n        /* \"#utility.yul\":6167:6475   */\n    tag_138:\n        /* \"#utility.yul\":6229:6233   */\n      0x00\n        /* \"#utility.yul\":6319:6337   */\n      0xffffffffffffffff\n        /* \"#utility.yul\":6311:6317   */\n      dup3\n        /* \"#utility.yul\":6308:6338   */\n      gt\n        /* \"#utility.yul\":6305:6361   */\n      iszero\n      tag_224\n      jumpi\n        /* \"#utility.yul\":6341:6359   */\n      tag_225\n      tag_94\n      jump\t// in\n    tag_225:\n        /* \"#utility.yul\":6305:6361   */\n    tag_224:\n        /* \"#utility.yul\":6379:6408   */\n      tag_226\n        /* \"#utility.yul\":6401:6407   */\n      dup3\n        /* \"#utility.yul\":6379:6408   */\n      tag_190\n      jump\t// in\n    tag_226:\n        /* \"#utility.yul\":6371:6408   */\n      swap1\n      pop\n        /* \"#utility.yul\":6463:6467   */\n      0x20\n        /* \"#utility.yul\":6457:6461   */\n      dup2\n        /* \"#utility.yul\":6453:6468   */\n      add\n        /* \"#utility.yul\":6445:6468   */\n      swap1\n      pop\n        /* \"#utility.yul\":6167:6475   */\n      swap2\n      swap1\n      pop\n      jump\t// out\n        /* \"#utility.yul\":6481:6622   */\n    tag_205:\n        /* \"#utility.yul\":6530:6534   */\n      0x00\n        /* \"#utility.yul\":6553:6556   */\n      dup2\n        /* \"#utility.yul\":6545:6556   */\n      swap1\n      pop\n        /* \"#utility.yul\":6576:6579   */\n      dup2\n        /* \"#utility.yul\":6573:6574   */\n      0x00\n        /* \"#utility.yul\":6566:6580   */\n      mstore\n        /* \"#utility.yul\":6610:6614   */\n      0x20\n        /* \"#utility.yul\":6607:6608   */\n      0x00\n        /* \"#utility.yul\":6597:6615   */\n      keccak256\n        /* \"#utility.yul\":6589:6615   */\n      swap1\n      pop\n        /* \"#utility.yul\":6481:6622   */\n      swap2\n      swap1\n      pop\n      jump\t// out\n        /* \"#utility.yul\":6628:6727   */\n    tag_184:\n        /* \"#utility.yul\":6680:6686   */\n      0x00\n        /* \"#utility.yul\":6714:6719   */\n      dup2\n        /* \"#utility.yul\":6708:6720   */\n      mload\n        /* \"#utility.yul\":6698:6720   */\n      swap1\n      pop\n        /* \"#utility.yul\":6628:6727   */\n      swap2\n      swap1\n      pop\n      jump\t// out\n        /* \"#utility.yul\":6733:6902   */\n    tag_186:\n        /* \"#utility.yul\":6817:6828   */\n      0x00\n        /* \"#utility.yul\":6851:6857   */\n      dup3\n        /* \"#utility.yul\":6846:6849   */\n      dup3\n        /* \"#utility.yul\":6839:6858   */\n      mstore\n        /* \"#utility.yul\":6891:6895   */\n      0x20\n        /* \"#utility.yul\":6886:6889   */\n      dup3\n        /* \"#utility.yul\":6882:6896   */\n      add\n        /* \"#utility.yul\":6867:6896   */\n      swap1\n      pop\n        /* \"#utility.yul\":6733:6902   */\n      swap3\n      swap2\n      pop\n      pop\n      jump\t// out\n        /* \"#utility.yul\":6908:7056   */\n    tag_195:\n        /* \"#utility.yul\":7010:7021   */\n      0x00\n        /* \"#utility.yul\":7047:7050   */\n      dup2\n        /* \"#utility.yul\":7032:7050   */\n      swap1\n      pop\n        /* \"#utility.yul\":6908:7056   */\n      swap3\n      swap2\n      pop\n      pop\n      jump\t// out\n        /* \"#utility.yul\":7062:7152   */\n    tag_180:\n        /* \"#utility.yul\":7096:7103   */\n      0x00\n        /* \"#utility.yul\":7139:7144   */\n      dup2\n        /* \"#utility.yul\":7132:7145   */\n      iszero\n        /* \"#utility.yul\":7125:7146   */\n      iszero\n        /* \"#utility.yul\":7114:7146   */\n      swap1\n      pop\n        /* \"#utility.yul\":7062:7152   */\n      swap2\n      swap1\n      pop\n      jump\t// out\n        /* \"#utility.yul\":7158:7312   */\n    tag_144:\n        /* \"#utility.yul\":7242:7248   */\n      dup3\n        /* \"#utility.yul\":7237:7240   */\n      dup2\n        /* \"#utility.yul\":7232:7235   */\n      dup4\n        /* \"#utility.yul\":7219:7249   */\n      calldatacopy\n        /* \"#utility.yul\":7304:7305   */\n      0x00\n        /* \"#utility.yul\":7295:7301   */\n      dup4\n        /* \"#utility.yul\":7290:7293   */\n      dup4\n        /* \"#utility.yul\":7286:7302   */\n      add\n        /* \"#utility.yul\":7279:7306   */\n      mstore\n        /* \"#utility.yul\":7158:7312   */\n      pop\n      pop\n      pop\n      jump\t// out\n        /* \"#utility.yul\":7318:7625   */\n    tag_188:\n        /* \"#utility.yul\":7386:7387   */\n      0x00\n        /* \"#utility.yul\":7396:7509   */\n    tag_234:\n        /* \"#utility.yul\":7410:7416   */\n      dup4\n        /* \"#utility.yul\":7407:7408   */\n      dup2\n        /* \"#utility.yul\":7404:7417   */\n      lt\n        /* \"#utility.yul\":7396:7509   */\n      iszero\n      tag_236\n      jumpi\n        /* \"#utility.yul\":7495:7496   */\n      dup1\n        /* \"#utility.yul\":7490:7493   */\n      dup3\n        /* \"#utility.yul\":7486:7497   */\n      add\n        /* \"#utility.yul\":7480:7498   */\n      mload\n        /* \"#utility.yul\":7476:7477   */\n      dup2\n        /* \"#utility.yul\":7471:7474   */\n      dup5\n        /* \"#utility.yul\":7467:7478   */\n      add\n        /* \"#utility.yul\":7460:7499   */\n      mstore\n        /* \"#utility.yul\":7432:7434   */\n      0x20\n        /* \"#utility.yul\":7429:7430   */\n      dup2\n        /* \"#utility.yul\":7425:7435   */\n      add\n        /* \"#utility.yul\":7420:7435   */\n      swap1\n      pop\n        /* \"#utility.yul\":7396:7509   */\n      jump(tag_234)\n    tag_236:\n        /* \"#utility.yul\":7527:7533   */\n      dup4\n        /* \"#utility.yul\":7524:7525   */\n      dup2\n        /* \"#utility.yul\":7521:7534   */\n      gt\n        /* \"#utility.yul\":7518:7619   */\n      iszero\n      tag_237\n      jumpi\n        /* \"#utility.yul\":7607:7608   */\n      0x00\n        /* \"#utility.yul\":7598:7604   */\n      dup5\n        /* \"#utility.yul\":7593:7596   */\n      dup5\n        /* \"#utility.yul\":7589:7605   */\n      add\n        /* \"#utility.yul\":7582:7609   */\n      mstore\n        /* \"#utility.yul\":7518:7619   */\n    tag_237:\n        /* \"#utility.yul\":7367:7625   */\n      pop\n        /* \"#utility.yul\":7318:7625   */\n      pop\n      pop\n      pop\n      jump\t// out\n        /* \"#utility.yul\":7631:7951   */\n    tag_43:\n        /* \"#utility.yul\":7675:7681   */\n      0x00\n        /* \"#utility.yul\":7712:7713   */\n      0x02\n        /* \"#utility.yul\":7706:7710   */\n      dup3\n        /* \"#utility.yul\":7702:7714   */\n      div\n        /* \"#utility.yul\":7692:7714   */\n      swap1\n      pop\n        /* \"#utility.yul\":7759:7760   */\n      0x01\n        /* \"#utility.yul\":7753:7757   */\n      dup3\n        /* \"#utility.yul\":7749:7761   */\n      and\n        /* \"#utility.yul\":7780:7798   */\n      dup1\n        /* \"#utility.yul\":7770:7851   */\n      tag_239\n      jumpi\n        /* \"#utility.yul\":7836:7840   */\n      0x7f\n        /* \"#utility.yul\":7828:7834   */\n      dup3\n        /* \"#utility.yul\":7824:7841   */\n      and\n        /* \"#utility.yul\":7814:7841   */\n      swap2\n      pop\n        /* \"#utility.yul\":7770:7851   */\n    tag_239:\n        /* \"#utility.yul\":7898:7900   */\n      0x20\n        /* \"#utility.yul\":7890:7896   */\n      dup3\n        /* \"#utility.yul\":7887:7901   */\n      lt\n        /* \"#utility.yul\":7867:7885   */\n      dup2\n        /* \"#utility.yul\":7864:7902   */\n      eq\n        /* \"#utility.yul\":7861:7945   */\n      iszero\n      tag_240\n      jumpi\n        /* \"#utility.yul\":7917:7935   */\n      tag_241\n      tag_242\n      jump\t// in\n    tag_241:\n        /* \"#utility.yul\":7861:7945   */\n    tag_240:\n        /* \"#utility.yul\":7682:7951   */\n      pop\n        /* \"#utility.yul\":7631:7951   */\n      swap2\n      swap1\n      pop\n      jump\t// out\n        /* \"#utility.yul\":7957:8238   */\n    tag_221:\n        /* \"#utility.yul\":8040:8067   */\n      tag_244\n        /* \"#utility.yul\":8062:8066   */\n      dup3\n        /* \"#utility.yul\":8040:8067   */\n      tag_190\n      jump\t// in\n    tag_244:\n        /* \"#utility.yul\":8032:8038   */\n      dup2\n        /* \"#utility.yul\":8028:8068   */\n      add\n        /* \"#utility.yul\":8170:8176   */\n      dup2\n        /* \"#utility.yul\":8158:8168   */\n      dup2\n        /* \"#utility.yul\":8155:8177   */\n      lt\n        /* \"#utility.yul\":8134:8152   */\n      0xffffffffffffffff\n        /* \"#utility.yul\":8122:8132   */\n      dup3\n        /* \"#utility.yul\":8119:8153   */\n      gt\n        /* \"#utility.yul\":8116:8178   */\n      or\n        /* \"#utility.yul\":8113:8201   */\n      iszero\n      tag_245\n      jumpi\n        /* \"#utility.yul\":8181:8199   */\n      tag_246\n      tag_94\n      jump\t// in\n    tag_246:\n        /* \"#utility.yul\":8113:8201   */\n    tag_245:\n        /* \"#utility.yul\":8221:8231   */\n      dup1\n        /* \"#utility.yul\":8217:8219   */\n      0x40\n        /* \"#utility.yul\":8210:8232   */\n      mstore\n        /* \"#utility.yul\":8000:8238   */\n      pop\n        /* \"#utility.yul\":7957:8238   */\n      pop\n      pop\n      jump\t// out\n        /* \"#utility.yul\":8244:8424   */\n    tag_100:\n        /* \"#utility.yul\":8292:8369   */\n      0x4e487b7100000000000000000000000000000000000000000000000000000000\n        /* \"#utility.yul\":8289:8290   */\n      0x00\n        /* \"#utility.yul\":8282:8370   */\n      mstore\n        /* \"#utility.yul\":8389:8393   */\n      0x12\n        /* \"#utility.yul\":8386:8387   */\n      0x04\n        /* \"#utility.yul\":8379:8394   */\n      mstore\n        /* \"#utility.yul\":8413:8417   */\n      0x24\n        /* \"#utility.yul\":8410:8411   */\n      0x00\n        /* \"#utility.yul\":8403:8418   */\n      revert\n        /* \"#utility.yul\":8430:8610   */\n    tag_242:\n        /* \"#utility.yul\":8478:8555   */\n      0x4e487b7100000000000000000000000000000000000000000000000000000000\n        /* \"#utility.yul\":8475:8476   */\n      0x00\n        /* \"#utility.yul\":8468:8556   */\n      mstore\n        /* \"#utility.yul\":8575:8579   */\n      0x22\n        /* \"#utility.yul\":8572:8573   */\n      0x04\n        /* \"#utility.yul\":8565:8580   */\n      mstore\n        /* \"#utility.yul\":8599:8603   */\n      0x24\n        /* \"#utility.yul\":8596:8597   */\n      0x00\n        /* \"#utility.yul\":8589:8604   */\n      revert\n        /* \"#utility.yul\":8616:8796   */\n    tag_94:\n        /* \"#utility.yul\":8664:8741   */\n      0x4e487b7100000000000000000000000000000000000000000000000000000000\n        /* \"#utility.yul\":8661:8662   */\n      0x00\n        /* \"#utility.yul\":8654:8742   */\n      mstore\n        /* \"#utility.yul\":8761:8765   */\n      0x41\n        /* \"#utility.yul\":8758:8759   */\n      0x04\n        /* \"#utility.yul\":8751:8766   */\n      mstore\n        /* \"#utility.yul\":8785:8789   */\n      0x24\n        /* \"#utility.yul\":8782:8783   */\n      0x00\n        /* \"#utility.yul\":8775:8790   */\n      revert\n        /* \"#utility.yul\":8802:8919   */\n    tag_149:\n        /* \"#utility.yul\":8911:8912   */\n      0x00\n        /* \"#utility.yul\":8908:8909   */\n      dup1\n        /* \"#utility.yul\":8901:8913   */\n      revert\n        /* \"#utility.yul\":8925:9042   */\n    tag_142:\n        /* \"#utility.yul\":9034:9035   */\n      0x00\n        /* \"#utility.yul\":9031:9032   */\n      dup1\n        /* \"#utility.yul\":9024:9036   */\n      revert\n        /* \"#utility.yul\":9048:9165   */\n    tag_157:\n        /* \"#utility.yul\":9157:9158   */\n      0x00\n        /* \"#utility.yul\":9154:9155   */\n      dup1\n        /* \"#utility.yul\":9147:9159   */\n      revert\n        /* \"#utility.yul\":9171:9288   */\n    tag_154:\n        /* \"#utility.yul\":9280:9281   */\n      0x00\n        /* \"#utility.yul\":9277:9278   */\n      dup1\n        /* \"#utility.yul\":9270:9282   */\n      revert\n        /* \"#utility.yul\":9294:9396   */\n    tag_190:\n        /* \"#utility.yul\":9335:9341   */\n      0x00\n        /* \"#utility.yul\":9386:9388   */\n      0x1f\n        /* \"#utility.yul\":9382:9389   */\n      not\n        /* \"#utility.yul\":9377:9379   */\n      0x1f\n        /* \"#utility.yul\":9370:9375   */\n      dup4\n        /* \"#utility.yul\":9366:9380   */\n      add\n        /* \"#utility.yul\":9362:9390   */\n      and\n        /* \"#utility.yul\":9352:9390   */\n      swap1\n      pop\n        /* \"#utility.yul\":9294:9396   */\n      swap2\n      swap1\n      pop\n      jump\t// out\n\n    auxdata: 0xa26469706673582212208648171f2d5576c783f3fefdc7349f768ae258afba1969f16631d582ce20835564736f6c63430008070033\n}\n",
				"bytecode": {
					"linkReferences": {},
					"object": "608060405234801561001057600080fd5b50610d7e806100206000396000f3fe608060405234801561001057600080fd5b50600436106100885760003560e01c8063ced7142c1161005b578063ced7142c14610117578063d1d5400d14610135578063d43cf41614610153578063e12d7db41461016f57610088565b80631ba7b1f71461008d57806322e5ba7c146100ab578063a8515f8e146100c9578063ca3740de146100f9575b600080fd5b61009561018d565b6040516100a29190610b31565b60405180910390f35b6100b361021f565b6040516100c09190610b31565b60405180910390f35b6100e360048036038101906100de91906108a0565b6102b1565b6040516100f09190610b16565b60405180910390f35b61010161030a565b60405161010e9190610b31565b60405180910390f35b61011f61039c565b60405161012c9190610b31565b60405180910390f35b61013d6103ae565b60405161014a9190610b31565b60405180910390f35b61016d600480360381019061016891906108e9565b610440565b005b6101776104c8565b6040516101849190610b31565b60405180910390f35b60606002805461019c90610c33565b80601f01602080910402602001604051908101604052809291908181526020018280546101c890610c33565b80156102155780601f106101ea57610100808354040283529160200191610215565b820191906000526020600020905b8154815290600101906020018083116101f857829003601f168201915b5050505050905090565b60606003805461022e90610c33565b80601f016020809104026020016040519081016040528092919081815260200182805461025a90610c33565b80156102a75780601f1061027c576101008083540402835291602001916102a7565b820191906000526020600020905b81548152906001019060200180831161028a57829003601f168201915b5050505050905090565b600060046040516020016102c59190610aff565b60405160208183030381529060405280519060200120826040516020016102ec9190610ae8565b60405160208183030381529060405280519060200120149050919050565b60606001805461031990610c33565b80601f016020809104026020016040519081016040528092919081815260200182805461034590610c33565b80156103925780601f1061036757610100808354040283529160200191610392565b820191906000526020600020905b81548152906001019060200180831161037557829003601f168201915b5050505050905090565b60606103a960055461055a565b905090565b6060600080546103bd90610c33565b80601f01602080910402602001604051908101604052809291908181526020018280546103e990610c33565b80156104365780601f1061040b57610100808354040283529160200191610436565b820191906000526020600020905b81548152906001019060200180831161041957829003601f168201915b5050505050905090565b846000908051906020019061045692919061078d565b50836001908051906020019061046d92919061078d565b50826002908051906020019061048492919061078d565b50816003908051906020019061049b92919061078d565b5080600490805190602001906104b292919061078d565b506104bb610632565b6005819055505050505050565b6060600480546104d790610c33565b80601f016020809104026020016040519081016040528092919081815260200182805461050390610c33565b80156105505780601f1061052557610100808354040283529160200191610550565b820191906000526020600020905b81548152906001019060200180831161053357829003601f168201915b5050505050905090565b6060600060016105698461063a565b01905060008167ffffffffffffffff81111561058857610587610cf4565b5b6040519080825280601f01601f1916602001820160405280156105ba5781602001600182028036833780820191505090505b509050600082602001820190505b600115610627578080600190039150507f3031323334353637383961626364656600000000000000000000000000000000600a86061a8153600a858161061157610610610c96565b5b049450600085141561062257610627565b6105c8565b819350505050919050565b600042905090565b600080600090507a184f03e93ff9f4daa797ed6e38ed64bf6a1f0100000000000000008310610698577a184f03e93ff9f4daa797ed6e38ed64bf6a1f010000000000000000838161068e5761068d610c96565b5b0492506040810190505b6d04ee2d6d415b85acef810000000083106106d5576d04ee2d6d415b85acef810000000083816106cb576106ca610c96565b5b0492506020810190505b662386f26fc10000831061070457662386f26fc1000083816106fa576106f9610c96565b5b0492506010810190505b6305f5e100831061072d576305f5e100838161072357610722610c96565b5b0492506008810190505b612710831061075257612710838161074857610747610c96565b5b0492506004810190505b60648310610775576064838161076b5761076a610c96565b5b0492506002810190505b600a8310610784576001810190505b80915050919050565b82805461079990610c33565b90600052602060002090601f0160209004810192826107bb5760008555610802565b82601f106107d457805160ff1916838001178555610802565b82800160010185558215610802579182015b828111156108015782518255916020019190600101906107e6565b5b50905061080f9190610813565b5090565b5b8082111561082c576000816000905550600101610814565b5090565b600061084361083e84610b78565b610b53565b90508281526020810184848401111561085f5761085e610d28565b5b61086a848285610bf1565b509392505050565b600082601f83011261088757610886610d23565b5b8135610897848260208601610830565b91505092915050565b6000602082840312156108b6576108b5610d32565b5b600082013567ffffffffffffffff8111156108d4576108d3610d2d565b5b6108e084828501610872565b91505092915050565b600080600080600060a0868803121561090557610904610d32565b5b600086013567ffffffffffffffff81111561092357610922610d2d565b5b61092f88828901610872565b955050602086013567ffffffffffffffff8111156109505761094f610d2d565b5b61095c88828901610872565b945050604086013567ffffffffffffffff81111561097d5761097c610d2d565b5b61098988828901610872565b935050606086013567ffffffffffffffff8111156109aa576109a9610d2d565b5b6109b688828901610872565b925050608086013567ffffffffffffffff8111156109d7576109d6610d2d565b5b6109e388828901610872565b9150509295509295909350565b6109f981610be5565b82525050565b6000610a0a82610bbe565b610a148185610bc9565b9350610a24818560208601610c00565b610a2d81610d37565b840191505092915050565b6000610a4382610bbe565b610a4d8185610bda565b9350610a5d818560208601610c00565b80840191505092915050565b60008154610a7681610c33565b610a808186610bda565b94506001821660008114610a9b5760018114610aac57610adf565b60ff19831686528186019350610adf565b610ab585610ba9565b60005b83811015610ad757815481890152600182019150602081019050610ab8565b838801955050505b50505092915050565b6000610af48284610a38565b915081905092915050565b6000610b0b8284610a69565b915081905092915050565b6000602082019050610b2b60008301846109f0565b92915050565b60006020820190508181036000830152610b4b81846109ff565b905092915050565b6000610b5d610b6e565b9050610b698282610c65565b919050565b6000604051905090565b600067ffffffffffffffff821115610b9357610b92610cf4565b5b610b9c82610d37565b9050602081019050919050565b60008190508160005260206000209050919050565b600081519050919050565b600082825260208201905092915050565b600081905092915050565b60008115159050919050565b82818337600083830152505050565b60005b83811015610c1e578082015181840152602081019050610c03565b83811115610c2d576000848401525b50505050565b60006002820490506001821680610c4b57607f821691505b60208210811415610c5f57610c5e610cc5565b5b50919050565b610c6e82610d37565b810181811067ffffffffffffffff82111715610c8d57610c8c610cf4565b5b80604052505050565b7f4e487b7100000000000000000000000000000000000000000000000000000000600052601260045260246000fd5b7f4e487b7100000000000000000000000000000000000000000000000000000000600052602260045260246000fd5b7f4e487b7100000000000000000000000000000000000000000000000000000000600052604160045260246000fd5b600080fd5b600080fd5b600080fd5b600080fd5b6000601f19601f830116905091905056fea26469706673582212208648171f2d5576c783f3fefdc7349f768ae258afba1969f16631d582ce20835564736f6c63430008070033",
					"opcodes": "PUSH1 0x80 PUSH1 0x40 MSTORE CALLVALUE DUP1 ISZERO PUSH2 0x10 JUMPI PUSH1 0x0 DUP1 REVERT JUMPDEST POP PUSH2 0xD7E DUP1 PUSH2 0x20 PUSH1 0x0 CODECOPY PUSH1 0x0 RETURN INVALID PUSH1 0x80 PUSH1 0x40 MSTORE CALLVALUE DUP1 ISZERO PUSH2 0x10 JUMPI PUSH1 0x0 DUP1 REVERT JUMPDEST POP PUSH1 0x4 CALLDATASIZE LT PUSH2 0x88 JUMPI PUSH1 0x0 CALLDATALOAD PUSH1 0xE0 SHR DUP1 PUSH4 0xCED7142C GT PUSH2 0x5B JUMPI DUP1 PUSH4 0xCED7142C EQ PUSH2 0x117 JUMPI DUP1 PUSH4 0xD1D5400D EQ PUSH2 0x135 JUMPI DUP1 PUSH4 0xD43CF416 EQ PUSH2 0x153 JUMPI DUP1 PUSH4 0xE12D7DB4 EQ PUSH2 0x16F JUMPI PUSH2 0x88 JUMP JUMPDEST DUP1 PUSH4 0x1BA7B1F7 EQ PUSH2 0x8D JUMPI DUP1 PUSH4 0x22E5BA7C EQ PUSH2 0xAB JUMPI DUP1 PUSH4 0xA8515F8E EQ PUSH2 0xC9 JUMPI DUP1 PUSH4 0xCA3740DE EQ PUSH2 0xF9 JUMPI JUMPDEST PUSH1 0x0 DUP1 REVERT JUMPDEST PUSH2 0x95 PUSH2 0x18D JUMP JUMPDEST PUSH1 0x40 MLOAD PUSH2 0xA2 SWAP2 SWAP1 PUSH2 0xB31 JUMP JUMPDEST PUSH1 0x40 MLOAD DUP1 SWAP2 SUB SWAP1 RETURN JUMPDEST PUSH2 0xB3 PUSH2 0x21F JUMP JUMPDEST PUSH1 0x40 MLOAD PUSH2 0xC0 SWAP2 SWAP1 PUSH2 0xB31 JUMP JUMPDEST PUSH1 0x40 MLOAD DUP1 SWAP2 SUB SWAP1 RETURN JUMPDEST PUSH2 0xE3 PUSH1 0x4 DUP1 CALLDATASIZE SUB DUP2 ADD SWAP1 PUSH2 0xDE SWAP2 SWAP1 PUSH2 0x8A0 JUMP JUMPDEST PUSH2 0x2B1 JUMP JUMPDEST PUSH1 0x40 MLOAD PUSH2 0xF0 SWAP2 SWAP1 PUSH2 0xB16 JUMP JUMPDEST PUSH1 0x40 MLOAD DUP1 SWAP2 SUB SWAP1 RETURN JUMPDEST PUSH2 0x101 PUSH2 0x30A JUMP JUMPDEST PUSH1 0x40 MLOAD PUSH2 0x10E SWAP2 SWAP1 PUSH2 0xB31 JUMP JUMPDEST PUSH1 0x40 MLOAD DUP1 SWAP2 SUB SWAP1 RETURN JUMPDEST PUSH2 0x11F PUSH2 0x39C JUMP JUMPDEST PUSH1 0x40 MLOAD PUSH2 0x12C SWAP2 SWAP1 PUSH2 0xB31 JUMP JUMPDEST PUSH1 0x40 MLOAD DUP1 SWAP2 SUB SWAP1 RETURN JUMPDEST PUSH2 0x13D PUSH2 0x3AE JUMP JUMPDEST PUSH1 0x40 MLOAD PUSH2 0x14A SWAP2 SWAP1 PUSH2 0xB31 JUMP JUMPDEST PUSH1 0x40 MLOAD DUP1 SWAP2 SUB SWAP1 RETURN JUMPDEST PUSH2 0x16D PUSH1 0x4 DUP1 CALLDATASIZE SUB DUP2 ADD SWAP1 PUSH2 0x168 SWAP2 SWAP1 PUSH2 0x8E9 JUMP JUMPDEST PUSH2 0x440 JUMP JUMPDEST STOP JUMPDEST PUSH2 0x177 PUSH2 0x4C8 JUMP JUMPDEST PUSH1 0x40 MLOAD PUSH2 0x184 SWAP2 SWAP1 PUSH2 0xB31 JUMP JUMPDEST PUSH1 0x40 MLOAD DUP1 SWAP2 SUB SWAP1 RETURN JUMPDEST PUSH1 0x60 PUSH1 0x2 DUP1 SLOAD PUSH2 0x19C SWAP1 PUSH2 0xC33 JUMP JUMPDEST DUP1 PUSH1 0x1F ADD PUSH1 0x20 DUP1 SWAP2 DIV MUL PUSH1 0x20 ADD PUSH1 0x40 MLOAD SWAP1 DUP2 ADD PUSH1 0x40 MSTORE DUP1 SWAP3 SWAP2 SWAP1 DUP2 DUP2 MSTORE PUSH1 0x20 ADD DUP3 DUP1 SLOAD PUSH2 0x1C8 SWAP1 PUSH2 0xC33 JUMP JUMPDEST DUP1 ISZERO PUSH2 0x215 JUMPI DUP1 PUSH1 0x1F LT PUSH2 0x1EA JUMPI PUSH2 0x100 DUP1 DUP4 SLOAD DIV MUL DUP4 MSTORE SWAP2 PUSH1 0x20 ADD SWAP2 PUSH2 0x215 JUMP JUMPDEST DUP3 ADD SWAP2 SWAP1 PUSH1 0x0 MSTORE PUSH1 0x20 PUSH1 0x0 KECCAK256 SWAP1 JUMPDEST DUP2 SLOAD DUP2 MSTORE SWAP1 PUSH1 0x1 ADD SWAP1 PUSH1 0x20 ADD DUP1 DUP4 GT PUSH2 0x1F8 JUMPI DUP3 SWAP1 SUB PUSH1 0x1F AND DUP3 ADD SWAP2 JUMPDEST POP POP POP POP POP SWAP1 POP SWAP1 JUMP JUMPDEST PUSH1 0x60 PUSH1 0x3 DUP1 SLOAD PUSH2 0x22E SWAP1 PUSH2 0xC33 JUMP JUMPDEST DUP1 PUSH1 0x1F ADD PUSH1 0x20 DUP1 SWAP2 DIV MUL PUSH1 0x20 ADD PUSH1 0x40 MLOAD SWAP1 DUP2 ADD PUSH1 0x40 MSTORE DUP1 SWAP3 SWAP2 SWAP1 DUP2 DUP2 MSTORE PUSH1 0x20 ADD DUP3 DUP1 SLOAD PUSH2 0x25A SWAP1 PUSH2 0xC33 JUMP JUMPDEST DUP1 ISZERO PUSH2 0x2A7 JUMPI DUP1 PUSH1 0x1F LT PUSH2 0x27C JUMPI PUSH2 0x100 DUP1 DUP4 SLOAD DIV MUL DUP4 MSTORE SWAP2 PUSH1 0x20 ADD SWAP2 PUSH2 0x2A7 JUMP JUMPDEST DUP3 ADD SWAP2 SWAP1 PUSH1 0x0 MSTORE PUSH1 0x20 PUSH1 0x0 KECCAK256 SWAP1 JUMPDEST DUP2 SLOAD DUP2 MSTORE SWAP1 PUSH1 0x1 ADD SWAP1 PUSH1 0x20 ADD DUP1 DUP4 GT PUSH2 0x28A JUMPI DUP3 SWAP1 SUB PUSH1 0x1F AND DUP3 ADD SWAP2 JUMPDEST POP POP POP POP POP SWAP1 POP SWAP1 JUMP JUMPDEST PUSH1 0x0 PUSH1 0x4 PUSH1 0x40 MLOAD PUSH1 0x20 ADD PUSH2 0x2C5 SWAP2 SWAP1 PUSH2 0xAFF JUMP JUMPDEST PUSH1 0x40 MLOAD PUSH1 0x20 DUP2 DUP4 SUB SUB DUP2 MSTORE SWAP1 PUSH1 0x40 MSTORE DUP1 MLOAD SWAP1 PUSH1 0x20 ADD KECCAK256 DUP3 PUSH1 0x40 MLOAD PUSH1 0x20 ADD PUSH2 0x2EC SWAP2 SWAP1 PUSH2 0xAE8 JUMP JUMPDEST PUSH1 0x40 MLOAD PUSH1 0x20 DUP2 DUP4 SUB SUB DUP2 MSTORE SWAP1 PUSH1 0x40 MSTORE DUP1 MLOAD SWAP1 PUSH1 0x20 ADD KECCAK256 EQ SWAP1 POP SWAP2 SWAP1 POP JUMP JUMPDEST PUSH1 0x60 PUSH1 0x1 DUP1 SLOAD PUSH2 0x319 SWAP1 PUSH2 0xC33 JUMP JUMPDEST DUP1 PUSH1 0x1F ADD PUSH1 0x20 DUP1 SWAP2 DIV MUL PUSH1 0x20 ADD PUSH1 0x40 MLOAD SWAP1 DUP2 ADD PUSH1 0x40 MSTORE DUP1 SWAP3 SWAP2 SWAP1 DUP2 DUP2 MSTORE PUSH1 0x20 ADD DUP3 DUP1 SLOAD PUSH2 0x345 SWAP1 PUSH2 0xC33 JUMP JUMPDEST DUP1 ISZERO PUSH2 0x392 JUMPI DUP1 PUSH1 0x1F LT PUSH2 0x367 JUMPI PUSH2 0x100 DUP1 DUP4 SLOAD DIV MUL DUP4 MSTORE SWAP2 PUSH1 0x20 ADD SWAP2 PUSH2 0x392 JUMP JUMPDEST DUP3 ADD SWAP2 SWAP1 PUSH1 0x0 MSTORE PUSH1 0x20 PUSH1 0x0 KECCAK256 SWAP1 JUMPDEST DUP2 SLOAD DUP2 MSTORE SWAP1 PUSH1 0x1 ADD SWAP1 PUSH1 0x20 ADD DUP1 DUP4 GT PUSH2 0x375 JUMPI DUP3 SWAP1 SUB PUSH1 0x1F AND DUP3 ADD SWAP2 JUMPDEST POP POP POP POP POP SWAP1 POP SWAP1 JUMP JUMPDEST PUSH1 0x60 PUSH2 0x3A9 PUSH1 0x5 SLOAD PUSH2 0x55A JUMP JUMPDEST SWAP1 POP SWAP1 JUMP JUMPDEST PUSH1 0x60 PUSH1 0x0 DUP1 SLOAD PUSH2 0x3BD SWAP1 PUSH2 0xC33 JUMP JUMPDEST DUP1 PUSH1 0x1F ADD PUSH1 0x20 DUP1 SWAP2 DIV MUL PUSH1 0x20 ADD PUSH1 0x40 MLOAD SWAP1 DUP2 ADD PUSH1 0x40 MSTORE DUP1 SWAP3 SWAP2 SWAP1 DUP2 DUP2 MSTORE PUSH1 0x20 ADD DUP3 DUP1 SLOAD PUSH2 0x3E9 SWAP1 PUSH2 0xC33 JUMP JUMPDEST DUP1 ISZERO PUSH2 0x436 JUMPI DUP1 PUSH1 0x1F LT PUSH2 0x40B JUMPI PUSH2 0x100 DUP1 DUP4 SLOAD DIV MUL DUP4 MSTORE SWAP2 PUSH1 0x20 ADD SWAP2 PUSH2 0x436 JUMP JUMPDEST DUP3 ADD SWAP2 SWAP1 PUSH1 0x0 MSTORE PUSH1 0x20 PUSH1 0x0 KECCAK256 SWAP1 JUMPDEST DUP2 SLOAD DUP2 MSTORE SWAP1 PUSH1 0x1 ADD SWAP1 PUSH1 0x20 ADD DUP1 DUP4 GT PUSH2 0x419 JUMPI DUP3 SWAP1 SUB PUSH1 0x1F AND DUP3 ADD SWAP2 JUMPDEST POP POP POP POP POP SWAP1 POP SWAP1 JUMP JUMPDEST DUP5 PUSH1 0x0 SWAP1 DUP1 MLOAD SWAP1 PUSH1 0x20 ADD SWAP1 PUSH2 0x456 SWAP3 SWAP2 SWAP1 PUSH2 0x78D JUMP JUMPDEST POP DUP4 PUSH1 0x1 SWAP1 DUP1 MLOAD SWAP1 PUSH1 0x20 ADD SWAP1 PUSH2 0x46D SWAP3 SWAP2 SWAP1 PUSH2 0x78D JUMP JUMPDEST POP DUP3 PUSH1 0x2 SWAP1 DUP1 MLOAD SWAP1 PUSH1 0x20 ADD SWAP1 PUSH2 0x484 SWAP3 SWAP2 SWAP1 PUSH2 0x78D JUMP JUMPDEST POP DUP2 PUSH1 0x3 SWAP1 DUP1 MLOAD SWAP1 PUSH1 0x20 ADD SWAP1 PUSH2 0x49B SWAP3 SWAP2 SWAP1 PUSH2 0x78D JUMP JUMPDEST POP DUP1 PUSH1 0x4 SWAP1 DUP1 MLOAD SWAP1 PUSH1 0x20 ADD SWAP1 PUSH2 0x4B2 SWAP3 SWAP2 SWAP1 PUSH2 0x78D JUMP JUMPDEST POP PUSH2 0x4BB PUSH2 0x632 JUMP JUMPDEST PUSH1 0x5 DUP2 SWAP1 SSTORE POP POP POP POP POP POP JUMP JUMPDEST PUSH1 0x60 PUSH1 0x4 DUP1 SLOAD PUSH2 0x4D7 SWAP1 PUSH2 0xC33 JUMP JUMPDEST DUP1 PUSH1 0x1F ADD PUSH1 0x20 DUP1 SWAP2 DIV MUL PUSH1 0x20 ADD PUSH1 0x40 MLOAD SWAP1 DUP2 ADD PUSH1 0x40 MSTORE DUP1 SWAP3 SWAP2 SWAP1 DUP2 DUP2 MSTORE PUSH1 0x20 ADD DUP3 DUP1 SLOAD PUSH2 0x503 SWAP1 PUSH2 0xC33 JUMP JUMPDEST DUP1 ISZERO PUSH2 0x550 JUMPI DUP1 PUSH1 0x1F LT PUSH2 0x525 JUMPI PUSH2 0x100 DUP1 DUP4 SLOAD DIV MUL DUP4 MSTORE SWAP2 PUSH1 0x20 ADD SWAP2 PUSH2 0x550 JUMP JUMPDEST DUP3 ADD SWAP2 SWAP1 PUSH1 0x0 MSTORE PUSH1 0x20 PUSH1 0x0 KECCAK256 SWAP1 JUMPDEST DUP2 SLOAD DUP2 MSTORE SWAP1 PUSH1 0x1 ADD SWAP1 PUSH1 0x20 ADD DUP1 DUP4 GT PUSH2 0x533 JUMPI DUP3 SWAP1 SUB PUSH1 0x1F AND DUP3 ADD SWAP2 JUMPDEST POP POP POP POP POP SWAP1 POP SWAP1 JUMP JUMPDEST PUSH1 0x60 PUSH1 0x0 PUSH1 0x1 PUSH2 0x569 DUP5 PUSH2 0x63A JUMP JUMPDEST ADD SWAP1 POP PUSH1 0x0 DUP2 PUSH8 0xFFFFFFFFFFFFFFFF DUP2 GT ISZERO PUSH2 0x588 JUMPI PUSH2 0x587 PUSH2 0xCF4 JUMP JUMPDEST JUMPDEST PUSH1 0x40 MLOAD SWAP1 DUP1 DUP3 MSTORE DUP1 PUSH1 0x1F ADD PUSH1 0x1F NOT AND PUSH1 0x20 ADD DUP3 ADD PUSH1 0x40 MSTORE DUP1 ISZERO PUSH2 0x5BA JUMPI DUP2 PUSH1 0x20 ADD PUSH1 0x1 DUP3 MUL DUP1 CALLDATASIZE DUP4 CALLDATACOPY DUP1 DUP3 ADD SWAP2 POP POP SWAP1 POP JUMPDEST POP SWAP1 POP PUSH1 0x0 DUP3 PUSH1 0x20 ADD DUP3 ADD SWAP1 POP JUMPDEST PUSH1 0x1 ISZERO PUSH2 0x627 JUMPI DUP1 DUP1 PUSH1 0x1 SWAP1 SUB SWAP2 POP POP PUSH32 0x3031323334353637383961626364656600000000000000000000000000000000 PUSH1 0xA DUP7 MOD BYTE DUP2 MSTORE8 PUSH1 0xA DUP6 DUP2 PUSH2 0x611 JUMPI PUSH2 0x610 PUSH2 0xC96 JUMP JUMPDEST JUMPDEST DIV SWAP5 POP PUSH1 0x0 DUP6 EQ ISZERO PUSH2 0x622 JUMPI PUSH2 0x627 JUMP JUMPDEST PUSH2 0x5C8 JUMP JUMPDEST DUP2 SWAP4 POP POP POP POP SWAP2 SWAP1 POP JUMP JUMPDEST PUSH1 0x0 TIMESTAMP SWAP1 POP SWAP1 JUMP JUMPDEST PUSH1 0x0 DUP1 PUSH1 0x0 SWAP1 POP PUSH27 0x184F03E93FF9F4DAA797ED6E38ED64BF6A1F010000000000000000 DUP4 LT PUSH2 0x698 JUMPI PUSH27 0x184F03E93FF9F4DAA797ED6E38ED64BF6A1F010000000000000000 DUP4 DUP2 PUSH2 0x68E JUMPI PUSH2 0x68D PUSH2 0xC96 JUMP JUMPDEST JUMPDEST DIV SWAP3 POP PUSH1 0x40 DUP2 ADD SWAP1 POP JUMPDEST PUSH14 0x4EE2D6D415B85ACEF8100000000 DUP4 LT PUSH2 0x6D5 JUMPI PUSH14 0x4EE2D6D415B85ACEF8100000000 DUP4 DUP2 PUSH2 0x6CB JUMPI PUSH2 0x6CA PUSH2 0xC96 JUMP JUMPDEST JUMPDEST DIV SWAP3 POP PUSH1 0x20 DUP2 ADD SWAP1 POP JUMPDEST PUSH7 0x2386F26FC10000 DUP4 LT PUSH2 0x704 JUMPI PUSH7 0x2386F26FC10000 DUP4 DUP2 PUSH2 0x6FA JUMPI PUSH2 0x6F9 PUSH2 0xC96 JUMP JUMPDEST JUMPDEST DIV SWAP3 POP PUSH1 0x10 DUP2 ADD SWAP1 POP JUMPDEST PUSH4 0x5F5E100 DUP4 LT PUSH2 0x72D JUMPI PUSH4 0x5F5E100 DUP4 DUP2 PUSH2 0x723 JUMPI PUSH2 0x722 PUSH2 0xC96 JUMP JUMPDEST JUMPDEST DIV SWAP3 POP PUSH1 0x8 DUP2 ADD SWAP1 POP JUMPDEST PUSH2 0x2710 DUP4 LT PUSH2 0x752 JUMPI PUSH2 0x2710 DUP4 DUP2 PUSH2 0x748 JUMPI PUSH2 0x747 PUSH2 0xC96 JUMP JUMPDEST JUMPDEST DIV SWAP3 POP PUSH1 0x4 DUP2 ADD SWAP1 POP JUMPDEST PUSH1 0x64 DUP4 LT PUSH2 0x775 JUMPI PUSH1 0x64 DUP4 DUP2 PUSH2 0x76B JUMPI PUSH2 0x76A PUSH2 0xC96 JUMP JUMPDEST JUMPDEST DIV SWAP3 POP PUSH1 0x2 DUP2 ADD SWAP1 POP JUMPDEST PUSH1 0xA DUP4 LT PUSH2 0x784 JUMPI PUSH1 0x1 DUP2 ADD SWAP1 POP JUMPDEST DUP1 SWAP2 POP POP SWAP2 SWAP1 POP JUMP JUMPDEST DUP3 DUP1 SLOAD PUSH2 0x799 SWAP1 PUSH2 0xC33 JUMP JUMPDEST SWAP1 PUSH1 0x0 MSTORE PUSH1 0x20 PUSH1 0x0 KECCAK256 SWAP1 PUSH1 0x1F ADD PUSH1 0x20 SWAP1 DIV DUP2 ADD SWAP3 DUP3 PUSH2 0x7BB JUMPI PUSH1 0x0 DUP6 SSTORE PUSH2 0x802 JUMP JUMPDEST DUP3 PUSH1 0x1F LT PUSH2 0x7D4 JUMPI DUP1 MLOAD PUSH1 0xFF NOT AND DUP4 DUP1 ADD OR DUP6 SSTORE PUSH2 0x802 JUMP JUMPDEST DUP3 DUP1 ADD PUSH1 0x1 ADD DUP6 SSTORE DUP3 ISZERO PUSH2 0x802 JUMPI SWAP2 DUP3 ADD JUMPDEST DUP3 DUP2 GT ISZERO PUSH2 0x801 JUMPI DUP3 MLOAD DUP3 SSTORE SWAP2 PUSH1 0x20 ADD SWAP2 SWAP1 PUSH1 0x1 ADD SWAP1 PUSH2 0x7E6 JUMP JUMPDEST JUMPDEST POP SWAP1 POP PUSH2 0x80F SWAP2 SWAP1 PUSH2 0x813 JUMP JUMPDEST POP SWAP1 JUMP JUMPDEST JUMPDEST DUP1 DUP3 GT ISZERO PUSH2 0x82C JUMPI PUSH1 0x0 DUP2 PUSH1 0x0 SWAP1 SSTORE POP PUSH1 0x1 ADD PUSH2 0x814 JUMP JUMPDEST POP SWAP1 JUMP JUMPDEST PUSH1 0x0 PUSH2 0x843 PUSH2 0x83E DUP5 PUSH2 0xB78 JUMP JUMPDEST PUSH2 0xB53 JUMP JUMPDEST SWAP1 POP DUP3 DUP2 MSTORE PUSH1 0x20 DUP2 ADD DUP5 DUP5 DUP5 ADD GT ISZERO PUSH2 0x85F JUMPI PUSH2 0x85E PUSH2 0xD28 JUMP JUMPDEST JUMPDEST PUSH2 0x86A DUP5 DUP3 DUP6 PUSH2 0xBF1 JUMP JUMPDEST POP SWAP4 SWAP3 POP POP POP JUMP JUMPDEST PUSH1 0x0 DUP3 PUSH1 0x1F DUP4 ADD SLT PUSH2 0x887 JUMPI PUSH2 0x886 PUSH2 0xD23 JUMP JUMPDEST JUMPDEST DUP2 CALLDATALOAD PUSH2 0x897 DUP5 DUP3 PUSH1 0x20 DUP7 ADD PUSH2 0x830 JUMP JUMPDEST SWAP2 POP POP SWAP3 SWAP2 POP POP JUMP JUMPDEST PUSH1 0x0 PUSH1 0x20 DUP3 DUP5 SUB SLT ISZERO PUSH2 0x8B6 JUMPI PUSH2 0x8B5 PUSH2 0xD32 JUMP JUMPDEST JUMPDEST PUSH1 0x0 DUP3 ADD CALLDATALOAD PUSH8 0xFFFFFFFFFFFFFFFF DUP2 GT ISZERO PUSH2 0x8D4 JUMPI PUSH2 0x8D3 PUSH2 0xD2D JUMP JUMPDEST JUMPDEST PUSH2 0x8E0 DUP5 DUP3 DUP6 ADD PUSH2 0x872 JUMP JUMPDEST SWAP2 POP POP SWAP3 SWAP2 POP POP JUMP JUMPDEST PUSH1 0x0 DUP1 PUSH1 0x0 DUP1 PUSH1 0x0 PUSH1 0xA0 DUP7 DUP9 SUB SLT ISZERO PUSH2 0x905 JUMPI PUSH2 0x904 PUSH2 0xD32 JUMP JUMPDEST JUMPDEST PUSH1 0x0 DUP7 ADD CALLDATALOAD PUSH8 0xFFFFFFFFFFFFFFFF DUP2 GT ISZERO PUSH2 0x923 JUMPI PUSH2 0x922 PUSH2 0xD2D JUMP JUMPDEST JUMPDEST PUSH2 0x92F DUP9 DUP3 DUP10 ADD PUSH2 0x872 JUMP JUMPDEST SWAP6 POP POP PUSH1 0x20 DUP7 ADD CALLDATALOAD PUSH8 0xFFFFFFFFFFFFFFFF DUP2 GT ISZERO PUSH2 0x950 JUMPI PUSH2 0x94F PUSH2 0xD2D JUMP JUMPDEST JUMPDEST PUSH2 0x95C DUP9 DUP3 DUP10 ADD PUSH2 0x872 JUMP JUMPDEST SWAP5 POP POP PUSH1 0x40 DUP7 ADD CALLDATALOAD PUSH8 0xFFFFFFFFFFFFFFFF DUP2 GT ISZERO PUSH2 0x97D JUMPI PUSH2 0x97C PUSH2 0xD2D JUMP JUMPDEST JUMPDEST PUSH2 0x989 DUP9 DUP3 DUP10 ADD PUSH2 0x872 JUMP JUMPDEST SWAP4 POP POP PUSH1 0x60 DUP7 ADD CALLDATALOAD PUSH8 0xFFFFFFFFFFFFFFFF DUP2 GT ISZERO PUSH2 0x9AA JUMPI PUSH2 0x9A9 PUSH2 0xD2D JUMP JUMPDEST JUMPDEST PUSH2 0x9B6 DUP9 DUP3 DUP10 ADD PUSH2 0x872 JUMP JUMPDEST SWAP3 POP POP PUSH1 0x80 DUP7 ADD CALLDATALOAD PUSH8 0xFFFFFFFFFFFFFFFF DUP2 GT ISZERO PUSH2 0x9D7 JUMPI PUSH2 0x9D6 PUSH2 0xD2D JUMP JUMPDEST JUMPDEST PUSH2 0x9E3 DUP9 DUP3 DUP10 ADD PUSH2 0x872 JUMP JUMPDEST SWAP2 POP POP SWAP3 SWAP6 POP SWAP3 SWAP6 SWAP1 SWAP4 POP JUMP JUMPDEST PUSH2 0x9F9 DUP2 PUSH2 0xBE5 JUMP JUMPDEST DUP3 MSTORE POP POP JUMP JUMPDEST PUSH1 0x0 PUSH2 0xA0A DUP3 PUSH2 0xBBE JUMP JUMPDEST PUSH2 0xA14 DUP2 DUP6 PUSH2 0xBC9 JUMP JUMPDEST SWAP4 POP PUSH2 0xA24 DUP2 DUP6 PUSH1 0x20 DUP7 ADD PUSH2 0xC00 JUMP JUMPDEST PUSH2 0xA2D DUP2 PUSH2 0xD37 JUMP JUMPDEST DUP5 ADD SWAP2 POP POP SWAP3 SWAP2 POP POP JUMP JUMPDEST PUSH1 0x0 PUSH2 0xA43 DUP3 PUSH2 0xBBE JUMP JUMPDEST PUSH2 0xA4D DUP2 DUP6 PUSH2 0xBDA JUMP JUMPDEST SWAP4 POP PUSH2 0xA5D DUP2 DUP6 PUSH1 0x20 DUP7 ADD PUSH2 0xC00 JUMP JUMPDEST DUP1 DUP5 ADD SWAP2 POP POP SWAP3 SWAP2 POP POP JUMP JUMPDEST PUSH1 0x0 DUP2 SLOAD PUSH2 0xA76 DUP2 PUSH2 0xC33 JUMP JUMPDEST PUSH2 0xA80 DUP2 DUP7 PUSH2 0xBDA JUMP JUMPDEST SWAP5 POP PUSH1 0x1 DUP3 AND PUSH1 0x0 DUP2 EQ PUSH2 0xA9B JUMPI PUSH1 0x1 DUP2 EQ PUSH2 0xAAC JUMPI PUSH2 0xADF JUMP JUMPDEST PUSH1 0xFF NOT DUP4 AND DUP7 MSTORE DUP2 DUP7 ADD SWAP4 POP PUSH2 0xADF JUMP JUMPDEST PUSH2 0xAB5 DUP6 PUSH2 0xBA9 JUMP JUMPDEST PUSH1 0x0 JUMPDEST DUP4 DUP2 LT ISZERO PUSH2 0xAD7 JUMPI DUP2 SLOAD DUP2 DUP10 ADD MSTORE PUSH1 0x1 DUP3 ADD SWAP2 POP PUSH1 0x20 DUP2 ADD SWAP1 POP PUSH2 0xAB8 JUMP JUMPDEST DUP4 DUP9 ADD SWAP6 POP POP POP JUMPDEST POP POP POP SWAP3 SWAP2 POP POP JUMP JUMPDEST PUSH1 0x0 PUSH2 0xAF4 DUP3 DUP5 PUSH2 0xA38 JUMP JUMPDEST SWAP2 POP DUP2 SWAP1 POP SWAP3 SWAP2 POP POP JUMP JUMPDEST PUSH1 0x0 PUSH2 0xB0B DUP3 DUP5 PUSH2 0xA69 JUMP JUMPDEST SWAP2 POP DUP2 SWAP1 POP SWAP3 SWAP2 POP POP JUMP JUMPDEST PUSH1 0x0 PUSH1 0x20 DUP3 ADD SWAP1 POP PUSH2 0xB2B PUSH1 0x0 DUP4 ADD DUP5 PUSH2 0x9F0 JUMP JUMPDEST SWAP3 SWAP2 POP POP JUMP JUMPDEST PUSH1 0x0 PUSH1 0x20 DUP3 ADD SWAP1 POP DUP2 DUP2 SUB PUSH1 0x0 DUP4 ADD MSTORE PUSH2 0xB4B DUP2 DUP5 PUSH2 0x9FF JUMP JUMPDEST SWAP1 POP SWAP3 SWAP2 POP POP JUMP JUMPDEST PUSH1 0x0 PUSH2 0xB5D PUSH2 0xB6E JUMP JUMPDEST SWAP1 POP PUSH2 0xB69 DUP3 DUP3 PUSH2 0xC65 JUMP JUMPDEST SWAP2 SWAP1 POP JUMP JUMPDEST PUSH1 0x0 PUSH1 0x40 MLOAD SWAP1 POP SWAP1 JUMP JUMPDEST PUSH1 0x0 PUSH8 0xFFFFFFFFFFFFFFFF DUP3 GT ISZERO PUSH2 0xB93 JUMPI PUSH2 0xB92 PUSH2 0xCF4 JUMP JUMPDEST JUMPDEST PUSH2 0xB9C DUP3 PUSH2 0xD37 JUMP JUMPDEST SWAP1 POP PUSH1 0x20 DUP2 ADD SWAP1 POP SWAP2 SWAP1 POP JUMP JUMPDEST PUSH1 0x0 DUP2 SWAP1 POP DUP2 PUSH1 0x0 MSTORE PUSH1 0x20 PUSH1 0x0 KECCAK256 SWAP1 POP SWAP2 SWAP1 POP JUMP JUMPDEST PUSH1 0x0 DUP2 MLOAD SWAP1 POP SWAP2 SWAP1 POP JUMP JUMPDEST PUSH1 0x0 DUP3 DUP3 MSTORE PUSH1 0x20 DUP3 ADD SWAP1 POP SWAP3 SWAP2 POP POP JUMP JUMPDEST PUSH1 0x0 DUP2 SWAP1 POP SWAP3 SWAP2 POP POP JUMP JUMPDEST PUSH1 0x0 DUP2 ISZERO ISZERO SWAP1 POP SWAP2 SWAP1 POP JUMP JUMPDEST DUP3 DUP2 DUP4 CALLDATACOPY PUSH1 0x0 DUP4 DUP4 ADD MSTORE POP POP POP JUMP JUMPDEST PUSH1 0x0 JUMPDEST DUP4 DUP2 LT ISZERO PUSH2 0xC1E JUMPI DUP1 DUP3 ADD MLOAD DUP2 DUP5 ADD MSTORE PUSH1 0x20 DUP2 ADD SWAP1 POP PUSH2 0xC03 JUMP JUMPDEST DUP4 DUP2 GT ISZERO PUSH2 0xC2D JUMPI PUSH1 0x0 DUP5 DUP5 ADD MSTORE JUMPDEST POP POP POP POP JUMP JUMPDEST PUSH1 0x0 PUSH1 0x2 DUP3 DIV SWAP1 POP PUSH1 0x1 DUP3 AND DUP1 PUSH2 0xC4B JUMPI PUSH1 0x7F DUP3 AND SWAP2 POP JUMPDEST PUSH1 0x20 DUP3 LT DUP2 EQ ISZERO PUSH2 0xC5F JUMPI PUSH2 0xC5E PUSH2 0xCC5 JUMP JUMPDEST JUMPDEST POP SWAP2 SWAP1 POP JUMP JUMPDEST PUSH2 0xC6E DUP3 PUSH2 0xD37 JUMP JUMPDEST DUP2 ADD DUP2 DUP2 LT PUSH8 0xFFFFFFFFFFFFFFFF DUP3 GT OR ISZERO PUSH2 0xC8D JUMPI PUSH2 0xC8C PUSH2 0xCF4 JUMP JUMPDEST JUMPDEST DUP1 PUSH1 0x40 MSTORE POP POP POP JUMP JUMPDEST PUSH32 0x4E487B7100000000000000000000000000000000000000000000000000000000 PUSH1 0x0 MSTORE PUSH1 0x12 PUSH1 0x4 MSTORE PUSH1 0x24 PUSH1 0x0 REVERT JUMPDEST PUSH32 0x4E487B7100000000000000000000000000000000000000000000000000000000 PUSH1 0x0 MSTORE PUSH1 0x22 PUSH1 0x4 MSTORE PUSH1 0x24 PUSH1 0x0 REVERT JUMPDEST PUSH32 0x4E487B7100000000000000000000000000000000000000000000000000000000 PUSH1 0x0 MSTORE PUSH1 0x41 PUSH1 0x4 MSTORE PUSH1 0x24 PUSH1 0x0 REVERT JUMPDEST PUSH1 0x0 DUP1 REVERT JUMPDEST PUSH1 0x0 DUP1 REVERT JUMPDEST PUSH1 0x0 DUP1 REVERT JUMPDEST PUSH1 0x0 DUP1 REVERT JUMPDEST PUSH1 0x0 PUSH1 0x1F NOT PUSH1 0x1F DUP4 ADD AND SWAP1 POP SWAP2 SWAP1 POP JUMP INVALID LOG2 PUSH5 0x6970667358 0x22 SLT KECCAK256 DUP7 BASEFEE OR 0x1F 0x2D SSTORE PUSH23 0xC783F3FEFDC7349F768AE258AFBA1969F16631D582CE20 DUP4 SSTORE PUSH5 0x736F6C6343 STOP ADDMOD SMOD STOP CALLER "
				},
				"gasEstimates": {
					"creation": {
						"codeDepositCost": "690800",
						"executionCost": "721",
						"totalCost": "691521"
					},
					"external": {
						"AddVehicle(string,string,string,string,string)": "infinite",
						"getvehicleBrand()": "infinite",
						"getvehicleColor()": "infinite",
						"getvehicleCreatedTime()": "infinite",
						"getvehicleMerikelrootvalue()": "infinite",
						"getvehicleModel()": "infinite",
						"getvehicleRegisterId()": "infinite",
						"verifyMerikelrootvalue(string)": "infinite"
					},
					"internal": {
						"getCurrentTime()": "22"
					}
				},
				"methodIdentifiers": {
					"AddVehicle(string,string,string,string,string)": "d43cf416",
					"getvehicleBrand()": "ca3740de",
					"getvehicleColor()": "22e5ba7c",
					"getvehicleCreatedTime()": "ced7142c",
					"getvehicleMerikelrootvalue()": "e12d7db4",
					"getvehicleModel()": "1ba7b1f7",
					"getvehicleRegisterId()": "d1d5400d",
					"verifyMerikelrootvalue(string)": "a8515f8e"
				}
			},
			"storageLayout": {
				"storage": [
					{
						"astId": 1044,
						"contract": "contracts/Vehicle.sol:Vehicle",
						"label": "registerId",
						"offset": 0,
						"slot": "0",
						"type": "t_string_storage"
					},
					{
						"astId": 1046,
						"contract": "contracts/Vehicle.sol:Vehicle",
						"label": "carBrand",
						"offset": 0,
						"slot": "1",
						"type": "t_string_storage"
					},
					{
						"astId": 1048,
						"contract": "contracts/Vehicle.sol:Vehicle",
						"label": "carModel",
						"offset": 0,
						"slot": "2",
						"type": "t_string_storage"
					},
					{
						"astId": 1050,
						"contract": "contracts/Vehicle.sol:Vehicle",
						"label": "carColor",
						"offset": 0,
						"slot": "3",
						"type": "t_string_storage"
					},
					{
						"astId": 1052,
						"contract": "contracts/Vehicle.sol:Vehicle",
						"label": "merikelrootvalue",
						"offset": 0,
						"slot": "4",
						"type": "t_string_storage"
					},
					{
						"astId": 1054,
						"contract": "contracts/Vehicle.sol:Vehicle",
						"label": "CreatedTime",
						"offset": 0,
						"slot": "5",
						"type": "t_uint256"
					}
				],
				"types": {
					"t_string_storage": {
						"encoding": "bytes",
						"label": "string",
						"numberOfBytes": "32"
					},
					"t_uint256": {
						"encoding": "inplace",
						"label": "uint256",
						"numberOfBytes": "32"
					}
				}
			},
			"userdoc": {
				"kind": "user",
				"methods": {},
				"version": 1
			}
		}
	}
}