{
	"contracts/_Insurance.sol": {
		"Insurance": {
			"abi": [
				{
					"inputs": [
						{
							"internalType": "address",
							"name": "vehicleContactAddress",
							"type": "address"
						}
					],
					"name": "getVehicleDetails",
					"outputs": [
						{
							"internalType": "string",
							"name": "",
							"type": "string"
						}
					],
					"stateMutability": "view",
					"type": "function"
				}
			],
			"devdoc": {
				"kind": "dev",
				"methods": {},
				"version": 1
			},
			"evm": {
				"assembly": "    /* \"contracts/_Insurance.sol\":104:829  contract Insurance{\r... */\n  mstore(0x40, 0x80)\n  callvalue\n  dup1\n  iszero\n  tag_1\n  jumpi\n  0x00\n  dup1\n  revert\ntag_1:\n  pop\n  dataSize(sub_0)\n  dup1\n  dataOffset(sub_0)\n  0x00\n  codecopy\n  0x00\n  return\nstop\n\nsub_0: assembly {\n        /* \"contracts/_Insurance.sol\":104:829  contract Insurance{\r... */\n      mstore(0x40, 0x80)\n      callvalue\n      dup1\n      iszero\n      tag_1\n      jumpi\n      0x00\n      dup1\n      revert\n    tag_1:\n      pop\n      jumpi(tag_2, lt(calldatasize, 0x04))\n      shr(0xe0, calldataload(0x00))\n      dup1\n      0x45e523b5\n      eq\n      tag_3\n      jumpi\n    tag_2:\n      0x00\n      dup1\n      revert\n        /* \"contracts/_Insurance.sol\":131:826  function getVehicleDetails(address vehicleContactAddress) public view returns (string memory){\r... */\n    tag_3:\n      tag_4\n      0x04\n      dup1\n      calldatasize\n      sub\n      dup2\n      add\n      swap1\n      tag_5\n      swap2\n      swap1\n      tag_6\n      jump\t// in\n    tag_5:\n      tag_7\n      jump\t// in\n    tag_4:\n      mload(0x40)\n      tag_8\n      swap2\n      swap1\n      tag_9\n      jump\t// in\n    tag_8:\n      mload(0x40)\n      dup1\n      swap2\n      sub\n      swap1\n      return\n    tag_7:\n        /* \"contracts/_Insurance.sol\":210:223  string memory */\n      0x60\n        /* \"contracts/_Insurance.sol\":235:257  Vehicle VehicleDetails */\n      0x00\n        /* \"contracts/_Insurance.sol\":268:289  vehicleContactAddress */\n      dup3\n        /* \"contracts/_Insurance.sol\":235:290  Vehicle VehicleDetails = Vehicle(vehicleContactAddress) */\n      swap1\n      pop\n        /* \"contracts/_Insurance.sol\":355:369  VehicleDetails */\n      dup1\n        /* \"contracts/_Insurance.sol\":355:390  VehicleDetails.getvehicleRegisterId */\n      0xffffffffffffffffffffffffffffffffffffffff\n      and\n      0xd1d5400d\n        /* \"contracts/_Insurance.sol\":355:392  VehicleDetails.getvehicleRegisterId() */\n      mload(0x40)\n      dup2\n      0xffffffff\n      and\n      0xe0\n      shl\n      dup2\n      mstore\n      0x04\n      add\n      0x00\n      mload(0x40)\n      dup1\n      dup4\n      sub\n      dup2\n      dup7\n      dup1\n      extcodesize\n      iszero\n      dup1\n      iszero\n      tag_11\n      jumpi\n      0x00\n      dup1\n      revert\n    tag_11:\n      pop\n      gas\n      staticcall\n      iszero\n      dup1\n      iszero\n      tag_13\n      jumpi\n      returndatasize\n      0x00\n      dup1\n      returndatacopy\n      revert(0x00, returndatasize)\n    tag_13:\n      pop\n      pop\n      pop\n      pop\n      mload(0x40)\n      returndatasize\n      0x00\n      dup3\n      returndatacopy\n      returndatasize\n      not(0x1f)\n      0x1f\n      dup3\n      add\n      and\n      dup3\n      add\n      dup1\n      0x40\n      mstore\n      pop\n      dup2\n      add\n      swap1\n      tag_14\n      swap2\n      swap1\n      tag_15\n      jump\t// in\n    tag_14:\n        /* \"contracts/_Insurance.sol\":422:436  VehicleDetails */\n      dup2\n        /* \"contracts/_Insurance.sol\":422:452  VehicleDetails.getvehicleBrand */\n      0xffffffffffffffffffffffffffffffffffffffff\n      and\n      0xca3740de\n        /* \"contracts/_Insurance.sol\":422:454  VehicleDetails.getvehicleBrand() */\n      mload(0x40)\n      dup2\n      0xffffffff\n      and\n      0xe0\n      shl\n      dup2\n      mstore\n      0x04\n      add\n      0x00\n      mload(0x40)\n      dup1\n      dup4\n      sub\n      dup2\n      dup7\n      dup1\n      extcodesize\n      iszero\n      dup1\n      iszero\n      tag_16\n      jumpi\n      0x00\n      dup1\n      revert\n    tag_16:\n      pop\n      gas\n      staticcall\n      iszero\n      dup1\n      iszero\n      tag_18\n      jumpi\n      returndatasize\n      0x00\n      dup1\n      returndatacopy\n      revert(0x00, returndatasize)\n    tag_18:\n      pop\n      pop\n      pop\n      pop\n      mload(0x40)\n      returndatasize\n      0x00\n      dup3\n      returndatacopy\n      returndatasize\n      not(0x1f)\n      0x1f\n      dup3\n      add\n      and\n      dup3\n      add\n      dup1\n      0x40\n      mstore\n      pop\n      dup2\n      add\n      swap1\n      tag_19\n      swap2\n      swap1\n      tag_15\n      jump\t// in\n    tag_19:\n        /* \"contracts/_Insurance.sol\":484:498  VehicleDetails */\n      dup3\n        /* \"contracts/_Insurance.sol\":484:514  VehicleDetails.getvehicleModel */\n      0xffffffffffffffffffffffffffffffffffffffff\n      and\n      0x1ba7b1f7\n        /* \"contracts/_Insurance.sol\":484:516  VehicleDetails.getvehicleModel() */\n      mload(0x40)\n      dup2\n      0xffffffff\n      and\n      0xe0\n      shl\n      dup2\n      mstore\n      0x04\n      add\n      0x00\n      mload(0x40)\n      dup1\n      dup4\n      sub\n      dup2\n      dup7\n      dup1\n      extcodesize\n      iszero\n      dup1\n      iszero\n      tag_20\n      jumpi\n      0x00\n      dup1\n      revert\n    tag_20:\n      pop\n      gas\n      staticcall\n      iszero\n      dup1\n      iszero\n      tag_22\n      jumpi\n      returndatasize\n      0x00\n      dup1\n      returndatacopy\n      revert(0x00, returndatasize)\n    tag_22:\n      pop\n      pop\n      pop\n      pop\n      mload(0x40)\n      returndatasize\n      0x00\n      dup3\n      returndatacopy\n      returndatasize\n      not(0x1f)\n      0x1f\n      dup3\n      add\n      and\n      dup3\n      add\n      dup1\n      0x40\n      mstore\n      pop\n      dup2\n      add\n      swap1\n      tag_23\n      swap2\n      swap1\n      tag_15\n      jump\t// in\n    tag_23:\n        /* \"contracts/_Insurance.sol\":546:560  VehicleDetails */\n      dup4\n        /* \"contracts/_Insurance.sol\":546:576  VehicleDetails.getvehicleColor */\n      0xffffffffffffffffffffffffffffffffffffffff\n      and\n      0x22e5ba7c\n        /* \"contracts/_Insurance.sol\":546:578  VehicleDetails.getvehicleColor() */\n      mload(0x40)\n      dup2\n      0xffffffff\n      and\n      0xe0\n      shl\n      dup2\n      mstore\n      0x04\n      add\n      0x00\n      mload(0x40)\n      dup1\n      dup4\n      sub\n      dup2\n      dup7\n      dup1\n      extcodesize\n      iszero\n      dup1\n      iszero\n      tag_24\n      jumpi\n      0x00\n      dup1\n      revert\n    tag_24:\n      pop\n      gas\n      staticcall\n      iszero\n      dup1\n      iszero\n      tag_26\n      jumpi\n      returndatasize\n      0x00\n      dup1\n      returndatacopy\n      revert(0x00, returndatasize)\n    tag_26:\n      pop\n      pop\n      pop\n      pop\n      mload(0x40)\n      returndatasize\n      0x00\n      dup3\n      returndatacopy\n      returndatasize\n      not(0x1f)\n      0x1f\n      dup3\n      add\n      and\n      dup3\n      add\n      dup1\n      0x40\n      mstore\n      pop\n      dup2\n      add\n      swap1\n      tag_27\n      swap2\n      swap1\n      tag_15\n      jump\t// in\n    tag_27:\n        /* \"contracts/_Insurance.sol\":619:633  VehicleDetails */\n      dup5\n        /* \"contracts/_Insurance.sol\":619:660  VehicleDetails.getvehicleMerikelrootvalue */\n      0xffffffffffffffffffffffffffffffffffffffff\n      and\n      0xe12d7db4\n        /* \"contracts/_Insurance.sol\":619:662  VehicleDetails.getvehicleMerikelrootvalue() */\n      mload(0x40)\n      dup2\n      0xffffffff\n      and\n      0xe0\n      shl\n      dup2\n      mstore\n      0x04\n      add\n      0x00\n      mload(0x40)\n      dup1\n      dup4\n      sub\n      dup2\n      dup7\n      dup1\n      extcodesize\n      iszero\n      dup1\n      iszero\n      tag_28\n      jumpi\n      0x00\n      dup1\n      revert\n    tag_28:\n      pop\n      gas\n      staticcall\n      iszero\n      dup1\n      iszero\n      tag_30\n      jumpi\n      returndatasize\n      0x00\n      dup1\n      returndatacopy\n      revert(0x00, returndatasize)\n    tag_30:\n      pop\n      pop\n      pop\n      pop\n      mload(0x40)\n      returndatasize\n      0x00\n      dup3\n      returndatacopy\n      returndatasize\n      not(0x1f)\n      0x1f\n      dup3\n      add\n      and\n      dup3\n      add\n      dup1\n      0x40\n      mstore\n      pop\n      dup2\n      add\n      swap1\n      tag_31\n      swap2\n      swap1\n      tag_15\n      jump\t// in\n    tag_31:\n        /* \"contracts/_Insurance.sol\":694:708  VehicleDetails */\n      dup6\n        /* \"contracts/_Insurance.sol\":694:726  VehicleDetails.getvehicleOwendBy */\n      0xffffffffffffffffffffffffffffffffffffffff\n      and\n      0x50ca0907\n        /* \"contracts/_Insurance.sol\":694:728  VehicleDetails.getvehicleOwendBy() */\n      mload(0x40)\n      dup2\n      0xffffffff\n      and\n      0xe0\n      shl\n      dup2\n      mstore\n      0x04\n      add\n      0x00\n      mload(0x40)\n      dup1\n      dup4\n      sub\n      dup2\n      dup7\n      dup1\n      extcodesize\n      iszero\n      dup1\n      iszero\n      tag_32\n      jumpi\n      0x00\n      dup1\n      revert\n    tag_32:\n      pop\n      gas\n      staticcall\n      iszero\n      dup1\n      iszero\n      tag_34\n      jumpi\n      returndatasize\n      0x00\n      dup1\n      returndatacopy\n      revert(0x00, returndatasize)\n    tag_34:\n      pop\n      pop\n      pop\n      pop\n      mload(0x40)\n      returndatasize\n      0x00\n      dup3\n      returndatacopy\n      returndatasize\n      not(0x1f)\n      0x1f\n      dup3\n      add\n      and\n      dup3\n      add\n      dup1\n      0x40\n      mstore\n      pop\n      dup2\n      add\n      swap1\n      tag_35\n      swap2\n      swap1\n      tag_15\n      jump\t// in\n    tag_35:\n        /* \"contracts/_Insurance.sol\":764:778  VehicleDetails */\n      dup7\n        /* \"contracts/_Insurance.sol\":764:800  VehicleDetails.getvehicleCreatedTime */\n      0xffffffffffffffffffffffffffffffffffffffff\n      and\n      0xced7142c\n        /* \"contracts/_Insurance.sol\":764:802  VehicleDetails.getvehicleCreatedTime() */\n      mload(0x40)\n      dup2\n      0xffffffff\n      and\n      0xe0\n      shl\n      dup2\n      mstore\n      0x04\n      add\n      0x00\n      mload(0x40)\n      dup1\n      dup4\n      sub\n      dup2\n      dup7\n      dup1\n      extcodesize\n      iszero\n      dup1\n      iszero\n      tag_36\n      jumpi\n      0x00\n      dup1\n      revert\n    tag_36:\n      pop\n      gas\n      staticcall\n      iszero\n      dup1\n      iszero\n      tag_38\n      jumpi\n      returndatasize\n      0x00\n      dup1\n      returndatacopy\n      revert(0x00, returndatasize)\n    tag_38:\n      pop\n      pop\n      pop\n      pop\n      mload(0x40)\n      returndatasize\n      0x00\n      dup3\n      returndatacopy\n      returndatasize\n      not(0x1f)\n      0x1f\n      dup3\n      add\n      and\n      dup3\n      add\n      dup1\n      0x40\n      mstore\n      pop\n      dup2\n      add\n      swap1\n      tag_39\n      swap2\n      swap1\n      tag_15\n      jump\t// in\n    tag_39:\n        /* \"contracts/_Insurance.sol\":315:817  abi.encodePacked(\r... */\n      add(0x20, mload(0x40))\n      tag_40\n      swap8\n      swap7\n      swap6\n      swap5\n      swap4\n      swap3\n      swap2\n      swap1\n      tag_41\n      jump\t// in\n    tag_40:\n      mload(0x40)\n      0x20\n      dup2\n      dup4\n      sub\n      sub\n      dup2\n      mstore\n      swap1\n      0x40\n      mstore\n        /* \"contracts/_Insurance.sol\":301:818  return string(abi.encodePacked(\r... */\n      swap2\n      pop\n      pop\n        /* \"contracts/_Insurance.sol\":131:826  function getVehicleDetails(address vehicleContactAddress) public view returns (string memory){\r... */\n      swap2\n      swap1\n      pop\n      jump\t// out\n        /* \"#utility.yul\":7:428   */\n    tag_43:\n        /* \"#utility.yul\":96:101   */\n      0x00\n        /* \"#utility.yul\":121:187   */\n      tag_45\n        /* \"#utility.yul\":137:186   */\n      tag_46\n        /* \"#utility.yul\":179:185   */\n      dup5\n        /* \"#utility.yul\":137:186   */\n      tag_47\n      jump\t// in\n    tag_46:\n        /* \"#utility.yul\":121:187   */\n      tag_48\n      jump\t// in\n    tag_45:\n        /* \"#utility.yul\":112:187   */\n      swap1\n      pop\n        /* \"#utility.yul\":210:216   */\n      dup3\n        /* \"#utility.yul\":203:208   */\n      dup2\n        /* \"#utility.yul\":196:217   */\n      mstore\n        /* \"#utility.yul\":248:252   */\n      0x20\n        /* \"#utility.yul\":241:246   */\n      dup2\n        /* \"#utility.yul\":237:253   */\n      add\n        /* \"#utility.yul\":286:289   */\n      dup5\n        /* \"#utility.yul\":277:283   */\n      dup5\n        /* \"#utility.yul\":272:275   */\n      dup5\n        /* \"#utility.yul\":268:284   */\n      add\n        /* \"#utility.yul\":265:290   */\n      gt\n        /* \"#utility.yul\":262:374   */\n      iszero\n      tag_49\n      jumpi\n        /* \"#utility.yul\":293:372   */\n      tag_50\n      tag_51\n      jump\t// in\n    tag_50:\n        /* \"#utility.yul\":262:374   */\n    tag_49:\n        /* \"#utility.yul\":383:422   */\n      tag_52\n        /* \"#utility.yul\":415:421   */\n      dup5\n        /* \"#utility.yul\":410:413   */\n      dup3\n        /* \"#utility.yul\":405:408   */\n      dup6\n        /* \"#utility.yul\":383:422   */\n      tag_53\n      jump\t// in\n    tag_52:\n        /* \"#utility.yul\":102:428   */\n      pop\n        /* \"#utility.yul\":7:428   */\n      swap4\n      swap3\n      pop\n      pop\n      pop\n      jump\t// out\n        /* \"#utility.yul\":434:573   */\n    tag_54:\n        /* \"#utility.yul\":480:485   */\n      0x00\n        /* \"#utility.yul\":518:524   */\n      dup2\n        /* \"#utility.yul\":505:525   */\n      calldataload\n        /* \"#utility.yul\":496:525   */\n      swap1\n      pop\n        /* \"#utility.yul\":534:567   */\n      tag_56\n        /* \"#utility.yul\":561:566   */\n      dup2\n        /* \"#utility.yul\":534:567   */\n      tag_57\n      jump\t// in\n    tag_56:\n        /* \"#utility.yul\":434:573   */\n      swap3\n      swap2\n      pop\n      pop\n      jump\t// out\n        /* \"#utility.yul\":593:948   */\n    tag_58:\n        /* \"#utility.yul\":660:665   */\n      0x00\n        /* \"#utility.yul\":709:712   */\n      dup3\n        /* \"#utility.yul\":702:706   */\n      0x1f\n        /* \"#utility.yul\":694:700   */\n      dup4\n        /* \"#utility.yul\":690:707   */\n      add\n        /* \"#utility.yul\":686:713   */\n      slt\n        /* \"#utility.yul\":676:798   */\n      tag_60\n      jumpi\n        /* \"#utility.yul\":717:796   */\n      tag_61\n      tag_62\n      jump\t// in\n    tag_61:\n        /* \"#utility.yul\":676:798   */\n    tag_60:\n        /* \"#utility.yul\":827:833   */\n      dup2\n        /* \"#utility.yul\":821:834   */\n      mload\n        /* \"#utility.yul\":852:942   */\n      tag_63\n        /* \"#utility.yul\":938:941   */\n      dup5\n        /* \"#utility.yul\":930:936   */\n      dup3\n        /* \"#utility.yul\":923:927   */\n      0x20\n        /* \"#utility.yul\":915:921   */\n      dup7\n        /* \"#utility.yul\":911:928   */\n      add\n        /* \"#utility.yul\":852:942   */\n      tag_43\n      jump\t// in\n    tag_63:\n        /* \"#utility.yul\":843:942   */\n      swap2\n      pop\n        /* \"#utility.yul\":666:948   */\n      pop\n        /* \"#utility.yul\":593:948   */\n      swap3\n      swap2\n      pop\n      pop\n      jump\t// out\n        /* \"#utility.yul\":954:1283   */\n    tag_6:\n        /* \"#utility.yul\":1013:1019   */\n      0x00\n        /* \"#utility.yul\":1062:1064   */\n      0x20\n        /* \"#utility.yul\":1050:1059   */\n      dup3\n        /* \"#utility.yul\":1041:1048   */\n      dup5\n        /* \"#utility.yul\":1037:1060   */\n      sub\n        /* \"#utility.yul\":1033:1065   */\n      slt\n        /* \"#utility.yul\":1030:1149   */\n      iszero\n      tag_65\n      jumpi\n        /* \"#utility.yul\":1068:1147   */\n      tag_66\n      tag_67\n      jump\t// in\n    tag_66:\n        /* \"#utility.yul\":1030:1149   */\n    tag_65:\n        /* \"#utility.yul\":1188:1189   */\n      0x00\n        /* \"#utility.yul\":1213:1266   */\n      tag_68\n        /* \"#utility.yul\":1258:1265   */\n      dup5\n        /* \"#utility.yul\":1249:1255   */\n      dup3\n        /* \"#utility.yul\":1238:1247   */\n      dup6\n        /* \"#utility.yul\":1234:1256   */\n      add\n        /* \"#utility.yul\":1213:1266   */\n      tag_54\n      jump\t// in\n    tag_68:\n        /* \"#utility.yul\":1203:1266   */\n      swap2\n      pop\n        /* \"#utility.yul\":1159:1276   */\n      pop\n        /* \"#utility.yul\":954:1283   */\n      swap3\n      swap2\n      pop\n      pop\n      jump\t// out\n        /* \"#utility.yul\":1289:1813   */\n    tag_15:\n        /* \"#utility.yul\":1369:1375   */\n      0x00\n        /* \"#utility.yul\":1418:1420   */\n      0x20\n        /* \"#utility.yul\":1406:1415   */\n      dup3\n        /* \"#utility.yul\":1397:1404   */\n      dup5\n        /* \"#utility.yul\":1393:1416   */\n      sub\n        /* \"#utility.yul\":1389:1421   */\n      slt\n        /* \"#utility.yul\":1386:1505   */\n      iszero\n      tag_70\n      jumpi\n        /* \"#utility.yul\":1424:1503   */\n      tag_71\n      tag_67\n      jump\t// in\n    tag_71:\n        /* \"#utility.yul\":1386:1505   */\n    tag_70:\n        /* \"#utility.yul\":1565:1566   */\n      0x00\n        /* \"#utility.yul\":1554:1563   */\n      dup3\n        /* \"#utility.yul\":1550:1567   */\n      add\n        /* \"#utility.yul\":1544:1568   */\n      mload\n        /* \"#utility.yul\":1595:1613   */\n      0xffffffffffffffff\n        /* \"#utility.yul\":1587:1593   */\n      dup2\n        /* \"#utility.yul\":1584:1614   */\n      gt\n        /* \"#utility.yul\":1581:1698   */\n      iszero\n      tag_72\n      jumpi\n        /* \"#utility.yul\":1617:1696   */\n      tag_73\n      tag_74\n      jump\t// in\n    tag_73:\n        /* \"#utility.yul\":1581:1698   */\n    tag_72:\n        /* \"#utility.yul\":1722:1796   */\n      tag_75\n        /* \"#utility.yul\":1788:1795   */\n      dup5\n        /* \"#utility.yul\":1779:1785   */\n      dup3\n        /* \"#utility.yul\":1768:1777   */\n      dup6\n        /* \"#utility.yul\":1764:1786   */\n      add\n        /* \"#utility.yul\":1722:1796   */\n      tag_58\n      jump\t// in\n    tag_75:\n        /* \"#utility.yul\":1712:1796   */\n      swap2\n      pop\n        /* \"#utility.yul\":1515:1806   */\n      pop\n        /* \"#utility.yul\":1289:1813   */\n      swap3\n      swap2\n      pop\n      pop\n      jump\t// out\n        /* \"#utility.yul\":1819:2183   */\n    tag_76:\n        /* \"#utility.yul\":1907:1910   */\n      0x00\n        /* \"#utility.yul\":1935:1974   */\n      tag_78\n        /* \"#utility.yul\":1968:1973   */\n      dup3\n        /* \"#utility.yul\":1935:1974   */\n      tag_79\n      jump\t// in\n    tag_78:\n        /* \"#utility.yul\":1990:2061   */\n      tag_80\n        /* \"#utility.yul\":2054:2060   */\n      dup2\n        /* \"#utility.yul\":2049:2052   */\n      dup6\n        /* \"#utility.yul\":1990:2061   */\n      tag_81\n      jump\t// in\n    tag_80:\n        /* \"#utility.yul\":1983:2061   */\n      swap4\n      pop\n        /* \"#utility.yul\":2070:2122   */\n      tag_82\n        /* \"#utility.yul\":2115:2121   */\n      dup2\n        /* \"#utility.yul\":2110:2113   */\n      dup6\n        /* \"#utility.yul\":2103:2107   */\n      0x20\n        /* \"#utility.yul\":2096:2101   */\n      dup7\n        /* \"#utility.yul\":2092:2108   */\n      add\n        /* \"#utility.yul\":2070:2122   */\n      tag_53\n      jump\t// in\n    tag_82:\n        /* \"#utility.yul\":2147:2176   */\n      tag_83\n        /* \"#utility.yul\":2169:2175   */\n      dup2\n        /* \"#utility.yul\":2147:2176   */\n      tag_84\n      jump\t// in\n    tag_83:\n        /* \"#utility.yul\":2142:2145   */\n      dup5\n        /* \"#utility.yul\":2138:2177   */\n      add\n        /* \"#utility.yul\":2131:2177   */\n      swap2\n      pop\n        /* \"#utility.yul\":1911:2183   */\n      pop\n        /* \"#utility.yul\":1819:2183   */\n      swap3\n      swap2\n      pop\n      pop\n      jump\t// out\n        /* \"#utility.yul\":2189:2566   */\n    tag_85:\n        /* \"#utility.yul\":2295:2298   */\n      0x00\n        /* \"#utility.yul\":2323:2362   */\n      tag_87\n        /* \"#utility.yul\":2356:2361   */\n      dup3\n        /* \"#utility.yul\":2323:2362   */\n      tag_79\n      jump\t// in\n    tag_87:\n        /* \"#utility.yul\":2378:2467   */\n      tag_88\n        /* \"#utility.yul\":2460:2466   */\n      dup2\n        /* \"#utility.yul\":2455:2458   */\n      dup6\n        /* \"#utility.yul\":2378:2467   */\n      tag_89\n      jump\t// in\n    tag_88:\n        /* \"#utility.yul\":2371:2467   */\n      swap4\n      pop\n        /* \"#utility.yul\":2476:2528   */\n      tag_90\n        /* \"#utility.yul\":2521:2527   */\n      dup2\n        /* \"#utility.yul\":2516:2519   */\n      dup6\n        /* \"#utility.yul\":2509:2513   */\n      0x20\n        /* \"#utility.yul\":2502:2507   */\n      dup7\n        /* \"#utility.yul\":2498:2514   */\n      add\n        /* \"#utility.yul\":2476:2528   */\n      tag_53\n      jump\t// in\n    tag_90:\n        /* \"#utility.yul\":2553:2559   */\n      dup1\n        /* \"#utility.yul\":2548:2551   */\n      dup5\n        /* \"#utility.yul\":2544:2560   */\n      add\n        /* \"#utility.yul\":2537:2560   */\n      swap2\n      pop\n        /* \"#utility.yul\":2299:2566   */\n      pop\n        /* \"#utility.yul\":2189:2566   */\n      swap3\n      swap2\n      pop\n      pop\n      jump\t// out\n        /* \"#utility.yul\":2572:2972   */\n    tag_91:\n        /* \"#utility.yul\":2732:2735   */\n      0x00\n        /* \"#utility.yul\":2753:2837   */\n      tag_93\n        /* \"#utility.yul\":2835:2836   */\n      0x06\n        /* \"#utility.yul\":2830:2833   */\n      dup4\n        /* \"#utility.yul\":2753:2837   */\n      tag_89\n      jump\t// in\n    tag_93:\n        /* \"#utility.yul\":2746:2837   */\n      swap2\n      pop\n        /* \"#utility.yul\":2846:2939   */\n      tag_94\n        /* \"#utility.yul\":2935:2938   */\n      dup3\n        /* \"#utility.yul\":2846:2939   */\n      tag_95\n      jump\t// in\n    tag_94:\n        /* \"#utility.yul\":2964:2965   */\n      0x06\n        /* \"#utility.yul\":2959:2962   */\n      dup3\n        /* \"#utility.yul\":2955:2966   */\n      add\n        /* \"#utility.yul\":2948:2966   */\n      swap1\n      pop\n        /* \"#utility.yul\":2572:2972   */\n      swap2\n      swap1\n      pop\n      jump\t// out\n        /* \"#utility.yul\":2978:3380   */\n    tag_96:\n        /* \"#utility.yul\":3138:3141   */\n      0x00\n        /* \"#utility.yul\":3159:3244   */\n      tag_98\n        /* \"#utility.yul\":3241:3243   */\n      0x11\n        /* \"#utility.yul\":3236:3239   */\n      dup4\n        /* \"#utility.yul\":3159:3244   */\n      tag_89\n      jump\t// in\n    tag_98:\n        /* \"#utility.yul\":3152:3244   */\n      swap2\n      pop\n        /* \"#utility.yul\":3253:3346   */\n      tag_99\n        /* \"#utility.yul\":3342:3345   */\n      dup3\n        /* \"#utility.yul\":3253:3346   */\n      tag_100\n      jump\t// in\n    tag_99:\n        /* \"#utility.yul\":3371:3373   */\n      0x11\n        /* \"#utility.yul\":3366:3369   */\n      dup3\n        /* \"#utility.yul\":3362:3374   */\n      add\n        /* \"#utility.yul\":3355:3374   */\n      swap1\n      pop\n        /* \"#utility.yul\":2978:3380   */\n      swap2\n      swap1\n      pop\n      jump\t// out\n        /* \"#utility.yul\":3386:3786   */\n    tag_101:\n        /* \"#utility.yul\":3546:3549   */\n      0x00\n        /* \"#utility.yul\":3567:3651   */\n      tag_103\n        /* \"#utility.yul\":3649:3650   */\n      0x03\n        /* \"#utility.yul\":3644:3647   */\n      dup4\n        /* \"#utility.yul\":3567:3651   */\n      tag_89\n      jump\t// in\n    tag_103:\n        /* \"#utility.yul\":3560:3651   */\n      swap2\n      pop\n        /* \"#utility.yul\":3660:3753   */\n      tag_104\n        /* \"#utility.yul\":3749:3752   */\n      dup3\n        /* \"#utility.yul\":3660:3753   */\n      tag_105\n      jump\t// in\n    tag_104:\n        /* \"#utility.yul\":3778:3779   */\n      0x03\n        /* \"#utility.yul\":3773:3776   */\n      dup3\n        /* \"#utility.yul\":3769:3780   */\n      add\n        /* \"#utility.yul\":3762:3780   */\n      swap1\n      pop\n        /* \"#utility.yul\":3386:3786   */\n      swap2\n      swap1\n      pop\n      jump\t// out\n        /* \"#utility.yul\":3792:4192   */\n    tag_106:\n        /* \"#utility.yul\":3952:3955   */\n      0x00\n        /* \"#utility.yul\":3973:4057   */\n      tag_108\n        /* \"#utility.yul\":4055:4056   */\n      0x06\n        /* \"#utility.yul\":4050:4053   */\n      dup4\n        /* \"#utility.yul\":3973:4057   */\n      tag_89\n      jump\t// in\n    tag_108:\n        /* \"#utility.yul\":3966:4057   */\n      swap2\n      pop\n        /* \"#utility.yul\":4066:4159   */\n      tag_109\n        /* \"#utility.yul\":4155:4158   */\n      dup3\n        /* \"#utility.yul\":4066:4159   */\n      tag_110\n      jump\t// in\n    tag_109:\n        /* \"#utility.yul\":4184:4185   */\n      0x06\n        /* \"#utility.yul\":4179:4182   */\n      dup3\n        /* \"#utility.yul\":4175:4186   */\n      add\n        /* \"#utility.yul\":4168:4186   */\n      swap1\n      pop\n        /* \"#utility.yul\":3792:4192   */\n      swap2\n      swap1\n      pop\n      jump\t// out\n        /* \"#utility.yul\":4198:4598   */\n    tag_111:\n        /* \"#utility.yul\":4358:4361   */\n      0x00\n        /* \"#utility.yul\":4379:4463   */\n      tag_113\n        /* \"#utility.yul\":4461:4462   */\n      0x08\n        /* \"#utility.yul\":4456:4459   */\n      dup4\n        /* \"#utility.yul\":4379:4463   */\n      tag_89\n      jump\t// in\n    tag_113:\n        /* \"#utility.yul\":4372:4463   */\n      swap2\n      pop\n        /* \"#utility.yul\":4472:4565   */\n      tag_114\n        /* \"#utility.yul\":4561:4564   */\n      dup3\n        /* \"#utility.yul\":4472:4565   */\n      tag_115\n      jump\t// in\n    tag_114:\n        /* \"#utility.yul\":4590:4591   */\n      0x08\n        /* \"#utility.yul\":4585:4588   */\n      dup3\n        /* \"#utility.yul\":4581:4592   */\n      add\n        /* \"#utility.yul\":4574:4592   */\n      swap1\n      pop\n        /* \"#utility.yul\":4198:4598   */\n      swap2\n      swap1\n      pop\n      jump\t// out\n        /* \"#utility.yul\":4604:5004   */\n    tag_116:\n        /* \"#utility.yul\":4764:4767   */\n      0x00\n        /* \"#utility.yul\":4785:4869   */\n      tag_118\n        /* \"#utility.yul\":4867:4868   */\n      0x06\n        /* \"#utility.yul\":4862:4865   */\n      dup4\n        /* \"#utility.yul\":4785:4869   */\n      tag_89\n      jump\t// in\n    tag_118:\n        /* \"#utility.yul\":4778:4869   */\n      swap2\n      pop\n        /* \"#utility.yul\":4878:4971   */\n      tag_119\n        /* \"#utility.yul\":4967:4970   */\n      dup3\n        /* \"#utility.yul\":4878:4971   */\n      tag_120\n      jump\t// in\n    tag_119:\n        /* \"#utility.yul\":4996:4997   */\n      0x06\n        /* \"#utility.yul\":4991:4994   */\n      dup3\n        /* \"#utility.yul\":4987:4998   */\n      add\n        /* \"#utility.yul\":4980:4998   */\n      swap1\n      pop\n        /* \"#utility.yul\":4604:5004   */\n      swap2\n      swap1\n      pop\n      jump\t// out\n        /* \"#utility.yul\":5010:5410   */\n    tag_121:\n        /* \"#utility.yul\":5170:5173   */\n      0x00\n        /* \"#utility.yul\":5191:5275   */\n      tag_123\n        /* \"#utility.yul\":5273:5274   */\n      0x06\n        /* \"#utility.yul\":5268:5271   */\n      dup4\n        /* \"#utility.yul\":5191:5275   */\n      tag_89\n      jump\t// in\n    tag_123:\n        /* \"#utility.yul\":5184:5275   */\n      swap2\n      pop\n        /* \"#utility.yul\":5284:5377   */\n      tag_124\n        /* \"#utility.yul\":5373:5376   */\n      dup3\n        /* \"#utility.yul\":5284:5377   */\n      tag_125\n      jump\t// in\n    tag_124:\n        /* \"#utility.yul\":5402:5403   */\n      0x06\n        /* \"#utility.yul\":5397:5400   */\n      dup3\n        /* \"#utility.yul\":5393:5404   */\n      add\n        /* \"#utility.yul\":5386:5404   */\n      swap1\n      pop\n        /* \"#utility.yul\":5010:5410   */\n      swap2\n      swap1\n      pop\n      jump\t// out\n        /* \"#utility.yul\":5416:5818   */\n    tag_126:\n        /* \"#utility.yul\":5576:5579   */\n      0x00\n        /* \"#utility.yul\":5597:5682   */\n      tag_128\n        /* \"#utility.yul\":5679:5681   */\n      0x0c\n        /* \"#utility.yul\":5674:5677   */\n      dup4\n        /* \"#utility.yul\":5597:5682   */\n      tag_89\n      jump\t// in\n    tag_128:\n        /* \"#utility.yul\":5590:5682   */\n      swap2\n      pop\n        /* \"#utility.yul\":5691:5784   */\n      tag_129\n        /* \"#utility.yul\":5780:5783   */\n      dup3\n        /* \"#utility.yul\":5691:5784   */\n      tag_130\n      jump\t// in\n    tag_129:\n        /* \"#utility.yul\":5809:5811   */\n      0x0c\n        /* \"#utility.yul\":5804:5807   */\n      dup3\n        /* \"#utility.yul\":5800:5812   */\n      add\n        /* \"#utility.yul\":5793:5812   */\n      swap1\n      pop\n        /* \"#utility.yul\":5416:5818   */\n      swap2\n      swap1\n      pop\n      jump\t// out\n        /* \"#utility.yul\":5824:10517   */\n    tag_41:\n        /* \"#utility.yul\":7557:7560   */\n      0x00\n        /* \"#utility.yul\":7579:7727   */\n      tag_132\n        /* \"#utility.yul\":7723:7726   */\n      dup3\n        /* \"#utility.yul\":7579:7727   */\n      tag_121\n      jump\t// in\n    tag_132:\n        /* \"#utility.yul\":7572:7727   */\n      swap2\n      pop\n        /* \"#utility.yul\":7744:7839   */\n      tag_133\n        /* \"#utility.yul\":7835:7838   */\n      dup3\n        /* \"#utility.yul\":7826:7832   */\n      dup11\n        /* \"#utility.yul\":7744:7839   */\n      tag_85\n      jump\t// in\n    tag_133:\n        /* \"#utility.yul\":7737:7839   */\n      swap2\n      pop\n        /* \"#utility.yul\":7856:8004   */\n      tag_134\n        /* \"#utility.yul\":8000:8003   */\n      dup3\n        /* \"#utility.yul\":7856:8004   */\n      tag_101\n      jump\t// in\n    tag_134:\n        /* \"#utility.yul\":7849:8004   */\n      swap2\n      pop\n        /* \"#utility.yul\":8021:8169   */\n      tag_135\n        /* \"#utility.yul\":8165:8168   */\n      dup3\n        /* \"#utility.yul\":8021:8169   */\n      tag_106\n      jump\t// in\n    tag_135:\n        /* \"#utility.yul\":8014:8169   */\n      swap2\n      pop\n        /* \"#utility.yul\":8186:8281   */\n      tag_136\n        /* \"#utility.yul\":8277:8280   */\n      dup3\n        /* \"#utility.yul\":8268:8274   */\n      dup10\n        /* \"#utility.yul\":8186:8281   */\n      tag_85\n      jump\t// in\n    tag_136:\n        /* \"#utility.yul\":8179:8281   */\n      swap2\n      pop\n        /* \"#utility.yul\":8298:8446   */\n      tag_137\n        /* \"#utility.yul\":8442:8445   */\n      dup3\n        /* \"#utility.yul\":8298:8446   */\n      tag_101\n      jump\t// in\n    tag_137:\n        /* \"#utility.yul\":8291:8446   */\n      swap2\n      pop\n        /* \"#utility.yul\":8463:8611   */\n      tag_138\n        /* \"#utility.yul\":8607:8610   */\n      dup3\n        /* \"#utility.yul\":8463:8611   */\n      tag_116\n      jump\t// in\n    tag_138:\n        /* \"#utility.yul\":8456:8611   */\n      swap2\n      pop\n        /* \"#utility.yul\":8628:8723   */\n      tag_139\n        /* \"#utility.yul\":8719:8722   */\n      dup3\n        /* \"#utility.yul\":8710:8716   */\n      dup9\n        /* \"#utility.yul\":8628:8723   */\n      tag_85\n      jump\t// in\n    tag_139:\n        /* \"#utility.yul\":8621:8723   */\n      swap2\n      pop\n        /* \"#utility.yul\":8740:8888   */\n      tag_140\n        /* \"#utility.yul\":8884:8887   */\n      dup3\n        /* \"#utility.yul\":8740:8888   */\n      tag_101\n      jump\t// in\n    tag_140:\n        /* \"#utility.yul\":8733:8888   */\n      swap2\n      pop\n        /* \"#utility.yul\":8905:9053   */\n      tag_141\n        /* \"#utility.yul\":9049:9052   */\n      dup3\n        /* \"#utility.yul\":8905:9053   */\n      tag_91\n      jump\t// in\n    tag_141:\n        /* \"#utility.yul\":8898:9053   */\n      swap2\n      pop\n        /* \"#utility.yul\":9070:9165   */\n      tag_142\n        /* \"#utility.yul\":9161:9164   */\n      dup3\n        /* \"#utility.yul\":9152:9158   */\n      dup8\n        /* \"#utility.yul\":9070:9165   */\n      tag_85\n      jump\t// in\n    tag_142:\n        /* \"#utility.yul\":9063:9165   */\n      swap2\n      pop\n        /* \"#utility.yul\":9182:9330   */\n      tag_143\n        /* \"#utility.yul\":9326:9329   */\n      dup3\n        /* \"#utility.yul\":9182:9330   */\n      tag_101\n      jump\t// in\n    tag_143:\n        /* \"#utility.yul\":9175:9330   */\n      swap2\n      pop\n        /* \"#utility.yul\":9347:9495   */\n      tag_144\n        /* \"#utility.yul\":9491:9494   */\n      dup3\n        /* \"#utility.yul\":9347:9495   */\n      tag_96\n      jump\t// in\n    tag_144:\n        /* \"#utility.yul\":9340:9495   */\n      swap2\n      pop\n        /* \"#utility.yul\":9512:9607   */\n      tag_145\n        /* \"#utility.yul\":9603:9606   */\n      dup3\n        /* \"#utility.yul\":9594:9600   */\n      dup7\n        /* \"#utility.yul\":9512:9607   */\n      tag_85\n      jump\t// in\n    tag_145:\n        /* \"#utility.yul\":9505:9607   */\n      swap2\n      pop\n        /* \"#utility.yul\":9624:9772   */\n      tag_146\n        /* \"#utility.yul\":9768:9771   */\n      dup3\n        /* \"#utility.yul\":9624:9772   */\n      tag_101\n      jump\t// in\n    tag_146:\n        /* \"#utility.yul\":9617:9772   */\n      swap2\n      pop\n        /* \"#utility.yul\":9789:9937   */\n      tag_147\n        /* \"#utility.yul\":9933:9936   */\n      dup3\n        /* \"#utility.yul\":9789:9937   */\n      tag_111\n      jump\t// in\n    tag_147:\n        /* \"#utility.yul\":9782:9937   */\n      swap2\n      pop\n        /* \"#utility.yul\":9954:10049   */\n      tag_148\n        /* \"#utility.yul\":10045:10048   */\n      dup3\n        /* \"#utility.yul\":10036:10042   */\n      dup6\n        /* \"#utility.yul\":9954:10049   */\n      tag_85\n      jump\t// in\n    tag_148:\n        /* \"#utility.yul\":9947:10049   */\n      swap2\n      pop\n        /* \"#utility.yul\":10066:10214   */\n      tag_149\n        /* \"#utility.yul\":10210:10213   */\n      dup3\n        /* \"#utility.yul\":10066:10214   */\n      tag_101\n      jump\t// in\n    tag_149:\n        /* \"#utility.yul\":10059:10214   */\n      swap2\n      pop\n        /* \"#utility.yul\":10231:10379   */\n      tag_150\n        /* \"#utility.yul\":10375:10378   */\n      dup3\n        /* \"#utility.yul\":10231:10379   */\n      tag_126\n      jump\t// in\n    tag_150:\n        /* \"#utility.yul\":10224:10379   */\n      swap2\n      pop\n        /* \"#utility.yul\":10396:10491   */\n      tag_151\n        /* \"#utility.yul\":10487:10490   */\n      dup3\n        /* \"#utility.yul\":10478:10484   */\n      dup5\n        /* \"#utility.yul\":10396:10491   */\n      tag_85\n      jump\t// in\n    tag_151:\n        /* \"#utility.yul\":10389:10491   */\n      swap2\n      pop\n        /* \"#utility.yul\":10508:10511   */\n      dup2\n        /* \"#utility.yul\":10501:10511   */\n      swap1\n      pop\n        /* \"#utility.yul\":5824:10517   */\n      swap9\n      swap8\n      pop\n      pop\n      pop\n      pop\n      pop\n      pop\n      pop\n      pop\n      jump\t// out\n        /* \"#utility.yul\":10523:10836   */\n    tag_9:\n        /* \"#utility.yul\":10636:10640   */\n      0x00\n        /* \"#utility.yul\":10674:10676   */\n      0x20\n        /* \"#utility.yul\":10663:10672   */\n      dup3\n        /* \"#utility.yul\":10659:10677   */\n      add\n        /* \"#utility.yul\":10651:10677   */\n      swap1\n      pop\n        /* \"#utility.yul\":10723:10732   */\n      dup2\n        /* \"#utility.yul\":10717:10721   */\n      dup2\n        /* \"#utility.yul\":10713:10733   */\n      sub\n        /* \"#utility.yul\":10709:10710   */\n      0x00\n        /* \"#utility.yul\":10698:10707   */\n      dup4\n        /* \"#utility.yul\":10694:10711   */\n      add\n        /* \"#utility.yul\":10687:10734   */\n      mstore\n        /* \"#utility.yul\":10751:10829   */\n      tag_153\n        /* \"#utility.yul\":10824:10828   */\n      dup2\n        /* \"#utility.yul\":10815:10821   */\n      dup5\n        /* \"#utility.yul\":10751:10829   */\n      tag_76\n      jump\t// in\n    tag_153:\n        /* \"#utility.yul\":10743:10829   */\n      swap1\n      pop\n        /* \"#utility.yul\":10523:10836   */\n      swap3\n      swap2\n      pop\n      pop\n      jump\t// out\n        /* \"#utility.yul\":10842:10971   */\n    tag_48:\n        /* \"#utility.yul\":10876:10882   */\n      0x00\n        /* \"#utility.yul\":10903:10923   */\n      tag_155\n      tag_156\n      jump\t// in\n    tag_155:\n        /* \"#utility.yul\":10893:10923   */\n      swap1\n      pop\n        /* \"#utility.yul\":10932:10965   */\n      tag_157\n        /* \"#utility.yul\":10960:10964   */\n      dup3\n        /* \"#utility.yul\":10952:10958   */\n      dup3\n        /* \"#utility.yul\":10932:10965   */\n      tag_158\n      jump\t// in\n    tag_157:\n        /* \"#utility.yul\":10842:10971   */\n      swap2\n      swap1\n      pop\n      jump\t// out\n        /* \"#utility.yul\":10977:11052   */\n    tag_156:\n        /* \"#utility.yul\":11010:11016   */\n      0x00\n        /* \"#utility.yul\":11043:11045   */\n      0x40\n        /* \"#utility.yul\":11037:11046   */\n      mload\n        /* \"#utility.yul\":11027:11046   */\n      swap1\n      pop\n        /* \"#utility.yul\":10977:11052   */\n      swap1\n      jump\t// out\n        /* \"#utility.yul\":11058:11366   */\n    tag_47:\n        /* \"#utility.yul\":11120:11124   */\n      0x00\n        /* \"#utility.yul\":11210:11228   */\n      0xffffffffffffffff\n        /* \"#utility.yul\":11202:11208   */\n      dup3\n        /* \"#utility.yul\":11199:11229   */\n      gt\n        /* \"#utility.yul\":11196:11252   */\n      iszero\n      tag_161\n      jumpi\n        /* \"#utility.yul\":11232:11250   */\n      tag_162\n      tag_163\n      jump\t// in\n    tag_162:\n        /* \"#utility.yul\":11196:11252   */\n    tag_161:\n        /* \"#utility.yul\":11270:11299   */\n      tag_164\n        /* \"#utility.yul\":11292:11298   */\n      dup3\n        /* \"#utility.yul\":11270:11299   */\n      tag_84\n      jump\t// in\n    tag_164:\n        /* \"#utility.yul\":11262:11299   */\n      swap1\n      pop\n        /* \"#utility.yul\":11354:11358   */\n      0x20\n        /* \"#utility.yul\":11348:11352   */\n      dup2\n        /* \"#utility.yul\":11344:11359   */\n      add\n        /* \"#utility.yul\":11336:11359   */\n      swap1\n      pop\n        /* \"#utility.yul\":11058:11366   */\n      swap2\n      swap1\n      pop\n      jump\t// out\n        /* \"#utility.yul\":11372:11471   */\n    tag_79:\n        /* \"#utility.yul\":11424:11430   */\n      0x00\n        /* \"#utility.yul\":11458:11463   */\n      dup2\n        /* \"#utility.yul\":11452:11464   */\n      mload\n        /* \"#utility.yul\":11442:11464   */\n      swap1\n      pop\n        /* \"#utility.yul\":11372:11471   */\n      swap2\n      swap1\n      pop\n      jump\t// out\n        /* \"#utility.yul\":11477:11646   */\n    tag_81:\n        /* \"#utility.yul\":11561:11572   */\n      0x00\n        /* \"#utility.yul\":11595:11601   */\n      dup3\n        /* \"#utility.yul\":11590:11593   */\n      dup3\n        /* \"#utility.yul\":11583:11602   */\n      mstore\n        /* \"#utility.yul\":11635:11639   */\n      0x20\n        /* \"#utility.yul\":11630:11633   */\n      dup3\n        /* \"#utility.yul\":11626:11640   */\n      add\n        /* \"#utility.yul\":11611:11640   */\n      swap1\n      pop\n        /* \"#utility.yul\":11477:11646   */\n      swap3\n      swap2\n      pop\n      pop\n      jump\t// out\n        /* \"#utility.yul\":11652:11800   */\n    tag_89:\n        /* \"#utility.yul\":11754:11765   */\n      0x00\n        /* \"#utility.yul\":11791:11794   */\n      dup2\n        /* \"#utility.yul\":11776:11794   */\n      swap1\n      pop\n        /* \"#utility.yul\":11652:11800   */\n      swap3\n      swap2\n      pop\n      pop\n      jump\t// out\n        /* \"#utility.yul\":11806:11902   */\n    tag_168:\n        /* \"#utility.yul\":11843:11850   */\n      0x00\n        /* \"#utility.yul\":11872:11896   */\n      tag_170\n        /* \"#utility.yul\":11890:11895   */\n      dup3\n        /* \"#utility.yul\":11872:11896   */\n      tag_171\n      jump\t// in\n    tag_170:\n        /* \"#utility.yul\":11861:11896   */\n      swap1\n      pop\n        /* \"#utility.yul\":11806:11902   */\n      swap2\n      swap1\n      pop\n      jump\t// out\n        /* \"#utility.yul\":11908:12034   */\n    tag_171:\n        /* \"#utility.yul\":11945:11952   */\n      0x00\n        /* \"#utility.yul\":11985:12027   */\n      0xffffffffffffffffffffffffffffffffffffffff\n        /* \"#utility.yul\":11978:11983   */\n      dup3\n        /* \"#utility.yul\":11974:12028   */\n      and\n        /* \"#utility.yul\":11963:12028   */\n      swap1\n      pop\n        /* \"#utility.yul\":11908:12034   */\n      swap2\n      swap1\n      pop\n      jump\t// out\n        /* \"#utility.yul\":12040:12347   */\n    tag_53:\n        /* \"#utility.yul\":12108:12109   */\n      0x00\n        /* \"#utility.yul\":12118:12231   */\n    tag_174:\n        /* \"#utility.yul\":12132:12138   */\n      dup4\n        /* \"#utility.yul\":12129:12130   */\n      dup2\n        /* \"#utility.yul\":12126:12139   */\n      lt\n        /* \"#utility.yul\":12118:12231   */\n      iszero\n      tag_176\n      jumpi\n        /* \"#utility.yul\":12217:12218   */\n      dup1\n        /* \"#utility.yul\":12212:12215   */\n      dup3\n        /* \"#utility.yul\":12208:12219   */\n      add\n        /* \"#utility.yul\":12202:12220   */\n      mload\n        /* \"#utility.yul\":12198:12199   */\n      dup2\n        /* \"#utility.yul\":12193:12196   */\n      dup5\n        /* \"#utility.yul\":12189:12200   */\n      add\n        /* \"#utility.yul\":12182:12221   */\n      mstore\n        /* \"#utility.yul\":12154:12156   */\n      0x20\n        /* \"#utility.yul\":12151:12152   */\n      dup2\n        /* \"#utility.yul\":12147:12157   */\n      add\n        /* \"#utility.yul\":12142:12157   */\n      swap1\n      pop\n        /* \"#utility.yul\":12118:12231   */\n      jump(tag_174)\n    tag_176:\n        /* \"#utility.yul\":12249:12255   */\n      dup4\n        /* \"#utility.yul\":12246:12247   */\n      dup2\n        /* \"#utility.yul\":12243:12256   */\n      gt\n        /* \"#utility.yul\":12240:12341   */\n      iszero\n      tag_177\n      jumpi\n        /* \"#utility.yul\":12329:12330   */\n      0x00\n        /* \"#utility.yul\":12320:12326   */\n      dup5\n        /* \"#utility.yul\":12315:12318   */\n      dup5\n        /* \"#utility.yul\":12311:12327   */\n      add\n        /* \"#utility.yul\":12304:12331   */\n      mstore\n        /* \"#utility.yul\":12240:12341   */\n    tag_177:\n        /* \"#utility.yul\":12089:12347   */\n      pop\n        /* \"#utility.yul\":12040:12347   */\n      pop\n      pop\n      pop\n      jump\t// out\n        /* \"#utility.yul\":12353:12634   */\n    tag_158:\n        /* \"#utility.yul\":12436:12463   */\n      tag_179\n        /* \"#utility.yul\":12458:12462   */\n      dup3\n        /* \"#utility.yul\":12436:12463   */\n      tag_84\n      jump\t// in\n    tag_179:\n        /* \"#utility.yul\":12428:12434   */\n      dup2\n        /* \"#utility.yul\":12424:12464   */\n      add\n        /* \"#utility.yul\":12566:12572   */\n      dup2\n        /* \"#utility.yul\":12554:12564   */\n      dup2\n        /* \"#utility.yul\":12551:12573   */\n      lt\n        /* \"#utility.yul\":12530:12548   */\n      0xffffffffffffffff\n        /* \"#utility.yul\":12518:12528   */\n      dup3\n        /* \"#utility.yul\":12515:12549   */\n      gt\n        /* \"#utility.yul\":12512:12574   */\n      or\n        /* \"#utility.yul\":12509:12597   */\n      iszero\n      tag_180\n      jumpi\n        /* \"#utility.yul\":12577:12595   */\n      tag_181\n      tag_163\n      jump\t// in\n    tag_181:\n        /* \"#utility.yul\":12509:12597   */\n    tag_180:\n        /* \"#utility.yul\":12617:12627   */\n      dup1\n        /* \"#utility.yul\":12613:12615   */\n      0x40\n        /* \"#utility.yul\":12606:12628   */\n      mstore\n        /* \"#utility.yul\":12396:12634   */\n      pop\n        /* \"#utility.yul\":12353:12634   */\n      pop\n      pop\n      jump\t// out\n        /* \"#utility.yul\":12640:12820   */\n    tag_163:\n        /* \"#utility.yul\":12688:12765   */\n      0x4e487b7100000000000000000000000000000000000000000000000000000000\n        /* \"#utility.yul\":12685:12686   */\n      0x00\n        /* \"#utility.yul\":12678:12766   */\n      mstore\n        /* \"#utility.yul\":12785:12789   */\n      0x41\n        /* \"#utility.yul\":12782:12783   */\n      0x04\n        /* \"#utility.yul\":12775:12790   */\n      mstore\n        /* \"#utility.yul\":12809:12813   */\n      0x24\n        /* \"#utility.yul\":12806:12807   */\n      0x00\n        /* \"#utility.yul\":12799:12814   */\n      revert\n        /* \"#utility.yul\":12826:12943   */\n    tag_62:\n        /* \"#utility.yul\":12935:12936   */\n      0x00\n        /* \"#utility.yul\":12932:12933   */\n      dup1\n        /* \"#utility.yul\":12925:12937   */\n      revert\n        /* \"#utility.yul\":12949:13066   */\n    tag_51:\n        /* \"#utility.yul\":13058:13059   */\n      0x00\n        /* \"#utility.yul\":13055:13056   */\n      dup1\n        /* \"#utility.yul\":13048:13060   */\n      revert\n        /* \"#utility.yul\":13072:13189   */\n    tag_74:\n        /* \"#utility.yul\":13181:13182   */\n      0x00\n        /* \"#utility.yul\":13178:13179   */\n      dup1\n        /* \"#utility.yul\":13171:13183   */\n      revert\n        /* \"#utility.yul\":13195:13312   */\n    tag_67:\n        /* \"#utility.yul\":13304:13305   */\n      0x00\n        /* \"#utility.yul\":13301:13302   */\n      dup1\n        /* \"#utility.yul\":13294:13306   */\n      revert\n        /* \"#utility.yul\":13318:13420   */\n    tag_84:\n        /* \"#utility.yul\":13359:13365   */\n      0x00\n        /* \"#utility.yul\":13410:13412   */\n      0x1f\n        /* \"#utility.yul\":13406:13413   */\n      not\n        /* \"#utility.yul\":13401:13403   */\n      0x1f\n        /* \"#utility.yul\":13394:13399   */\n      dup4\n        /* \"#utility.yul\":13390:13404   */\n      add\n        /* \"#utility.yul\":13386:13414   */\n      and\n        /* \"#utility.yul\":13376:13414   */\n      swap1\n      pop\n        /* \"#utility.yul\":13318:13420   */\n      swap2\n      swap1\n      pop\n      jump\t// out\n        /* \"#utility.yul\":13426:13582   */\n    tag_95:\n        /* \"#utility.yul\":13566:13574   */\n      0x436f6c6f723a0000000000000000000000000000000000000000000000000000\n        /* \"#utility.yul\":13562:13563   */\n      0x00\n        /* \"#utility.yul\":13554:13560   */\n      dup3\n        /* \"#utility.yul\":13550:13564   */\n      add\n        /* \"#utility.yul\":13543:13575   */\n      mstore\n        /* \"#utility.yul\":13426:13582   */\n      pop\n      jump\t// out\n        /* \"#utility.yul\":13588:13755   */\n    tag_100:\n        /* \"#utility.yul\":13728:13747   */\n      0x4d6572696b656c726f6f7476616c75653a000000000000000000000000000000\n        /* \"#utility.yul\":13724:13725   */\n      0x00\n        /* \"#utility.yul\":13716:13722   */\n      dup3\n        /* \"#utility.yul\":13712:13726   */\n      add\n        /* \"#utility.yul\":13705:13748   */\n      mstore\n        /* \"#utility.yul\":13588:13755   */\n      pop\n      jump\t// out\n        /* \"#utility.yul\":13761:13914   */\n    tag_105:\n        /* \"#utility.yul\":13901:13906   */\n      0x207c200000000000000000000000000000000000000000000000000000000000\n        /* \"#utility.yul\":13897:13898   */\n      0x00\n        /* \"#utility.yul\":13889:13895   */\n      dup3\n        /* \"#utility.yul\":13885:13899   */\n      add\n        /* \"#utility.yul\":13878:13907   */\n      mstore\n        /* \"#utility.yul\":13761:13914   */\n      pop\n      jump\t// out\n        /* \"#utility.yul\":13920:14076   */\n    tag_110:\n        /* \"#utility.yul\":14060:14068   */\n      0x4272616e643a0000000000000000000000000000000000000000000000000000\n        /* \"#utility.yul\":14056:14057   */\n      0x00\n        /* \"#utility.yul\":14048:14054   */\n      dup3\n        /* \"#utility.yul\":14044:14058   */\n      add\n        /* \"#utility.yul\":14037:14069   */\n      mstore\n        /* \"#utility.yul\":13920:14076   */\n      pop\n      jump\t// out\n        /* \"#utility.yul\":14082:14240   */\n    tag_115:\n        /* \"#utility.yul\":14222:14232   */\n      0x4f77656e6442793a000000000000000000000000000000000000000000000000\n        /* \"#utility.yul\":14218:14219   */\n      0x00\n        /* \"#utility.yul\":14210:14216   */\n      dup3\n        /* \"#utility.yul\":14206:14220   */\n      add\n        /* \"#utility.yul\":14199:14233   */\n      mstore\n        /* \"#utility.yul\":14082:14240   */\n      pop\n      jump\t// out\n        /* \"#utility.yul\":14246:14402   */\n    tag_120:\n        /* \"#utility.yul\":14386:14394   */\n      0x4d6f64656c3a0000000000000000000000000000000000000000000000000000\n        /* \"#utility.yul\":14382:14383   */\n      0x00\n        /* \"#utility.yul\":14374:14380   */\n      dup3\n        /* \"#utility.yul\":14370:14384   */\n      add\n        /* \"#utility.yul\":14363:14395   */\n      mstore\n        /* \"#utility.yul\":14246:14402   */\n      pop\n      jump\t// out\n        /* \"#utility.yul\":14408:14564   */\n    tag_125:\n        /* \"#utility.yul\":14548:14556   */\n      0x52656749443a0000000000000000000000000000000000000000000000000000\n        /* \"#utility.yul\":14544:14545   */\n      0x00\n        /* \"#utility.yul\":14536:14542   */\n      dup3\n        /* \"#utility.yul\":14532:14546   */\n      add\n        /* \"#utility.yul\":14525:14557   */\n      mstore\n        /* \"#utility.yul\":14408:14564   */\n      pop\n      jump\t// out\n        /* \"#utility.yul\":14570:14732   */\n    tag_130:\n        /* \"#utility.yul\":14710:14724   */\n      0x4372656174656454696d653a0000000000000000000000000000000000000000\n        /* \"#utility.yul\":14706:14707   */\n      0x00\n        /* \"#utility.yul\":14698:14704   */\n      dup3\n        /* \"#utility.yul\":14694:14708   */\n      add\n        /* \"#utility.yul\":14687:14725   */\n      mstore\n        /* \"#utility.yul\":14570:14732   */\n      pop\n      jump\t// out\n        /* \"#utility.yul\":14738:14860   */\n    tag_57:\n        /* \"#utility.yul\":14811:14835   */\n      tag_197\n        /* \"#utility.yul\":14829:14834   */\n      dup2\n        /* \"#utility.yul\":14811:14835   */\n      tag_168\n      jump\t// in\n    tag_197:\n        /* \"#utility.yul\":14804:14809   */\n      dup2\n        /* \"#utility.yul\":14801:14836   */\n      eq\n        /* \"#utility.yul\":14791:14854   */\n      tag_198\n      jumpi\n        /* \"#utility.yul\":14850:14851   */\n      0x00\n        /* \"#utility.yul\":14847:14848   */\n      dup1\n        /* \"#utility.yul\":14840:14852   */\n      revert\n        /* \"#utility.yul\":14791:14854   */\n    tag_198:\n        /* \"#utility.yul\":14738:14860   */\n      pop\n      jump\t// out\n\n    auxdata: 0xa2646970667358221220051e1a9315aa83852693559c56dd5c8d1e2268432d3127bee65b729f7455667a64736f6c63430008070033\n}\n",
				"bytecode": {
					"linkReferences": {},
					"object": "608060405234801561001057600080fd5b50610ab8806100206000396000f3fe608060405234801561001057600080fd5b506004361061002b5760003560e01c806345e523b514610030575b600080fd5b61004a600480360381019061004591906104ae565b610060565b604051610057919061079a565b60405180910390f35b606060008290508073ffffffffffffffffffffffffffffffffffffffff1663d1d5400d6040518163ffffffff1660e01b815260040160006040518083038186803b1580156100ad57600080fd5b505afa1580156100c1573d6000803e3d6000fd5b505050506040513d6000823e3d601f19601f820116820180604052508101906100ea91906104db565b8173ffffffffffffffffffffffffffffffffffffffff1663ca3740de6040518163ffffffff1660e01b815260040160006040518083038186803b15801561013057600080fd5b505afa158015610144573d6000803e3d6000fd5b505050506040513d6000823e3d601f19601f8201168201806040525081019061016d91906104db565b8273ffffffffffffffffffffffffffffffffffffffff16631ba7b1f76040518163ffffffff1660e01b815260040160006040518083038186803b1580156101b357600080fd5b505afa1580156101c7573d6000803e3d6000fd5b505050506040513d6000823e3d601f19601f820116820180604052508101906101f091906104db565b8373ffffffffffffffffffffffffffffffffffffffff166322e5ba7c6040518163ffffffff1660e01b815260040160006040518083038186803b15801561023657600080fd5b505afa15801561024a573d6000803e3d6000fd5b505050506040513d6000823e3d601f19601f8201168201806040525081019061027391906104db565b8473ffffffffffffffffffffffffffffffffffffffff1663e12d7db46040518163ffffffff1660e01b815260040160006040518083038186803b1580156102b957600080fd5b505afa1580156102cd573d6000803e3d6000fd5b505050506040513d6000823e3d601f19601f820116820180604052508101906102f691906104db565b8573ffffffffffffffffffffffffffffffffffffffff166350ca09076040518163ffffffff1660e01b815260040160006040518083038186803b15801561033c57600080fd5b505afa158015610350573d6000803e3d6000fd5b505050506040513d6000823e3d601f19601f8201168201806040525081019061037991906104db565b8673ffffffffffffffffffffffffffffffffffffffff1663ced7142c6040518163ffffffff1660e01b815260040160006040518083038186803b1580156103bf57600080fd5b505afa1580156103d3573d6000803e3d6000fd5b505050506040513d6000823e3d601f19601f820116820180604052508101906103fc91906104db565b60405160200161041297969594939291906106a6565b604051602081830303815290604052915050919050565b600061043c610437846107e1565b6107bc565b90508281526020810184848401111561045857610457610903565b5b61046384828561086b565b509392505050565b60008135905061047a81610a6b565b92915050565b600082601f830112610495576104946108fe565b5b81516104a5848260208601610429565b91505092915050565b6000602082840312156104c4576104c361090d565b5b60006104d28482850161046b565b91505092915050565b6000602082840312156104f1576104f061090d565b5b600082015167ffffffffffffffff81111561050f5761050e610908565b5b61051b84828501610480565b91505092915050565b600061052f82610812565b610539818561081d565b935061054981856020860161086b565b61055281610912565b840191505092915050565b600061056882610812565b610572818561082e565b935061058281856020860161086b565b80840191505092915050565b600061059b60068361082e565b91506105a682610923565b600682019050919050565b60006105be60118361082e565b91506105c98261094c565b601182019050919050565b60006105e160038361082e565b91506105ec82610975565b600382019050919050565b600061060460068361082e565b915061060f8261099e565b600682019050919050565b600061062760088361082e565b9150610632826109c7565b600882019050919050565b600061064a60068361082e565b9150610655826109f0565b600682019050919050565b600061066d60068361082e565b915061067882610a19565b600682019050919050565b6000610690600c8361082e565b915061069b82610a42565b600c82019050919050565b60006106b182610660565b91506106bd828a61055d565b91506106c8826105d4565b91506106d3826105f7565b91506106df828961055d565b91506106ea826105d4565b91506106f58261063d565b9150610701828861055d565b915061070c826105d4565b91506107178261058e565b9150610723828761055d565b915061072e826105d4565b9150610739826105b1565b9150610745828661055d565b9150610750826105d4565b915061075b8261061a565b9150610767828561055d565b9150610772826105d4565b915061077d82610683565b9150610789828461055d565b915081905098975050505050505050565b600060208201905081810360008301526107b48184610524565b905092915050565b60006107c66107d7565b90506107d2828261089e565b919050565b6000604051905090565b600067ffffffffffffffff8211156107fc576107fb6108cf565b5b61080582610912565b9050602081019050919050565b600081519050919050565b600082825260208201905092915050565b600081905092915050565b60006108448261084b565b9050919050565b600073ffffffffffffffffffffffffffffffffffffffff82169050919050565b60005b8381101561088957808201518184015260208101905061086e565b83811115610898576000848401525b50505050565b6108a782610912565b810181811067ffffffffffffffff821117156108c6576108c56108cf565b5b80604052505050565b7f4e487b7100000000000000000000000000000000000000000000000000000000600052604160045260246000fd5b600080fd5b600080fd5b600080fd5b600080fd5b6000601f19601f8301169050919050565b7f436f6c6f723a0000000000000000000000000000000000000000000000000000600082015250565b7f4d6572696b656c726f6f7476616c75653a000000000000000000000000000000600082015250565b7f207c200000000000000000000000000000000000000000000000000000000000600082015250565b7f4272616e643a0000000000000000000000000000000000000000000000000000600082015250565b7f4f77656e6442793a000000000000000000000000000000000000000000000000600082015250565b7f4d6f64656c3a0000000000000000000000000000000000000000000000000000600082015250565b7f52656749443a0000000000000000000000000000000000000000000000000000600082015250565b7f4372656174656454696d653a0000000000000000000000000000000000000000600082015250565b610a7481610839565b8114610a7f57600080fd5b5056fea2646970667358221220051e1a9315aa83852693559c56dd5c8d1e2268432d3127bee65b729f7455667a64736f6c63430008070033",
					"opcodes": "PUSH1 0x80 PUSH1 0x40 MSTORE CALLVALUE DUP1 ISZERO PUSH2 0x10 JUMPI PUSH1 0x0 DUP1 REVERT JUMPDEST POP PUSH2 0xAB8 DUP1 PUSH2 0x20 PUSH1 0x0 CODECOPY PUSH1 0x0 RETURN INVALID PUSH1 0x80 PUSH1 0x40 MSTORE CALLVALUE DUP1 ISZERO PUSH2 0x10 JUMPI PUSH1 0x0 DUP1 REVERT JUMPDEST POP PUSH1 0x4 CALLDATASIZE LT PUSH2 0x2B JUMPI PUSH1 0x0 CALLDATALOAD PUSH1 0xE0 SHR DUP1 PUSH4 0x45E523B5 EQ PUSH2 0x30 JUMPI JUMPDEST PUSH1 0x0 DUP1 REVERT JUMPDEST PUSH2 0x4A PUSH1 0x4 DUP1 CALLDATASIZE SUB DUP2 ADD SWAP1 PUSH2 0x45 SWAP2 SWAP1 PUSH2 0x4AE JUMP JUMPDEST PUSH2 0x60 JUMP JUMPDEST PUSH1 0x40 MLOAD PUSH2 0x57 SWAP2 SWAP1 PUSH2 0x79A JUMP JUMPDEST PUSH1 0x40 MLOAD DUP1 SWAP2 SUB SWAP1 RETURN JUMPDEST PUSH1 0x60 PUSH1 0x0 DUP3 SWAP1 POP DUP1 PUSH20 0xFFFFFFFFFFFFFFFFFFFFFFFFFFFFFFFFFFFFFFFF AND PUSH4 0xD1D5400D PUSH1 0x40 MLOAD DUP2 PUSH4 0xFFFFFFFF AND PUSH1 0xE0 SHL DUP2 MSTORE PUSH1 0x4 ADD PUSH1 0x0 PUSH1 0x40 MLOAD DUP1 DUP4 SUB DUP2 DUP7 DUP1 EXTCODESIZE ISZERO DUP1 ISZERO PUSH2 0xAD JUMPI PUSH1 0x0 DUP1 REVERT JUMPDEST POP GAS STATICCALL ISZERO DUP1 ISZERO PUSH2 0xC1 JUMPI RETURNDATASIZE PUSH1 0x0 DUP1 RETURNDATACOPY RETURNDATASIZE PUSH1 0x0 REVERT JUMPDEST POP POP POP POP PUSH1 0x40 MLOAD RETURNDATASIZE PUSH1 0x0 DUP3 RETURNDATACOPY RETURNDATASIZE PUSH1 0x1F NOT PUSH1 0x1F DUP3 ADD AND DUP3 ADD DUP1 PUSH1 0x40 MSTORE POP DUP2 ADD SWAP1 PUSH2 0xEA SWAP2 SWAP1 PUSH2 0x4DB JUMP JUMPDEST DUP2 PUSH20 0xFFFFFFFFFFFFFFFFFFFFFFFFFFFFFFFFFFFFFFFF AND PUSH4 0xCA3740DE PUSH1 0x40 MLOAD DUP2 PUSH4 0xFFFFFFFF AND PUSH1 0xE0 SHL DUP2 MSTORE PUSH1 0x4 ADD PUSH1 0x0 PUSH1 0x40 MLOAD DUP1 DUP4 SUB DUP2 DUP7 DUP1 EXTCODESIZE ISZERO DUP1 ISZERO PUSH2 0x130 JUMPI PUSH1 0x0 DUP1 REVERT JUMPDEST POP GAS STATICCALL ISZERO DUP1 ISZERO PUSH2 0x144 JUMPI RETURNDATASIZE PUSH1 0x0 DUP1 RETURNDATACOPY RETURNDATASIZE PUSH1 0x0 REVERT JUMPDEST POP POP POP POP PUSH1 0x40 MLOAD RETURNDATASIZE PUSH1 0x0 DUP3 RETURNDATACOPY RETURNDATASIZE PUSH1 0x1F NOT PUSH1 0x1F DUP3 ADD AND DUP3 ADD DUP1 PUSH1 0x40 MSTORE POP DUP2 ADD SWAP1 PUSH2 0x16D SWAP2 SWAP1 PUSH2 0x4DB JUMP JUMPDEST DUP3 PUSH20 0xFFFFFFFFFFFFFFFFFFFFFFFFFFFFFFFFFFFFFFFF AND PUSH4 0x1BA7B1F7 PUSH1 0x40 MLOAD DUP2 PUSH4 0xFFFFFFFF AND PUSH1 0xE0 SHL DUP2 MSTORE PUSH1 0x4 ADD PUSH1 0x0 PUSH1 0x40 MLOAD DUP1 DUP4 SUB DUP2 DUP7 DUP1 EXTCODESIZE ISZERO DUP1 ISZERO PUSH2 0x1B3 JUMPI PUSH1 0x0 DUP1 REVERT JUMPDEST POP GAS STATICCALL ISZERO DUP1 ISZERO PUSH2 0x1C7 JUMPI RETURNDATASIZE PUSH1 0x0 DUP1 RETURNDATACOPY RETURNDATASIZE PUSH1 0x0 REVERT JUMPDEST POP POP POP POP PUSH1 0x40 MLOAD RETURNDATASIZE PUSH1 0x0 DUP3 RETURNDATACOPY RETURNDATASIZE PUSH1 0x1F NOT PUSH1 0x1F DUP3 ADD AND DUP3 ADD DUP1 PUSH1 0x40 MSTORE POP DUP2 ADD SWAP1 PUSH2 0x1F0 SWAP2 SWAP1 PUSH2 0x4DB JUMP JUMPDEST DUP4 PUSH20 0xFFFFFFFFFFFFFFFFFFFFFFFFFFFFFFFFFFFFFFFF AND PUSH4 0x22E5BA7C PUSH1 0x40 MLOAD DUP2 PUSH4 0xFFFFFFFF AND PUSH1 0xE0 SHL DUP2 MSTORE PUSH1 0x4 ADD PUSH1 0x0 PUSH1 0x40 MLOAD DUP1 DUP4 SUB DUP2 DUP7 DUP1 EXTCODESIZE ISZERO DUP1 ISZERO PUSH2 0x236 JUMPI PUSH1 0x0 DUP1 REVERT JUMPDEST POP GAS STATICCALL ISZERO DUP1 ISZERO PUSH2 0x24A JUMPI RETURNDATASIZE PUSH1 0x0 DUP1 RETURNDATACOPY RETURNDATASIZE PUSH1 0x0 REVERT JUMPDEST POP POP POP POP PUSH1 0x40 MLOAD RETURNDATASIZE PUSH1 0x0 DUP3 RETURNDATACOPY RETURNDATASIZE PUSH1 0x1F NOT PUSH1 0x1F DUP3 ADD AND DUP3 ADD DUP1 PUSH1 0x40 MSTORE POP DUP2 ADD SWAP1 PUSH2 0x273 SWAP2 SWAP1 PUSH2 0x4DB JUMP JUMPDEST DUP5 PUSH20 0xFFFFFFFFFFFFFFFFFFFFFFFFFFFFFFFFFFFFFFFF AND PUSH4 0xE12D7DB4 PUSH1 0x40 MLOAD DUP2 PUSH4 0xFFFFFFFF AND PUSH1 0xE0 SHL DUP2 MSTORE PUSH1 0x4 ADD PUSH1 0x0 PUSH1 0x40 MLOAD DUP1 DUP4 SUB DUP2 DUP7 DUP1 EXTCODESIZE ISZERO DUP1 ISZERO PUSH2 0x2B9 JUMPI PUSH1 0x0 DUP1 REVERT JUMPDEST POP GAS STATICCALL ISZERO DUP1 ISZERO PUSH2 0x2CD JUMPI RETURNDATASIZE PUSH1 0x0 DUP1 RETURNDATACOPY RETURNDATASIZE PUSH1 0x0 REVERT JUMPDEST POP POP POP POP PUSH1 0x40 MLOAD RETURNDATASIZE PUSH1 0x0 DUP3 RETURNDATACOPY RETURNDATASIZE PUSH1 0x1F NOT PUSH1 0x1F DUP3 ADD AND DUP3 ADD DUP1 PUSH1 0x40 MSTORE POP DUP2 ADD SWAP1 PUSH2 0x2F6 SWAP2 SWAP1 PUSH2 0x4DB JUMP JUMPDEST DUP6 PUSH20 0xFFFFFFFFFFFFFFFFFFFFFFFFFFFFFFFFFFFFFFFF AND PUSH4 0x50CA0907 PUSH1 0x40 MLOAD DUP2 PUSH4 0xFFFFFFFF AND PUSH1 0xE0 SHL DUP2 MSTORE PUSH1 0x4 ADD PUSH1 0x0 PUSH1 0x40 MLOAD DUP1 DUP4 SUB DUP2 DUP7 DUP1 EXTCODESIZE ISZERO DUP1 ISZERO PUSH2 0x33C JUMPI PUSH1 0x0 DUP1 REVERT JUMPDEST POP GAS STATICCALL ISZERO DUP1 ISZERO PUSH2 0x350 JUMPI RETURNDATASIZE PUSH1 0x0 DUP1 RETURNDATACOPY RETURNDATASIZE PUSH1 0x0 REVERT JUMPDEST POP POP POP POP PUSH1 0x40 MLOAD RETURNDATASIZE PUSH1 0x0 DUP3 RETURNDATACOPY RETURNDATASIZE PUSH1 0x1F NOT PUSH1 0x1F DUP3 ADD AND DUP3 ADD DUP1 PUSH1 0x40 MSTORE POP DUP2 ADD SWAP1 PUSH2 0x379 SWAP2 SWAP1 PUSH2 0x4DB JUMP JUMPDEST DUP7 PUSH20 0xFFFFFFFFFFFFFFFFFFFFFFFFFFFFFFFFFFFFFFFF AND PUSH4 0xCED7142C PUSH1 0x40 MLOAD DUP2 PUSH4 0xFFFFFFFF AND PUSH1 0xE0 SHL DUP2 MSTORE PUSH1 0x4 ADD PUSH1 0x0 PUSH1 0x40 MLOAD DUP1 DUP4 SUB DUP2 DUP7 DUP1 EXTCODESIZE ISZERO DUP1 ISZERO PUSH2 0x3BF JUMPI PUSH1 0x0 DUP1 REVERT JUMPDEST POP GAS STATICCALL ISZERO DUP1 ISZERO PUSH2 0x3D3 JUMPI RETURNDATASIZE PUSH1 0x0 DUP1 RETURNDATACOPY RETURNDATASIZE PUSH1 0x0 REVERT JUMPDEST POP POP POP POP PUSH1 0x40 MLOAD RETURNDATASIZE PUSH1 0x0 DUP3 RETURNDATACOPY RETURNDATASIZE PUSH1 0x1F NOT PUSH1 0x1F DUP3 ADD AND DUP3 ADD DUP1 PUSH1 0x40 MSTORE POP DUP2 ADD SWAP1 PUSH2 0x3FC SWAP2 SWAP1 PUSH2 0x4DB JUMP JUMPDEST PUSH1 0x40 MLOAD PUSH1 0x20 ADD PUSH2 0x412 SWAP8 SWAP7 SWAP6 SWAP5 SWAP4 SWAP3 SWAP2 SWAP1 PUSH2 0x6A6 JUMP JUMPDEST PUSH1 0x40 MLOAD PUSH1 0x20 DUP2 DUP4 SUB SUB DUP2 MSTORE SWAP1 PUSH1 0x40 MSTORE SWAP2 POP POP SWAP2 SWAP1 POP JUMP JUMPDEST PUSH1 0x0 PUSH2 0x43C PUSH2 0x437 DUP5 PUSH2 0x7E1 JUMP JUMPDEST PUSH2 0x7BC JUMP JUMPDEST SWAP1 POP DUP3 DUP2 MSTORE PUSH1 0x20 DUP2 ADD DUP5 DUP5 DUP5 ADD GT ISZERO PUSH2 0x458 JUMPI PUSH2 0x457 PUSH2 0x903 JUMP JUMPDEST JUMPDEST PUSH2 0x463 DUP5 DUP3 DUP6 PUSH2 0x86B JUMP JUMPDEST POP SWAP4 SWAP3 POP POP POP JUMP JUMPDEST PUSH1 0x0 DUP2 CALLDATALOAD SWAP1 POP PUSH2 0x47A DUP2 PUSH2 0xA6B JUMP JUMPDEST SWAP3 SWAP2 POP POP JUMP JUMPDEST PUSH1 0x0 DUP3 PUSH1 0x1F DUP4 ADD SLT PUSH2 0x495 JUMPI PUSH2 0x494 PUSH2 0x8FE JUMP JUMPDEST JUMPDEST DUP2 MLOAD PUSH2 0x4A5 DUP5 DUP3 PUSH1 0x20 DUP7 ADD PUSH2 0x429 JUMP JUMPDEST SWAP2 POP POP SWAP3 SWAP2 POP POP JUMP JUMPDEST PUSH1 0x0 PUSH1 0x20 DUP3 DUP5 SUB SLT ISZERO PUSH2 0x4C4 JUMPI PUSH2 0x4C3 PUSH2 0x90D JUMP JUMPDEST JUMPDEST PUSH1 0x0 PUSH2 0x4D2 DUP5 DUP3 DUP6 ADD PUSH2 0x46B JUMP JUMPDEST SWAP2 POP POP SWAP3 SWAP2 POP POP JUMP JUMPDEST PUSH1 0x0 PUSH1 0x20 DUP3 DUP5 SUB SLT ISZERO PUSH2 0x4F1 JUMPI PUSH2 0x4F0 PUSH2 0x90D JUMP JUMPDEST JUMPDEST PUSH1 0x0 DUP3 ADD MLOAD PUSH8 0xFFFFFFFFFFFFFFFF DUP2 GT ISZERO PUSH2 0x50F JUMPI PUSH2 0x50E PUSH2 0x908 JUMP JUMPDEST JUMPDEST PUSH2 0x51B DUP5 DUP3 DUP6 ADD PUSH2 0x480 JUMP JUMPDEST SWAP2 POP POP SWAP3 SWAP2 POP POP JUMP JUMPDEST PUSH1 0x0 PUSH2 0x52F DUP3 PUSH2 0x812 JUMP JUMPDEST PUSH2 0x539 DUP2 DUP6 PUSH2 0x81D JUMP JUMPDEST SWAP4 POP PUSH2 0x549 DUP2 DUP6 PUSH1 0x20 DUP7 ADD PUSH2 0x86B JUMP JUMPDEST PUSH2 0x552 DUP2 PUSH2 0x912 JUMP JUMPDEST DUP5 ADD SWAP2 POP POP SWAP3 SWAP2 POP POP JUMP JUMPDEST PUSH1 0x0 PUSH2 0x568 DUP3 PUSH2 0x812 JUMP JUMPDEST PUSH2 0x572 DUP2 DUP6 PUSH2 0x82E JUMP JUMPDEST SWAP4 POP PUSH2 0x582 DUP2 DUP6 PUSH1 0x20 DUP7 ADD PUSH2 0x86B JUMP JUMPDEST DUP1 DUP5 ADD SWAP2 POP POP SWAP3 SWAP2 POP POP JUMP JUMPDEST PUSH1 0x0 PUSH2 0x59B PUSH1 0x6 DUP4 PUSH2 0x82E JUMP JUMPDEST SWAP2 POP PUSH2 0x5A6 DUP3 PUSH2 0x923 JUMP JUMPDEST PUSH1 0x6 DUP3 ADD SWAP1 POP SWAP2 SWAP1 POP JUMP JUMPDEST PUSH1 0x0 PUSH2 0x5BE PUSH1 0x11 DUP4 PUSH2 0x82E JUMP JUMPDEST SWAP2 POP PUSH2 0x5C9 DUP3 PUSH2 0x94C JUMP JUMPDEST PUSH1 0x11 DUP3 ADD SWAP1 POP SWAP2 SWAP1 POP JUMP JUMPDEST PUSH1 0x0 PUSH2 0x5E1 PUSH1 0x3 DUP4 PUSH2 0x82E JUMP JUMPDEST SWAP2 POP PUSH2 0x5EC DUP3 PUSH2 0x975 JUMP JUMPDEST PUSH1 0x3 DUP3 ADD SWAP1 POP SWAP2 SWAP1 POP JUMP JUMPDEST PUSH1 0x0 PUSH2 0x604 PUSH1 0x6 DUP4 PUSH2 0x82E JUMP JUMPDEST SWAP2 POP PUSH2 0x60F DUP3 PUSH2 0x99E JUMP JUMPDEST PUSH1 0x6 DUP3 ADD SWAP1 POP SWAP2 SWAP1 POP JUMP JUMPDEST PUSH1 0x0 PUSH2 0x627 PUSH1 0x8 DUP4 PUSH2 0x82E JUMP JUMPDEST SWAP2 POP PUSH2 0x632 DUP3 PUSH2 0x9C7 JUMP JUMPDEST PUSH1 0x8 DUP3 ADD SWAP1 POP SWAP2 SWAP1 POP JUMP JUMPDEST PUSH1 0x0 PUSH2 0x64A PUSH1 0x6 DUP4 PUSH2 0x82E JUMP JUMPDEST SWAP2 POP PUSH2 0x655 DUP3 PUSH2 0x9F0 JUMP JUMPDEST PUSH1 0x6 DUP3 ADD SWAP1 POP SWAP2 SWAP1 POP JUMP JUMPDEST PUSH1 0x0 PUSH2 0x66D PUSH1 0x6 DUP4 PUSH2 0x82E JUMP JUMPDEST SWAP2 POP PUSH2 0x678 DUP3 PUSH2 0xA19 JUMP JUMPDEST PUSH1 0x6 DUP3 ADD SWAP1 POP SWAP2 SWAP1 POP JUMP JUMPDEST PUSH1 0x0 PUSH2 0x690 PUSH1 0xC DUP4 PUSH2 0x82E JUMP JUMPDEST SWAP2 POP PUSH2 0x69B DUP3 PUSH2 0xA42 JUMP JUMPDEST PUSH1 0xC DUP3 ADD SWAP1 POP SWAP2 SWAP1 POP JUMP JUMPDEST PUSH1 0x0 PUSH2 0x6B1 DUP3 PUSH2 0x660 JUMP JUMPDEST SWAP2 POP PUSH2 0x6BD DUP3 DUP11 PUSH2 0x55D JUMP JUMPDEST SWAP2 POP PUSH2 0x6C8 DUP3 PUSH2 0x5D4 JUMP JUMPDEST SWAP2 POP PUSH2 0x6D3 DUP3 PUSH2 0x5F7 JUMP JUMPDEST SWAP2 POP PUSH2 0x6DF DUP3 DUP10 PUSH2 0x55D JUMP JUMPDEST SWAP2 POP PUSH2 0x6EA DUP3 PUSH2 0x5D4 JUMP JUMPDEST SWAP2 POP PUSH2 0x6F5 DUP3 PUSH2 0x63D JUMP JUMPDEST SWAP2 POP PUSH2 0x701 DUP3 DUP9 PUSH2 0x55D JUMP JUMPDEST SWAP2 POP PUSH2 0x70C DUP3 PUSH2 0x5D4 JUMP JUMPDEST SWAP2 POP PUSH2 0x717 DUP3 PUSH2 0x58E JUMP JUMPDEST SWAP2 POP PUSH2 0x723 DUP3 DUP8 PUSH2 0x55D JUMP JUMPDEST SWAP2 POP PUSH2 0x72E DUP3 PUSH2 0x5D4 JUMP JUMPDEST SWAP2 POP PUSH2 0x739 DUP3 PUSH2 0x5B1 JUMP JUMPDEST SWAP2 POP PUSH2 0x745 DUP3 DUP7 PUSH2 0x55D JUMP JUMPDEST SWAP2 POP PUSH2 0x750 DUP3 PUSH2 0x5D4 JUMP JUMPDEST SWAP2 POP PUSH2 0x75B DUP3 PUSH2 0x61A JUMP JUMPDEST SWAP2 POP PUSH2 0x767 DUP3 DUP6 PUSH2 0x55D JUMP JUMPDEST SWAP2 POP PUSH2 0x772 DUP3 PUSH2 0x5D4 JUMP JUMPDEST SWAP2 POP PUSH2 0x77D DUP3 PUSH2 0x683 JUMP JUMPDEST SWAP2 POP PUSH2 0x789 DUP3 DUP5 PUSH2 0x55D JUMP JUMPDEST SWAP2 POP DUP2 SWAP1 POP SWAP9 SWAP8 POP POP POP POP POP POP POP POP JUMP JUMPDEST PUSH1 0x0 PUSH1 0x20 DUP3 ADD SWAP1 POP DUP2 DUP2 SUB PUSH1 0x0 DUP4 ADD MSTORE PUSH2 0x7B4 DUP2 DUP5 PUSH2 0x524 JUMP JUMPDEST SWAP1 POP SWAP3 SWAP2 POP POP JUMP JUMPDEST PUSH1 0x0 PUSH2 0x7C6 PUSH2 0x7D7 JUMP JUMPDEST SWAP1 POP PUSH2 0x7D2 DUP3 DUP3 PUSH2 0x89E JUMP JUMPDEST SWAP2 SWAP1 POP JUMP JUMPDEST PUSH1 0x0 PUSH1 0x40 MLOAD SWAP1 POP SWAP1 JUMP JUMPDEST PUSH1 0x0 PUSH8 0xFFFFFFFFFFFFFFFF DUP3 GT ISZERO PUSH2 0x7FC JUMPI PUSH2 0x7FB PUSH2 0x8CF JUMP JUMPDEST JUMPDEST PUSH2 0x805 DUP3 PUSH2 0x912 JUMP JUMPDEST SWAP1 POP PUSH1 0x20 DUP2 ADD SWAP1 POP SWAP2 SWAP1 POP JUMP JUMPDEST PUSH1 0x0 DUP2 MLOAD SWAP1 POP SWAP2 SWAP1 POP JUMP JUMPDEST PUSH1 0x0 DUP3 DUP3 MSTORE PUSH1 0x20 DUP3 ADD SWAP1 POP SWAP3 SWAP2 POP POP JUMP JUMPDEST PUSH1 0x0 DUP2 SWAP1 POP SWAP3 SWAP2 POP POP JUMP JUMPDEST PUSH1 0x0 PUSH2 0x844 DUP3 PUSH2 0x84B JUMP JUMPDEST SWAP1 POP SWAP2 SWAP1 POP JUMP JUMPDEST PUSH1 0x0 PUSH20 0xFFFFFFFFFFFFFFFFFFFFFFFFFFFFFFFFFFFFFFFF DUP3 AND SWAP1 POP SWAP2 SWAP1 POP JUMP JUMPDEST PUSH1 0x0 JUMPDEST DUP4 DUP2 LT ISZERO PUSH2 0x889 JUMPI DUP1 DUP3 ADD MLOAD DUP2 DUP5 ADD MSTORE PUSH1 0x20 DUP2 ADD SWAP1 POP PUSH2 0x86E JUMP JUMPDEST DUP4 DUP2 GT ISZERO PUSH2 0x898 JUMPI PUSH1 0x0 DUP5 DUP5 ADD MSTORE JUMPDEST POP POP POP POP JUMP JUMPDEST PUSH2 0x8A7 DUP3 PUSH2 0x912 JUMP JUMPDEST DUP2 ADD DUP2 DUP2 LT PUSH8 0xFFFFFFFFFFFFFFFF DUP3 GT OR ISZERO PUSH2 0x8C6 JUMPI PUSH2 0x8C5 PUSH2 0x8CF JUMP JUMPDEST JUMPDEST DUP1 PUSH1 0x40 MSTORE POP POP POP JUMP JUMPDEST PUSH32 0x4E487B7100000000000000000000000000000000000000000000000000000000 PUSH1 0x0 MSTORE PUSH1 0x41 PUSH1 0x4 MSTORE PUSH1 0x24 PUSH1 0x0 REVERT JUMPDEST PUSH1 0x0 DUP1 REVERT JUMPDEST PUSH1 0x0 DUP1 REVERT JUMPDEST PUSH1 0x0 DUP1 REVERT JUMPDEST PUSH1 0x0 DUP1 REVERT JUMPDEST PUSH1 0x0 PUSH1 0x1F NOT PUSH1 0x1F DUP4 ADD AND SWAP1 POP SWAP2 SWAP1 POP JUMP JUMPDEST PUSH32 0x436F6C6F723A0000000000000000000000000000000000000000000000000000 PUSH1 0x0 DUP3 ADD MSTORE POP JUMP JUMPDEST PUSH32 0x4D6572696B656C726F6F7476616C75653A000000000000000000000000000000 PUSH1 0x0 DUP3 ADD MSTORE POP JUMP JUMPDEST PUSH32 0x207C200000000000000000000000000000000000000000000000000000000000 PUSH1 0x0 DUP3 ADD MSTORE POP JUMP JUMPDEST PUSH32 0x4272616E643A0000000000000000000000000000000000000000000000000000 PUSH1 0x0 DUP3 ADD MSTORE POP JUMP JUMPDEST PUSH32 0x4F77656E6442793A000000000000000000000000000000000000000000000000 PUSH1 0x0 DUP3 ADD MSTORE POP JUMP JUMPDEST PUSH32 0x4D6F64656C3A0000000000000000000000000000000000000000000000000000 PUSH1 0x0 DUP3 ADD MSTORE POP JUMP JUMPDEST PUSH32 0x52656749443A0000000000000000000000000000000000000000000000000000 PUSH1 0x0 DUP3 ADD MSTORE POP JUMP JUMPDEST PUSH32 0x4372656174656454696D653A0000000000000000000000000000000000000000 PUSH1 0x0 DUP3 ADD MSTORE POP JUMP JUMPDEST PUSH2 0xA74 DUP2 PUSH2 0x839 JUMP JUMPDEST DUP2 EQ PUSH2 0xA7F JUMPI PUSH1 0x0 DUP1 REVERT JUMPDEST POP JUMP INVALID LOG2 PUSH5 0x6970667358 0x22 SLT KECCAK256 SDIV 0x1E BYTE SWAP4 ISZERO 0xAA DUP4 DUP6 0x26 SWAP4 SSTORE SWAP13 JUMP 0xDD 0x5C DUP14 0x1E 0x22 PUSH9 0x432D3127BEE65B729F PUSH21 0x55667A64736F6C6343000807003300000000000000 "
				},
				"gasEstimates": {
					"creation": {
						"codeDepositCost": "548800",
						"executionCost": "581",
						"totalCost": "549381"
					},
					"external": {
						"getVehicleDetails(address)": "infinite"
					}
				},
				"methodIdentifiers": {
					"getVehicleDetails(address)": "45e523b5"
				}
			},
			"storageLayout": {
				"storage": [],
				"types": null
			},
			"userdoc": {
				"kind": "user",
				"methods": {},
				"version": 1
			}
		}
	}
}