{
	"contracts/_Vehicleinfo.sol": {
		"Vehicleinfo": {
			"abi": [
				{
					"inputs": [
						{
							"internalType": "string",
							"name": "RegisterId",
							"type": "string"
						},
						{
							"internalType": "string",
							"name": "CarBrand",
							"type": "string"
						},
						{
							"internalType": "string",
							"name": "CarModel",
							"type": "string"
						},
						{
							"internalType": "string",
							"name": "CarColor",
							"type": "string"
						},
						{
							"internalType": "string",
							"name": "Merikelrootvalue",
							"type": "string"
						},
						{
							"internalType": "address",
							"name": "OwnedBy",
							"type": "address"
						}
					],
					"name": "AddVehicle",
					"outputs": [],
					"stateMutability": "nonpayable",
					"type": "function"
				},
				{
					"inputs": [
						{
							"internalType": "string",
							"name": "",
							"type": "string"
						}
					],
					"name": "registerIDToAddress",
					"outputs": [
						{
							"internalType": "address",
							"name": "",
							"type": "address"
						}
					],
					"stateMutability": "view",
					"type": "function"
				},
				{
					"inputs": [
						{
							"internalType": "string",
							"name": "",
							"type": "string"
						}
					],
					"name": "registerIdToMerikelrootvalue",
					"outputs": [
						{
							"internalType": "string",
							"name": "",
							"type": "string"
						}
					],
					"stateMutability": "view",
					"type": "function"
				},
				{
					"inputs": [
						{
							"internalType": "uint256",
							"name": "",
							"type": "uint256"
						}
					],
					"name": "vehicle",
					"outputs": [
						{
							"internalType": "string",
							"name": "RegisterId",
							"type": "string"
						},
						{
							"internalType": "string",
							"name": "CarBrand",
							"type": "string"
						},
						{
							"internalType": "string",
							"name": "CarModel",
							"type": "string"
						},
						{
							"internalType": "string",
							"name": "CarColor",
							"type": "string"
						},
						{
							"internalType": "string",
							"name": "Merikelrootvalue",
							"type": "string"
						},
						{
							"internalType": "address",
							"name": "OwnedBy",
							"type": "address"
						}
					],
					"stateMutability": "view",
					"type": "function"
				}
			],
			"devdoc": {
				"kind": "dev",
				"methods": {},
				"version": 1
			},
			"evm": {
				"assembly": "    /* \"contracts/_Vehicleinfo.sol\":74:1000  contract Vehicleinfo{\r... */\n  mstore(0x40, 0x80)\n  callvalue\n  dup1\n  iszero\n  tag_1\n  jumpi\n  0x00\n  dup1\n  revert\ntag_1:\n  pop\n  dataSize(sub_0)\n  dup1\n  dataOffset(sub_0)\n  0x00\n  codecopy\n  0x00\n  return\nstop\n\nsub_0: assembly {\n        /* \"contracts/_Vehicleinfo.sol\":74:1000  contract Vehicleinfo{\r... */\n      mstore(0x40, 0x80)\n      callvalue\n      dup1\n      iszero\n      tag_1\n      jumpi\n      0x00\n      dup1\n      revert\n    tag_1:\n      pop\n      jumpi(tag_2, lt(calldatasize, 0x04))\n      shr(0xe0, calldataload(0x00))\n      dup1\n      0x6e390c85\n      eq\n      tag_3\n      jumpi\n      dup1\n      0x85571bb1\n      eq\n      tag_4\n      jumpi\n      dup1\n      0xa39ab40e\n      eq\n      tag_5\n      jumpi\n      dup1\n      0xf76e40f8\n      eq\n      tag_6\n      jumpi\n    tag_2:\n      0x00\n      dup1\n      revert\n        /* \"contracts/_Vehicleinfo.sol\":459:991  function AddVehicle (\r... */\n    tag_3:\n      tag_7\n      0x04\n      dup1\n      calldatasize\n      sub\n      dup2\n      add\n      swap1\n      tag_8\n      swap2\n      swap1\n      tag_9\n      jump\t// in\n    tag_8:\n      tag_10\n      jump\t// in\n    tag_7:\n      stop\n        /* \"contracts/_Vehicleinfo.sol\":389:450  mapping(string => string) public registerIdToMerikelrootvalue */\n    tag_4:\n      tag_11\n      0x04\n      dup1\n      calldatasize\n      sub\n      dup2\n      add\n      swap1\n      tag_12\n      swap2\n      swap1\n      tag_13\n      jump\t// in\n    tag_12:\n      tag_14\n      jump\t// in\n    tag_11:\n      mload(0x40)\n      tag_15\n      swap2\n      swap1\n      tag_16\n      jump\t// in\n    tag_15:\n      mload(0x40)\n      dup1\n      swap2\n      sub\n      swap1\n      return\n        /* \"contracts/_Vehicleinfo.sol\":297:321  Vehicle[] public vehicle */\n    tag_5:\n      tag_17\n      0x04\n      dup1\n      calldatasize\n      sub\n      dup2\n      add\n      swap1\n      tag_18\n      swap2\n      swap1\n      tag_19\n      jump\t// in\n    tag_18:\n      tag_20\n      jump\t// in\n    tag_17:\n      mload(0x40)\n      tag_21\n      swap7\n      swap6\n      swap5\n      swap4\n      swap3\n      swap2\n      swap1\n      tag_22\n      jump\t// in\n    tag_21:\n      mload(0x40)\n      dup1\n      swap2\n      sub\n      swap1\n      return\n        /* \"contracts/_Vehicleinfo.sol\":328:382  mapping(string  => address) public registerIDToAddress */\n    tag_6:\n      tag_23\n      0x04\n      dup1\n      calldatasize\n      sub\n      dup2\n      add\n      swap1\n      tag_24\n      swap2\n      swap1\n      tag_13\n      jump\t// in\n    tag_24:\n      tag_25\n      jump\t// in\n    tag_23:\n      mload(0x40)\n      tag_26\n      swap2\n      swap1\n      tag_27\n      jump\t// in\n    tag_26:\n      mload(0x40)\n      dup1\n      swap2\n      sub\n      swap1\n      return\n        /* \"contracts/_Vehicleinfo.sol\":459:991  function AddVehicle (\r... */\n    tag_10:\n        /* \"contracts/_Vehicleinfo.sol\":706:713  vehicle */\n      0x00\n        /* \"contracts/_Vehicleinfo.sol\":733:836  Vehicle(\r... */\n      mload(0x40)\n      dup1\n      0xc0\n      add\n      0x40\n      mstore\n      dup1\n        /* \"contracts/_Vehicleinfo.sol\":759:769  RegisterId */\n      dup9\n        /* \"contracts/_Vehicleinfo.sol\":733:836  Vehicle(\r... */\n      dup2\n      mstore\n      0x20\n      add\n        /* \"contracts/_Vehicleinfo.sol\":770:778  CarBrand */\n      dup8\n        /* \"contracts/_Vehicleinfo.sol\":733:836  Vehicle(\r... */\n      dup2\n      mstore\n      0x20\n      add\n        /* \"contracts/_Vehicleinfo.sol\":779:787  CarModel */\n      dup7\n        /* \"contracts/_Vehicleinfo.sol\":733:836  Vehicle(\r... */\n      dup2\n      mstore\n      0x20\n      add\n        /* \"contracts/_Vehicleinfo.sol\":788:796  CarColor */\n      dup6\n        /* \"contracts/_Vehicleinfo.sol\":733:836  Vehicle(\r... */\n      dup2\n      mstore\n      0x20\n      add\n        /* \"contracts/_Vehicleinfo.sol\":797:813  Merikelrootvalue */\n      dup5\n        /* \"contracts/_Vehicleinfo.sol\":733:836  Vehicle(\r... */\n      dup2\n      mstore\n      0x20\n      add\n        /* \"contracts/_Vehicleinfo.sol\":814:821  OwnedBy */\n      dup4\n        /* \"contracts/_Vehicleinfo.sol\":733:836  Vehicle(\r... */\n      0xffffffffffffffffffffffffffffffffffffffff\n      and\n      dup2\n      mstore\n      pop\n        /* \"contracts/_Vehicleinfo.sol\":706:861  vehicle.push(\r... */\n      swap1\n      dup1\n      0x01\n      dup2\n      sload\n      add\n      dup1\n      dup3\n      sstore\n      dup1\n      swap2\n      pop\n      pop\n      0x01\n      swap1\n      sub\n      swap1\n      0x00\n      mstore\n      keccak256(0x00, 0x20)\n      swap1\n      0x06\n      mul\n      add\n      0x00\n      swap1\n      swap2\n      swap1\n      swap2\n      swap1\n      swap2\n      pop\n      0x00\n      dup3\n      add\n      mload\n      dup2\n      0x00\n      add\n      swap1\n      dup1\n      mload\n      swap1\n      0x20\n      add\n      swap1\n      tag_30\n      swap3\n      swap2\n      swap1\n      tag_31\n      jump\t// in\n    tag_30:\n      pop\n      0x20\n      dup3\n      add\n      mload\n      dup2\n      0x01\n      add\n      swap1\n      dup1\n      mload\n      swap1\n      0x20\n      add\n      swap1\n      tag_32\n      swap3\n      swap2\n      swap1\n      tag_31\n      jump\t// in\n    tag_32:\n      pop\n      0x40\n      dup3\n      add\n      mload\n      dup2\n      0x02\n      add\n      swap1\n      dup1\n      mload\n      swap1\n      0x20\n      add\n      swap1\n      tag_33\n      swap3\n      swap2\n      swap1\n      tag_31\n      jump\t// in\n    tag_33:\n      pop\n      0x60\n      dup3\n      add\n      mload\n      dup2\n      0x03\n      add\n      swap1\n      dup1\n      mload\n      swap1\n      0x20\n      add\n      swap1\n      tag_34\n      swap3\n      swap2\n      swap1\n      tag_31\n      jump\t// in\n    tag_34:\n      pop\n      0x80\n      dup3\n      add\n      mload\n      dup2\n      0x04\n      add\n      swap1\n      dup1\n      mload\n      swap1\n      0x20\n      add\n      swap1\n      tag_35\n      swap3\n      swap2\n      swap1\n      tag_31\n      jump\t// in\n    tag_35:\n      pop\n      0xa0\n      dup3\n      add\n      mload\n      dup2\n      0x05\n      add\n      exp(0x0100, 0x00)\n      dup2\n      sload\n      dup2\n      0xffffffffffffffffffffffffffffffffffffffff\n      mul\n      not\n      and\n      swap1\n      dup4\n      0xffffffffffffffffffffffffffffffffffffffff\n      and\n      mul\n      or\n      swap1\n      sstore\n      pop\n      pop\n      pop\n        /* \"contracts/_Vehicleinfo.sol\":906:913  OwnedBy */\n      dup1\n        /* \"contracts/_Vehicleinfo.sol\":872:891  registerIDToAddress */\n      0x01\n        /* \"contracts/_Vehicleinfo.sol\":892:902  RegisterId */\n      dup8\n        /* \"contracts/_Vehicleinfo.sol\":872:903  registerIDToAddress[RegisterId] */\n      mload(0x40)\n      tag_36\n      swap2\n      swap1\n      tag_37\n      jump\t// in\n    tag_36:\n      swap1\n      dup2\n      mstore\n      0x20\n      add\n      mload(0x40)\n      dup1\n      swap2\n      sub\n      swap1\n      keccak256\n      0x00\n        /* \"contracts/_Vehicleinfo.sol\":872:913  registerIDToAddress[RegisterId] = OwnedBy */\n      0x0100\n      exp\n      dup2\n      sload\n      dup2\n      0xffffffffffffffffffffffffffffffffffffffff\n      mul\n      not\n      and\n      swap1\n      dup4\n      0xffffffffffffffffffffffffffffffffffffffff\n      and\n      mul\n      or\n      swap1\n      sstore\n      pop\n        /* \"contracts/_Vehicleinfo.sol\":967:983  Merikelrootvalue */\n      dup2\n        /* \"contracts/_Vehicleinfo.sol\":924:952  registerIdToMerikelrootvalue */\n      0x02\n        /* \"contracts/_Vehicleinfo.sol\":953:963  RegisterId */\n      dup8\n        /* \"contracts/_Vehicleinfo.sol\":924:964  registerIdToMerikelrootvalue[RegisterId] */\n      mload(0x40)\n      tag_38\n      swap2\n      swap1\n      tag_37\n      jump\t// in\n    tag_38:\n      swap1\n      dup2\n      mstore\n      0x20\n      add\n      mload(0x40)\n      dup1\n      swap2\n      sub\n      swap1\n      keccak256\n        /* \"contracts/_Vehicleinfo.sol\":924:983  registerIdToMerikelrootvalue[RegisterId] = Merikelrootvalue */\n      swap1\n      dup1\n      mload\n      swap1\n      0x20\n      add\n      swap1\n      tag_39\n      swap3\n      swap2\n      swap1\n      tag_31\n      jump\t// in\n    tag_39:\n      pop\n        /* \"contracts/_Vehicleinfo.sol\":459:991  function AddVehicle (\r... */\n      pop\n      pop\n      pop\n      pop\n      pop\n      pop\n      jump\t// out\n        /* \"contracts/_Vehicleinfo.sol\":389:450  mapping(string => string) public registerIdToMerikelrootvalue */\n    tag_14:\n      0x02\n      dup2\n      dup1\n      mload\n      0x20\n      dup2\n      add\n      dup3\n      add\n      dup1\n      mload\n      dup5\n      dup3\n      mstore\n      0x20\n      dup4\n      add\n      0x20\n      dup6\n      add\n      keccak256\n      dup2\n      dup4\n      mstore\n      dup1\n      swap6\n      pop\n      pop\n      pop\n      pop\n      pop\n      pop\n      0x00\n      swap2\n      pop\n      swap1\n      pop\n      dup1\n      sload\n      tag_40\n      swap1\n      tag_41\n      jump\t// in\n    tag_40:\n      dup1\n      0x1f\n      add\n      0x20\n      dup1\n      swap2\n      div\n      mul\n      0x20\n      add\n      mload(0x40)\n      swap1\n      dup2\n      add\n      0x40\n      mstore\n      dup1\n      swap3\n      swap2\n      swap1\n      dup2\n      dup2\n      mstore\n      0x20\n      add\n      dup3\n      dup1\n      sload\n      tag_42\n      swap1\n      tag_41\n      jump\t// in\n    tag_42:\n      dup1\n      iszero\n      tag_43\n      jumpi\n      dup1\n      0x1f\n      lt\n      tag_44\n      jumpi\n      0x0100\n      dup1\n      dup4\n      sload\n      div\n      mul\n      dup4\n      mstore\n      swap2\n      0x20\n      add\n      swap2\n      jump(tag_43)\n    tag_44:\n      dup3\n      add\n      swap2\n      swap1\n      0x00\n      mstore\n      keccak256(0x00, 0x20)\n      swap1\n    tag_45:\n      dup2\n      sload\n      dup2\n      mstore\n      swap1\n      0x01\n      add\n      swap1\n      0x20\n      add\n      dup1\n      dup4\n      gt\n      tag_45\n      jumpi\n      dup3\n      swap1\n      sub\n      0x1f\n      and\n      dup3\n      add\n      swap2\n    tag_43:\n      pop\n      pop\n      pop\n      pop\n      pop\n      dup2\n      jump\t// out\n        /* \"contracts/_Vehicleinfo.sol\":297:321  Vehicle[] public vehicle */\n    tag_20:\n      0x00\n      dup2\n      dup2\n      sload\n      dup2\n      lt\n      tag_46\n      jumpi\n      0x00\n      dup1\n      revert\n    tag_46:\n      swap1\n      0x00\n      mstore\n      keccak256(0x00, 0x20)\n      swap1\n      0x06\n      mul\n      add\n      0x00\n      swap2\n      pop\n      swap1\n      pop\n      dup1\n      0x00\n      add\n      dup1\n      sload\n      tag_48\n      swap1\n      tag_41\n      jump\t// in\n    tag_48:\n      dup1\n      0x1f\n      add\n      0x20\n      dup1\n      swap2\n      div\n      mul\n      0x20\n      add\n      mload(0x40)\n      swap1\n      dup2\n      add\n      0x40\n      mstore\n      dup1\n      swap3\n      swap2\n      swap1\n      dup2\n      dup2\n      mstore\n      0x20\n      add\n      dup3\n      dup1\n      sload\n      tag_49\n      swap1\n      tag_41\n      jump\t// in\n    tag_49:\n      dup1\n      iszero\n      tag_50\n      jumpi\n      dup1\n      0x1f\n      lt\n      tag_51\n      jumpi\n      0x0100\n      dup1\n      dup4\n      sload\n      div\n      mul\n      dup4\n      mstore\n      swap2\n      0x20\n      add\n      swap2\n      jump(tag_50)\n    tag_51:\n      dup3\n      add\n      swap2\n      swap1\n      0x00\n      mstore\n      keccak256(0x00, 0x20)\n      swap1\n    tag_52:\n      dup2\n      sload\n      dup2\n      mstore\n      swap1\n      0x01\n      add\n      swap1\n      0x20\n      add\n      dup1\n      dup4\n      gt\n      tag_52\n      jumpi\n      dup3\n      swap1\n      sub\n      0x1f\n      and\n      dup3\n      add\n      swap2\n    tag_50:\n      pop\n      pop\n      pop\n      pop\n      pop\n      swap1\n      dup1\n      0x01\n      add\n      dup1\n      sload\n      tag_53\n      swap1\n      tag_41\n      jump\t// in\n    tag_53:\n      dup1\n      0x1f\n      add\n      0x20\n      dup1\n      swap2\n      div\n      mul\n      0x20\n      add\n      mload(0x40)\n      swap1\n      dup2\n      add\n      0x40\n      mstore\n      dup1\n      swap3\n      swap2\n      swap1\n      dup2\n      dup2\n      mstore\n      0x20\n      add\n      dup3\n      dup1\n      sload\n      tag_54\n      swap1\n      tag_41\n      jump\t// in\n    tag_54:\n      dup1\n      iszero\n      tag_55\n      jumpi\n      dup1\n      0x1f\n      lt\n      tag_56\n      jumpi\n      0x0100\n      dup1\n      dup4\n      sload\n      div\n      mul\n      dup4\n      mstore\n      swap2\n      0x20\n      add\n      swap2\n      jump(tag_55)\n    tag_56:\n      dup3\n      add\n      swap2\n      swap1\n      0x00\n      mstore\n      keccak256(0x00, 0x20)\n      swap1\n    tag_57:\n      dup2\n      sload\n      dup2\n      mstore\n      swap1\n      0x01\n      add\n      swap1\n      0x20\n      add\n      dup1\n      dup4\n      gt\n      tag_57\n      jumpi\n      dup3\n      swap1\n      sub\n      0x1f\n      and\n      dup3\n      add\n      swap2\n    tag_55:\n      pop\n      pop\n      pop\n      pop\n      pop\n      swap1\n      dup1\n      0x02\n      add\n      dup1\n      sload\n      tag_58\n      swap1\n      tag_41\n      jump\t// in\n    tag_58:\n      dup1\n      0x1f\n      add\n      0x20\n      dup1\n      swap2\n      div\n      mul\n      0x20\n      add\n      mload(0x40)\n      swap1\n      dup2\n      add\n      0x40\n      mstore\n      dup1\n      swap3\n      swap2\n      swap1\n      dup2\n      dup2\n      mstore\n      0x20\n      add\n      dup3\n      dup1\n      sload\n      tag_59\n      swap1\n      tag_41\n      jump\t// in\n    tag_59:\n      dup1\n      iszero\n      tag_60\n      jumpi\n      dup1\n      0x1f\n      lt\n      tag_61\n      jumpi\n      0x0100\n      dup1\n      dup4\n      sload\n      div\n      mul\n      dup4\n      mstore\n      swap2\n      0x20\n      add\n      swap2\n      jump(tag_60)\n    tag_61:\n      dup3\n      add\n      swap2\n      swap1\n      0x00\n      mstore\n      keccak256(0x00, 0x20)\n      swap1\n    tag_62:\n      dup2\n      sload\n      dup2\n      mstore\n      swap1\n      0x01\n      add\n      swap1\n      0x20\n      add\n      dup1\n      dup4\n      gt\n      tag_62\n      jumpi\n      dup3\n      swap1\n      sub\n      0x1f\n      and\n      dup3\n      add\n      swap2\n    tag_60:\n      pop\n      pop\n      pop\n      pop\n      pop\n      swap1\n      dup1\n      0x03\n      add\n      dup1\n      sload\n      tag_63\n      swap1\n      tag_41\n      jump\t// in\n    tag_63:\n      dup1\n      0x1f\n      add\n      0x20\n      dup1\n      swap2\n      div\n      mul\n      0x20\n      add\n      mload(0x40)\n      swap1\n      dup2\n      add\n      0x40\n      mstore\n      dup1\n      swap3\n      swap2\n      swap1\n      dup2\n      dup2\n      mstore\n      0x20\n      add\n      dup3\n      dup1\n      sload\n      tag_64\n      swap1\n      tag_41\n      jump\t// in\n    tag_64:\n      dup1\n      iszero\n      tag_65\n      jumpi\n      dup1\n      0x1f\n      lt\n      tag_66\n      jumpi\n      0x0100\n      dup1\n      dup4\n      sload\n      div\n      mul\n      dup4\n      mstore\n      swap2\n      0x20\n      add\n      swap2\n      jump(tag_65)\n    tag_66:\n      dup3\n      add\n      swap2\n      swap1\n      0x00\n      mstore\n      keccak256(0x00, 0x20)\n      swap1\n    tag_67:\n      dup2\n      sload\n      dup2\n      mstore\n      swap1\n      0x01\n      add\n      swap1\n      0x20\n      add\n      dup1\n      dup4\n      gt\n      tag_67\n      jumpi\n      dup3\n      swap1\n      sub\n      0x1f\n      and\n      dup3\n      add\n      swap2\n    tag_65:\n      pop\n      pop\n      pop\n      pop\n      pop\n      swap1\n      dup1\n      0x04\n      add\n      dup1\n      sload\n      tag_68\n      swap1\n      tag_41\n      jump\t// in\n    tag_68:\n      dup1\n      0x1f\n      add\n      0x20\n      dup1\n      swap2\n      div\n      mul\n      0x20\n      add\n      mload(0x40)\n      swap1\n      dup2\n      add\n      0x40\n      mstore\n      dup1\n      swap3\n      swap2\n      swap1\n      dup2\n      dup2\n      mstore\n      0x20\n      add\n      dup3\n      dup1\n      sload\n      tag_69\n      swap1\n      tag_41\n      jump\t// in\n    tag_69:\n      dup1\n      iszero\n      tag_70\n      jumpi\n      dup1\n      0x1f\n      lt\n      tag_71\n      jumpi\n      0x0100\n      dup1\n      dup4\n      sload\n      div\n      mul\n      dup4\n      mstore\n      swap2\n      0x20\n      add\n      swap2\n      jump(tag_70)\n    tag_71:\n      dup3\n      add\n      swap2\n      swap1\n      0x00\n      mstore\n      keccak256(0x00, 0x20)\n      swap1\n    tag_72:\n      dup2\n      sload\n      dup2\n      mstore\n      swap1\n      0x01\n      add\n      swap1\n      0x20\n      add\n      dup1\n      dup4\n      gt\n      tag_72\n      jumpi\n      dup3\n      swap1\n      sub\n      0x1f\n      and\n      dup3\n      add\n      swap2\n    tag_70:\n      pop\n      pop\n      pop\n      pop\n      pop\n      swap1\n      dup1\n      0x05\n      add\n      0x00\n      swap1\n      sload\n      swap1\n      0x0100\n      exp\n      swap1\n      div\n      0xffffffffffffffffffffffffffffffffffffffff\n      and\n      swap1\n      pop\n      dup7\n      jump\t// out\n        /* \"contracts/_Vehicleinfo.sol\":328:382  mapping(string  => address) public registerIDToAddress */\n    tag_25:\n      0x01\n      dup2\n      dup1\n      mload\n      0x20\n      dup2\n      add\n      dup3\n      add\n      dup1\n      mload\n      dup5\n      dup3\n      mstore\n      0x20\n      dup4\n      add\n      0x20\n      dup6\n      add\n      keccak256\n      dup2\n      dup4\n      mstore\n      dup1\n      swap6\n      pop\n      pop\n      pop\n      pop\n      pop\n      pop\n      0x00\n      swap2\n      pop\n      sload\n      swap1\n      0x0100\n      exp\n      swap1\n      div\n      0xffffffffffffffffffffffffffffffffffffffff\n      and\n      dup2\n      jump\t// out\n    tag_31:\n      dup3\n      dup1\n      sload\n      tag_73\n      swap1\n      tag_41\n      jump\t// in\n    tag_73:\n      swap1\n      0x00\n      mstore\n      keccak256(0x00, 0x20)\n      swap1\n      0x1f\n      add\n      0x20\n      swap1\n      div\n      dup2\n      add\n      swap3\n      dup3\n      tag_75\n      jumpi\n      0x00\n      dup6\n      sstore\n      jump(tag_74)\n    tag_75:\n      dup3\n      0x1f\n      lt\n      tag_76\n      jumpi\n      dup1\n      mload\n      not(0xff)\n      and\n      dup4\n      dup1\n      add\n      or\n      dup6\n      sstore\n      jump(tag_74)\n    tag_76:\n      dup3\n      dup1\n      add\n      0x01\n      add\n      dup6\n      sstore\n      dup3\n      iszero\n      tag_74\n      jumpi\n      swap2\n      dup3\n      add\n    tag_77:\n      dup3\n      dup2\n      gt\n      iszero\n      tag_78\n      jumpi\n      dup3\n      mload\n      dup3\n      sstore\n      swap2\n      0x20\n      add\n      swap2\n      swap1\n      0x01\n      add\n      swap1\n      jump(tag_77)\n    tag_78:\n    tag_74:\n      pop\n      swap1\n      pop\n      tag_79\n      swap2\n      swap1\n      tag_80\n      jump\t// in\n    tag_79:\n      pop\n      swap1\n      jump\t// out\n    tag_80:\n    tag_81:\n      dup1\n      dup3\n      gt\n      iszero\n      tag_82\n      jumpi\n      0x00\n      dup2\n      0x00\n      swap1\n      sstore\n      pop\n      0x01\n      add\n      jump(tag_81)\n    tag_82:\n      pop\n      swap1\n      jump\t// out\n        /* \"#utility.yul\":7:419   */\n    tag_84:\n        /* \"#utility.yul\":85:90   */\n      0x00\n        /* \"#utility.yul\":110:176   */\n      tag_86\n        /* \"#utility.yul\":126:175   */\n      tag_87\n        /* \"#utility.yul\":168:174   */\n      dup5\n        /* \"#utility.yul\":126:175   */\n      tag_88\n      jump\t// in\n    tag_87:\n        /* \"#utility.yul\":110:176   */\n      tag_89\n      jump\t// in\n    tag_86:\n        /* \"#utility.yul\":101:176   */\n      swap1\n      pop\n        /* \"#utility.yul\":199:205   */\n      dup3\n        /* \"#utility.yul\":192:197   */\n      dup2\n        /* \"#utility.yul\":185:206   */\n      mstore\n        /* \"#utility.yul\":237:241   */\n      0x20\n        /* \"#utility.yul\":230:235   */\n      dup2\n        /* \"#utility.yul\":226:242   */\n      add\n        /* \"#utility.yul\":275:278   */\n      dup5\n        /* \"#utility.yul\":266:272   */\n      dup5\n        /* \"#utility.yul\":261:264   */\n      dup5\n        /* \"#utility.yul\":257:273   */\n      add\n        /* \"#utility.yul\":254:279   */\n      gt\n        /* \"#utility.yul\":251:363   */\n      iszero\n      tag_90\n      jumpi\n        /* \"#utility.yul\":282:361   */\n      tag_91\n      tag_92\n      jump\t// in\n    tag_91:\n        /* \"#utility.yul\":251:363   */\n    tag_90:\n        /* \"#utility.yul\":372:413   */\n      tag_93\n        /* \"#utility.yul\":406:412   */\n      dup5\n        /* \"#utility.yul\":401:404   */\n      dup3\n        /* \"#utility.yul\":396:399   */\n      dup6\n        /* \"#utility.yul\":372:413   */\n      tag_94\n      jump\t// in\n    tag_93:\n        /* \"#utility.yul\":91:419   */\n      pop\n        /* \"#utility.yul\":7:419   */\n      swap4\n      swap3\n      pop\n      pop\n      pop\n      jump\t// out\n        /* \"#utility.yul\":425:564   */\n    tag_95:\n        /* \"#utility.yul\":471:476   */\n      0x00\n        /* \"#utility.yul\":509:515   */\n      dup2\n        /* \"#utility.yul\":496:516   */\n      calldataload\n        /* \"#utility.yul\":487:516   */\n      swap1\n      pop\n        /* \"#utility.yul\":525:558   */\n      tag_97\n        /* \"#utility.yul\":552:557   */\n      dup2\n        /* \"#utility.yul\":525:558   */\n      tag_98\n      jump\t// in\n    tag_97:\n        /* \"#utility.yul\":425:564   */\n      swap3\n      swap2\n      pop\n      pop\n      jump\t// out\n        /* \"#utility.yul\":584:924   */\n    tag_99:\n        /* \"#utility.yul\":640:645   */\n      0x00\n        /* \"#utility.yul\":689:692   */\n      dup3\n        /* \"#utility.yul\":682:686   */\n      0x1f\n        /* \"#utility.yul\":674:680   */\n      dup4\n        /* \"#utility.yul\":670:687   */\n      add\n        /* \"#utility.yul\":666:693   */\n      slt\n        /* \"#utility.yul\":656:778   */\n      tag_101\n      jumpi\n        /* \"#utility.yul\":697:776   */\n      tag_102\n      tag_103\n      jump\t// in\n    tag_102:\n        /* \"#utility.yul\":656:778   */\n    tag_101:\n        /* \"#utility.yul\":814:820   */\n      dup2\n        /* \"#utility.yul\":801:821   */\n      calldataload\n        /* \"#utility.yul\":839:918   */\n      tag_104\n        /* \"#utility.yul\":914:917   */\n      dup5\n        /* \"#utility.yul\":906:912   */\n      dup3\n        /* \"#utility.yul\":899:903   */\n      0x20\n        /* \"#utility.yul\":891:897   */\n      dup7\n        /* \"#utility.yul\":887:904   */\n      add\n        /* \"#utility.yul\":839:918   */\n      tag_84\n      jump\t// in\n    tag_104:\n        /* \"#utility.yul\":830:918   */\n      swap2\n      pop\n        /* \"#utility.yul\":646:924   */\n      pop\n        /* \"#utility.yul\":584:924   */\n      swap3\n      swap2\n      pop\n      pop\n      jump\t// out\n        /* \"#utility.yul\":930:1069   */\n    tag_105:\n        /* \"#utility.yul\":976:981   */\n      0x00\n        /* \"#utility.yul\":1014:1020   */\n      dup2\n        /* \"#utility.yul\":1001:1021   */\n      calldataload\n        /* \"#utility.yul\":992:1021   */\n      swap1\n      pop\n        /* \"#utility.yul\":1030:1063   */\n      tag_107\n        /* \"#utility.yul\":1057:1062   */\n      dup2\n        /* \"#utility.yul\":1030:1063   */\n      tag_108\n      jump\t// in\n    tag_107:\n        /* \"#utility.yul\":930:1069   */\n      swap3\n      swap2\n      pop\n      pop\n      jump\t// out\n        /* \"#utility.yul\":1075:1584   */\n    tag_13:\n        /* \"#utility.yul\":1144:1150   */\n      0x00\n        /* \"#utility.yul\":1193:1195   */\n      0x20\n        /* \"#utility.yul\":1181:1190   */\n      dup3\n        /* \"#utility.yul\":1172:1179   */\n      dup5\n        /* \"#utility.yul\":1168:1191   */\n      sub\n        /* \"#utility.yul\":1164:1196   */\n      slt\n        /* \"#utility.yul\":1161:1280   */\n      iszero\n      tag_110\n      jumpi\n        /* \"#utility.yul\":1199:1278   */\n      tag_111\n      tag_112\n      jump\t// in\n    tag_111:\n        /* \"#utility.yul\":1161:1280   */\n    tag_110:\n        /* \"#utility.yul\":1347:1348   */\n      0x00\n        /* \"#utility.yul\":1336:1345   */\n      dup3\n        /* \"#utility.yul\":1332:1349   */\n      add\n        /* \"#utility.yul\":1319:1350   */\n      calldataload\n        /* \"#utility.yul\":1377:1395   */\n      0xffffffffffffffff\n        /* \"#utility.yul\":1369:1375   */\n      dup2\n        /* \"#utility.yul\":1366:1396   */\n      gt\n        /* \"#utility.yul\":1363:1480   */\n      iszero\n      tag_113\n      jumpi\n        /* \"#utility.yul\":1399:1478   */\n      tag_114\n      tag_115\n      jump\t// in\n    tag_114:\n        /* \"#utility.yul\":1363:1480   */\n    tag_113:\n        /* \"#utility.yul\":1504:1567   */\n      tag_116\n        /* \"#utility.yul\":1559:1566   */\n      dup5\n        /* \"#utility.yul\":1550:1556   */\n      dup3\n        /* \"#utility.yul\":1539:1548   */\n      dup6\n        /* \"#utility.yul\":1535:1557   */\n      add\n        /* \"#utility.yul\":1504:1567   */\n      tag_99\n      jump\t// in\n    tag_116:\n        /* \"#utility.yul\":1494:1567   */\n      swap2\n      pop\n        /* \"#utility.yul\":1290:1577   */\n      pop\n        /* \"#utility.yul\":1075:1584   */\n      swap3\n      swap2\n      pop\n      pop\n      jump\t// out\n        /* \"#utility.yul\":1590:3547   */\n    tag_9:\n        /* \"#utility.yul\":1744:1750   */\n      0x00\n        /* \"#utility.yul\":1752:1758   */\n      dup1\n        /* \"#utility.yul\":1760:1766   */\n      0x00\n        /* \"#utility.yul\":1768:1774   */\n      dup1\n        /* \"#utility.yul\":1776:1782   */\n      0x00\n        /* \"#utility.yul\":1784:1790   */\n      dup1\n        /* \"#utility.yul\":1833:1836   */\n      0xc0\n        /* \"#utility.yul\":1821:1830   */\n      dup8\n        /* \"#utility.yul\":1812:1819   */\n      dup10\n        /* \"#utility.yul\":1808:1831   */\n      sub\n        /* \"#utility.yul\":1804:1837   */\n      slt\n        /* \"#utility.yul\":1801:1921   */\n      iszero\n      tag_118\n      jumpi\n        /* \"#utility.yul\":1840:1919   */\n      tag_119\n      tag_112\n      jump\t// in\n    tag_119:\n        /* \"#utility.yul\":1801:1921   */\n    tag_118:\n        /* \"#utility.yul\":1988:1989   */\n      0x00\n        /* \"#utility.yul\":1977:1986   */\n      dup8\n        /* \"#utility.yul\":1973:1990   */\n      add\n        /* \"#utility.yul\":1960:1991   */\n      calldataload\n        /* \"#utility.yul\":2018:2036   */\n      0xffffffffffffffff\n        /* \"#utility.yul\":2010:2016   */\n      dup2\n        /* \"#utility.yul\":2007:2037   */\n      gt\n        /* \"#utility.yul\":2004:2121   */\n      iszero\n      tag_120\n      jumpi\n        /* \"#utility.yul\":2040:2119   */\n      tag_121\n      tag_115\n      jump\t// in\n    tag_121:\n        /* \"#utility.yul\":2004:2121   */\n    tag_120:\n        /* \"#utility.yul\":2145:2208   */\n      tag_122\n        /* \"#utility.yul\":2200:2207   */\n      dup10\n        /* \"#utility.yul\":2191:2197   */\n      dup3\n        /* \"#utility.yul\":2180:2189   */\n      dup11\n        /* \"#utility.yul\":2176:2198   */\n      add\n        /* \"#utility.yul\":2145:2208   */\n      tag_99\n      jump\t// in\n    tag_122:\n        /* \"#utility.yul\":2135:2208   */\n      swap7\n      pop\n        /* \"#utility.yul\":1931:2218   */\n      pop\n        /* \"#utility.yul\":2285:2287   */\n      0x20\n        /* \"#utility.yul\":2274:2283   */\n      dup8\n        /* \"#utility.yul\":2270:2288   */\n      add\n        /* \"#utility.yul\":2257:2289   */\n      calldataload\n        /* \"#utility.yul\":2316:2334   */\n      0xffffffffffffffff\n        /* \"#utility.yul\":2308:2314   */\n      dup2\n        /* \"#utility.yul\":2305:2335   */\n      gt\n        /* \"#utility.yul\":2302:2419   */\n      iszero\n      tag_123\n      jumpi\n        /* \"#utility.yul\":2338:2417   */\n      tag_124\n      tag_115\n      jump\t// in\n    tag_124:\n        /* \"#utility.yul\":2302:2419   */\n    tag_123:\n        /* \"#utility.yul\":2443:2506   */\n      tag_125\n        /* \"#utility.yul\":2498:2505   */\n      dup10\n        /* \"#utility.yul\":2489:2495   */\n      dup3\n        /* \"#utility.yul\":2478:2487   */\n      dup11\n        /* \"#utility.yul\":2474:2496   */\n      add\n        /* \"#utility.yul\":2443:2506   */\n      tag_99\n      jump\t// in\n    tag_125:\n        /* \"#utility.yul\":2433:2506   */\n      swap6\n      pop\n        /* \"#utility.yul\":2228:2516   */\n      pop\n        /* \"#utility.yul\":2583:2585   */\n      0x40\n        /* \"#utility.yul\":2572:2581   */\n      dup8\n        /* \"#utility.yul\":2568:2586   */\n      add\n        /* \"#utility.yul\":2555:2587   */\n      calldataload\n        /* \"#utility.yul\":2614:2632   */\n      0xffffffffffffffff\n        /* \"#utility.yul\":2606:2612   */\n      dup2\n        /* \"#utility.yul\":2603:2633   */\n      gt\n        /* \"#utility.yul\":2600:2717   */\n      iszero\n      tag_126\n      jumpi\n        /* \"#utility.yul\":2636:2715   */\n      tag_127\n      tag_115\n      jump\t// in\n    tag_127:\n        /* \"#utility.yul\":2600:2717   */\n    tag_126:\n        /* \"#utility.yul\":2741:2804   */\n      tag_128\n        /* \"#utility.yul\":2796:2803   */\n      dup10\n        /* \"#utility.yul\":2787:2793   */\n      dup3\n        /* \"#utility.yul\":2776:2785   */\n      dup11\n        /* \"#utility.yul\":2772:2794   */\n      add\n        /* \"#utility.yul\":2741:2804   */\n      tag_99\n      jump\t// in\n    tag_128:\n        /* \"#utility.yul\":2731:2804   */\n      swap5\n      pop\n        /* \"#utility.yul\":2526:2814   */\n      pop\n        /* \"#utility.yul\":2881:2883   */\n      0x60\n        /* \"#utility.yul\":2870:2879   */\n      dup8\n        /* \"#utility.yul\":2866:2884   */\n      add\n        /* \"#utility.yul\":2853:2885   */\n      calldataload\n        /* \"#utility.yul\":2912:2930   */\n      0xffffffffffffffff\n        /* \"#utility.yul\":2904:2910   */\n      dup2\n        /* \"#utility.yul\":2901:2931   */\n      gt\n        /* \"#utility.yul\":2898:3015   */\n      iszero\n      tag_129\n      jumpi\n        /* \"#utility.yul\":2934:3013   */\n      tag_130\n      tag_115\n      jump\t// in\n    tag_130:\n        /* \"#utility.yul\":2898:3015   */\n    tag_129:\n        /* \"#utility.yul\":3039:3102   */\n      tag_131\n        /* \"#utility.yul\":3094:3101   */\n      dup10\n        /* \"#utility.yul\":3085:3091   */\n      dup3\n        /* \"#utility.yul\":3074:3083   */\n      dup11\n        /* \"#utility.yul\":3070:3092   */\n      add\n        /* \"#utility.yul\":3039:3102   */\n      tag_99\n      jump\t// in\n    tag_131:\n        /* \"#utility.yul\":3029:3102   */\n      swap4\n      pop\n        /* \"#utility.yul\":2824:3112   */\n      pop\n        /* \"#utility.yul\":3179:3182   */\n      0x80\n        /* \"#utility.yul\":3168:3177   */\n      dup8\n        /* \"#utility.yul\":3164:3183   */\n      add\n        /* \"#utility.yul\":3151:3184   */\n      calldataload\n        /* \"#utility.yul\":3211:3229   */\n      0xffffffffffffffff\n        /* \"#utility.yul\":3203:3209   */\n      dup2\n        /* \"#utility.yul\":3200:3230   */\n      gt\n        /* \"#utility.yul\":3197:3314   */\n      iszero\n      tag_132\n      jumpi\n        /* \"#utility.yul\":3233:3312   */\n      tag_133\n      tag_115\n      jump\t// in\n    tag_133:\n        /* \"#utility.yul\":3197:3314   */\n    tag_132:\n        /* \"#utility.yul\":3338:3401   */\n      tag_134\n        /* \"#utility.yul\":3393:3400   */\n      dup10\n        /* \"#utility.yul\":3384:3390   */\n      dup3\n        /* \"#utility.yul\":3373:3382   */\n      dup11\n        /* \"#utility.yul\":3369:3391   */\n      add\n        /* \"#utility.yul\":3338:3401   */\n      tag_99\n      jump\t// in\n    tag_134:\n        /* \"#utility.yul\":3328:3401   */\n      swap3\n      pop\n        /* \"#utility.yul\":3122:3411   */\n      pop\n        /* \"#utility.yul\":3450:3453   */\n      0xa0\n        /* \"#utility.yul\":3477:3530   */\n      tag_135\n        /* \"#utility.yul\":3522:3529   */\n      dup10\n        /* \"#utility.yul\":3513:3519   */\n      dup3\n        /* \"#utility.yul\":3502:3511   */\n      dup11\n        /* \"#utility.yul\":3498:3520   */\n      add\n        /* \"#utility.yul\":3477:3530   */\n      tag_95\n      jump\t// in\n    tag_135:\n        /* \"#utility.yul\":3467:3530   */\n      swap2\n      pop\n        /* \"#utility.yul\":3421:3540   */\n      pop\n        /* \"#utility.yul\":1590:3547   */\n      swap3\n      swap6\n      pop\n      swap3\n      swap6\n      pop\n      swap3\n      swap6\n      jump\t// out\n        /* \"#utility.yul\":3553:3882   */\n    tag_19:\n        /* \"#utility.yul\":3612:3618   */\n      0x00\n        /* \"#utility.yul\":3661:3663   */\n      0x20\n        /* \"#utility.yul\":3649:3658   */\n      dup3\n        /* \"#utility.yul\":3640:3647   */\n      dup5\n        /* \"#utility.yul\":3636:3659   */\n      sub\n        /* \"#utility.yul\":3632:3664   */\n      slt\n        /* \"#utility.yul\":3629:3748   */\n      iszero\n      tag_137\n      jumpi\n        /* \"#utility.yul\":3667:3746   */\n      tag_138\n      tag_112\n      jump\t// in\n    tag_138:\n        /* \"#utility.yul\":3629:3748   */\n    tag_137:\n        /* \"#utility.yul\":3787:3788   */\n      0x00\n        /* \"#utility.yul\":3812:3865   */\n      tag_139\n        /* \"#utility.yul\":3857:3864   */\n      dup5\n        /* \"#utility.yul\":3848:3854   */\n      dup3\n        /* \"#utility.yul\":3837:3846   */\n      dup6\n        /* \"#utility.yul\":3833:3855   */\n      add\n        /* \"#utility.yul\":3812:3865   */\n      tag_105\n      jump\t// in\n    tag_139:\n        /* \"#utility.yul\":3802:3865   */\n      swap2\n      pop\n        /* \"#utility.yul\":3758:3875   */\n      pop\n        /* \"#utility.yul\":3553:3882   */\n      swap3\n      swap2\n      pop\n      pop\n      jump\t// out\n        /* \"#utility.yul\":3888:4006   */\n    tag_140:\n        /* \"#utility.yul\":3975:3999   */\n      tag_142\n        /* \"#utility.yul\":3993:3998   */\n      dup2\n        /* \"#utility.yul\":3975:3999   */\n      tag_143\n      jump\t// in\n    tag_142:\n        /* \"#utility.yul\":3970:3973   */\n      dup3\n        /* \"#utility.yul\":3963:4000   */\n      mstore\n        /* \"#utility.yul\":3888:4006   */\n      pop\n      pop\n      jump\t// out\n        /* \"#utility.yul\":4012:4376   */\n    tag_144:\n        /* \"#utility.yul\":4100:4103   */\n      0x00\n        /* \"#utility.yul\":4128:4167   */\n      tag_146\n        /* \"#utility.yul\":4161:4166   */\n      dup3\n        /* \"#utility.yul\":4128:4167   */\n      tag_147\n      jump\t// in\n    tag_146:\n        /* \"#utility.yul\":4183:4254   */\n      tag_148\n        /* \"#utility.yul\":4247:4253   */\n      dup2\n        /* \"#utility.yul\":4242:4245   */\n      dup6\n        /* \"#utility.yul\":4183:4254   */\n      tag_149\n      jump\t// in\n    tag_148:\n        /* \"#utility.yul\":4176:4254   */\n      swap4\n      pop\n        /* \"#utility.yul\":4263:4315   */\n      tag_150\n        /* \"#utility.yul\":4308:4314   */\n      dup2\n        /* \"#utility.yul\":4303:4306   */\n      dup6\n        /* \"#utility.yul\":4296:4300   */\n      0x20\n        /* \"#utility.yul\":4289:4294   */\n      dup7\n        /* \"#utility.yul\":4285:4301   */\n      add\n        /* \"#utility.yul\":4263:4315   */\n      tag_151\n      jump\t// in\n    tag_150:\n        /* \"#utility.yul\":4340:4369   */\n      tag_152\n        /* \"#utility.yul\":4362:4368   */\n      dup2\n        /* \"#utility.yul\":4340:4369   */\n      tag_153\n      jump\t// in\n    tag_152:\n        /* \"#utility.yul\":4335:4338   */\n      dup5\n        /* \"#utility.yul\":4331:4370   */\n      add\n        /* \"#utility.yul\":4324:4370   */\n      swap2\n      pop\n        /* \"#utility.yul\":4104:4376   */\n      pop\n        /* \"#utility.yul\":4012:4376   */\n      swap3\n      swap2\n      pop\n      pop\n      jump\t// out\n        /* \"#utility.yul\":4382:4759   */\n    tag_154:\n        /* \"#utility.yul\":4488:4491   */\n      0x00\n        /* \"#utility.yul\":4516:4555   */\n      tag_156\n        /* \"#utility.yul\":4549:4554   */\n      dup3\n        /* \"#utility.yul\":4516:4555   */\n      tag_147\n      jump\t// in\n    tag_156:\n        /* \"#utility.yul\":4571:4660   */\n      tag_157\n        /* \"#utility.yul\":4653:4659   */\n      dup2\n        /* \"#utility.yul\":4648:4651   */\n      dup6\n        /* \"#utility.yul\":4571:4660   */\n      tag_158\n      jump\t// in\n    tag_157:\n        /* \"#utility.yul\":4564:4660   */\n      swap4\n      pop\n        /* \"#utility.yul\":4669:4721   */\n      tag_159\n        /* \"#utility.yul\":4714:4720   */\n      dup2\n        /* \"#utility.yul\":4709:4712   */\n      dup6\n        /* \"#utility.yul\":4702:4706   */\n      0x20\n        /* \"#utility.yul\":4695:4700   */\n      dup7\n        /* \"#utility.yul\":4691:4707   */\n      add\n        /* \"#utility.yul\":4669:4721   */\n      tag_151\n      jump\t// in\n    tag_159:\n        /* \"#utility.yul\":4746:4752   */\n      dup1\n        /* \"#utility.yul\":4741:4744   */\n      dup5\n        /* \"#utility.yul\":4737:4753   */\n      add\n        /* \"#utility.yul\":4730:4753   */\n      swap2\n      pop\n        /* \"#utility.yul\":4492:4759   */\n      pop\n        /* \"#utility.yul\":4382:4759   */\n      swap3\n      swap2\n      pop\n      pop\n      jump\t// out\n        /* \"#utility.yul\":4765:5040   */\n    tag_37:\n        /* \"#utility.yul\":4897:4900   */\n      0x00\n        /* \"#utility.yul\":4919:5014   */\n      tag_161\n        /* \"#utility.yul\":5010:5013   */\n      dup3\n        /* \"#utility.yul\":5001:5007   */\n      dup5\n        /* \"#utility.yul\":4919:5014   */\n      tag_154\n      jump\t// in\n    tag_161:\n        /* \"#utility.yul\":4912:5014   */\n      swap2\n      pop\n        /* \"#utility.yul\":5031:5034   */\n      dup2\n        /* \"#utility.yul\":5024:5034   */\n      swap1\n      pop\n        /* \"#utility.yul\":4765:5040   */\n      swap3\n      swap2\n      pop\n      pop\n      jump\t// out\n        /* \"#utility.yul\":5046:5268   */\n    tag_27:\n        /* \"#utility.yul\":5139:5143   */\n      0x00\n        /* \"#utility.yul\":5177:5179   */\n      0x20\n        /* \"#utility.yul\":5166:5175   */\n      dup3\n        /* \"#utility.yul\":5162:5180   */\n      add\n        /* \"#utility.yul\":5154:5180   */\n      swap1\n      pop\n        /* \"#utility.yul\":5190:5261   */\n      tag_163\n        /* \"#utility.yul\":5258:5259   */\n      0x00\n        /* \"#utility.yul\":5247:5256   */\n      dup4\n        /* \"#utility.yul\":5243:5260   */\n      add\n        /* \"#utility.yul\":5234:5240   */\n      dup5\n        /* \"#utility.yul\":5190:5261   */\n      tag_140\n      jump\t// in\n    tag_163:\n        /* \"#utility.yul\":5046:5268   */\n      swap3\n      swap2\n      pop\n      pop\n      jump\t// out\n        /* \"#utility.yul\":5274:5587   */\n    tag_16:\n        /* \"#utility.yul\":5387:5391   */\n      0x00\n        /* \"#utility.yul\":5425:5427   */\n      0x20\n        /* \"#utility.yul\":5414:5423   */\n      dup3\n        /* \"#utility.yul\":5410:5428   */\n      add\n        /* \"#utility.yul\":5402:5428   */\n      swap1\n      pop\n        /* \"#utility.yul\":5474:5483   */\n      dup2\n        /* \"#utility.yul\":5468:5472   */\n      dup2\n        /* \"#utility.yul\":5464:5484   */\n      sub\n        /* \"#utility.yul\":5460:5461   */\n      0x00\n        /* \"#utility.yul\":5449:5458   */\n      dup4\n        /* \"#utility.yul\":5445:5462   */\n      add\n        /* \"#utility.yul\":5438:5485   */\n      mstore\n        /* \"#utility.yul\":5502:5580   */\n      tag_165\n        /* \"#utility.yul\":5575:5579   */\n      dup2\n        /* \"#utility.yul\":5566:5572   */\n      dup5\n        /* \"#utility.yul\":5502:5580   */\n      tag_144\n      jump\t// in\n    tag_165:\n        /* \"#utility.yul\":5494:5580   */\n      swap1\n      pop\n        /* \"#utility.yul\":5274:5587   */\n      swap3\n      swap2\n      pop\n      pop\n      jump\t// out\n        /* \"#utility.yul\":5593:6823   */\n    tag_22:\n        /* \"#utility.yul\":5926:5930   */\n      0x00\n        /* \"#utility.yul\":5964:5967   */\n      0xc0\n        /* \"#utility.yul\":5953:5962   */\n      dup3\n        /* \"#utility.yul\":5949:5968   */\n      add\n        /* \"#utility.yul\":5941:5968   */\n      swap1\n      pop\n        /* \"#utility.yul\":6014:6023   */\n      dup2\n        /* \"#utility.yul\":6008:6012   */\n      dup2\n        /* \"#utility.yul\":6004:6024   */\n      sub\n        /* \"#utility.yul\":6000:6001   */\n      0x00\n        /* \"#utility.yul\":5989:5998   */\n      dup4\n        /* \"#utility.yul\":5985:6002   */\n      add\n        /* \"#utility.yul\":5978:6025   */\n      mstore\n        /* \"#utility.yul\":6042:6120   */\n      tag_167\n        /* \"#utility.yul\":6115:6119   */\n      dup2\n        /* \"#utility.yul\":6106:6112   */\n      dup10\n        /* \"#utility.yul\":6042:6120   */\n      tag_144\n      jump\t// in\n    tag_167:\n        /* \"#utility.yul\":6034:6120   */\n      swap1\n      pop\n        /* \"#utility.yul\":6167:6176   */\n      dup2\n        /* \"#utility.yul\":6161:6165   */\n      dup2\n        /* \"#utility.yul\":6157:6177   */\n      sub\n        /* \"#utility.yul\":6152:6154   */\n      0x20\n        /* \"#utility.yul\":6141:6150   */\n      dup4\n        /* \"#utility.yul\":6137:6155   */\n      add\n        /* \"#utility.yul\":6130:6178   */\n      mstore\n        /* \"#utility.yul\":6195:6273   */\n      tag_168\n        /* \"#utility.yul\":6268:6272   */\n      dup2\n        /* \"#utility.yul\":6259:6265   */\n      dup9\n        /* \"#utility.yul\":6195:6273   */\n      tag_144\n      jump\t// in\n    tag_168:\n        /* \"#utility.yul\":6187:6273   */\n      swap1\n      pop\n        /* \"#utility.yul\":6320:6329   */\n      dup2\n        /* \"#utility.yul\":6314:6318   */\n      dup2\n        /* \"#utility.yul\":6310:6330   */\n      sub\n        /* \"#utility.yul\":6305:6307   */\n      0x40\n        /* \"#utility.yul\":6294:6303   */\n      dup4\n        /* \"#utility.yul\":6290:6308   */\n      add\n        /* \"#utility.yul\":6283:6331   */\n      mstore\n        /* \"#utility.yul\":6348:6426   */\n      tag_169\n        /* \"#utility.yul\":6421:6425   */\n      dup2\n        /* \"#utility.yul\":6412:6418   */\n      dup8\n        /* \"#utility.yul\":6348:6426   */\n      tag_144\n      jump\t// in\n    tag_169:\n        /* \"#utility.yul\":6340:6426   */\n      swap1\n      pop\n        /* \"#utility.yul\":6473:6482   */\n      dup2\n        /* \"#utility.yul\":6467:6471   */\n      dup2\n        /* \"#utility.yul\":6463:6483   */\n      sub\n        /* \"#utility.yul\":6458:6460   */\n      0x60\n        /* \"#utility.yul\":6447:6456   */\n      dup4\n        /* \"#utility.yul\":6443:6461   */\n      add\n        /* \"#utility.yul\":6436:6484   */\n      mstore\n        /* \"#utility.yul\":6501:6579   */\n      tag_170\n        /* \"#utility.yul\":6574:6578   */\n      dup2\n        /* \"#utility.yul\":6565:6571   */\n      dup7\n        /* \"#utility.yul\":6501:6579   */\n      tag_144\n      jump\t// in\n    tag_170:\n        /* \"#utility.yul\":6493:6579   */\n      swap1\n      pop\n        /* \"#utility.yul\":6627:6636   */\n      dup2\n        /* \"#utility.yul\":6621:6625   */\n      dup2\n        /* \"#utility.yul\":6617:6637   */\n      sub\n        /* \"#utility.yul\":6611:6614   */\n      0x80\n        /* \"#utility.yul\":6600:6609   */\n      dup4\n        /* \"#utility.yul\":6596:6615   */\n      add\n        /* \"#utility.yul\":6589:6638   */\n      mstore\n        /* \"#utility.yul\":6655:6733   */\n      tag_171\n        /* \"#utility.yul\":6728:6732   */\n      dup2\n        /* \"#utility.yul\":6719:6725   */\n      dup6\n        /* \"#utility.yul\":6655:6733   */\n      tag_144\n      jump\t// in\n    tag_171:\n        /* \"#utility.yul\":6647:6733   */\n      swap1\n      pop\n        /* \"#utility.yul\":6743:6816   */\n      tag_172\n        /* \"#utility.yul\":6811:6814   */\n      0xa0\n        /* \"#utility.yul\":6800:6809   */\n      dup4\n        /* \"#utility.yul\":6796:6815   */\n      add\n        /* \"#utility.yul\":6787:6793   */\n      dup5\n        /* \"#utility.yul\":6743:6816   */\n      tag_140\n      jump\t// in\n    tag_172:\n        /* \"#utility.yul\":5593:6823   */\n      swap8\n      swap7\n      pop\n      pop\n      pop\n      pop\n      pop\n      pop\n      pop\n      jump\t// out\n        /* \"#utility.yul\":6829:6958   */\n    tag_89:\n        /* \"#utility.yul\":6863:6869   */\n      0x00\n        /* \"#utility.yul\":6890:6910   */\n      tag_174\n      tag_175\n      jump\t// in\n    tag_174:\n        /* \"#utility.yul\":6880:6910   */\n      swap1\n      pop\n        /* \"#utility.yul\":6919:6952   */\n      tag_176\n        /* \"#utility.yul\":6947:6951   */\n      dup3\n        /* \"#utility.yul\":6939:6945   */\n      dup3\n        /* \"#utility.yul\":6919:6952   */\n      tag_177\n      jump\t// in\n    tag_176:\n        /* \"#utility.yul\":6829:6958   */\n      swap2\n      swap1\n      pop\n      jump\t// out\n        /* \"#utility.yul\":6964:7039   */\n    tag_175:\n        /* \"#utility.yul\":6997:7003   */\n      0x00\n        /* \"#utility.yul\":7030:7032   */\n      0x40\n        /* \"#utility.yul\":7024:7033   */\n      mload\n        /* \"#utility.yul\":7014:7033   */\n      swap1\n      pop\n        /* \"#utility.yul\":6964:7039   */\n      swap1\n      jump\t// out\n        /* \"#utility.yul\":7045:7353   */\n    tag_88:\n        /* \"#utility.yul\":7107:7111   */\n      0x00\n        /* \"#utility.yul\":7197:7215   */\n      0xffffffffffffffff\n        /* \"#utility.yul\":7189:7195   */\n      dup3\n        /* \"#utility.yul\":7186:7216   */\n      gt\n        /* \"#utility.yul\":7183:7239   */\n      iszero\n      tag_180\n      jumpi\n        /* \"#utility.yul\":7219:7237   */\n      tag_181\n      tag_182\n      jump\t// in\n    tag_181:\n        /* \"#utility.yul\":7183:7239   */\n    tag_180:\n        /* \"#utility.yul\":7257:7286   */\n      tag_183\n        /* \"#utility.yul\":7279:7285   */\n      dup3\n        /* \"#utility.yul\":7257:7286   */\n      tag_153\n      jump\t// in\n    tag_183:\n        /* \"#utility.yul\":7249:7286   */\n      swap1\n      pop\n        /* \"#utility.yul\":7341:7345   */\n      0x20\n        /* \"#utility.yul\":7335:7339   */\n      dup2\n        /* \"#utility.yul\":7331:7346   */\n      add\n        /* \"#utility.yul\":7323:7346   */\n      swap1\n      pop\n        /* \"#utility.yul\":7045:7353   */\n      swap2\n      swap1\n      pop\n      jump\t// out\n        /* \"#utility.yul\":7359:7458   */\n    tag_147:\n        /* \"#utility.yul\":7411:7417   */\n      0x00\n        /* \"#utility.yul\":7445:7450   */\n      dup2\n        /* \"#utility.yul\":7439:7451   */\n      mload\n        /* \"#utility.yul\":7429:7451   */\n      swap1\n      pop\n        /* \"#utility.yul\":7359:7458   */\n      swap2\n      swap1\n      pop\n      jump\t// out\n        /* \"#utility.yul\":7464:7633   */\n    tag_149:\n        /* \"#utility.yul\":7548:7559   */\n      0x00\n        /* \"#utility.yul\":7582:7588   */\n      dup3\n        /* \"#utility.yul\":7577:7580   */\n      dup3\n        /* \"#utility.yul\":7570:7589   */\n      mstore\n        /* \"#utility.yul\":7622:7626   */\n      0x20\n        /* \"#utility.yul\":7617:7620   */\n      dup3\n        /* \"#utility.yul\":7613:7627   */\n      add\n        /* \"#utility.yul\":7598:7627   */\n      swap1\n      pop\n        /* \"#utility.yul\":7464:7633   */\n      swap3\n      swap2\n      pop\n      pop\n      jump\t// out\n        /* \"#utility.yul\":7639:7787   */\n    tag_158:\n        /* \"#utility.yul\":7741:7752   */\n      0x00\n        /* \"#utility.yul\":7778:7781   */\n      dup2\n        /* \"#utility.yul\":7763:7781   */\n      swap1\n      pop\n        /* \"#utility.yul\":7639:7787   */\n      swap3\n      swap2\n      pop\n      pop\n      jump\t// out\n        /* \"#utility.yul\":7793:7889   */\n    tag_143:\n        /* \"#utility.yul\":7830:7837   */\n      0x00\n        /* \"#utility.yul\":7859:7883   */\n      tag_188\n        /* \"#utility.yul\":7877:7882   */\n      dup3\n        /* \"#utility.yul\":7859:7883   */\n      tag_189\n      jump\t// in\n    tag_188:\n        /* \"#utility.yul\":7848:7883   */\n      swap1\n      pop\n        /* \"#utility.yul\":7793:7889   */\n      swap2\n      swap1\n      pop\n      jump\t// out\n        /* \"#utility.yul\":7895:8021   */\n    tag_189:\n        /* \"#utility.yul\":7932:7939   */\n      0x00\n        /* \"#utility.yul\":7972:8014   */\n      0xffffffffffffffffffffffffffffffffffffffff\n        /* \"#utility.yul\":7965:7970   */\n      dup3\n        /* \"#utility.yul\":7961:8015   */\n      and\n        /* \"#utility.yul\":7950:8015   */\n      swap1\n      pop\n        /* \"#utility.yul\":7895:8021   */\n      swap2\n      swap1\n      pop\n      jump\t// out\n        /* \"#utility.yul\":8027:8104   */\n    tag_191:\n        /* \"#utility.yul\":8064:8071   */\n      0x00\n        /* \"#utility.yul\":8093:8098   */\n      dup2\n        /* \"#utility.yul\":8082:8098   */\n      swap1\n      pop\n        /* \"#utility.yul\":8027:8104   */\n      swap2\n      swap1\n      pop\n      jump\t// out\n        /* \"#utility.yul\":8110:8264   */\n    tag_94:\n        /* \"#utility.yul\":8194:8200   */\n      dup3\n        /* \"#utility.yul\":8189:8192   */\n      dup2\n        /* \"#utility.yul\":8184:8187   */\n      dup4\n        /* \"#utility.yul\":8171:8201   */\n      calldatacopy\n        /* \"#utility.yul\":8256:8257   */\n      0x00\n        /* \"#utility.yul\":8247:8253   */\n      dup4\n        /* \"#utility.yul\":8242:8245   */\n      dup4\n        /* \"#utility.yul\":8238:8254   */\n      add\n        /* \"#utility.yul\":8231:8258   */\n      mstore\n        /* \"#utility.yul\":8110:8264   */\n      pop\n      pop\n      pop\n      jump\t// out\n        /* \"#utility.yul\":8270:8577   */\n    tag_151:\n        /* \"#utility.yul\":8338:8339   */\n      0x00\n        /* \"#utility.yul\":8348:8461   */\n    tag_195:\n        /* \"#utility.yul\":8362:8368   */\n      dup4\n        /* \"#utility.yul\":8359:8360   */\n      dup2\n        /* \"#utility.yul\":8356:8369   */\n      lt\n        /* \"#utility.yul\":8348:8461   */\n      iszero\n      tag_197\n      jumpi\n        /* \"#utility.yul\":8447:8448   */\n      dup1\n        /* \"#utility.yul\":8442:8445   */\n      dup3\n        /* \"#utility.yul\":8438:8449   */\n      add\n        /* \"#utility.yul\":8432:8450   */\n      mload\n        /* \"#utility.yul\":8428:8429   */\n      dup2\n        /* \"#utility.yul\":8423:8426   */\n      dup5\n        /* \"#utility.yul\":8419:8430   */\n      add\n        /* \"#utility.yul\":8412:8451   */\n      mstore\n        /* \"#utility.yul\":8384:8386   */\n      0x20\n        /* \"#utility.yul\":8381:8382   */\n      dup2\n        /* \"#utility.yul\":8377:8387   */\n      add\n        /* \"#utility.yul\":8372:8387   */\n      swap1\n      pop\n        /* \"#utility.yul\":8348:8461   */\n      jump(tag_195)\n    tag_197:\n        /* \"#utility.yul\":8479:8485   */\n      dup4\n        /* \"#utility.yul\":8476:8477   */\n      dup2\n        /* \"#utility.yul\":8473:8486   */\n      gt\n        /* \"#utility.yul\":8470:8571   */\n      iszero\n      tag_198\n      jumpi\n        /* \"#utility.yul\":8559:8560   */\n      0x00\n        /* \"#utility.yul\":8550:8556   */\n      dup5\n        /* \"#utility.yul\":8545:8548   */\n      dup5\n        /* \"#utility.yul\":8541:8557   */\n      add\n        /* \"#utility.yul\":8534:8561   */\n      mstore\n        /* \"#utility.yul\":8470:8571   */\n    tag_198:\n        /* \"#utility.yul\":8319:8577   */\n      pop\n        /* \"#utility.yul\":8270:8577   */\n      pop\n      pop\n      pop\n      jump\t// out\n        /* \"#utility.yul\":8583:8903   */\n    tag_41:\n        /* \"#utility.yul\":8627:8633   */\n      0x00\n        /* \"#utility.yul\":8664:8665   */\n      0x02\n        /* \"#utility.yul\":8658:8662   */\n      dup3\n        /* \"#utility.yul\":8654:8666   */\n      div\n        /* \"#utility.yul\":8644:8666   */\n      swap1\n      pop\n        /* \"#utility.yul\":8711:8712   */\n      0x01\n        /* \"#utility.yul\":8705:8709   */\n      dup3\n        /* \"#utility.yul\":8701:8713   */\n      and\n        /* \"#utility.yul\":8732:8750   */\n      dup1\n        /* \"#utility.yul\":8722:8803   */\n      tag_200\n      jumpi\n        /* \"#utility.yul\":8788:8792   */\n      0x7f\n        /* \"#utility.yul\":8780:8786   */\n      dup3\n        /* \"#utility.yul\":8776:8793   */\n      and\n        /* \"#utility.yul\":8766:8793   */\n      swap2\n      pop\n        /* \"#utility.yul\":8722:8803   */\n    tag_200:\n        /* \"#utility.yul\":8850:8852   */\n      0x20\n        /* \"#utility.yul\":8842:8848   */\n      dup3\n        /* \"#utility.yul\":8839:8853   */\n      lt\n        /* \"#utility.yul\":8819:8837   */\n      dup2\n        /* \"#utility.yul\":8816:8854   */\n      eq\n        /* \"#utility.yul\":8813:8897   */\n      iszero\n      tag_201\n      jumpi\n        /* \"#utility.yul\":8869:8887   */\n      tag_202\n      tag_203\n      jump\t// in\n    tag_202:\n        /* \"#utility.yul\":8813:8897   */\n    tag_201:\n        /* \"#utility.yul\":8634:8903   */\n      pop\n        /* \"#utility.yul\":8583:8903   */\n      swap2\n      swap1\n      pop\n      jump\t// out\n        /* \"#utility.yul\":8909:9190   */\n    tag_177:\n        /* \"#utility.yul\":8992:9019   */\n      tag_205\n        /* \"#utility.yul\":9014:9018   */\n      dup3\n        /* \"#utility.yul\":8992:9019   */\n      tag_153\n      jump\t// in\n    tag_205:\n        /* \"#utility.yul\":8984:8990   */\n      dup2\n        /* \"#utility.yul\":8980:9020   */\n      add\n        /* \"#utility.yul\":9122:9128   */\n      dup2\n        /* \"#utility.yul\":9110:9120   */\n      dup2\n        /* \"#utility.yul\":9107:9129   */\n      lt\n        /* \"#utility.yul\":9086:9104   */\n      0xffffffffffffffff\n        /* \"#utility.yul\":9074:9084   */\n      dup3\n        /* \"#utility.yul\":9071:9105   */\n      gt\n        /* \"#utility.yul\":9068:9130   */\n      or\n        /* \"#utility.yul\":9065:9153   */\n      iszero\n      tag_206\n      jumpi\n        /* \"#utility.yul\":9133:9151   */\n      tag_207\n      tag_182\n      jump\t// in\n    tag_207:\n        /* \"#utility.yul\":9065:9153   */\n    tag_206:\n        /* \"#utility.yul\":9173:9183   */\n      dup1\n        /* \"#utility.yul\":9169:9171   */\n      0x40\n        /* \"#utility.yul\":9162:9184   */\n      mstore\n        /* \"#utility.yul\":8952:9190   */\n      pop\n        /* \"#utility.yul\":8909:9190   */\n      pop\n      pop\n      jump\t// out\n        /* \"#utility.yul\":9196:9376   */\n    tag_203:\n        /* \"#utility.yul\":9244:9321   */\n      0x4e487b7100000000000000000000000000000000000000000000000000000000\n        /* \"#utility.yul\":9241:9242   */\n      0x00\n        /* \"#utility.yul\":9234:9322   */\n      mstore\n        /* \"#utility.yul\":9341:9345   */\n      0x22\n        /* \"#utility.yul\":9338:9339   */\n      0x04\n        /* \"#utility.yul\":9331:9346   */\n      mstore\n        /* \"#utility.yul\":9365:9369   */\n      0x24\n        /* \"#utility.yul\":9362:9363   */\n      0x00\n        /* \"#utility.yul\":9355:9370   */\n      revert\n        /* \"#utility.yul\":9382:9562   */\n    tag_182:\n        /* \"#utility.yul\":9430:9507   */\n      0x4e487b7100000000000000000000000000000000000000000000000000000000\n        /* \"#utility.yul\":9427:9428   */\n      0x00\n        /* \"#utility.yul\":9420:9508   */\n      mstore\n        /* \"#utility.yul\":9527:9531   */\n      0x41\n        /* \"#utility.yul\":9524:9525   */\n      0x04\n        /* \"#utility.yul\":9517:9532   */\n      mstore\n        /* \"#utility.yul\":9551:9555   */\n      0x24\n        /* \"#utility.yul\":9548:9549   */\n      0x00\n        /* \"#utility.yul\":9541:9556   */\n      revert\n        /* \"#utility.yul\":9568:9685   */\n    tag_103:\n        /* \"#utility.yul\":9677:9678   */\n      0x00\n        /* \"#utility.yul\":9674:9675   */\n      dup1\n        /* \"#utility.yul\":9667:9679   */\n      revert\n        /* \"#utility.yul\":9691:9808   */\n    tag_92:\n        /* \"#utility.yul\":9800:9801   */\n      0x00\n        /* \"#utility.yul\":9797:9798   */\n      dup1\n        /* \"#utility.yul\":9790:9802   */\n      revert\n        /* \"#utility.yul\":9814:9931   */\n    tag_115:\n        /* \"#utility.yul\":9923:9924   */\n      0x00\n        /* \"#utility.yul\":9920:9921   */\n      dup1\n        /* \"#utility.yul\":9913:9925   */\n      revert\n        /* \"#utility.yul\":9937:10054   */\n    tag_112:\n        /* \"#utility.yul\":10046:10047   */\n      0x00\n        /* \"#utility.yul\":10043:10044   */\n      dup1\n        /* \"#utility.yul\":10036:10048   */\n      revert\n        /* \"#utility.yul\":10060:10162   */\n    tag_153:\n        /* \"#utility.yul\":10101:10107   */\n      0x00\n        /* \"#utility.yul\":10152:10154   */\n      0x1f\n        /* \"#utility.yul\":10148:10155   */\n      not\n        /* \"#utility.yul\":10143:10145   */\n      0x1f\n        /* \"#utility.yul\":10136:10141   */\n      dup4\n        /* \"#utility.yul\":10132:10146   */\n      add\n        /* \"#utility.yul\":10128:10156   */\n      and\n        /* \"#utility.yul\":10118:10156   */\n      swap1\n      pop\n        /* \"#utility.yul\":10060:10162   */\n      swap2\n      swap1\n      pop\n      jump\t// out\n        /* \"#utility.yul\":10168:10290   */\n    tag_98:\n        /* \"#utility.yul\":10241:10265   */\n      tag_216\n        /* \"#utility.yul\":10259:10264   */\n      dup2\n        /* \"#utility.yul\":10241:10265   */\n      tag_143\n      jump\t// in\n    tag_216:\n        /* \"#utility.yul\":10234:10239   */\n      dup2\n        /* \"#utility.yul\":10231:10266   */\n      eq\n        /* \"#utility.yul\":10221:10284   */\n      tag_217\n      jumpi\n        /* \"#utility.yul\":10280:10281   */\n      0x00\n        /* \"#utility.yul\":10277:10278   */\n      dup1\n        /* \"#utility.yul\":10270:10282   */\n      revert\n        /* \"#utility.yul\":10221:10284   */\n    tag_217:\n        /* \"#utility.yul\":10168:10290   */\n      pop\n      jump\t// out\n        /* \"#utility.yul\":10296:10418   */\n    tag_108:\n        /* \"#utility.yul\":10369:10393   */\n      tag_219\n        /* \"#utility.yul\":10387:10392   */\n      dup2\n        /* \"#utility.yul\":10369:10393   */\n      tag_191\n      jump\t// in\n    tag_219:\n        /* \"#utility.yul\":10362:10367   */\n      dup2\n        /* \"#utility.yul\":10359:10394   */\n      eq\n        /* \"#utility.yul\":10349:10412   */\n      tag_220\n      jumpi\n        /* \"#utility.yul\":10408:10409   */\n      0x00\n        /* \"#utility.yul\":10405:10406   */\n      dup1\n        /* \"#utility.yul\":10398:10410   */\n      revert\n        /* \"#utility.yul\":10349:10412   */\n    tag_220:\n        /* \"#utility.yul\":10296:10418   */\n      pop\n      jump\t// out\n\n    auxdata: 0xa26469706673582212201db45f408f1cd88cb605f0dcfd765e4cd0f8f5cbf34c3f3ca17611054ed3f6ea64736f6c63430008070033\n}\n",
				"bytecode": {
					"linkReferences": {},
					"object": "608060405234801561001057600080fd5b50610d57806100206000396000f3fe608060405234801561001057600080fd5b506004361061004c5760003560e01c80636e390c851461005157806385571bb11461006d578063a39ab40e1461009d578063f76e40f8146100d2575b600080fd5b61006b6004803603810190610066919061087b565b610102565b005b61008760048036038101906100829190610832565b6102e2565b6040516100949190610a6c565b60405180910390f35b6100b760048036038101906100b29190610994565b610398565b6040516100c996959493929190610a8e565b60405180910390f35b6100ec60048036038101906100e79190610832565b6106ac565b6040516100f99190610a51565b60405180910390f35b60006040518060c001604052808881526020018781526020018681526020018581526020018481526020018373ffffffffffffffffffffffffffffffffffffffff168152509080600181540180825580915050600190039060005260206000209060060201600090919091909150600082015181600001908051906020019061018c9291906106f5565b5060208201518160010190805190602001906101a99291906106f5565b5060408201518160020190805190602001906101c69291906106f5565b5060608201518160030190805190602001906101e39291906106f5565b5060808201518160040190805190602001906102009291906106f5565b5060a08201518160050160006101000a81548173ffffffffffffffffffffffffffffffffffffffff021916908373ffffffffffffffffffffffffffffffffffffffff16021790555050508060018760405161025b9190610a3a565b908152602001604051809103902060006101000a81548173ffffffffffffffffffffffffffffffffffffffff021916908373ffffffffffffffffffffffffffffffffffffffff160217905550816002876040516102b89190610a3a565b908152602001604051809103902090805190602001906102d99291906106f5565b50505050505050565b600281805160208101820180518482526020830160208501208183528095505050505050600091509050805461031790610c0d565b80601f016020809104026020016040519081016040528092919081815260200182805461034390610c0d565b80156103905780601f1061036557610100808354040283529160200191610390565b820191906000526020600020905b81548152906001019060200180831161037357829003601f168201915b505050505081565b600081815481106103a857600080fd5b90600052602060002090600602016000915090508060000180546103cb90610c0d565b80601f01602080910402602001604051908101604052809291908181526020018280546103f790610c0d565b80156104445780601f1061041957610100808354040283529160200191610444565b820191906000526020600020905b81548152906001019060200180831161042757829003601f168201915b50505050509080600101805461045990610c0d565b80601f016020809104026020016040519081016040528092919081815260200182805461048590610c0d565b80156104d25780601f106104a7576101008083540402835291602001916104d2565b820191906000526020600020905b8154815290600101906020018083116104b557829003601f168201915b5050505050908060020180546104e790610c0d565b80601f016020809104026020016040519081016040528092919081815260200182805461051390610c0d565b80156105605780601f1061053557610100808354040283529160200191610560565b820191906000526020600020905b81548152906001019060200180831161054357829003601f168201915b50505050509080600301805461057590610c0d565b80601f01602080910402602001604051908101604052809291908181526020018280546105a190610c0d565b80156105ee5780601f106105c3576101008083540402835291602001916105ee565b820191906000526020600020905b8154815290600101906020018083116105d157829003601f168201915b50505050509080600401805461060390610c0d565b80601f016020809104026020016040519081016040528092919081815260200182805461062f90610c0d565b801561067c5780601f106106515761010080835404028352916020019161067c565b820191906000526020600020905b81548152906001019060200180831161065f57829003601f168201915b5050505050908060050160009054906101000a900473ffffffffffffffffffffffffffffffffffffffff16905086565b6001818051602081018201805184825260208301602085012081835280955050505050506000915054906101000a900473ffffffffffffffffffffffffffffffffffffffff1681565b82805461070190610c0d565b90600052602060002090601f016020900481019282610723576000855561076a565b82601f1061073c57805160ff191683800117855561076a565b8280016001018555821561076a579182015b8281111561076957825182559160200191906001019061074e565b5b509050610777919061077b565b5090565b5b8082111561079457600081600090555060010161077c565b5090565b60006107ab6107a684610b37565b610b12565b9050828152602081018484840111156107c7576107c6610cd3565b5b6107d2848285610bcb565b509392505050565b6000813590506107e981610cf3565b92915050565b600082601f83011261080457610803610cce565b5b8135610814848260208601610798565b91505092915050565b60008135905061082c81610d0a565b92915050565b60006020828403121561084857610847610cdd565b5b600082013567ffffffffffffffff81111561086657610865610cd8565b5b610872848285016107ef565b91505092915050565b60008060008060008060c0878903121561089857610897610cdd565b5b600087013567ffffffffffffffff8111156108b6576108b5610cd8565b5b6108c289828a016107ef565b965050602087013567ffffffffffffffff8111156108e3576108e2610cd8565b5b6108ef89828a016107ef565b955050604087013567ffffffffffffffff8111156109105761090f610cd8565b5b61091c89828a016107ef565b945050606087013567ffffffffffffffff81111561093d5761093c610cd8565b5b61094989828a016107ef565b935050608087013567ffffffffffffffff81111561096a57610969610cd8565b5b61097689828a016107ef565b92505060a061098789828a016107da565b9150509295509295509295565b6000602082840312156109aa576109a9610cdd565b5b60006109b88482850161081d565b91505092915050565b6109ca81610b8f565b82525050565b60006109db82610b68565b6109e58185610b73565b93506109f5818560208601610bda565b6109fe81610ce2565b840191505092915050565b6000610a1482610b68565b610a1e8185610b84565b9350610a2e818560208601610bda565b80840191505092915050565b6000610a468284610a09565b915081905092915050565b6000602082019050610a6660008301846109c1565b92915050565b60006020820190508181036000830152610a8681846109d0565b905092915050565b600060c0820190508181036000830152610aa881896109d0565b90508181036020830152610abc81886109d0565b90508181036040830152610ad081876109d0565b90508181036060830152610ae481866109d0565b90508181036080830152610af881856109d0565b9050610b0760a08301846109c1565b979650505050505050565b6000610b1c610b2d565b9050610b288282610c3f565b919050565b6000604051905090565b600067ffffffffffffffff821115610b5257610b51610c9f565b5b610b5b82610ce2565b9050602081019050919050565b600081519050919050565b600082825260208201905092915050565b600081905092915050565b6000610b9a82610ba1565b9050919050565b600073ffffffffffffffffffffffffffffffffffffffff82169050919050565b6000819050919050565b82818337600083830152505050565b60005b83811015610bf8578082015181840152602081019050610bdd565b83811115610c07576000848401525b50505050565b60006002820490506001821680610c2557607f821691505b60208210811415610c3957610c38610c70565b5b50919050565b610c4882610ce2565b810181811067ffffffffffffffff82111715610c6757610c66610c9f565b5b80604052505050565b7f4e487b7100000000000000000000000000000000000000000000000000000000600052602260045260246000fd5b7f4e487b7100000000000000000000000000000000000000000000000000000000600052604160045260246000fd5b600080fd5b600080fd5b600080fd5b600080fd5b6000601f19601f8301169050919050565b610cfc81610b8f565b8114610d0757600080fd5b50565b610d1381610bc1565b8114610d1e57600080fd5b5056fea26469706673582212201db45f408f1cd88cb605f0dcfd765e4cd0f8f5cbf34c3f3ca17611054ed3f6ea64736f6c63430008070033",
					"opcodes": "PUSH1 0x80 PUSH1 0x40 MSTORE CALLVALUE DUP1 ISZERO PUSH2 0x10 JUMPI PUSH1 0x0 DUP1 REVERT JUMPDEST POP PUSH2 0xD57 DUP1 PUSH2 0x20 PUSH1 0x0 CODECOPY PUSH1 0x0 RETURN INVALID PUSH1 0x80 PUSH1 0x40 MSTORE CALLVALUE DUP1 ISZERO PUSH2 0x10 JUMPI PUSH1 0x0 DUP1 REVERT JUMPDEST POP PUSH1 0x4 CALLDATASIZE LT PUSH2 0x4C JUMPI PUSH1 0x0 CALLDATALOAD PUSH1 0xE0 SHR DUP1 PUSH4 0x6E390C85 EQ PUSH2 0x51 JUMPI DUP1 PUSH4 0x85571BB1 EQ PUSH2 0x6D JUMPI DUP1 PUSH4 0xA39AB40E EQ PUSH2 0x9D JUMPI DUP1 PUSH4 0xF76E40F8 EQ PUSH2 0xD2 JUMPI JUMPDEST PUSH1 0x0 DUP1 REVERT JUMPDEST PUSH2 0x6B PUSH1 0x4 DUP1 CALLDATASIZE SUB DUP2 ADD SWAP1 PUSH2 0x66 SWAP2 SWAP1 PUSH2 0x87B JUMP JUMPDEST PUSH2 0x102 JUMP JUMPDEST STOP JUMPDEST PUSH2 0x87 PUSH1 0x4 DUP1 CALLDATASIZE SUB DUP2 ADD SWAP1 PUSH2 0x82 SWAP2 SWAP1 PUSH2 0x832 JUMP JUMPDEST PUSH2 0x2E2 JUMP JUMPDEST PUSH1 0x40 MLOAD PUSH2 0x94 SWAP2 SWAP1 PUSH2 0xA6C JUMP JUMPDEST PUSH1 0x40 MLOAD DUP1 SWAP2 SUB SWAP1 RETURN JUMPDEST PUSH2 0xB7 PUSH1 0x4 DUP1 CALLDATASIZE SUB DUP2 ADD SWAP1 PUSH2 0xB2 SWAP2 SWAP1 PUSH2 0x994 JUMP JUMPDEST PUSH2 0x398 JUMP JUMPDEST PUSH1 0x40 MLOAD PUSH2 0xC9 SWAP7 SWAP6 SWAP5 SWAP4 SWAP3 SWAP2 SWAP1 PUSH2 0xA8E JUMP JUMPDEST PUSH1 0x40 MLOAD DUP1 SWAP2 SUB SWAP1 RETURN JUMPDEST PUSH2 0xEC PUSH1 0x4 DUP1 CALLDATASIZE SUB DUP2 ADD SWAP1 PUSH2 0xE7 SWAP2 SWAP1 PUSH2 0x832 JUMP JUMPDEST PUSH2 0x6AC JUMP JUMPDEST PUSH1 0x40 MLOAD PUSH2 0xF9 SWAP2 SWAP1 PUSH2 0xA51 JUMP JUMPDEST PUSH1 0x40 MLOAD DUP1 SWAP2 SUB SWAP1 RETURN JUMPDEST PUSH1 0x0 PUSH1 0x40 MLOAD DUP1 PUSH1 0xC0 ADD PUSH1 0x40 MSTORE DUP1 DUP9 DUP2 MSTORE PUSH1 0x20 ADD DUP8 DUP2 MSTORE PUSH1 0x20 ADD DUP7 DUP2 MSTORE PUSH1 0x20 ADD DUP6 DUP2 MSTORE PUSH1 0x20 ADD DUP5 DUP2 MSTORE PUSH1 0x20 ADD DUP4 PUSH20 0xFFFFFFFFFFFFFFFFFFFFFFFFFFFFFFFFFFFFFFFF AND DUP2 MSTORE POP SWAP1 DUP1 PUSH1 0x1 DUP2 SLOAD ADD DUP1 DUP3 SSTORE DUP1 SWAP2 POP POP PUSH1 0x1 SWAP1 SUB SWAP1 PUSH1 0x0 MSTORE PUSH1 0x20 PUSH1 0x0 KECCAK256 SWAP1 PUSH1 0x6 MUL ADD PUSH1 0x0 SWAP1 SWAP2 SWAP1 SWAP2 SWAP1 SWAP2 POP PUSH1 0x0 DUP3 ADD MLOAD DUP2 PUSH1 0x0 ADD SWAP1 DUP1 MLOAD SWAP1 PUSH1 0x20 ADD SWAP1 PUSH2 0x18C SWAP3 SWAP2 SWAP1 PUSH2 0x6F5 JUMP JUMPDEST POP PUSH1 0x20 DUP3 ADD MLOAD DUP2 PUSH1 0x1 ADD SWAP1 DUP1 MLOAD SWAP1 PUSH1 0x20 ADD SWAP1 PUSH2 0x1A9 SWAP3 SWAP2 SWAP1 PUSH2 0x6F5 JUMP JUMPDEST POP PUSH1 0x40 DUP3 ADD MLOAD DUP2 PUSH1 0x2 ADD SWAP1 DUP1 MLOAD SWAP1 PUSH1 0x20 ADD SWAP1 PUSH2 0x1C6 SWAP3 SWAP2 SWAP1 PUSH2 0x6F5 JUMP JUMPDEST POP PUSH1 0x60 DUP3 ADD MLOAD DUP2 PUSH1 0x3 ADD SWAP1 DUP1 MLOAD SWAP1 PUSH1 0x20 ADD SWAP1 PUSH2 0x1E3 SWAP3 SWAP2 SWAP1 PUSH2 0x6F5 JUMP JUMPDEST POP PUSH1 0x80 DUP3 ADD MLOAD DUP2 PUSH1 0x4 ADD SWAP1 DUP1 MLOAD SWAP1 PUSH1 0x20 ADD SWAP1 PUSH2 0x200 SWAP3 SWAP2 SWAP1 PUSH2 0x6F5 JUMP JUMPDEST POP PUSH1 0xA0 DUP3 ADD MLOAD DUP2 PUSH1 0x5 ADD PUSH1 0x0 PUSH2 0x100 EXP DUP2 SLOAD DUP2 PUSH20 0xFFFFFFFFFFFFFFFFFFFFFFFFFFFFFFFFFFFFFFFF MUL NOT AND SWAP1 DUP4 PUSH20 0xFFFFFFFFFFFFFFFFFFFFFFFFFFFFFFFFFFFFFFFF AND MUL OR SWAP1 SSTORE POP POP POP DUP1 PUSH1 0x1 DUP8 PUSH1 0x40 MLOAD PUSH2 0x25B SWAP2 SWAP1 PUSH2 0xA3A JUMP JUMPDEST SWAP1 DUP2 MSTORE PUSH1 0x20 ADD PUSH1 0x40 MLOAD DUP1 SWAP2 SUB SWAP1 KECCAK256 PUSH1 0x0 PUSH2 0x100 EXP DUP2 SLOAD DUP2 PUSH20 0xFFFFFFFFFFFFFFFFFFFFFFFFFFFFFFFFFFFFFFFF MUL NOT AND SWAP1 DUP4 PUSH20 0xFFFFFFFFFFFFFFFFFFFFFFFFFFFFFFFFFFFFFFFF AND MUL OR SWAP1 SSTORE POP DUP2 PUSH1 0x2 DUP8 PUSH1 0x40 MLOAD PUSH2 0x2B8 SWAP2 SWAP1 PUSH2 0xA3A JUMP JUMPDEST SWAP1 DUP2 MSTORE PUSH1 0x20 ADD PUSH1 0x40 MLOAD DUP1 SWAP2 SUB SWAP1 KECCAK256 SWAP1 DUP1 MLOAD SWAP1 PUSH1 0x20 ADD SWAP1 PUSH2 0x2D9 SWAP3 SWAP2 SWAP1 PUSH2 0x6F5 JUMP JUMPDEST POP POP POP POP POP POP POP JUMP JUMPDEST PUSH1 0x2 DUP2 DUP1 MLOAD PUSH1 0x20 DUP2 ADD DUP3 ADD DUP1 MLOAD DUP5 DUP3 MSTORE PUSH1 0x20 DUP4 ADD PUSH1 0x20 DUP6 ADD KECCAK256 DUP2 DUP4 MSTORE DUP1 SWAP6 POP POP POP POP POP POP PUSH1 0x0 SWAP2 POP SWAP1 POP DUP1 SLOAD PUSH2 0x317 SWAP1 PUSH2 0xC0D JUMP JUMPDEST DUP1 PUSH1 0x1F ADD PUSH1 0x20 DUP1 SWAP2 DIV MUL PUSH1 0x20 ADD PUSH1 0x40 MLOAD SWAP1 DUP2 ADD PUSH1 0x40 MSTORE DUP1 SWAP3 SWAP2 SWAP1 DUP2 DUP2 MSTORE PUSH1 0x20 ADD DUP3 DUP1 SLOAD PUSH2 0x343 SWAP1 PUSH2 0xC0D JUMP JUMPDEST DUP1 ISZERO PUSH2 0x390 JUMPI DUP1 PUSH1 0x1F LT PUSH2 0x365 JUMPI PUSH2 0x100 DUP1 DUP4 SLOAD DIV MUL DUP4 MSTORE SWAP2 PUSH1 0x20 ADD SWAP2 PUSH2 0x390 JUMP JUMPDEST DUP3 ADD SWAP2 SWAP1 PUSH1 0x0 MSTORE PUSH1 0x20 PUSH1 0x0 KECCAK256 SWAP1 JUMPDEST DUP2 SLOAD DUP2 MSTORE SWAP1 PUSH1 0x1 ADD SWAP1 PUSH1 0x20 ADD DUP1 DUP4 GT PUSH2 0x373 JUMPI DUP3 SWAP1 SUB PUSH1 0x1F AND DUP3 ADD SWAP2 JUMPDEST POP POP POP POP POP DUP2 JUMP JUMPDEST PUSH1 0x0 DUP2 DUP2 SLOAD DUP2 LT PUSH2 0x3A8 JUMPI PUSH1 0x0 DUP1 REVERT JUMPDEST SWAP1 PUSH1 0x0 MSTORE PUSH1 0x20 PUSH1 0x0 KECCAK256 SWAP1 PUSH1 0x6 MUL ADD PUSH1 0x0 SWAP2 POP SWAP1 POP DUP1 PUSH1 0x0 ADD DUP1 SLOAD PUSH2 0x3CB SWAP1 PUSH2 0xC0D JUMP JUMPDEST DUP1 PUSH1 0x1F ADD PUSH1 0x20 DUP1 SWAP2 DIV MUL PUSH1 0x20 ADD PUSH1 0x40 MLOAD SWAP1 DUP2 ADD PUSH1 0x40 MSTORE DUP1 SWAP3 SWAP2 SWAP1 DUP2 DUP2 MSTORE PUSH1 0x20 ADD DUP3 DUP1 SLOAD PUSH2 0x3F7 SWAP1 PUSH2 0xC0D JUMP JUMPDEST DUP1 ISZERO PUSH2 0x444 JUMPI DUP1 PUSH1 0x1F LT PUSH2 0x419 JUMPI PUSH2 0x100 DUP1 DUP4 SLOAD DIV MUL DUP4 MSTORE SWAP2 PUSH1 0x20 ADD SWAP2 PUSH2 0x444 JUMP JUMPDEST DUP3 ADD SWAP2 SWAP1 PUSH1 0x0 MSTORE PUSH1 0x20 PUSH1 0x0 KECCAK256 SWAP1 JUMPDEST DUP2 SLOAD DUP2 MSTORE SWAP1 PUSH1 0x1 ADD SWAP1 PUSH1 0x20 ADD DUP1 DUP4 GT PUSH2 0x427 JUMPI DUP3 SWAP1 SUB PUSH1 0x1F AND DUP3 ADD SWAP2 JUMPDEST POP POP POP POP POP SWAP1 DUP1 PUSH1 0x1 ADD DUP1 SLOAD PUSH2 0x459 SWAP1 PUSH2 0xC0D JUMP JUMPDEST DUP1 PUSH1 0x1F ADD PUSH1 0x20 DUP1 SWAP2 DIV MUL PUSH1 0x20 ADD PUSH1 0x40 MLOAD SWAP1 DUP2 ADD PUSH1 0x40 MSTORE DUP1 SWAP3 SWAP2 SWAP1 DUP2 DUP2 MSTORE PUSH1 0x20 ADD DUP3 DUP1 SLOAD PUSH2 0x485 SWAP1 PUSH2 0xC0D JUMP JUMPDEST DUP1 ISZERO PUSH2 0x4D2 JUMPI DUP1 PUSH1 0x1F LT PUSH2 0x4A7 JUMPI PUSH2 0x100 DUP1 DUP4 SLOAD DIV MUL DUP4 MSTORE SWAP2 PUSH1 0x20 ADD SWAP2 PUSH2 0x4D2 JUMP JUMPDEST DUP3 ADD SWAP2 SWAP1 PUSH1 0x0 MSTORE PUSH1 0x20 PUSH1 0x0 KECCAK256 SWAP1 JUMPDEST DUP2 SLOAD DUP2 MSTORE SWAP1 PUSH1 0x1 ADD SWAP1 PUSH1 0x20 ADD DUP1 DUP4 GT PUSH2 0x4B5 JUMPI DUP3 SWAP1 SUB PUSH1 0x1F AND DUP3 ADD SWAP2 JUMPDEST POP POP POP POP POP SWAP1 DUP1 PUSH1 0x2 ADD DUP1 SLOAD PUSH2 0x4E7 SWAP1 PUSH2 0xC0D JUMP JUMPDEST DUP1 PUSH1 0x1F ADD PUSH1 0x20 DUP1 SWAP2 DIV MUL PUSH1 0x20 ADD PUSH1 0x40 MLOAD SWAP1 DUP2 ADD PUSH1 0x40 MSTORE DUP1 SWAP3 SWAP2 SWAP1 DUP2 DUP2 MSTORE PUSH1 0x20 ADD DUP3 DUP1 SLOAD PUSH2 0x513 SWAP1 PUSH2 0xC0D JUMP JUMPDEST DUP1 ISZERO PUSH2 0x560 JUMPI DUP1 PUSH1 0x1F LT PUSH2 0x535 JUMPI PUSH2 0x100 DUP1 DUP4 SLOAD DIV MUL DUP4 MSTORE SWAP2 PUSH1 0x20 ADD SWAP2 PUSH2 0x560 JUMP JUMPDEST DUP3 ADD SWAP2 SWAP1 PUSH1 0x0 MSTORE PUSH1 0x20 PUSH1 0x0 KECCAK256 SWAP1 JUMPDEST DUP2 SLOAD DUP2 MSTORE SWAP1 PUSH1 0x1 ADD SWAP1 PUSH1 0x20 ADD DUP1 DUP4 GT PUSH2 0x543 JUMPI DUP3 SWAP1 SUB PUSH1 0x1F AND DUP3 ADD SWAP2 JUMPDEST POP POP POP POP POP SWAP1 DUP1 PUSH1 0x3 ADD DUP1 SLOAD PUSH2 0x575 SWAP1 PUSH2 0xC0D JUMP JUMPDEST DUP1 PUSH1 0x1F ADD PUSH1 0x20 DUP1 SWAP2 DIV MUL PUSH1 0x20 ADD PUSH1 0x40 MLOAD SWAP1 DUP2 ADD PUSH1 0x40 MSTORE DUP1 SWAP3 SWAP2 SWAP1 DUP2 DUP2 MSTORE PUSH1 0x20 ADD DUP3 DUP1 SLOAD PUSH2 0x5A1 SWAP1 PUSH2 0xC0D JUMP JUMPDEST DUP1 ISZERO PUSH2 0x5EE JUMPI DUP1 PUSH1 0x1F LT PUSH2 0x5C3 JUMPI PUSH2 0x100 DUP1 DUP4 SLOAD DIV MUL DUP4 MSTORE SWAP2 PUSH1 0x20 ADD SWAP2 PUSH2 0x5EE JUMP JUMPDEST DUP3 ADD SWAP2 SWAP1 PUSH1 0x0 MSTORE PUSH1 0x20 PUSH1 0x0 KECCAK256 SWAP1 JUMPDEST DUP2 SLOAD DUP2 MSTORE SWAP1 PUSH1 0x1 ADD SWAP1 PUSH1 0x20 ADD DUP1 DUP4 GT PUSH2 0x5D1 JUMPI DUP3 SWAP1 SUB PUSH1 0x1F AND DUP3 ADD SWAP2 JUMPDEST POP POP POP POP POP SWAP1 DUP1 PUSH1 0x4 ADD DUP1 SLOAD PUSH2 0x603 SWAP1 PUSH2 0xC0D JUMP JUMPDEST DUP1 PUSH1 0x1F ADD PUSH1 0x20 DUP1 SWAP2 DIV MUL PUSH1 0x20 ADD PUSH1 0x40 MLOAD SWAP1 DUP2 ADD PUSH1 0x40 MSTORE DUP1 SWAP3 SWAP2 SWAP1 DUP2 DUP2 MSTORE PUSH1 0x20 ADD DUP3 DUP1 SLOAD PUSH2 0x62F SWAP1 PUSH2 0xC0D JUMP JUMPDEST DUP1 ISZERO PUSH2 0x67C JUMPI DUP1 PUSH1 0x1F LT PUSH2 0x651 JUMPI PUSH2 0x100 DUP1 DUP4 SLOAD DIV MUL DUP4 MSTORE SWAP2 PUSH1 0x20 ADD SWAP2 PUSH2 0x67C JUMP JUMPDEST DUP3 ADD SWAP2 SWAP1 PUSH1 0x0 MSTORE PUSH1 0x20 PUSH1 0x0 KECCAK256 SWAP1 JUMPDEST DUP2 SLOAD DUP2 MSTORE SWAP1 PUSH1 0x1 ADD SWAP1 PUSH1 0x20 ADD DUP1 DUP4 GT PUSH2 0x65F JUMPI DUP3 SWAP1 SUB PUSH1 0x1F AND DUP3 ADD SWAP2 JUMPDEST POP POP POP POP POP SWAP1 DUP1 PUSH1 0x5 ADD PUSH1 0x0 SWAP1 SLOAD SWAP1 PUSH2 0x100 EXP SWAP1 DIV PUSH20 0xFFFFFFFFFFFFFFFFFFFFFFFFFFFFFFFFFFFFFFFF AND SWAP1 POP DUP7 JUMP JUMPDEST PUSH1 0x1 DUP2 DUP1 MLOAD PUSH1 0x20 DUP2 ADD DUP3 ADD DUP1 MLOAD DUP5 DUP3 MSTORE PUSH1 0x20 DUP4 ADD PUSH1 0x20 DUP6 ADD KECCAK256 DUP2 DUP4 MSTORE DUP1 SWAP6 POP POP POP POP POP POP PUSH1 0x0 SWAP2 POP SLOAD SWAP1 PUSH2 0x100 EXP SWAP1 DIV PUSH20 0xFFFFFFFFFFFFFFFFFFFFFFFFFFFFFFFFFFFFFFFF AND DUP2 JUMP JUMPDEST DUP3 DUP1 SLOAD PUSH2 0x701 SWAP1 PUSH2 0xC0D JUMP JUMPDEST SWAP1 PUSH1 0x0 MSTORE PUSH1 0x20 PUSH1 0x0 KECCAK256 SWAP1 PUSH1 0x1F ADD PUSH1 0x20 SWAP1 DIV DUP2 ADD SWAP3 DUP3 PUSH2 0x723 JUMPI PUSH1 0x0 DUP6 SSTORE PUSH2 0x76A JUMP JUMPDEST DUP3 PUSH1 0x1F LT PUSH2 0x73C JUMPI DUP1 MLOAD PUSH1 0xFF NOT AND DUP4 DUP1 ADD OR DUP6 SSTORE PUSH2 0x76A JUMP JUMPDEST DUP3 DUP1 ADD PUSH1 0x1 ADD DUP6 SSTORE DUP3 ISZERO PUSH2 0x76A JUMPI SWAP2 DUP3 ADD JUMPDEST DUP3 DUP2 GT ISZERO PUSH2 0x769 JUMPI DUP3 MLOAD DUP3 SSTORE SWAP2 PUSH1 0x20 ADD SWAP2 SWAP1 PUSH1 0x1 ADD SWAP1 PUSH2 0x74E JUMP JUMPDEST JUMPDEST POP SWAP1 POP PUSH2 0x777 SWAP2 SWAP1 PUSH2 0x77B JUMP JUMPDEST POP SWAP1 JUMP JUMPDEST JUMPDEST DUP1 DUP3 GT ISZERO PUSH2 0x794 JUMPI PUSH1 0x0 DUP2 PUSH1 0x0 SWAP1 SSTORE POP PUSH1 0x1 ADD PUSH2 0x77C JUMP JUMPDEST POP SWAP1 JUMP JUMPDEST PUSH1 0x0 PUSH2 0x7AB PUSH2 0x7A6 DUP5 PUSH2 0xB37 JUMP JUMPDEST PUSH2 0xB12 JUMP JUMPDEST SWAP1 POP DUP3 DUP2 MSTORE PUSH1 0x20 DUP2 ADD DUP5 DUP5 DUP5 ADD GT ISZERO PUSH2 0x7C7 JUMPI PUSH2 0x7C6 PUSH2 0xCD3 JUMP JUMPDEST JUMPDEST PUSH2 0x7D2 DUP5 DUP3 DUP6 PUSH2 0xBCB JUMP JUMPDEST POP SWAP4 SWAP3 POP POP POP JUMP JUMPDEST PUSH1 0x0 DUP2 CALLDATALOAD SWAP1 POP PUSH2 0x7E9 DUP2 PUSH2 0xCF3 JUMP JUMPDEST SWAP3 SWAP2 POP POP JUMP JUMPDEST PUSH1 0x0 DUP3 PUSH1 0x1F DUP4 ADD SLT PUSH2 0x804 JUMPI PUSH2 0x803 PUSH2 0xCCE JUMP JUMPDEST JUMPDEST DUP2 CALLDATALOAD PUSH2 0x814 DUP5 DUP3 PUSH1 0x20 DUP7 ADD PUSH2 0x798 JUMP JUMPDEST SWAP2 POP POP SWAP3 SWAP2 POP POP JUMP JUMPDEST PUSH1 0x0 DUP2 CALLDATALOAD SWAP1 POP PUSH2 0x82C DUP2 PUSH2 0xD0A JUMP JUMPDEST SWAP3 SWAP2 POP POP JUMP JUMPDEST PUSH1 0x0 PUSH1 0x20 DUP3 DUP5 SUB SLT ISZERO PUSH2 0x848 JUMPI PUSH2 0x847 PUSH2 0xCDD JUMP JUMPDEST JUMPDEST PUSH1 0x0 DUP3 ADD CALLDATALOAD PUSH8 0xFFFFFFFFFFFFFFFF DUP2 GT ISZERO PUSH2 0x866 JUMPI PUSH2 0x865 PUSH2 0xCD8 JUMP JUMPDEST JUMPDEST PUSH2 0x872 DUP5 DUP3 DUP6 ADD PUSH2 0x7EF JUMP JUMPDEST SWAP2 POP POP SWAP3 SWAP2 POP POP JUMP JUMPDEST PUSH1 0x0 DUP1 PUSH1 0x0 DUP1 PUSH1 0x0 DUP1 PUSH1 0xC0 DUP8 DUP10 SUB SLT ISZERO PUSH2 0x898 JUMPI PUSH2 0x897 PUSH2 0xCDD JUMP JUMPDEST JUMPDEST PUSH1 0x0 DUP8 ADD CALLDATALOAD PUSH8 0xFFFFFFFFFFFFFFFF DUP2 GT ISZERO PUSH2 0x8B6 JUMPI PUSH2 0x8B5 PUSH2 0xCD8 JUMP JUMPDEST JUMPDEST PUSH2 0x8C2 DUP10 DUP3 DUP11 ADD PUSH2 0x7EF JUMP JUMPDEST SWAP7 POP POP PUSH1 0x20 DUP8 ADD CALLDATALOAD PUSH8 0xFFFFFFFFFFFFFFFF DUP2 GT ISZERO PUSH2 0x8E3 JUMPI PUSH2 0x8E2 PUSH2 0xCD8 JUMP JUMPDEST JUMPDEST PUSH2 0x8EF DUP10 DUP3 DUP11 ADD PUSH2 0x7EF JUMP JUMPDEST SWAP6 POP POP PUSH1 0x40 DUP8 ADD CALLDATALOAD PUSH8 0xFFFFFFFFFFFFFFFF DUP2 GT ISZERO PUSH2 0x910 JUMPI PUSH2 0x90F PUSH2 0xCD8 JUMP JUMPDEST JUMPDEST PUSH2 0x91C DUP10 DUP3 DUP11 ADD PUSH2 0x7EF JUMP JUMPDEST SWAP5 POP POP PUSH1 0x60 DUP8 ADD CALLDATALOAD PUSH8 0xFFFFFFFFFFFFFFFF DUP2 GT ISZERO PUSH2 0x93D JUMPI PUSH2 0x93C PUSH2 0xCD8 JUMP JUMPDEST JUMPDEST PUSH2 0x949 DUP10 DUP3 DUP11 ADD PUSH2 0x7EF JUMP JUMPDEST SWAP4 POP POP PUSH1 0x80 DUP8 ADD CALLDATALOAD PUSH8 0xFFFFFFFFFFFFFFFF DUP2 GT ISZERO PUSH2 0x96A JUMPI PUSH2 0x969 PUSH2 0xCD8 JUMP JUMPDEST JUMPDEST PUSH2 0x976 DUP10 DUP3 DUP11 ADD PUSH2 0x7EF JUMP JUMPDEST SWAP3 POP POP PUSH1 0xA0 PUSH2 0x987 DUP10 DUP3 DUP11 ADD PUSH2 0x7DA JUMP JUMPDEST SWAP2 POP POP SWAP3 SWAP6 POP SWAP3 SWAP6 POP SWAP3 SWAP6 JUMP JUMPDEST PUSH1 0x0 PUSH1 0x20 DUP3 DUP5 SUB SLT ISZERO PUSH2 0x9AA JUMPI PUSH2 0x9A9 PUSH2 0xCDD JUMP JUMPDEST JUMPDEST PUSH1 0x0 PUSH2 0x9B8 DUP5 DUP3 DUP6 ADD PUSH2 0x81D JUMP JUMPDEST SWAP2 POP POP SWAP3 SWAP2 POP POP JUMP JUMPDEST PUSH2 0x9CA DUP2 PUSH2 0xB8F JUMP JUMPDEST DUP3 MSTORE POP POP JUMP JUMPDEST PUSH1 0x0 PUSH2 0x9DB DUP3 PUSH2 0xB68 JUMP JUMPDEST PUSH2 0x9E5 DUP2 DUP6 PUSH2 0xB73 JUMP JUMPDEST SWAP4 POP PUSH2 0x9F5 DUP2 DUP6 PUSH1 0x20 DUP7 ADD PUSH2 0xBDA JUMP JUMPDEST PUSH2 0x9FE DUP2 PUSH2 0xCE2 JUMP JUMPDEST DUP5 ADD SWAP2 POP POP SWAP3 SWAP2 POP POP JUMP JUMPDEST PUSH1 0x0 PUSH2 0xA14 DUP3 PUSH2 0xB68 JUMP JUMPDEST PUSH2 0xA1E DUP2 DUP6 PUSH2 0xB84 JUMP JUMPDEST SWAP4 POP PUSH2 0xA2E DUP2 DUP6 PUSH1 0x20 DUP7 ADD PUSH2 0xBDA JUMP JUMPDEST DUP1 DUP5 ADD SWAP2 POP POP SWAP3 SWAP2 POP POP JUMP JUMPDEST PUSH1 0x0 PUSH2 0xA46 DUP3 DUP5 PUSH2 0xA09 JUMP JUMPDEST SWAP2 POP DUP2 SWAP1 POP SWAP3 SWAP2 POP POP JUMP JUMPDEST PUSH1 0x0 PUSH1 0x20 DUP3 ADD SWAP1 POP PUSH2 0xA66 PUSH1 0x0 DUP4 ADD DUP5 PUSH2 0x9C1 JUMP JUMPDEST SWAP3 SWAP2 POP POP JUMP JUMPDEST PUSH1 0x0 PUSH1 0x20 DUP3 ADD SWAP1 POP DUP2 DUP2 SUB PUSH1 0x0 DUP4 ADD MSTORE PUSH2 0xA86 DUP2 DUP5 PUSH2 0x9D0 JUMP JUMPDEST SWAP1 POP SWAP3 SWAP2 POP POP JUMP JUMPDEST PUSH1 0x0 PUSH1 0xC0 DUP3 ADD SWAP1 POP DUP2 DUP2 SUB PUSH1 0x0 DUP4 ADD MSTORE PUSH2 0xAA8 DUP2 DUP10 PUSH2 0x9D0 JUMP JUMPDEST SWAP1 POP DUP2 DUP2 SUB PUSH1 0x20 DUP4 ADD MSTORE PUSH2 0xABC DUP2 DUP9 PUSH2 0x9D0 JUMP JUMPDEST SWAP1 POP DUP2 DUP2 SUB PUSH1 0x40 DUP4 ADD MSTORE PUSH2 0xAD0 DUP2 DUP8 PUSH2 0x9D0 JUMP JUMPDEST SWAP1 POP DUP2 DUP2 SUB PUSH1 0x60 DUP4 ADD MSTORE PUSH2 0xAE4 DUP2 DUP7 PUSH2 0x9D0 JUMP JUMPDEST SWAP1 POP DUP2 DUP2 SUB PUSH1 0x80 DUP4 ADD MSTORE PUSH2 0xAF8 DUP2 DUP6 PUSH2 0x9D0 JUMP JUMPDEST SWAP1 POP PUSH2 0xB07 PUSH1 0xA0 DUP4 ADD DUP5 PUSH2 0x9C1 JUMP JUMPDEST SWAP8 SWAP7 POP POP POP POP POP POP POP JUMP JUMPDEST PUSH1 0x0 PUSH2 0xB1C PUSH2 0xB2D JUMP JUMPDEST SWAP1 POP PUSH2 0xB28 DUP3 DUP3 PUSH2 0xC3F JUMP JUMPDEST SWAP2 SWAP1 POP JUMP JUMPDEST PUSH1 0x0 PUSH1 0x40 MLOAD SWAP1 POP SWAP1 JUMP JUMPDEST PUSH1 0x0 PUSH8 0xFFFFFFFFFFFFFFFF DUP3 GT ISZERO PUSH2 0xB52 JUMPI PUSH2 0xB51 PUSH2 0xC9F JUMP JUMPDEST JUMPDEST PUSH2 0xB5B DUP3 PUSH2 0xCE2 JUMP JUMPDEST SWAP1 POP PUSH1 0x20 DUP2 ADD SWAP1 POP SWAP2 SWAP1 POP JUMP JUMPDEST PUSH1 0x0 DUP2 MLOAD SWAP1 POP SWAP2 SWAP1 POP JUMP JUMPDEST PUSH1 0x0 DUP3 DUP3 MSTORE PUSH1 0x20 DUP3 ADD SWAP1 POP SWAP3 SWAP2 POP POP JUMP JUMPDEST PUSH1 0x0 DUP2 SWAP1 POP SWAP3 SWAP2 POP POP JUMP JUMPDEST PUSH1 0x0 PUSH2 0xB9A DUP3 PUSH2 0xBA1 JUMP JUMPDEST SWAP1 POP SWAP2 SWAP1 POP JUMP JUMPDEST PUSH1 0x0 PUSH20 0xFFFFFFFFFFFFFFFFFFFFFFFFFFFFFFFFFFFFFFFF DUP3 AND SWAP1 POP SWAP2 SWAP1 POP JUMP JUMPDEST PUSH1 0x0 DUP2 SWAP1 POP SWAP2 SWAP1 POP JUMP JUMPDEST DUP3 DUP2 DUP4 CALLDATACOPY PUSH1 0x0 DUP4 DUP4 ADD MSTORE POP POP POP JUMP JUMPDEST PUSH1 0x0 JUMPDEST DUP4 DUP2 LT ISZERO PUSH2 0xBF8 JUMPI DUP1 DUP3 ADD MLOAD DUP2 DUP5 ADD MSTORE PUSH1 0x20 DUP2 ADD SWAP1 POP PUSH2 0xBDD JUMP JUMPDEST DUP4 DUP2 GT ISZERO PUSH2 0xC07 JUMPI PUSH1 0x0 DUP5 DUP5 ADD MSTORE JUMPDEST POP POP POP POP JUMP JUMPDEST PUSH1 0x0 PUSH1 0x2 DUP3 DIV SWAP1 POP PUSH1 0x1 DUP3 AND DUP1 PUSH2 0xC25 JUMPI PUSH1 0x7F DUP3 AND SWAP2 POP JUMPDEST PUSH1 0x20 DUP3 LT DUP2 EQ ISZERO PUSH2 0xC39 JUMPI PUSH2 0xC38 PUSH2 0xC70 JUMP JUMPDEST JUMPDEST POP SWAP2 SWAP1 POP JUMP JUMPDEST PUSH2 0xC48 DUP3 PUSH2 0xCE2 JUMP JUMPDEST DUP2 ADD DUP2 DUP2 LT PUSH8 0xFFFFFFFFFFFFFFFF DUP3 GT OR ISZERO PUSH2 0xC67 JUMPI PUSH2 0xC66 PUSH2 0xC9F JUMP JUMPDEST JUMPDEST DUP1 PUSH1 0x40 MSTORE POP POP POP JUMP JUMPDEST PUSH32 0x4E487B7100000000000000000000000000000000000000000000000000000000 PUSH1 0x0 MSTORE PUSH1 0x22 PUSH1 0x4 MSTORE PUSH1 0x24 PUSH1 0x0 REVERT JUMPDEST PUSH32 0x4E487B7100000000000000000000000000000000000000000000000000000000 PUSH1 0x0 MSTORE PUSH1 0x41 PUSH1 0x4 MSTORE PUSH1 0x24 PUSH1 0x0 REVERT JUMPDEST PUSH1 0x0 DUP1 REVERT JUMPDEST PUSH1 0x0 DUP1 REVERT JUMPDEST PUSH1 0x0 DUP1 REVERT JUMPDEST PUSH1 0x0 DUP1 REVERT JUMPDEST PUSH1 0x0 PUSH1 0x1F NOT PUSH1 0x1F DUP4 ADD AND SWAP1 POP SWAP2 SWAP1 POP JUMP JUMPDEST PUSH2 0xCFC DUP2 PUSH2 0xB8F JUMP JUMPDEST DUP2 EQ PUSH2 0xD07 JUMPI PUSH1 0x0 DUP1 REVERT JUMPDEST POP JUMP JUMPDEST PUSH2 0xD13 DUP2 PUSH2 0xBC1 JUMP JUMPDEST DUP2 EQ PUSH2 0xD1E JUMPI PUSH1 0x0 DUP1 REVERT JUMPDEST POP JUMP INVALID LOG2 PUSH5 0x6970667358 0x22 SLT KECCAK256 SAR 0xB4 0x5F BLOCKHASH DUP16 SHR 0xD8 DUP13 0xB6 SDIV CREATE 0xDC REVERT PUSH23 0x5E4CD0F8F5CBF34C3F3CA17611054ED3F6EA64736F6C63 NUMBER STOP ADDMOD SMOD STOP CALLER "
				},
				"gasEstimates": {
					"creation": {
						"codeDepositCost": "683000",
						"executionCost": "715",
						"totalCost": "683715"
					},
					"external": {
						"AddVehicle(string,string,string,string,string,address)": "infinite",
						"registerIDToAddress(string)": "infinite",
						"registerIdToMerikelrootvalue(string)": "infinite",
						"vehicle(uint256)": "infinite"
					}
				},
				"methodIdentifiers": {
					"AddVehicle(string,string,string,string,string,address)": "6e390c85",
					"registerIDToAddress(string)": "f76e40f8",
					"registerIdToMerikelrootvalue(string)": "85571bb1",
					"vehicle(uint256)": "a39ab40e"
				}
			},
			"storageLayout": {
				"storage": [
					{
						"astId": 18,
						"contract": "contracts/_Vehicleinfo.sol:Vehicleinfo",
						"label": "vehicle",
						"offset": 0,
						"slot": "0",
						"type": "t_array(t_struct(Vehicle)14_storage)dyn_storage"
					},
					{
						"astId": 22,
						"contract": "contracts/_Vehicleinfo.sol:Vehicleinfo",
						"label": "registerIDToAddress",
						"offset": 0,
						"slot": "1",
						"type": "t_mapping(t_string_memory_ptr,t_address)"
					},
					{
						"astId": 26,
						"contract": "contracts/_Vehicleinfo.sol:Vehicleinfo",
						"label": "registerIdToMerikelrootvalue",
						"offset": 0,
						"slot": "2",
						"type": "t_mapping(t_string_memory_ptr,t_string_storage)"
					}
				],
				"types": {
					"t_address": {
						"encoding": "inplace",
						"label": "address",
						"numberOfBytes": "20"
					},
					"t_array(t_struct(Vehicle)14_storage)dyn_storage": {
						"base": "t_struct(Vehicle)14_storage",
						"encoding": "dynamic_array",
						"label": "struct Vehicleinfo.Vehicle[]",
						"numberOfBytes": "32"
					},
					"t_mapping(t_string_memory_ptr,t_address)": {
						"encoding": "mapping",
						"key": "t_string_memory_ptr",
						"label": "mapping(string => address)",
						"numberOfBytes": "32",
						"value": "t_address"
					},
					"t_mapping(t_string_memory_ptr,t_string_storage)": {
						"encoding": "mapping",
						"key": "t_string_memory_ptr",
						"label": "mapping(string => string)",
						"numberOfBytes": "32",
						"value": "t_string_storage"
					},
					"t_string_memory_ptr": {
						"encoding": "bytes",
						"label": "string",
						"numberOfBytes": "32"
					},
					"t_string_storage": {
						"encoding": "bytes",
						"label": "string",
						"numberOfBytes": "32"
					},
					"t_struct(Vehicle)14_storage": {
						"encoding": "inplace",
						"label": "struct Vehicleinfo.Vehicle",
						"members": [
							{
								"astId": 3,
								"contract": "contracts/_Vehicleinfo.sol:Vehicleinfo",
								"label": "RegisterId",
								"offset": 0,
								"slot": "0",
								"type": "t_string_storage"
							},
							{
								"astId": 5,
								"contract": "contracts/_Vehicleinfo.sol:Vehicleinfo",
								"label": "CarBrand",
								"offset": 0,
								"slot": "1",
								"type": "t_string_storage"
							},
							{
								"astId": 7,
								"contract": "contracts/_Vehicleinfo.sol:Vehicleinfo",
								"label": "CarModel",
								"offset": 0,
								"slot": "2",
								"type": "t_string_storage"
							},
							{
								"astId": 9,
								"contract": "contracts/_Vehicleinfo.sol:Vehicleinfo",
								"label": "CarColor",
								"offset": 0,
								"slot": "3",
								"type": "t_string_storage"
							},
							{
								"astId": 11,
								"contract": "contracts/_Vehicleinfo.sol:Vehicleinfo",
								"label": "Merikelrootvalue",
								"offset": 0,
								"slot": "4",
								"type": "t_string_storage"
							},
							{
								"astId": 13,
								"contract": "contracts/_Vehicleinfo.sol:Vehicleinfo",
								"label": "OwnedBy",
								"offset": 0,
								"slot": "5",
								"type": "t_address"
							}
						],
						"numberOfBytes": "192"
					}
				}
			},
			"userdoc": {
				"kind": "user",
				"methods": {},
				"version": 1
			}
		}
	}
}