{
	"contracts/_Registration.sol": {
		"Registration": {
			"abi": [
				{
					"inputs": [
						{
							"internalType": "address",
							"name": "vehicleContactAddress",
							"type": "address"
						},
						{
							"internalType": "string",
							"name": "owenrAddress",
							"type": "string"
						}
					],
					"name": "VehicleRegistration",
					"outputs": [],
					"stateMutability": "nonpayable",
					"type": "function"
				},
				{
					"inputs": [
						{
							"internalType": "uint256",
							"name": "",
							"type": "uint256"
						}
					],
					"name": "VehicleRegistrationList",
					"outputs": [
						{
							"internalType": "contract Vehicle",
							"name": "vehicle",
							"type": "address"
						},
						{
							"internalType": "string",
							"name": "ownedBy",
							"type": "string"
						},
						{
							"internalType": "uint256",
							"name": "RegistedTime",
							"type": "uint256"
						}
					],
					"stateMutability": "view",
					"type": "function"
				},
				{
					"inputs": [
						{
							"internalType": "address",
							"name": "vehicleContactAddress",
							"type": "address"
						}
					],
					"name": "getVehicleDetails",
					"outputs": [
						{
							"internalType": "string",
							"name": "",
							"type": "string"
						}
					],
					"stateMutability": "view",
					"type": "function"
				}
			],
			"devdoc": {
				"kind": "dev",
				"methods": {},
				"version": 1
			},
			"evm": {
				"assembly": "    /* \"contracts/_Registration.sol\":100:1247  contract Registration{\r... */\n  mstore(0x40, 0x80)\n  callvalue\n  dup1\n  iszero\n  tag_1\n  jumpi\n  0x00\n  dup1\n  revert\ntag_1:\n  pop\n  dataSize(sub_0)\n  dup1\n  dataOffset(sub_0)\n  0x00\n  codecopy\n  0x00\n  return\nstop\n\nsub_0: assembly {\n        /* \"contracts/_Registration.sol\":100:1247  contract Registration{\r... */\n      mstore(0x40, 0x80)\n      callvalue\n      dup1\n      iszero\n      tag_1\n      jumpi\n      0x00\n      dup1\n      revert\n    tag_1:\n      pop\n      jumpi(tag_2, lt(calldatasize, 0x04))\n      shr(0xe0, calldataload(0x00))\n      dup1\n      0x45e523b5\n      eq\n      tag_3\n      jumpi\n      dup1\n      0x4e889a93\n      eq\n      tag_4\n      jumpi\n      dup1\n      0xbf834171\n      eq\n      tag_5\n      jumpi\n    tag_2:\n      0x00\n      dup1\n      revert\n        /* \"contracts/_Registration.sol\":547:1242  function getVehicleDetails(address vehicleContactAddress) public view returns (string memory){\r... */\n    tag_3:\n      tag_6\n      0x04\n      dup1\n      calldatasize\n      sub\n      dup2\n      add\n      swap1\n      tag_7\n      swap2\n      swap1\n      tag_8\n      jump\t// in\n    tag_7:\n      tag_9\n      jump\t// in\n    tag_6:\n      mload(0x40)\n      tag_10\n      swap2\n      swap1\n      tag_11\n      jump\t// in\n    tag_10:\n      mload(0x40)\n      dup1\n      swap2\n      sub\n      swap1\n      return\n        /* \"contracts/_Registration.sol\":253:309  VehicleRegistrationinfo[] public VehicleRegistrationList */\n    tag_4:\n      tag_12\n      0x04\n      dup1\n      calldatasize\n      sub\n      dup2\n      add\n      swap1\n      tag_13\n      swap2\n      swap1\n      tag_14\n      jump\t// in\n    tag_13:\n      tag_15\n      jump\t// in\n    tag_12:\n      mload(0x40)\n      tag_16\n      swap4\n      swap3\n      swap2\n      swap1\n      tag_17\n      jump\t// in\n    tag_16:\n      mload(0x40)\n      dup1\n      swap2\n      sub\n      swap1\n      return\n        /* \"contracts/_Registration.sol\":318:539  function VehicleRegistration(address vehicleContactAddress,string memory owenrAddress)public {\r... */\n    tag_5:\n      tag_18\n      0x04\n      dup1\n      calldatasize\n      sub\n      dup2\n      add\n      swap1\n      tag_19\n      swap2\n      swap1\n      tag_20\n      jump\t// in\n    tag_19:\n      tag_21\n      jump\t// in\n    tag_18:\n      stop\n        /* \"contracts/_Registration.sol\":547:1242  function getVehicleDetails(address vehicleContactAddress) public view returns (string memory){\r... */\n    tag_9:\n        /* \"contracts/_Registration.sol\":626:639  string memory */\n      0x60\n        /* \"contracts/_Registration.sol\":651:673  Vehicle VehicleDetails */\n      0x00\n        /* \"contracts/_Registration.sol\":684:705  vehicleContactAddress */\n      dup3\n        /* \"contracts/_Registration.sol\":651:706  Vehicle VehicleDetails = Vehicle(vehicleContactAddress) */\n      swap1\n      pop\n        /* \"contracts/_Registration.sol\":771:785  VehicleDetails */\n      dup1\n        /* \"contracts/_Registration.sol\":771:806  VehicleDetails.getvehicleRegisterId */\n      0xffffffffffffffffffffffffffffffffffffffff\n      and\n      0xd1d5400d\n        /* \"contracts/_Registration.sol\":771:808  VehicleDetails.getvehicleRegisterId() */\n      mload(0x40)\n      dup2\n      0xffffffff\n      and\n      0xe0\n      shl\n      dup2\n      mstore\n      0x04\n      add\n      0x00\n      mload(0x40)\n      dup1\n      dup4\n      sub\n      dup2\n      dup7\n      dup1\n      extcodesize\n      iszero\n      dup1\n      iszero\n      tag_23\n      jumpi\n      0x00\n      dup1\n      revert\n    tag_23:\n      pop\n      gas\n      staticcall\n      iszero\n      dup1\n      iszero\n      tag_25\n      jumpi\n      returndatasize\n      0x00\n      dup1\n      returndatacopy\n      revert(0x00, returndatasize)\n    tag_25:\n      pop\n      pop\n      pop\n      pop\n      mload(0x40)\n      returndatasize\n      0x00\n      dup3\n      returndatacopy\n      returndatasize\n      not(0x1f)\n      0x1f\n      dup3\n      add\n      and\n      dup3\n      add\n      dup1\n      0x40\n      mstore\n      pop\n      dup2\n      add\n      swap1\n      tag_26\n      swap2\n      swap1\n      tag_27\n      jump\t// in\n    tag_26:\n        /* \"contracts/_Registration.sol\":838:852  VehicleDetails */\n      dup2\n        /* \"contracts/_Registration.sol\":838:868  VehicleDetails.getvehicleBrand */\n      0xffffffffffffffffffffffffffffffffffffffff\n      and\n      0xca3740de\n        /* \"contracts/_Registration.sol\":838:870  VehicleDetails.getvehicleBrand() */\n      mload(0x40)\n      dup2\n      0xffffffff\n      and\n      0xe0\n      shl\n      dup2\n      mstore\n      0x04\n      add\n      0x00\n      mload(0x40)\n      dup1\n      dup4\n      sub\n      dup2\n      dup7\n      dup1\n      extcodesize\n      iszero\n      dup1\n      iszero\n      tag_28\n      jumpi\n      0x00\n      dup1\n      revert\n    tag_28:\n      pop\n      gas\n      staticcall\n      iszero\n      dup1\n      iszero\n      tag_30\n      jumpi\n      returndatasize\n      0x00\n      dup1\n      returndatacopy\n      revert(0x00, returndatasize)\n    tag_30:\n      pop\n      pop\n      pop\n      pop\n      mload(0x40)\n      returndatasize\n      0x00\n      dup3\n      returndatacopy\n      returndatasize\n      not(0x1f)\n      0x1f\n      dup3\n      add\n      and\n      dup3\n      add\n      dup1\n      0x40\n      mstore\n      pop\n      dup2\n      add\n      swap1\n      tag_31\n      swap2\n      swap1\n      tag_27\n      jump\t// in\n    tag_31:\n        /* \"contracts/_Registration.sol\":900:914  VehicleDetails */\n      dup3\n        /* \"contracts/_Registration.sol\":900:930  VehicleDetails.getvehicleModel */\n      0xffffffffffffffffffffffffffffffffffffffff\n      and\n      0x1ba7b1f7\n        /* \"contracts/_Registration.sol\":900:932  VehicleDetails.getvehicleModel() */\n      mload(0x40)\n      dup2\n      0xffffffff\n      and\n      0xe0\n      shl\n      dup2\n      mstore\n      0x04\n      add\n      0x00\n      mload(0x40)\n      dup1\n      dup4\n      sub\n      dup2\n      dup7\n      dup1\n      extcodesize\n      iszero\n      dup1\n      iszero\n      tag_32\n      jumpi\n      0x00\n      dup1\n      revert\n    tag_32:\n      pop\n      gas\n      staticcall\n      iszero\n      dup1\n      iszero\n      tag_34\n      jumpi\n      returndatasize\n      0x00\n      dup1\n      returndatacopy\n      revert(0x00, returndatasize)\n    tag_34:\n      pop\n      pop\n      pop\n      pop\n      mload(0x40)\n      returndatasize\n      0x00\n      dup3\n      returndatacopy\n      returndatasize\n      not(0x1f)\n      0x1f\n      dup3\n      add\n      and\n      dup3\n      add\n      dup1\n      0x40\n      mstore\n      pop\n      dup2\n      add\n      swap1\n      tag_35\n      swap2\n      swap1\n      tag_27\n      jump\t// in\n    tag_35:\n        /* \"contracts/_Registration.sol\":962:976  VehicleDetails */\n      dup4\n        /* \"contracts/_Registration.sol\":962:992  VehicleDetails.getvehicleColor */\n      0xffffffffffffffffffffffffffffffffffffffff\n      and\n      0x22e5ba7c\n        /* \"contracts/_Registration.sol\":962:994  VehicleDetails.getvehicleColor() */\n      mload(0x40)\n      dup2\n      0xffffffff\n      and\n      0xe0\n      shl\n      dup2\n      mstore\n      0x04\n      add\n      0x00\n      mload(0x40)\n      dup1\n      dup4\n      sub\n      dup2\n      dup7\n      dup1\n      extcodesize\n      iszero\n      dup1\n      iszero\n      tag_36\n      jumpi\n      0x00\n      dup1\n      revert\n    tag_36:\n      pop\n      gas\n      staticcall\n      iszero\n      dup1\n      iszero\n      tag_38\n      jumpi\n      returndatasize\n      0x00\n      dup1\n      returndatacopy\n      revert(0x00, returndatasize)\n    tag_38:\n      pop\n      pop\n      pop\n      pop\n      mload(0x40)\n      returndatasize\n      0x00\n      dup3\n      returndatacopy\n      returndatasize\n      not(0x1f)\n      0x1f\n      dup3\n      add\n      and\n      dup3\n      add\n      dup1\n      0x40\n      mstore\n      pop\n      dup2\n      add\n      swap1\n      tag_39\n      swap2\n      swap1\n      tag_27\n      jump\t// in\n    tag_39:\n        /* \"contracts/_Registration.sol\":1035:1049  VehicleDetails */\n      dup5\n        /* \"contracts/_Registration.sol\":1035:1076  VehicleDetails.getvehicleMerikelrootvalue */\n      0xffffffffffffffffffffffffffffffffffffffff\n      and\n      0xe12d7db4\n        /* \"contracts/_Registration.sol\":1035:1078  VehicleDetails.getvehicleMerikelrootvalue() */\n      mload(0x40)\n      dup2\n      0xffffffff\n      and\n      0xe0\n      shl\n      dup2\n      mstore\n      0x04\n      add\n      0x00\n      mload(0x40)\n      dup1\n      dup4\n      sub\n      dup2\n      dup7\n      dup1\n      extcodesize\n      iszero\n      dup1\n      iszero\n      tag_40\n      jumpi\n      0x00\n      dup1\n      revert\n    tag_40:\n      pop\n      gas\n      staticcall\n      iszero\n      dup1\n      iszero\n      tag_42\n      jumpi\n      returndatasize\n      0x00\n      dup1\n      returndatacopy\n      revert(0x00, returndatasize)\n    tag_42:\n      pop\n      pop\n      pop\n      pop\n      mload(0x40)\n      returndatasize\n      0x00\n      dup3\n      returndatacopy\n      returndatasize\n      not(0x1f)\n      0x1f\n      dup3\n      add\n      and\n      dup3\n      add\n      dup1\n      0x40\n      mstore\n      pop\n      dup2\n      add\n      swap1\n      tag_43\n      swap2\n      swap1\n      tag_27\n      jump\t// in\n    tag_43:\n        /* \"contracts/_Registration.sol\":1110:1124  VehicleDetails */\n      dup6\n        /* \"contracts/_Registration.sol\":1110:1142  VehicleDetails.getvehicleOwendBy */\n      0xffffffffffffffffffffffffffffffffffffffff\n      and\n      0x50ca0907\n        /* \"contracts/_Registration.sol\":1110:1144  VehicleDetails.getvehicleOwendBy() */\n      mload(0x40)\n      dup2\n      0xffffffff\n      and\n      0xe0\n      shl\n      dup2\n      mstore\n      0x04\n      add\n      0x00\n      mload(0x40)\n      dup1\n      dup4\n      sub\n      dup2\n      dup7\n      dup1\n      extcodesize\n      iszero\n      dup1\n      iszero\n      tag_44\n      jumpi\n      0x00\n      dup1\n      revert\n    tag_44:\n      pop\n      gas\n      staticcall\n      iszero\n      dup1\n      iszero\n      tag_46\n      jumpi\n      returndatasize\n      0x00\n      dup1\n      returndatacopy\n      revert(0x00, returndatasize)\n    tag_46:\n      pop\n      pop\n      pop\n      pop\n      mload(0x40)\n      returndatasize\n      0x00\n      dup3\n      returndatacopy\n      returndatasize\n      not(0x1f)\n      0x1f\n      dup3\n      add\n      and\n      dup3\n      add\n      dup1\n      0x40\n      mstore\n      pop\n      dup2\n      add\n      swap1\n      tag_47\n      swap2\n      swap1\n      tag_27\n      jump\t// in\n    tag_47:\n        /* \"contracts/_Registration.sol\":1180:1194  VehicleDetails */\n      dup7\n        /* \"contracts/_Registration.sol\":1180:1216  VehicleDetails.getvehicleCreatedTime */\n      0xffffffffffffffffffffffffffffffffffffffff\n      and\n      0xced7142c\n        /* \"contracts/_Registration.sol\":1180:1218  VehicleDetails.getvehicleCreatedTime() */\n      mload(0x40)\n      dup2\n      0xffffffff\n      and\n      0xe0\n      shl\n      dup2\n      mstore\n      0x04\n      add\n      0x00\n      mload(0x40)\n      dup1\n      dup4\n      sub\n      dup2\n      dup7\n      dup1\n      extcodesize\n      iszero\n      dup1\n      iszero\n      tag_48\n      jumpi\n      0x00\n      dup1\n      revert\n    tag_48:\n      pop\n      gas\n      staticcall\n      iszero\n      dup1\n      iszero\n      tag_50\n      jumpi\n      returndatasize\n      0x00\n      dup1\n      returndatacopy\n      revert(0x00, returndatasize)\n    tag_50:\n      pop\n      pop\n      pop\n      pop\n      mload(0x40)\n      returndatasize\n      0x00\n      dup3\n      returndatacopy\n      returndatasize\n      not(0x1f)\n      0x1f\n      dup3\n      add\n      and\n      dup3\n      add\n      dup1\n      0x40\n      mstore\n      pop\n      dup2\n      add\n      swap1\n      tag_51\n      swap2\n      swap1\n      tag_27\n      jump\t// in\n    tag_51:\n        /* \"contracts/_Registration.sol\":731:1233  abi.encodePacked(\r... */\n      add(0x20, mload(0x40))\n      tag_52\n      swap8\n      swap7\n      swap6\n      swap5\n      swap4\n      swap3\n      swap2\n      swap1\n      tag_53\n      jump\t// in\n    tag_52:\n      mload(0x40)\n      0x20\n      dup2\n      dup4\n      sub\n      sub\n      dup2\n      mstore\n      swap1\n      0x40\n      mstore\n        /* \"contracts/_Registration.sol\":717:1234  return string(abi.encodePacked(\r... */\n      swap2\n      pop\n      pop\n        /* \"contracts/_Registration.sol\":547:1242  function getVehicleDetails(address vehicleContactAddress) public view returns (string memory){\r... */\n      swap2\n      swap1\n      pop\n      jump\t// out\n        /* \"contracts/_Registration.sol\":253:309  VehicleRegistrationinfo[] public VehicleRegistrationList */\n    tag_15:\n      0x00\n      dup2\n      dup2\n      sload\n      dup2\n      lt\n      tag_54\n      jumpi\n      0x00\n      dup1\n      revert\n    tag_54:\n      swap1\n      0x00\n      mstore\n      keccak256(0x00, 0x20)\n      swap1\n      0x03\n      mul\n      add\n      0x00\n      swap2\n      pop\n      swap1\n      pop\n      dup1\n      0x00\n      add\n      0x00\n      swap1\n      sload\n      swap1\n      0x0100\n      exp\n      swap1\n      div\n      0xffffffffffffffffffffffffffffffffffffffff\n      and\n      swap1\n      dup1\n      0x01\n      add\n      dup1\n      sload\n      tag_56\n      swap1\n      tag_57\n      jump\t// in\n    tag_56:\n      dup1\n      0x1f\n      add\n      0x20\n      dup1\n      swap2\n      div\n      mul\n      0x20\n      add\n      mload(0x40)\n      swap1\n      dup2\n      add\n      0x40\n      mstore\n      dup1\n      swap3\n      swap2\n      swap1\n      dup2\n      dup2\n      mstore\n      0x20\n      add\n      dup3\n      dup1\n      sload\n      tag_58\n      swap1\n      tag_57\n      jump\t// in\n    tag_58:\n      dup1\n      iszero\n      tag_59\n      jumpi\n      dup1\n      0x1f\n      lt\n      tag_60\n      jumpi\n      0x0100\n      dup1\n      dup4\n      sload\n      div\n      mul\n      dup4\n      mstore\n      swap2\n      0x20\n      add\n      swap2\n      jump(tag_59)\n    tag_60:\n      dup3\n      add\n      swap2\n      swap1\n      0x00\n      mstore\n      keccak256(0x00, 0x20)\n      swap1\n    tag_61:\n      dup2\n      sload\n      dup2\n      mstore\n      swap1\n      0x01\n      add\n      swap1\n      0x20\n      add\n      dup1\n      dup4\n      gt\n      tag_61\n      jumpi\n      dup3\n      swap1\n      sub\n      0x1f\n      and\n      dup3\n      add\n      swap2\n    tag_59:\n      pop\n      pop\n      pop\n      pop\n      pop\n      swap1\n      dup1\n      0x02\n      add\n      sload\n      swap1\n      pop\n      dup4\n      jump\t// out\n        /* \"contracts/_Registration.sol\":318:539  function VehicleRegistration(address vehicleContactAddress,string memory owenrAddress)public {\r... */\n    tag_21:\n        /* \"contracts/_Registration.sol\":423:445  Vehicle VehicleDetails */\n      0x00\n        /* \"contracts/_Registration.sol\":456:477  vehicleContactAddress */\n      dup3\n        /* \"contracts/_Registration.sol\":423:478  Vehicle VehicleDetails = Vehicle(vehicleContactAddress) */\n      swap1\n      pop\n        /* \"contracts/_Registration.sol\":490:504  VehicleDetails */\n      dup1\n        /* \"contracts/_Registration.sol\":490:517  VehicleDetails.setOwnerShip */\n      0xffffffffffffffffffffffffffffffffffffffff\n      and\n      0x82290ddb\n        /* \"contracts/_Registration.sol\":518:530  owenrAddress */\n      dup4\n        /* \"contracts/_Registration.sol\":490:531  VehicleDetails.setOwnerShip(owenrAddress) */\n      mload(0x40)\n      dup3\n      0xffffffff\n      and\n      0xe0\n      shl\n      dup2\n      mstore\n      0x04\n      add\n      tag_63\n      swap2\n      swap1\n      tag_11\n      jump\t// in\n    tag_63:\n      0x00\n      mload(0x40)\n      dup1\n      dup4\n      sub\n      dup2\n      0x00\n      dup8\n      dup1\n      extcodesize\n      iszero\n      dup1\n      iszero\n      tag_64\n      jumpi\n      0x00\n      dup1\n      revert\n    tag_64:\n      pop\n      gas\n      call\n      iszero\n      dup1\n      iszero\n      tag_66\n      jumpi\n      returndatasize\n      0x00\n      dup1\n      returndatacopy\n      revert(0x00, returndatasize)\n    tag_66:\n      pop\n      pop\n      pop\n      pop\n        /* \"contracts/_Registration.sol\":411:539  {\r... */\n      pop\n        /* \"contracts/_Registration.sol\":318:539  function VehicleRegistration(address vehicleContactAddress,string memory owenrAddress)public {\r... */\n      pop\n      pop\n      jump\t// out\n        /* \"#utility.yul\":7:419   */\n    tag_68:\n        /* \"#utility.yul\":85:90   */\n      0x00\n        /* \"#utility.yul\":110:176   */\n      tag_70\n        /* \"#utility.yul\":126:175   */\n      tag_71\n        /* \"#utility.yul\":168:174   */\n      dup5\n        /* \"#utility.yul\":126:175   */\n      tag_72\n      jump\t// in\n    tag_71:\n        /* \"#utility.yul\":110:176   */\n      tag_73\n      jump\t// in\n    tag_70:\n        /* \"#utility.yul\":101:176   */\n      swap1\n      pop\n        /* \"#utility.yul\":199:205   */\n      dup3\n        /* \"#utility.yul\":192:197   */\n      dup2\n        /* \"#utility.yul\":185:206   */\n      mstore\n        /* \"#utility.yul\":237:241   */\n      0x20\n        /* \"#utility.yul\":230:235   */\n      dup2\n        /* \"#utility.yul\":226:242   */\n      add\n        /* \"#utility.yul\":275:278   */\n      dup5\n        /* \"#utility.yul\":266:272   */\n      dup5\n        /* \"#utility.yul\":261:264   */\n      dup5\n        /* \"#utility.yul\":257:273   */\n      add\n        /* \"#utility.yul\":254:279   */\n      gt\n        /* \"#utility.yul\":251:363   */\n      iszero\n      tag_74\n      jumpi\n        /* \"#utility.yul\":282:361   */\n      tag_75\n      tag_76\n      jump\t// in\n    tag_75:\n        /* \"#utility.yul\":251:363   */\n    tag_74:\n        /* \"#utility.yul\":372:413   */\n      tag_77\n        /* \"#utility.yul\":406:412   */\n      dup5\n        /* \"#utility.yul\":401:404   */\n      dup3\n        /* \"#utility.yul\":396:399   */\n      dup6\n        /* \"#utility.yul\":372:413   */\n      tag_78\n      jump\t// in\n    tag_77:\n        /* \"#utility.yul\":91:419   */\n      pop\n        /* \"#utility.yul\":7:419   */\n      swap4\n      swap3\n      pop\n      pop\n      pop\n      jump\t// out\n        /* \"#utility.yul\":425:846   */\n    tag_79:\n        /* \"#utility.yul\":514:519   */\n      0x00\n        /* \"#utility.yul\":539:605   */\n      tag_81\n        /* \"#utility.yul\":555:604   */\n      tag_82\n        /* \"#utility.yul\":597:603   */\n      dup5\n        /* \"#utility.yul\":555:604   */\n      tag_72\n      jump\t// in\n    tag_82:\n        /* \"#utility.yul\":539:605   */\n      tag_73\n      jump\t// in\n    tag_81:\n        /* \"#utility.yul\":530:605   */\n      swap1\n      pop\n        /* \"#utility.yul\":628:634   */\n      dup3\n        /* \"#utility.yul\":621:626   */\n      dup2\n        /* \"#utility.yul\":614:635   */\n      mstore\n        /* \"#utility.yul\":666:670   */\n      0x20\n        /* \"#utility.yul\":659:664   */\n      dup2\n        /* \"#utility.yul\":655:671   */\n      add\n        /* \"#utility.yul\":704:707   */\n      dup5\n        /* \"#utility.yul\":695:701   */\n      dup5\n        /* \"#utility.yul\":690:693   */\n      dup5\n        /* \"#utility.yul\":686:702   */\n      add\n        /* \"#utility.yul\":683:708   */\n      gt\n        /* \"#utility.yul\":680:792   */\n      iszero\n      tag_83\n      jumpi\n        /* \"#utility.yul\":711:790   */\n      tag_84\n      tag_76\n      jump\t// in\n    tag_84:\n        /* \"#utility.yul\":680:792   */\n    tag_83:\n        /* \"#utility.yul\":801:840   */\n      tag_85\n        /* \"#utility.yul\":833:839   */\n      dup5\n        /* \"#utility.yul\":828:831   */\n      dup3\n        /* \"#utility.yul\":823:826   */\n      dup6\n        /* \"#utility.yul\":801:840   */\n      tag_86\n      jump\t// in\n    tag_85:\n        /* \"#utility.yul\":520:846   */\n      pop\n        /* \"#utility.yul\":425:846   */\n      swap4\n      swap3\n      pop\n      pop\n      pop\n      jump\t// out\n        /* \"#utility.yul\":852:991   */\n    tag_87:\n        /* \"#utility.yul\":898:903   */\n      0x00\n        /* \"#utility.yul\":936:942   */\n      dup2\n        /* \"#utility.yul\":923:943   */\n      calldataload\n        /* \"#utility.yul\":914:943   */\n      swap1\n      pop\n        /* \"#utility.yul\":952:985   */\n      tag_89\n        /* \"#utility.yul\":979:984   */\n      dup2\n        /* \"#utility.yul\":952:985   */\n      tag_90\n      jump\t// in\n    tag_89:\n        /* \"#utility.yul\":852:991   */\n      swap3\n      swap2\n      pop\n      pop\n      jump\t// out\n        /* \"#utility.yul\":1011:1351   */\n    tag_91:\n        /* \"#utility.yul\":1067:1072   */\n      0x00\n        /* \"#utility.yul\":1116:1119   */\n      dup3\n        /* \"#utility.yul\":1109:1113   */\n      0x1f\n        /* \"#utility.yul\":1101:1107   */\n      dup4\n        /* \"#utility.yul\":1097:1114   */\n      add\n        /* \"#utility.yul\":1093:1120   */\n      slt\n        /* \"#utility.yul\":1083:1205   */\n      tag_93\n      jumpi\n        /* \"#utility.yul\":1124:1203   */\n      tag_94\n      tag_95\n      jump\t// in\n    tag_94:\n        /* \"#utility.yul\":1083:1205   */\n    tag_93:\n        /* \"#utility.yul\":1241:1247   */\n      dup2\n        /* \"#utility.yul\":1228:1248   */\n      calldataload\n        /* \"#utility.yul\":1266:1345   */\n      tag_96\n        /* \"#utility.yul\":1341:1344   */\n      dup5\n        /* \"#utility.yul\":1333:1339   */\n      dup3\n        /* \"#utility.yul\":1326:1330   */\n      0x20\n        /* \"#utility.yul\":1318:1324   */\n      dup7\n        /* \"#utility.yul\":1314:1331   */\n      add\n        /* \"#utility.yul\":1266:1345   */\n      tag_68\n      jump\t// in\n    tag_96:\n        /* \"#utility.yul\":1257:1345   */\n      swap2\n      pop\n        /* \"#utility.yul\":1073:1351   */\n      pop\n        /* \"#utility.yul\":1011:1351   */\n      swap3\n      swap2\n      pop\n      pop\n      jump\t// out\n        /* \"#utility.yul\":1371:1726   */\n    tag_97:\n        /* \"#utility.yul\":1438:1443   */\n      0x00\n        /* \"#utility.yul\":1487:1490   */\n      dup3\n        /* \"#utility.yul\":1480:1484   */\n      0x1f\n        /* \"#utility.yul\":1472:1478   */\n      dup4\n        /* \"#utility.yul\":1468:1485   */\n      add\n        /* \"#utility.yul\":1464:1491   */\n      slt\n        /* \"#utility.yul\":1454:1576   */\n      tag_99\n      jumpi\n        /* \"#utility.yul\":1495:1574   */\n      tag_100\n      tag_95\n      jump\t// in\n    tag_100:\n        /* \"#utility.yul\":1454:1576   */\n    tag_99:\n        /* \"#utility.yul\":1605:1611   */\n      dup2\n        /* \"#utility.yul\":1599:1612   */\n      mload\n        /* \"#utility.yul\":1630:1720   */\n      tag_101\n        /* \"#utility.yul\":1716:1719   */\n      dup5\n        /* \"#utility.yul\":1708:1714   */\n      dup3\n        /* \"#utility.yul\":1701:1705   */\n      0x20\n        /* \"#utility.yul\":1693:1699   */\n      dup7\n        /* \"#utility.yul\":1689:1706   */\n      add\n        /* \"#utility.yul\":1630:1720   */\n      tag_79\n      jump\t// in\n    tag_101:\n        /* \"#utility.yul\":1621:1720   */\n      swap2\n      pop\n        /* \"#utility.yul\":1444:1726   */\n      pop\n        /* \"#utility.yul\":1371:1726   */\n      swap3\n      swap2\n      pop\n      pop\n      jump\t// out\n        /* \"#utility.yul\":1732:1871   */\n    tag_102:\n        /* \"#utility.yul\":1778:1783   */\n      0x00\n        /* \"#utility.yul\":1816:1822   */\n      dup2\n        /* \"#utility.yul\":1803:1823   */\n      calldataload\n        /* \"#utility.yul\":1794:1823   */\n      swap1\n      pop\n        /* \"#utility.yul\":1832:1865   */\n      tag_104\n        /* \"#utility.yul\":1859:1864   */\n      dup2\n        /* \"#utility.yul\":1832:1865   */\n      tag_105\n      jump\t// in\n    tag_104:\n        /* \"#utility.yul\":1732:1871   */\n      swap3\n      swap2\n      pop\n      pop\n      jump\t// out\n        /* \"#utility.yul\":1877:2206   */\n    tag_8:\n        /* \"#utility.yul\":1936:1942   */\n      0x00\n        /* \"#utility.yul\":1985:1987   */\n      0x20\n        /* \"#utility.yul\":1973:1982   */\n      dup3\n        /* \"#utility.yul\":1964:1971   */\n      dup5\n        /* \"#utility.yul\":1960:1983   */\n      sub\n        /* \"#utility.yul\":1956:1988   */\n      slt\n        /* \"#utility.yul\":1953:2072   */\n      iszero\n      tag_107\n      jumpi\n        /* \"#utility.yul\":1991:2070   */\n      tag_108\n      tag_109\n      jump\t// in\n    tag_108:\n        /* \"#utility.yul\":1953:2072   */\n    tag_107:\n        /* \"#utility.yul\":2111:2112   */\n      0x00\n        /* \"#utility.yul\":2136:2189   */\n      tag_110\n        /* \"#utility.yul\":2181:2188   */\n      dup5\n        /* \"#utility.yul\":2172:2178   */\n      dup3\n        /* \"#utility.yul\":2161:2170   */\n      dup6\n        /* \"#utility.yul\":2157:2179   */\n      add\n        /* \"#utility.yul\":2136:2189   */\n      tag_87\n      jump\t// in\n    tag_110:\n        /* \"#utility.yul\":2126:2189   */\n      swap2\n      pop\n        /* \"#utility.yul\":2082:2199   */\n      pop\n        /* \"#utility.yul\":1877:2206   */\n      swap3\n      swap2\n      pop\n      pop\n      jump\t// out\n        /* \"#utility.yul\":2212:2866   */\n    tag_20:\n        /* \"#utility.yul\":2290:2296   */\n      0x00\n        /* \"#utility.yul\":2298:2304   */\n      dup1\n        /* \"#utility.yul\":2347:2349   */\n      0x40\n        /* \"#utility.yul\":2335:2344   */\n      dup4\n        /* \"#utility.yul\":2326:2333   */\n      dup6\n        /* \"#utility.yul\":2322:2345   */\n      sub\n        /* \"#utility.yul\":2318:2350   */\n      slt\n        /* \"#utility.yul\":2315:2434   */\n      iszero\n      tag_112\n      jumpi\n        /* \"#utility.yul\":2353:2432   */\n      tag_113\n      tag_109\n      jump\t// in\n    tag_113:\n        /* \"#utility.yul\":2315:2434   */\n    tag_112:\n        /* \"#utility.yul\":2473:2474   */\n      0x00\n        /* \"#utility.yul\":2498:2551   */\n      tag_114\n        /* \"#utility.yul\":2543:2550   */\n      dup6\n        /* \"#utility.yul\":2534:2540   */\n      dup3\n        /* \"#utility.yul\":2523:2532   */\n      dup7\n        /* \"#utility.yul\":2519:2541   */\n      add\n        /* \"#utility.yul\":2498:2551   */\n      tag_87\n      jump\t// in\n    tag_114:\n        /* \"#utility.yul\":2488:2551   */\n      swap3\n      pop\n        /* \"#utility.yul\":2444:2561   */\n      pop\n        /* \"#utility.yul\":2628:2630   */\n      0x20\n        /* \"#utility.yul\":2617:2626   */\n      dup4\n        /* \"#utility.yul\":2613:2631   */\n      add\n        /* \"#utility.yul\":2600:2632   */\n      calldataload\n        /* \"#utility.yul\":2659:2677   */\n      0xffffffffffffffff\n        /* \"#utility.yul\":2651:2657   */\n      dup2\n        /* \"#utility.yul\":2648:2678   */\n      gt\n        /* \"#utility.yul\":2645:2762   */\n      iszero\n      tag_115\n      jumpi\n        /* \"#utility.yul\":2681:2760   */\n      tag_116\n      tag_117\n      jump\t// in\n    tag_116:\n        /* \"#utility.yul\":2645:2762   */\n    tag_115:\n        /* \"#utility.yul\":2786:2849   */\n      tag_118\n        /* \"#utility.yul\":2841:2848   */\n      dup6\n        /* \"#utility.yul\":2832:2838   */\n      dup3\n        /* \"#utility.yul\":2821:2830   */\n      dup7\n        /* \"#utility.yul\":2817:2839   */\n      add\n        /* \"#utility.yul\":2786:2849   */\n      tag_91\n      jump\t// in\n    tag_118:\n        /* \"#utility.yul\":2776:2849   */\n      swap2\n      pop\n        /* \"#utility.yul\":2571:2859   */\n      pop\n        /* \"#utility.yul\":2212:2866   */\n      swap3\n      pop\n      swap3\n      swap1\n      pop\n      jump\t// out\n        /* \"#utility.yul\":2872:3396   */\n    tag_27:\n        /* \"#utility.yul\":2952:2958   */\n      0x00\n        /* \"#utility.yul\":3001:3003   */\n      0x20\n        /* \"#utility.yul\":2989:2998   */\n      dup3\n        /* \"#utility.yul\":2980:2987   */\n      dup5\n        /* \"#utility.yul\":2976:2999   */\n      sub\n        /* \"#utility.yul\":2972:3004   */\n      slt\n        /* \"#utility.yul\":2969:3088   */\n      iszero\n      tag_120\n      jumpi\n        /* \"#utility.yul\":3007:3086   */\n      tag_121\n      tag_109\n      jump\t// in\n    tag_121:\n        /* \"#utility.yul\":2969:3088   */\n    tag_120:\n        /* \"#utility.yul\":3148:3149   */\n      0x00\n        /* \"#utility.yul\":3137:3146   */\n      dup3\n        /* \"#utility.yul\":3133:3150   */\n      add\n        /* \"#utility.yul\":3127:3151   */\n      mload\n        /* \"#utility.yul\":3178:3196   */\n      0xffffffffffffffff\n        /* \"#utility.yul\":3170:3176   */\n      dup2\n        /* \"#utility.yul\":3167:3197   */\n      gt\n        /* \"#utility.yul\":3164:3281   */\n      iszero\n      tag_122\n      jumpi\n        /* \"#utility.yul\":3200:3279   */\n      tag_123\n      tag_117\n      jump\t// in\n    tag_123:\n        /* \"#utility.yul\":3164:3281   */\n    tag_122:\n        /* \"#utility.yul\":3305:3379   */\n      tag_124\n        /* \"#utility.yul\":3371:3378   */\n      dup5\n        /* \"#utility.yul\":3362:3368   */\n      dup3\n        /* \"#utility.yul\":3351:3360   */\n      dup6\n        /* \"#utility.yul\":3347:3369   */\n      add\n        /* \"#utility.yul\":3305:3379   */\n      tag_97\n      jump\t// in\n    tag_124:\n        /* \"#utility.yul\":3295:3379   */\n      swap2\n      pop\n        /* \"#utility.yul\":3098:3389   */\n      pop\n        /* \"#utility.yul\":2872:3396   */\n      swap3\n      swap2\n      pop\n      pop\n      jump\t// out\n        /* \"#utility.yul\":3402:3731   */\n    tag_14:\n        /* \"#utility.yul\":3461:3467   */\n      0x00\n        /* \"#utility.yul\":3510:3512   */\n      0x20\n        /* \"#utility.yul\":3498:3507   */\n      dup3\n        /* \"#utility.yul\":3489:3496   */\n      dup5\n        /* \"#utility.yul\":3485:3508   */\n      sub\n        /* \"#utility.yul\":3481:3513   */\n      slt\n        /* \"#utility.yul\":3478:3597   */\n      iszero\n      tag_126\n      jumpi\n        /* \"#utility.yul\":3516:3595   */\n      tag_127\n      tag_109\n      jump\t// in\n    tag_127:\n        /* \"#utility.yul\":3478:3597   */\n    tag_126:\n        /* \"#utility.yul\":3636:3637   */\n      0x00\n        /* \"#utility.yul\":3661:3714   */\n      tag_128\n        /* \"#utility.yul\":3706:3713   */\n      dup5\n        /* \"#utility.yul\":3697:3703   */\n      dup3\n        /* \"#utility.yul\":3686:3695   */\n      dup6\n        /* \"#utility.yul\":3682:3704   */\n      add\n        /* \"#utility.yul\":3661:3714   */\n      tag_102\n      jump\t// in\n    tag_128:\n        /* \"#utility.yul\":3651:3714   */\n      swap2\n      pop\n        /* \"#utility.yul\":3607:3724   */\n      pop\n        /* \"#utility.yul\":3402:3731   */\n      swap3\n      swap2\n      pop\n      pop\n      jump\t// out\n        /* \"#utility.yul\":3737:3900   */\n    tag_129:\n        /* \"#utility.yul\":3840:3893   */\n      tag_131\n        /* \"#utility.yul\":3887:3892   */\n      dup2\n        /* \"#utility.yul\":3840:3893   */\n      tag_132\n      jump\t// in\n    tag_131:\n        /* \"#utility.yul\":3835:3838   */\n      dup3\n        /* \"#utility.yul\":3828:3894   */\n      mstore\n        /* \"#utility.yul\":3737:3900   */\n      pop\n      pop\n      jump\t// out\n        /* \"#utility.yul\":3906:4270   */\n    tag_133:\n        /* \"#utility.yul\":3994:3997   */\n      0x00\n        /* \"#utility.yul\":4022:4061   */\n      tag_135\n        /* \"#utility.yul\":4055:4060   */\n      dup3\n        /* \"#utility.yul\":4022:4061   */\n      tag_136\n      jump\t// in\n    tag_135:\n        /* \"#utility.yul\":4077:4148   */\n      tag_137\n        /* \"#utility.yul\":4141:4147   */\n      dup2\n        /* \"#utility.yul\":4136:4139   */\n      dup6\n        /* \"#utility.yul\":4077:4148   */\n      tag_138\n      jump\t// in\n    tag_137:\n        /* \"#utility.yul\":4070:4148   */\n      swap4\n      pop\n        /* \"#utility.yul\":4157:4209   */\n      tag_139\n        /* \"#utility.yul\":4202:4208   */\n      dup2\n        /* \"#utility.yul\":4197:4200   */\n      dup6\n        /* \"#utility.yul\":4190:4194   */\n      0x20\n        /* \"#utility.yul\":4183:4188   */\n      dup7\n        /* \"#utility.yul\":4179:4195   */\n      add\n        /* \"#utility.yul\":4157:4209   */\n      tag_86\n      jump\t// in\n    tag_139:\n        /* \"#utility.yul\":4234:4263   */\n      tag_140\n        /* \"#utility.yul\":4256:4262   */\n      dup2\n        /* \"#utility.yul\":4234:4263   */\n      tag_141\n      jump\t// in\n    tag_140:\n        /* \"#utility.yul\":4229:4232   */\n      dup5\n        /* \"#utility.yul\":4225:4264   */\n      add\n        /* \"#utility.yul\":4218:4264   */\n      swap2\n      pop\n        /* \"#utility.yul\":3998:4270   */\n      pop\n        /* \"#utility.yul\":3906:4270   */\n      swap3\n      swap2\n      pop\n      pop\n      jump\t// out\n        /* \"#utility.yul\":4276:4653   */\n    tag_142:\n        /* \"#utility.yul\":4382:4385   */\n      0x00\n        /* \"#utility.yul\":4410:4449   */\n      tag_144\n        /* \"#utility.yul\":4443:4448   */\n      dup3\n        /* \"#utility.yul\":4410:4449   */\n      tag_136\n      jump\t// in\n    tag_144:\n        /* \"#utility.yul\":4465:4554   */\n      tag_145\n        /* \"#utility.yul\":4547:4553   */\n      dup2\n        /* \"#utility.yul\":4542:4545   */\n      dup6\n        /* \"#utility.yul\":4465:4554   */\n      tag_146\n      jump\t// in\n    tag_145:\n        /* \"#utility.yul\":4458:4554   */\n      swap4\n      pop\n        /* \"#utility.yul\":4563:4615   */\n      tag_147\n        /* \"#utility.yul\":4608:4614   */\n      dup2\n        /* \"#utility.yul\":4603:4606   */\n      dup6\n        /* \"#utility.yul\":4596:4600   */\n      0x20\n        /* \"#utility.yul\":4589:4594   */\n      dup7\n        /* \"#utility.yul\":4585:4601   */\n      add\n        /* \"#utility.yul\":4563:4615   */\n      tag_86\n      jump\t// in\n    tag_147:\n        /* \"#utility.yul\":4640:4646   */\n      dup1\n        /* \"#utility.yul\":4635:4638   */\n      dup5\n        /* \"#utility.yul\":4631:4647   */\n      add\n        /* \"#utility.yul\":4624:4647   */\n      swap2\n      pop\n        /* \"#utility.yul\":4386:4653   */\n      pop\n        /* \"#utility.yul\":4276:4653   */\n      swap3\n      swap2\n      pop\n      pop\n      jump\t// out\n        /* \"#utility.yul\":4659:5059   */\n    tag_148:\n        /* \"#utility.yul\":4819:4822   */\n      0x00\n        /* \"#utility.yul\":4840:4924   */\n      tag_150\n        /* \"#utility.yul\":4922:4923   */\n      0x06\n        /* \"#utility.yul\":4917:4920   */\n      dup4\n        /* \"#utility.yul\":4840:4924   */\n      tag_146\n      jump\t// in\n    tag_150:\n        /* \"#utility.yul\":4833:4924   */\n      swap2\n      pop\n        /* \"#utility.yul\":4933:5026   */\n      tag_151\n        /* \"#utility.yul\":5022:5025   */\n      dup3\n        /* \"#utility.yul\":4933:5026   */\n      tag_152\n      jump\t// in\n    tag_151:\n        /* \"#utility.yul\":5051:5052   */\n      0x06\n        /* \"#utility.yul\":5046:5049   */\n      dup3\n        /* \"#utility.yul\":5042:5053   */\n      add\n        /* \"#utility.yul\":5035:5053   */\n      swap1\n      pop\n        /* \"#utility.yul\":4659:5059   */\n      swap2\n      swap1\n      pop\n      jump\t// out\n        /* \"#utility.yul\":5065:5467   */\n    tag_153:\n        /* \"#utility.yul\":5225:5228   */\n      0x00\n        /* \"#utility.yul\":5246:5331   */\n      tag_155\n        /* \"#utility.yul\":5328:5330   */\n      0x11\n        /* \"#utility.yul\":5323:5326   */\n      dup4\n        /* \"#utility.yul\":5246:5331   */\n      tag_146\n      jump\t// in\n    tag_155:\n        /* \"#utility.yul\":5239:5331   */\n      swap2\n      pop\n        /* \"#utility.yul\":5340:5433   */\n      tag_156\n        /* \"#utility.yul\":5429:5432   */\n      dup3\n        /* \"#utility.yul\":5340:5433   */\n      tag_157\n      jump\t// in\n    tag_156:\n        /* \"#utility.yul\":5458:5460   */\n      0x11\n        /* \"#utility.yul\":5453:5456   */\n      dup3\n        /* \"#utility.yul\":5449:5461   */\n      add\n        /* \"#utility.yul\":5442:5461   */\n      swap1\n      pop\n        /* \"#utility.yul\":5065:5467   */\n      swap2\n      swap1\n      pop\n      jump\t// out\n        /* \"#utility.yul\":5473:5873   */\n    tag_158:\n        /* \"#utility.yul\":5633:5636   */\n      0x00\n        /* \"#utility.yul\":5654:5738   */\n      tag_160\n        /* \"#utility.yul\":5736:5737   */\n      0x03\n        /* \"#utility.yul\":5731:5734   */\n      dup4\n        /* \"#utility.yul\":5654:5738   */\n      tag_146\n      jump\t// in\n    tag_160:\n        /* \"#utility.yul\":5647:5738   */\n      swap2\n      pop\n        /* \"#utility.yul\":5747:5840   */\n      tag_161\n        /* \"#utility.yul\":5836:5839   */\n      dup3\n        /* \"#utility.yul\":5747:5840   */\n      tag_162\n      jump\t// in\n    tag_161:\n        /* \"#utility.yul\":5865:5866   */\n      0x03\n        /* \"#utility.yul\":5860:5863   */\n      dup3\n        /* \"#utility.yul\":5856:5867   */\n      add\n        /* \"#utility.yul\":5849:5867   */\n      swap1\n      pop\n        /* \"#utility.yul\":5473:5873   */\n      swap2\n      swap1\n      pop\n      jump\t// out\n        /* \"#utility.yul\":5879:6279   */\n    tag_163:\n        /* \"#utility.yul\":6039:6042   */\n      0x00\n        /* \"#utility.yul\":6060:6144   */\n      tag_165\n        /* \"#utility.yul\":6142:6143   */\n      0x06\n        /* \"#utility.yul\":6137:6140   */\n      dup4\n        /* \"#utility.yul\":6060:6144   */\n      tag_146\n      jump\t// in\n    tag_165:\n        /* \"#utility.yul\":6053:6144   */\n      swap2\n      pop\n        /* \"#utility.yul\":6153:6246   */\n      tag_166\n        /* \"#utility.yul\":6242:6245   */\n      dup3\n        /* \"#utility.yul\":6153:6246   */\n      tag_167\n      jump\t// in\n    tag_166:\n        /* \"#utility.yul\":6271:6272   */\n      0x06\n        /* \"#utility.yul\":6266:6269   */\n      dup3\n        /* \"#utility.yul\":6262:6273   */\n      add\n        /* \"#utility.yul\":6255:6273   */\n      swap1\n      pop\n        /* \"#utility.yul\":5879:6279   */\n      swap2\n      swap1\n      pop\n      jump\t// out\n        /* \"#utility.yul\":6285:6685   */\n    tag_168:\n        /* \"#utility.yul\":6445:6448   */\n      0x00\n        /* \"#utility.yul\":6466:6550   */\n      tag_170\n        /* \"#utility.yul\":6548:6549   */\n      0x08\n        /* \"#utility.yul\":6543:6546   */\n      dup4\n        /* \"#utility.yul\":6466:6550   */\n      tag_146\n      jump\t// in\n    tag_170:\n        /* \"#utility.yul\":6459:6550   */\n      swap2\n      pop\n        /* \"#utility.yul\":6559:6652   */\n      tag_171\n        /* \"#utility.yul\":6648:6651   */\n      dup3\n        /* \"#utility.yul\":6559:6652   */\n      tag_172\n      jump\t// in\n    tag_171:\n        /* \"#utility.yul\":6677:6678   */\n      0x08\n        /* \"#utility.yul\":6672:6675   */\n      dup3\n        /* \"#utility.yul\":6668:6679   */\n      add\n        /* \"#utility.yul\":6661:6679   */\n      swap1\n      pop\n        /* \"#utility.yul\":6285:6685   */\n      swap2\n      swap1\n      pop\n      jump\t// out\n        /* \"#utility.yul\":6691:7091   */\n    tag_173:\n        /* \"#utility.yul\":6851:6854   */\n      0x00\n        /* \"#utility.yul\":6872:6956   */\n      tag_175\n        /* \"#utility.yul\":6954:6955   */\n      0x06\n        /* \"#utility.yul\":6949:6952   */\n      dup4\n        /* \"#utility.yul\":6872:6956   */\n      tag_146\n      jump\t// in\n    tag_175:\n        /* \"#utility.yul\":6865:6956   */\n      swap2\n      pop\n        /* \"#utility.yul\":6965:7058   */\n      tag_176\n        /* \"#utility.yul\":7054:7057   */\n      dup3\n        /* \"#utility.yul\":6965:7058   */\n      tag_177\n      jump\t// in\n    tag_176:\n        /* \"#utility.yul\":7083:7084   */\n      0x06\n        /* \"#utility.yul\":7078:7081   */\n      dup3\n        /* \"#utility.yul\":7074:7085   */\n      add\n        /* \"#utility.yul\":7067:7085   */\n      swap1\n      pop\n        /* \"#utility.yul\":6691:7091   */\n      swap2\n      swap1\n      pop\n      jump\t// out\n        /* \"#utility.yul\":7097:7497   */\n    tag_178:\n        /* \"#utility.yul\":7257:7260   */\n      0x00\n        /* \"#utility.yul\":7278:7362   */\n      tag_180\n        /* \"#utility.yul\":7360:7361   */\n      0x06\n        /* \"#utility.yul\":7355:7358   */\n      dup4\n        /* \"#utility.yul\":7278:7362   */\n      tag_146\n      jump\t// in\n    tag_180:\n        /* \"#utility.yul\":7271:7362   */\n      swap2\n      pop\n        /* \"#utility.yul\":7371:7464   */\n      tag_181\n        /* \"#utility.yul\":7460:7463   */\n      dup3\n        /* \"#utility.yul\":7371:7464   */\n      tag_182\n      jump\t// in\n    tag_181:\n        /* \"#utility.yul\":7489:7490   */\n      0x06\n        /* \"#utility.yul\":7484:7487   */\n      dup3\n        /* \"#utility.yul\":7480:7491   */\n      add\n        /* \"#utility.yul\":7473:7491   */\n      swap1\n      pop\n        /* \"#utility.yul\":7097:7497   */\n      swap2\n      swap1\n      pop\n      jump\t// out\n        /* \"#utility.yul\":7503:7905   */\n    tag_183:\n        /* \"#utility.yul\":7663:7666   */\n      0x00\n        /* \"#utility.yul\":7684:7769   */\n      tag_185\n        /* \"#utility.yul\":7766:7768   */\n      0x0c\n        /* \"#utility.yul\":7761:7764   */\n      dup4\n        /* \"#utility.yul\":7684:7769   */\n      tag_146\n      jump\t// in\n    tag_185:\n        /* \"#utility.yul\":7677:7769   */\n      swap2\n      pop\n        /* \"#utility.yul\":7778:7871   */\n      tag_186\n        /* \"#utility.yul\":7867:7870   */\n      dup3\n        /* \"#utility.yul\":7778:7871   */\n      tag_187\n      jump\t// in\n    tag_186:\n        /* \"#utility.yul\":7896:7898   */\n      0x0c\n        /* \"#utility.yul\":7891:7894   */\n      dup3\n        /* \"#utility.yul\":7887:7899   */\n      add\n        /* \"#utility.yul\":7880:7899   */\n      swap1\n      pop\n        /* \"#utility.yul\":7503:7905   */\n      swap2\n      swap1\n      pop\n      jump\t// out\n        /* \"#utility.yul\":7911:8029   */\n    tag_188:\n        /* \"#utility.yul\":7998:8022   */\n      tag_190\n        /* \"#utility.yul\":8016:8021   */\n      dup2\n        /* \"#utility.yul\":7998:8022   */\n      tag_191\n      jump\t// in\n    tag_190:\n        /* \"#utility.yul\":7993:7996   */\n      dup3\n        /* \"#utility.yul\":7986:8023   */\n      mstore\n        /* \"#utility.yul\":7911:8029   */\n      pop\n      pop\n      jump\t// out\n        /* \"#utility.yul\":8035:12728   */\n    tag_53:\n        /* \"#utility.yul\":9768:9771   */\n      0x00\n        /* \"#utility.yul\":9790:9938   */\n      tag_193\n        /* \"#utility.yul\":9934:9937   */\n      dup3\n        /* \"#utility.yul\":9790:9938   */\n      tag_178\n      jump\t// in\n    tag_193:\n        /* \"#utility.yul\":9783:9938   */\n      swap2\n      pop\n        /* \"#utility.yul\":9955:10050   */\n      tag_194\n        /* \"#utility.yul\":10046:10049   */\n      dup3\n        /* \"#utility.yul\":10037:10043   */\n      dup11\n        /* \"#utility.yul\":9955:10050   */\n      tag_142\n      jump\t// in\n    tag_194:\n        /* \"#utility.yul\":9948:10050   */\n      swap2\n      pop\n        /* \"#utility.yul\":10067:10215   */\n      tag_195\n        /* \"#utility.yul\":10211:10214   */\n      dup3\n        /* \"#utility.yul\":10067:10215   */\n      tag_158\n      jump\t// in\n    tag_195:\n        /* \"#utility.yul\":10060:10215   */\n      swap2\n      pop\n        /* \"#utility.yul\":10232:10380   */\n      tag_196\n        /* \"#utility.yul\":10376:10379   */\n      dup3\n        /* \"#utility.yul\":10232:10380   */\n      tag_163\n      jump\t// in\n    tag_196:\n        /* \"#utility.yul\":10225:10380   */\n      swap2\n      pop\n        /* \"#utility.yul\":10397:10492   */\n      tag_197\n        /* \"#utility.yul\":10488:10491   */\n      dup3\n        /* \"#utility.yul\":10479:10485   */\n      dup10\n        /* \"#utility.yul\":10397:10492   */\n      tag_142\n      jump\t// in\n    tag_197:\n        /* \"#utility.yul\":10390:10492   */\n      swap2\n      pop\n        /* \"#utility.yul\":10509:10657   */\n      tag_198\n        /* \"#utility.yul\":10653:10656   */\n      dup3\n        /* \"#utility.yul\":10509:10657   */\n      tag_158\n      jump\t// in\n    tag_198:\n        /* \"#utility.yul\":10502:10657   */\n      swap2\n      pop\n        /* \"#utility.yul\":10674:10822   */\n      tag_199\n        /* \"#utility.yul\":10818:10821   */\n      dup3\n        /* \"#utility.yul\":10674:10822   */\n      tag_173\n      jump\t// in\n    tag_199:\n        /* \"#utility.yul\":10667:10822   */\n      swap2\n      pop\n        /* \"#utility.yul\":10839:10934   */\n      tag_200\n        /* \"#utility.yul\":10930:10933   */\n      dup3\n        /* \"#utility.yul\":10921:10927   */\n      dup9\n        /* \"#utility.yul\":10839:10934   */\n      tag_142\n      jump\t// in\n    tag_200:\n        /* \"#utility.yul\":10832:10934   */\n      swap2\n      pop\n        /* \"#utility.yul\":10951:11099   */\n      tag_201\n        /* \"#utility.yul\":11095:11098   */\n      dup3\n        /* \"#utility.yul\":10951:11099   */\n      tag_158\n      jump\t// in\n    tag_201:\n        /* \"#utility.yul\":10944:11099   */\n      swap2\n      pop\n        /* \"#utility.yul\":11116:11264   */\n      tag_202\n        /* \"#utility.yul\":11260:11263   */\n      dup3\n        /* \"#utility.yul\":11116:11264   */\n      tag_148\n      jump\t// in\n    tag_202:\n        /* \"#utility.yul\":11109:11264   */\n      swap2\n      pop\n        /* \"#utility.yul\":11281:11376   */\n      tag_203\n        /* \"#utility.yul\":11372:11375   */\n      dup3\n        /* \"#utility.yul\":11363:11369   */\n      dup8\n        /* \"#utility.yul\":11281:11376   */\n      tag_142\n      jump\t// in\n    tag_203:\n        /* \"#utility.yul\":11274:11376   */\n      swap2\n      pop\n        /* \"#utility.yul\":11393:11541   */\n      tag_204\n        /* \"#utility.yul\":11537:11540   */\n      dup3\n        /* \"#utility.yul\":11393:11541   */\n      tag_158\n      jump\t// in\n    tag_204:\n        /* \"#utility.yul\":11386:11541   */\n      swap2\n      pop\n        /* \"#utility.yul\":11558:11706   */\n      tag_205\n        /* \"#utility.yul\":11702:11705   */\n      dup3\n        /* \"#utility.yul\":11558:11706   */\n      tag_153\n      jump\t// in\n    tag_205:\n        /* \"#utility.yul\":11551:11706   */\n      swap2\n      pop\n        /* \"#utility.yul\":11723:11818   */\n      tag_206\n        /* \"#utility.yul\":11814:11817   */\n      dup3\n        /* \"#utility.yul\":11805:11811   */\n      dup7\n        /* \"#utility.yul\":11723:11818   */\n      tag_142\n      jump\t// in\n    tag_206:\n        /* \"#utility.yul\":11716:11818   */\n      swap2\n      pop\n        /* \"#utility.yul\":11835:11983   */\n      tag_207\n        /* \"#utility.yul\":11979:11982   */\n      dup3\n        /* \"#utility.yul\":11835:11983   */\n      tag_158\n      jump\t// in\n    tag_207:\n        /* \"#utility.yul\":11828:11983   */\n      swap2\n      pop\n        /* \"#utility.yul\":12000:12148   */\n      tag_208\n        /* \"#utility.yul\":12144:12147   */\n      dup3\n        /* \"#utility.yul\":12000:12148   */\n      tag_168\n      jump\t// in\n    tag_208:\n        /* \"#utility.yul\":11993:12148   */\n      swap2\n      pop\n        /* \"#utility.yul\":12165:12260   */\n      tag_209\n        /* \"#utility.yul\":12256:12259   */\n      dup3\n        /* \"#utility.yul\":12247:12253   */\n      dup6\n        /* \"#utility.yul\":12165:12260   */\n      tag_142\n      jump\t// in\n    tag_209:\n        /* \"#utility.yul\":12158:12260   */\n      swap2\n      pop\n        /* \"#utility.yul\":12277:12425   */\n      tag_210\n        /* \"#utility.yul\":12421:12424   */\n      dup3\n        /* \"#utility.yul\":12277:12425   */\n      tag_158\n      jump\t// in\n    tag_210:\n        /* \"#utility.yul\":12270:12425   */\n      swap2\n      pop\n        /* \"#utility.yul\":12442:12590   */\n      tag_211\n        /* \"#utility.yul\":12586:12589   */\n      dup3\n        /* \"#utility.yul\":12442:12590   */\n      tag_183\n      jump\t// in\n    tag_211:\n        /* \"#utility.yul\":12435:12590   */\n      swap2\n      pop\n        /* \"#utility.yul\":12607:12702   */\n      tag_212\n        /* \"#utility.yul\":12698:12701   */\n      dup3\n        /* \"#utility.yul\":12689:12695   */\n      dup5\n        /* \"#utility.yul\":12607:12702   */\n      tag_142\n      jump\t// in\n    tag_212:\n        /* \"#utility.yul\":12600:12702   */\n      swap2\n      pop\n        /* \"#utility.yul\":12719:12722   */\n      dup2\n        /* \"#utility.yul\":12712:12722   */\n      swap1\n      pop\n        /* \"#utility.yul\":8035:12728   */\n      swap9\n      swap8\n      pop\n      pop\n      pop\n      pop\n      pop\n      pop\n      pop\n      pop\n      jump\t// out\n        /* \"#utility.yul\":12734:13299   */\n    tag_17:\n        /* \"#utility.yul\":12919:12923   */\n      0x00\n        /* \"#utility.yul\":12957:12959   */\n      0x60\n        /* \"#utility.yul\":12946:12955   */\n      dup3\n        /* \"#utility.yul\":12942:12960   */\n      add\n        /* \"#utility.yul\":12934:12960   */\n      swap1\n      pop\n        /* \"#utility.yul\":12970:13057   */\n      tag_214\n        /* \"#utility.yul\":13054:13055   */\n      0x00\n        /* \"#utility.yul\":13043:13052   */\n      dup4\n        /* \"#utility.yul\":13039:13056   */\n      add\n        /* \"#utility.yul\":13030:13036   */\n      dup7\n        /* \"#utility.yul\":12970:13057   */\n      tag_129\n      jump\t// in\n    tag_214:\n        /* \"#utility.yul\":13104:13113   */\n      dup2\n        /* \"#utility.yul\":13098:13102   */\n      dup2\n        /* \"#utility.yul\":13094:13114   */\n      sub\n        /* \"#utility.yul\":13089:13091   */\n      0x20\n        /* \"#utility.yul\":13078:13087   */\n      dup4\n        /* \"#utility.yul\":13074:13092   */\n      add\n        /* \"#utility.yul\":13067:13115   */\n      mstore\n        /* \"#utility.yul\":13132:13210   */\n      tag_215\n        /* \"#utility.yul\":13205:13209   */\n      dup2\n        /* \"#utility.yul\":13196:13202   */\n      dup6\n        /* \"#utility.yul\":13132:13210   */\n      tag_133\n      jump\t// in\n    tag_215:\n        /* \"#utility.yul\":13124:13210   */\n      swap1\n      pop\n        /* \"#utility.yul\":13220:13292   */\n      tag_216\n        /* \"#utility.yul\":13288:13290   */\n      0x40\n        /* \"#utility.yul\":13277:13286   */\n      dup4\n        /* \"#utility.yul\":13273:13291   */\n      add\n        /* \"#utility.yul\":13264:13270   */\n      dup5\n        /* \"#utility.yul\":13220:13292   */\n      tag_188\n      jump\t// in\n    tag_216:\n        /* \"#utility.yul\":12734:13299   */\n      swap5\n      swap4\n      pop\n      pop\n      pop\n      pop\n      jump\t// out\n        /* \"#utility.yul\":13305:13618   */\n    tag_11:\n        /* \"#utility.yul\":13418:13422   */\n      0x00\n        /* \"#utility.yul\":13456:13458   */\n      0x20\n        /* \"#utility.yul\":13445:13454   */\n      dup3\n        /* \"#utility.yul\":13441:13459   */\n      add\n        /* \"#utility.yul\":13433:13459   */\n      swap1\n      pop\n        /* \"#utility.yul\":13505:13514   */\n      dup2\n        /* \"#utility.yul\":13499:13503   */\n      dup2\n        /* \"#utility.yul\":13495:13515   */\n      sub\n        /* \"#utility.yul\":13491:13492   */\n      0x00\n        /* \"#utility.yul\":13480:13489   */\n      dup4\n        /* \"#utility.yul\":13476:13493   */\n      add\n        /* \"#utility.yul\":13469:13516   */\n      mstore\n        /* \"#utility.yul\":13533:13611   */\n      tag_218\n        /* \"#utility.yul\":13606:13610   */\n      dup2\n        /* \"#utility.yul\":13597:13603   */\n      dup5\n        /* \"#utility.yul\":13533:13611   */\n      tag_133\n      jump\t// in\n    tag_218:\n        /* \"#utility.yul\":13525:13611   */\n      swap1\n      pop\n        /* \"#utility.yul\":13305:13618   */\n      swap3\n      swap2\n      pop\n      pop\n      jump\t// out\n        /* \"#utility.yul\":13624:13753   */\n    tag_73:\n        /* \"#utility.yul\":13658:13664   */\n      0x00\n        /* \"#utility.yul\":13685:13705   */\n      tag_220\n      tag_221\n      jump\t// in\n    tag_220:\n        /* \"#utility.yul\":13675:13705   */\n      swap1\n      pop\n        /* \"#utility.yul\":13714:13747   */\n      tag_222\n        /* \"#utility.yul\":13742:13746   */\n      dup3\n        /* \"#utility.yul\":13734:13740   */\n      dup3\n        /* \"#utility.yul\":13714:13747   */\n      tag_223\n      jump\t// in\n    tag_222:\n        /* \"#utility.yul\":13624:13753   */\n      swap2\n      swap1\n      pop\n      jump\t// out\n        /* \"#utility.yul\":13759:13834   */\n    tag_221:\n        /* \"#utility.yul\":13792:13798   */\n      0x00\n        /* \"#utility.yul\":13825:13827   */\n      0x40\n        /* \"#utility.yul\":13819:13828   */\n      mload\n        /* \"#utility.yul\":13809:13828   */\n      swap1\n      pop\n        /* \"#utility.yul\":13759:13834   */\n      swap1\n      jump\t// out\n        /* \"#utility.yul\":13840:14148   */\n    tag_72:\n        /* \"#utility.yul\":13902:13906   */\n      0x00\n        /* \"#utility.yul\":13992:14010   */\n      0xffffffffffffffff\n        /* \"#utility.yul\":13984:13990   */\n      dup3\n        /* \"#utility.yul\":13981:14011   */\n      gt\n        /* \"#utility.yul\":13978:14034   */\n      iszero\n      tag_226\n      jumpi\n        /* \"#utility.yul\":14014:14032   */\n      tag_227\n      tag_228\n      jump\t// in\n    tag_227:\n        /* \"#utility.yul\":13978:14034   */\n    tag_226:\n        /* \"#utility.yul\":14052:14081   */\n      tag_229\n        /* \"#utility.yul\":14074:14080   */\n      dup3\n        /* \"#utility.yul\":14052:14081   */\n      tag_141\n      jump\t// in\n    tag_229:\n        /* \"#utility.yul\":14044:14081   */\n      swap1\n      pop\n        /* \"#utility.yul\":14136:14140   */\n      0x20\n        /* \"#utility.yul\":14130:14134   */\n      dup2\n        /* \"#utility.yul\":14126:14141   */\n      add\n        /* \"#utility.yul\":14118:14141   */\n      swap1\n      pop\n        /* \"#utility.yul\":13840:14148   */\n      swap2\n      swap1\n      pop\n      jump\t// out\n        /* \"#utility.yul\":14154:14253   */\n    tag_136:\n        /* \"#utility.yul\":14206:14212   */\n      0x00\n        /* \"#utility.yul\":14240:14245   */\n      dup2\n        /* \"#utility.yul\":14234:14246   */\n      mload\n        /* \"#utility.yul\":14224:14246   */\n      swap1\n      pop\n        /* \"#utility.yul\":14154:14253   */\n      swap2\n      swap1\n      pop\n      jump\t// out\n        /* \"#utility.yul\":14259:14428   */\n    tag_138:\n        /* \"#utility.yul\":14343:14354   */\n      0x00\n        /* \"#utility.yul\":14377:14383   */\n      dup3\n        /* \"#utility.yul\":14372:14375   */\n      dup3\n        /* \"#utility.yul\":14365:14384   */\n      mstore\n        /* \"#utility.yul\":14417:14421   */\n      0x20\n        /* \"#utility.yul\":14412:14415   */\n      dup3\n        /* \"#utility.yul\":14408:14422   */\n      add\n        /* \"#utility.yul\":14393:14422   */\n      swap1\n      pop\n        /* \"#utility.yul\":14259:14428   */\n      swap3\n      swap2\n      pop\n      pop\n      jump\t// out\n        /* \"#utility.yul\":14434:14582   */\n    tag_146:\n        /* \"#utility.yul\":14536:14547   */\n      0x00\n        /* \"#utility.yul\":14573:14576   */\n      dup2\n        /* \"#utility.yul\":14558:14576   */\n      swap1\n      pop\n        /* \"#utility.yul\":14434:14582   */\n      swap3\n      swap2\n      pop\n      pop\n      jump\t// out\n        /* \"#utility.yul\":14588:14684   */\n    tag_233:\n        /* \"#utility.yul\":14625:14632   */\n      0x00\n        /* \"#utility.yul\":14654:14678   */\n      tag_235\n        /* \"#utility.yul\":14672:14677   */\n      dup3\n        /* \"#utility.yul\":14654:14678   */\n      tag_236\n      jump\t// in\n    tag_235:\n        /* \"#utility.yul\":14643:14678   */\n      swap1\n      pop\n        /* \"#utility.yul\":14588:14684   */\n      swap2\n      swap1\n      pop\n      jump\t// out\n        /* \"#utility.yul\":14690:14816   */\n    tag_236:\n        /* \"#utility.yul\":14727:14734   */\n      0x00\n        /* \"#utility.yul\":14767:14809   */\n      0xffffffffffffffffffffffffffffffffffffffff\n        /* \"#utility.yul\":14760:14765   */\n      dup3\n        /* \"#utility.yul\":14756:14810   */\n      and\n        /* \"#utility.yul\":14745:14810   */\n      swap1\n      pop\n        /* \"#utility.yul\":14690:14816   */\n      swap2\n      swap1\n      pop\n      jump\t// out\n        /* \"#utility.yul\":14822:14899   */\n    tag_191:\n        /* \"#utility.yul\":14859:14866   */\n      0x00\n        /* \"#utility.yul\":14888:14893   */\n      dup2\n        /* \"#utility.yul\":14877:14893   */\n      swap1\n      pop\n        /* \"#utility.yul\":14822:14899   */\n      swap2\n      swap1\n      pop\n      jump\t// out\n        /* \"#utility.yul\":14905:15047   */\n    tag_132:\n        /* \"#utility.yul\":14971:14980   */\n      0x00\n        /* \"#utility.yul\":15004:15041   */\n      tag_240\n        /* \"#utility.yul\":15035:15040   */\n      dup3\n        /* \"#utility.yul\":15004:15041   */\n      tag_241\n      jump\t// in\n    tag_240:\n        /* \"#utility.yul\":14991:15041   */\n      swap1\n      pop\n        /* \"#utility.yul\":14905:15047   */\n      swap2\n      swap1\n      pop\n      jump\t// out\n        /* \"#utility.yul\":15053:15179   */\n    tag_241:\n        /* \"#utility.yul\":15103:15112   */\n      0x00\n        /* \"#utility.yul\":15136:15173   */\n      tag_243\n        /* \"#utility.yul\":15167:15172   */\n      dup3\n        /* \"#utility.yul\":15136:15173   */\n      tag_244\n      jump\t// in\n    tag_243:\n        /* \"#utility.yul\":15123:15173   */\n      swap1\n      pop\n        /* \"#utility.yul\":15053:15179   */\n      swap2\n      swap1\n      pop\n      jump\t// out\n        /* \"#utility.yul\":15185:15298   */\n    tag_244:\n        /* \"#utility.yul\":15235:15244   */\n      0x00\n        /* \"#utility.yul\":15268:15292   */\n      tag_246\n        /* \"#utility.yul\":15286:15291   */\n      dup3\n        /* \"#utility.yul\":15268:15292   */\n      tag_236\n      jump\t// in\n    tag_246:\n        /* \"#utility.yul\":15255:15292   */\n      swap1\n      pop\n        /* \"#utility.yul\":15185:15298   */\n      swap2\n      swap1\n      pop\n      jump\t// out\n        /* \"#utility.yul\":15304:15458   */\n    tag_78:\n        /* \"#utility.yul\":15388:15394   */\n      dup3\n        /* \"#utility.yul\":15383:15386   */\n      dup2\n        /* \"#utility.yul\":15378:15381   */\n      dup4\n        /* \"#utility.yul\":15365:15395   */\n      calldatacopy\n        /* \"#utility.yul\":15450:15451   */\n      0x00\n        /* \"#utility.yul\":15441:15447   */\n      dup4\n        /* \"#utility.yul\":15436:15439   */\n      dup4\n        /* \"#utility.yul\":15432:15448   */\n      add\n        /* \"#utility.yul\":15425:15452   */\n      mstore\n        /* \"#utility.yul\":15304:15458   */\n      pop\n      pop\n      pop\n      jump\t// out\n        /* \"#utility.yul\":15464:15771   */\n    tag_86:\n        /* \"#utility.yul\":15532:15533   */\n      0x00\n        /* \"#utility.yul\":15542:15655   */\n    tag_249:\n        /* \"#utility.yul\":15556:15562   */\n      dup4\n        /* \"#utility.yul\":15553:15554   */\n      dup2\n        /* \"#utility.yul\":15550:15563   */\n      lt\n        /* \"#utility.yul\":15542:15655   */\n      iszero\n      tag_251\n      jumpi\n        /* \"#utility.yul\":15641:15642   */\n      dup1\n        /* \"#utility.yul\":15636:15639   */\n      dup3\n        /* \"#utility.yul\":15632:15643   */\n      add\n        /* \"#utility.yul\":15626:15644   */\n      mload\n        /* \"#utility.yul\":15622:15623   */\n      dup2\n        /* \"#utility.yul\":15617:15620   */\n      dup5\n        /* \"#utility.yul\":15613:15624   */\n      add\n        /* \"#utility.yul\":15606:15645   */\n      mstore\n        /* \"#utility.yul\":15578:15580   */\n      0x20\n        /* \"#utility.yul\":15575:15576   */\n      dup2\n        /* \"#utility.yul\":15571:15581   */\n      add\n        /* \"#utility.yul\":15566:15581   */\n      swap1\n      pop\n        /* \"#utility.yul\":15542:15655   */\n      jump(tag_249)\n    tag_251:\n        /* \"#utility.yul\":15673:15679   */\n      dup4\n        /* \"#utility.yul\":15670:15671   */\n      dup2\n        /* \"#utility.yul\":15667:15680   */\n      gt\n        /* \"#utility.yul\":15664:15765   */\n      iszero\n      tag_252\n      jumpi\n        /* \"#utility.yul\":15753:15754   */\n      0x00\n        /* \"#utility.yul\":15744:15750   */\n      dup5\n        /* \"#utility.yul\":15739:15742   */\n      dup5\n        /* \"#utility.yul\":15735:15751   */\n      add\n        /* \"#utility.yul\":15728:15755   */\n      mstore\n        /* \"#utility.yul\":15664:15765   */\n    tag_252:\n        /* \"#utility.yul\":15513:15771   */\n      pop\n        /* \"#utility.yul\":15464:15771   */\n      pop\n      pop\n      pop\n      jump\t// out\n        /* \"#utility.yul\":15777:16097   */\n    tag_57:\n        /* \"#utility.yul\":15821:15827   */\n      0x00\n        /* \"#utility.yul\":15858:15859   */\n      0x02\n        /* \"#utility.yul\":15852:15856   */\n      dup3\n        /* \"#utility.yul\":15848:15860   */\n      div\n        /* \"#utility.yul\":15838:15860   */\n      swap1\n      pop\n        /* \"#utility.yul\":15905:15906   */\n      0x01\n        /* \"#utility.yul\":15899:15903   */\n      dup3\n        /* \"#utility.yul\":15895:15907   */\n      and\n        /* \"#utility.yul\":15926:15944   */\n      dup1\n        /* \"#utility.yul\":15916:15997   */\n      tag_254\n      jumpi\n        /* \"#utility.yul\":15982:15986   */\n      0x7f\n        /* \"#utility.yul\":15974:15980   */\n      dup3\n        /* \"#utility.yul\":15970:15987   */\n      and\n        /* \"#utility.yul\":15960:15987   */\n      swap2\n      pop\n        /* \"#utility.yul\":15916:15997   */\n    tag_254:\n        /* \"#utility.yul\":16044:16046   */\n      0x20\n        /* \"#utility.yul\":16036:16042   */\n      dup3\n        /* \"#utility.yul\":16033:16047   */\n      lt\n        /* \"#utility.yul\":16013:16031   */\n      dup2\n        /* \"#utility.yul\":16010:16048   */\n      eq\n        /* \"#utility.yul\":16007:16091   */\n      iszero\n      tag_255\n      jumpi\n        /* \"#utility.yul\":16063:16081   */\n      tag_256\n      tag_257\n      jump\t// in\n    tag_256:\n        /* \"#utility.yul\":16007:16091   */\n    tag_255:\n        /* \"#utility.yul\":15828:16097   */\n      pop\n        /* \"#utility.yul\":15777:16097   */\n      swap2\n      swap1\n      pop\n      jump\t// out\n        /* \"#utility.yul\":16103:16384   */\n    tag_223:\n        /* \"#utility.yul\":16186:16213   */\n      tag_259\n        /* \"#utility.yul\":16208:16212   */\n      dup3\n        /* \"#utility.yul\":16186:16213   */\n      tag_141\n      jump\t// in\n    tag_259:\n        /* \"#utility.yul\":16178:16184   */\n      dup2\n        /* \"#utility.yul\":16174:16214   */\n      add\n        /* \"#utility.yul\":16316:16322   */\n      dup2\n        /* \"#utility.yul\":16304:16314   */\n      dup2\n        /* \"#utility.yul\":16301:16323   */\n      lt\n        /* \"#utility.yul\":16280:16298   */\n      0xffffffffffffffff\n        /* \"#utility.yul\":16268:16278   */\n      dup3\n        /* \"#utility.yul\":16265:16299   */\n      gt\n        /* \"#utility.yul\":16262:16324   */\n      or\n        /* \"#utility.yul\":16259:16347   */\n      iszero\n      tag_260\n      jumpi\n        /* \"#utility.yul\":16327:16345   */\n      tag_261\n      tag_228\n      jump\t// in\n    tag_261:\n        /* \"#utility.yul\":16259:16347   */\n    tag_260:\n        /* \"#utility.yul\":16367:16377   */\n      dup1\n        /* \"#utility.yul\":16363:16365   */\n      0x40\n        /* \"#utility.yul\":16356:16378   */\n      mstore\n        /* \"#utility.yul\":16146:16384   */\n      pop\n        /* \"#utility.yul\":16103:16384   */\n      pop\n      pop\n      jump\t// out\n        /* \"#utility.yul\":16390:16570   */\n    tag_257:\n        /* \"#utility.yul\":16438:16515   */\n      0x4e487b7100000000000000000000000000000000000000000000000000000000\n        /* \"#utility.yul\":16435:16436   */\n      0x00\n        /* \"#utility.yul\":16428:16516   */\n      mstore\n        /* \"#utility.yul\":16535:16539   */\n      0x22\n        /* \"#utility.yul\":16532:16533   */\n      0x04\n        /* \"#utility.yul\":16525:16540   */\n      mstore\n        /* \"#utility.yul\":16559:16563   */\n      0x24\n        /* \"#utility.yul\":16556:16557   */\n      0x00\n        /* \"#utility.yul\":16549:16564   */\n      revert\n        /* \"#utility.yul\":16576:16756   */\n    tag_228:\n        /* \"#utility.yul\":16624:16701   */\n      0x4e487b7100000000000000000000000000000000000000000000000000000000\n        /* \"#utility.yul\":16621:16622   */\n      0x00\n        /* \"#utility.yul\":16614:16702   */\n      mstore\n        /* \"#utility.yul\":16721:16725   */\n      0x41\n        /* \"#utility.yul\":16718:16719   */\n      0x04\n        /* \"#utility.yul\":16711:16726   */\n      mstore\n        /* \"#utility.yul\":16745:16749   */\n      0x24\n        /* \"#utility.yul\":16742:16743   */\n      0x00\n        /* \"#utility.yul\":16735:16750   */\n      revert\n        /* \"#utility.yul\":16762:16879   */\n    tag_95:\n        /* \"#utility.yul\":16871:16872   */\n      0x00\n        /* \"#utility.yul\":16868:16869   */\n      dup1\n        /* \"#utility.yul\":16861:16873   */\n      revert\n        /* \"#utility.yul\":16885:17002   */\n    tag_76:\n        /* \"#utility.yul\":16994:16995   */\n      0x00\n        /* \"#utility.yul\":16991:16992   */\n      dup1\n        /* \"#utility.yul\":16984:16996   */\n      revert\n        /* \"#utility.yul\":17008:17125   */\n    tag_117:\n        /* \"#utility.yul\":17117:17118   */\n      0x00\n        /* \"#utility.yul\":17114:17115   */\n      dup1\n        /* \"#utility.yul\":17107:17119   */\n      revert\n        /* \"#utility.yul\":17131:17248   */\n    tag_109:\n        /* \"#utility.yul\":17240:17241   */\n      0x00\n        /* \"#utility.yul\":17237:17238   */\n      dup1\n        /* \"#utility.yul\":17230:17242   */\n      revert\n        /* \"#utility.yul\":17254:17356   */\n    tag_141:\n        /* \"#utility.yul\":17295:17301   */\n      0x00\n        /* \"#utility.yul\":17346:17348   */\n      0x1f\n        /* \"#utility.yul\":17342:17349   */\n      not\n        /* \"#utility.yul\":17337:17339   */\n      0x1f\n        /* \"#utility.yul\":17330:17335   */\n      dup4\n        /* \"#utility.yul\":17326:17340   */\n      add\n        /* \"#utility.yul\":17322:17350   */\n      and\n        /* \"#utility.yul\":17312:17350   */\n      swap1\n      pop\n        /* \"#utility.yul\":17254:17356   */\n      swap2\n      swap1\n      pop\n      jump\t// out\n        /* \"#utility.yul\":17362:17518   */\n    tag_152:\n        /* \"#utility.yul\":17502:17510   */\n      0x436f6c6f723a0000000000000000000000000000000000000000000000000000\n        /* \"#utility.yul\":17498:17499   */\n      0x00\n        /* \"#utility.yul\":17490:17496   */\n      dup3\n        /* \"#utility.yul\":17486:17500   */\n      add\n        /* \"#utility.yul\":17479:17511   */\n      mstore\n        /* \"#utility.yul\":17362:17518   */\n      pop\n      jump\t// out\n        /* \"#utility.yul\":17524:17691   */\n    tag_157:\n        /* \"#utility.yul\":17664:17683   */\n      0x4d6572696b656c726f6f7476616c75653a000000000000000000000000000000\n        /* \"#utility.yul\":17660:17661   */\n      0x00\n        /* \"#utility.yul\":17652:17658   */\n      dup3\n        /* \"#utility.yul\":17648:17662   */\n      add\n        /* \"#utility.yul\":17641:17684   */\n      mstore\n        /* \"#utility.yul\":17524:17691   */\n      pop\n      jump\t// out\n        /* \"#utility.yul\":17697:17850   */\n    tag_162:\n        /* \"#utility.yul\":17837:17842   */\n      0x207c200000000000000000000000000000000000000000000000000000000000\n        /* \"#utility.yul\":17833:17834   */\n      0x00\n        /* \"#utility.yul\":17825:17831   */\n      dup3\n        /* \"#utility.yul\":17821:17835   */\n      add\n        /* \"#utility.yul\":17814:17843   */\n      mstore\n        /* \"#utility.yul\":17697:17850   */\n      pop\n      jump\t// out\n        /* \"#utility.yul\":17856:18012   */\n    tag_167:\n        /* \"#utility.yul\":17996:18004   */\n      0x4272616e643a0000000000000000000000000000000000000000000000000000\n        /* \"#utility.yul\":17992:17993   */\n      0x00\n        /* \"#utility.yul\":17984:17990   */\n      dup3\n        /* \"#utility.yul\":17980:17994   */\n      add\n        /* \"#utility.yul\":17973:18005   */\n      mstore\n        /* \"#utility.yul\":17856:18012   */\n      pop\n      jump\t// out\n        /* \"#utility.yul\":18018:18176   */\n    tag_172:\n        /* \"#utility.yul\":18158:18168   */\n      0x4f77656e6442793a000000000000000000000000000000000000000000000000\n        /* \"#utility.yul\":18154:18155   */\n      0x00\n        /* \"#utility.yul\":18146:18152   */\n      dup3\n        /* \"#utility.yul\":18142:18156   */\n      add\n        /* \"#utility.yul\":18135:18169   */\n      mstore\n        /* \"#utility.yul\":18018:18176   */\n      pop\n      jump\t// out\n        /* \"#utility.yul\":18182:18338   */\n    tag_177:\n        /* \"#utility.yul\":18322:18330   */\n      0x4d6f64656c3a0000000000000000000000000000000000000000000000000000\n        /* \"#utility.yul\":18318:18319   */\n      0x00\n        /* \"#utility.yul\":18310:18316   */\n      dup3\n        /* \"#utility.yul\":18306:18320   */\n      add\n        /* \"#utility.yul\":18299:18331   */\n      mstore\n        /* \"#utility.yul\":18182:18338   */\n      pop\n      jump\t// out\n        /* \"#utility.yul\":18344:18500   */\n    tag_182:\n        /* \"#utility.yul\":18484:18492   */\n      0x52656749443a0000000000000000000000000000000000000000000000000000\n        /* \"#utility.yul\":18480:18481   */\n      0x00\n        /* \"#utility.yul\":18472:18478   */\n      dup3\n        /* \"#utility.yul\":18468:18482   */\n      add\n        /* \"#utility.yul\":18461:18493   */\n      mstore\n        /* \"#utility.yul\":18344:18500   */\n      pop\n      jump\t// out\n        /* \"#utility.yul\":18506:18668   */\n    tag_187:\n        /* \"#utility.yul\":18646:18660   */\n      0x4372656174656454696d653a0000000000000000000000000000000000000000\n        /* \"#utility.yul\":18642:18643   */\n      0x00\n        /* \"#utility.yul\":18634:18640   */\n      dup3\n        /* \"#utility.yul\":18630:18644   */\n      add\n        /* \"#utility.yul\":18623:18661   */\n      mstore\n        /* \"#utility.yul\":18506:18668   */\n      pop\n      jump\t// out\n        /* \"#utility.yul\":18674:18796   */\n    tag_90:\n        /* \"#utility.yul\":18747:18771   */\n      tag_278\n        /* \"#utility.yul\":18765:18770   */\n      dup2\n        /* \"#utility.yul\":18747:18771   */\n      tag_233\n      jump\t// in\n    tag_278:\n        /* \"#utility.yul\":18740:18745   */\n      dup2\n        /* \"#utility.yul\":18737:18772   */\n      eq\n        /* \"#utility.yul\":18727:18790   */\n      tag_279\n      jumpi\n        /* \"#utility.yul\":18786:18787   */\n      0x00\n        /* \"#utility.yul\":18783:18784   */\n      dup1\n        /* \"#utility.yul\":18776:18788   */\n      revert\n        /* \"#utility.yul\":18727:18790   */\n    tag_279:\n        /* \"#utility.yul\":18674:18796   */\n      pop\n      jump\t// out\n        /* \"#utility.yul\":18802:18924   */\n    tag_105:\n        /* \"#utility.yul\":18875:18899   */\n      tag_281\n        /* \"#utility.yul\":18893:18898   */\n      dup2\n        /* \"#utility.yul\":18875:18899   */\n      tag_191\n      jump\t// in\n    tag_281:\n        /* \"#utility.yul\":18868:18873   */\n      dup2\n        /* \"#utility.yul\":18865:18900   */\n      eq\n        /* \"#utility.yul\":18855:18918   */\n      tag_282\n      jumpi\n        /* \"#utility.yul\":18914:18915   */\n      0x00\n        /* \"#utility.yul\":18911:18912   */\n      dup1\n        /* \"#utility.yul\":18904:18916   */\n      revert\n        /* \"#utility.yul\":18855:18918   */\n    tag_282:\n        /* \"#utility.yul\":18802:18924   */\n      pop\n      jump\t// out\n\n    auxdata: 0xa26469706673582212209ca5c7a3f41850a0fd76c27b47dcef46d4007c682ab7a2aab286ba2112a2c61364736f6c63430008070033\n}\n",
				"bytecode": {
					"linkReferences": {},
					"object": "608060405234801561001057600080fd5b50610ea4806100206000396000f3fe608060405234801561001057600080fd5b50600436106100415760003560e01c806345e523b5146100465780634e889a9314610076578063bf834171146100a8575b600080fd5b610060600480360381019061005b91906106ee565b6100c4565b60405161006d9190610abf565b60405180910390f35b610090600480360381019061008b91906107c0565b61048d565b60405161009f93929190610a81565b60405180910390f35b6100c260048036038101906100bd919061071b565b61056f565b005b606060008290508073ffffffffffffffffffffffffffffffffffffffff1663d1d5400d6040518163ffffffff1660e01b815260040160006040518083038186803b15801561011157600080fd5b505afa158015610125573d6000803e3d6000fd5b505050506040513d6000823e3d601f19601f8201168201806040525081019061014e9190610777565b8173ffffffffffffffffffffffffffffffffffffffff1663ca3740de6040518163ffffffff1660e01b815260040160006040518083038186803b15801561019457600080fd5b505afa1580156101a8573d6000803e3d6000fd5b505050506040513d6000823e3d601f19601f820116820180604052508101906101d19190610777565b8273ffffffffffffffffffffffffffffffffffffffff16631ba7b1f76040518163ffffffff1660e01b815260040160006040518083038186803b15801561021757600080fd5b505afa15801561022b573d6000803e3d6000fd5b505050506040513d6000823e3d601f19601f820116820180604052508101906102549190610777565b8373ffffffffffffffffffffffffffffffffffffffff166322e5ba7c6040518163ffffffff1660e01b815260040160006040518083038186803b15801561029a57600080fd5b505afa1580156102ae573d6000803e3d6000fd5b505050506040513d6000823e3d601f19601f820116820180604052508101906102d79190610777565b8473ffffffffffffffffffffffffffffffffffffffff1663e12d7db46040518163ffffffff1660e01b815260040160006040518083038186803b15801561031d57600080fd5b505afa158015610331573d6000803e3d6000fd5b505050506040513d6000823e3d601f19601f8201168201806040525081019061035a9190610777565b8573ffffffffffffffffffffffffffffffffffffffff166350ca09076040518163ffffffff1660e01b815260040160006040518083038186803b1580156103a057600080fd5b505afa1580156103b4573d6000803e3d6000fd5b505050506040513d6000823e3d601f19601f820116820180604052508101906103dd9190610777565b8673ffffffffffffffffffffffffffffffffffffffff1663ced7142c6040518163ffffffff1660e01b815260040160006040518083038186803b15801561042357600080fd5b505afa158015610437573d6000803e3d6000fd5b505050506040513d6000823e3d601f19601f820116820180604052508101906104609190610777565b604051602001610476979695949392919061098d565b604051602081830303815290604052915050919050565b6000818154811061049d57600080fd5b90600052602060002090600302016000915090508060000160009054906101000a900473ffffffffffffffffffffffffffffffffffffffff16908060010180546104e690610c12565b80601f016020809104026020016040519081016040528092919081815260200182805461051290610c12565b801561055f5780601f106105345761010080835404028352916020019161055f565b820191906000526020600020905b81548152906001019060200180831161054257829003601f168201915b5050505050908060020154905083565b60008290508073ffffffffffffffffffffffffffffffffffffffff166382290ddb836040518263ffffffff1660e01b81526004016105ad9190610abf565b600060405180830381600087803b1580156105c757600080fd5b505af11580156105db573d6000803e3d6000fd5b50505050505050565b60006105f76105f284610b06565b610ae1565b90508281526020810184848401111561061357610612610cd8565b5b61061e848285610bd0565b509392505050565b600061063961063484610b06565b610ae1565b90508281526020810184848401111561065557610654610cd8565b5b610660848285610bdf565b509392505050565b60008135905061067781610e40565b92915050565b600082601f83011261069257610691610cd3565b5b81356106a28482602086016105e4565b91505092915050565b600082601f8301126106c0576106bf610cd3565b5b81516106d0848260208601610626565b91505092915050565b6000813590506106e881610e57565b92915050565b60006020828403121561070457610703610ce2565b5b600061071284828501610668565b91505092915050565b6000806040838503121561073257610731610ce2565b5b600061074085828601610668565b925050602083013567ffffffffffffffff81111561076157610760610cdd565b5b61076d8582860161067d565b9150509250929050565b60006020828403121561078d5761078c610ce2565b5b600082015167ffffffffffffffff8111156107ab576107aa610cdd565b5b6107b7848285016106ab565b91505092915050565b6000602082840312156107d6576107d5610ce2565b5b60006107e4848285016106d9565b91505092915050565b6107f681610b9a565b82525050565b600061080782610b37565b6108118185610b42565b9350610821818560208601610bdf565b61082a81610ce7565b840191505092915050565b600061084082610b37565b61084a8185610b53565b935061085a818560208601610bdf565b80840191505092915050565b6000610873600683610b53565b915061087e82610cf8565b600682019050919050565b6000610896601183610b53565b91506108a182610d21565b601182019050919050565b60006108b9600383610b53565b91506108c482610d4a565b600382019050919050565b60006108dc600683610b53565b91506108e782610d73565b600682019050919050565b60006108ff600883610b53565b915061090a82610d9c565b600882019050919050565b6000610922600683610b53565b915061092d82610dc5565b600682019050919050565b6000610945600683610b53565b915061095082610dee565b600682019050919050565b6000610968600c83610b53565b915061097382610e17565b600c82019050919050565b61098781610b90565b82525050565b600061099882610938565b91506109a4828a610835565b91506109af826108ac565b91506109ba826108cf565b91506109c68289610835565b91506109d1826108ac565b91506109dc82610915565b91506109e88288610835565b91506109f3826108ac565b91506109fe82610866565b9150610a0a8287610835565b9150610a15826108ac565b9150610a2082610889565b9150610a2c8286610835565b9150610a37826108ac565b9150610a42826108f2565b9150610a4e8285610835565b9150610a59826108ac565b9150610a648261095b565b9150610a708284610835565b915081905098975050505050505050565b6000606082019050610a9660008301866107ed565b8181036020830152610aa881856107fc565b9050610ab7604083018461097e565b949350505050565b60006020820190508181036000830152610ad981846107fc565b905092915050565b6000610aeb610afc565b9050610af78282610c44565b919050565b6000604051905090565b600067ffffffffffffffff821115610b2157610b20610ca4565b5b610b2a82610ce7565b9050602081019050919050565b600081519050919050565b600082825260208201905092915050565b600081905092915050565b6000610b6982610b70565b9050919050565b600073ffffffffffffffffffffffffffffffffffffffff82169050919050565b6000819050919050565b6000610ba582610bac565b9050919050565b6000610bb782610bbe565b9050919050565b6000610bc982610b70565b9050919050565b82818337600083830152505050565b60005b83811015610bfd578082015181840152602081019050610be2565b83811115610c0c576000848401525b50505050565b60006002820490506001821680610c2a57607f821691505b60208210811415610c3e57610c3d610c75565b5b50919050565b610c4d82610ce7565b810181811067ffffffffffffffff82111715610c6c57610c6b610ca4565b5b80604052505050565b7f4e487b7100000000000000000000000000000000000000000000000000000000600052602260045260246000fd5b7f4e487b7100000000000000000000000000000000000000000000000000000000600052604160045260246000fd5b600080fd5b600080fd5b600080fd5b600080fd5b6000601f19601f8301169050919050565b7f436f6c6f723a0000000000000000000000000000000000000000000000000000600082015250565b7f4d6572696b656c726f6f7476616c75653a000000000000000000000000000000600082015250565b7f207c200000000000000000000000000000000000000000000000000000000000600082015250565b7f4272616e643a0000000000000000000000000000000000000000000000000000600082015250565b7f4f77656e6442793a000000000000000000000000000000000000000000000000600082015250565b7f4d6f64656c3a0000000000000000000000000000000000000000000000000000600082015250565b7f52656749443a0000000000000000000000000000000000000000000000000000600082015250565b7f4372656174656454696d653a0000000000000000000000000000000000000000600082015250565b610e4981610b5e565b8114610e5457600080fd5b50565b610e6081610b90565b8114610e6b57600080fd5b5056fea26469706673582212209ca5c7a3f41850a0fd76c27b47dcef46d4007c682ab7a2aab286ba2112a2c61364736f6c63430008070033",
					"opcodes": "PUSH1 0x80 PUSH1 0x40 MSTORE CALLVALUE DUP1 ISZERO PUSH2 0x10 JUMPI PUSH1 0x0 DUP1 REVERT JUMPDEST POP PUSH2 0xEA4 DUP1 PUSH2 0x20 PUSH1 0x0 CODECOPY PUSH1 0x0 RETURN INVALID PUSH1 0x80 PUSH1 0x40 MSTORE CALLVALUE DUP1 ISZERO PUSH2 0x10 JUMPI PUSH1 0x0 DUP1 REVERT JUMPDEST POP PUSH1 0x4 CALLDATASIZE LT PUSH2 0x41 JUMPI PUSH1 0x0 CALLDATALOAD PUSH1 0xE0 SHR DUP1 PUSH4 0x45E523B5 EQ PUSH2 0x46 JUMPI DUP1 PUSH4 0x4E889A93 EQ PUSH2 0x76 JUMPI DUP1 PUSH4 0xBF834171 EQ PUSH2 0xA8 JUMPI JUMPDEST PUSH1 0x0 DUP1 REVERT JUMPDEST PUSH2 0x60 PUSH1 0x4 DUP1 CALLDATASIZE SUB DUP2 ADD SWAP1 PUSH2 0x5B SWAP2 SWAP1 PUSH2 0x6EE JUMP JUMPDEST PUSH2 0xC4 JUMP JUMPDEST PUSH1 0x40 MLOAD PUSH2 0x6D SWAP2 SWAP1 PUSH2 0xABF JUMP JUMPDEST PUSH1 0x40 MLOAD DUP1 SWAP2 SUB SWAP1 RETURN JUMPDEST PUSH2 0x90 PUSH1 0x4 DUP1 CALLDATASIZE SUB DUP2 ADD SWAP1 PUSH2 0x8B SWAP2 SWAP1 PUSH2 0x7C0 JUMP JUMPDEST PUSH2 0x48D JUMP JUMPDEST PUSH1 0x40 MLOAD PUSH2 0x9F SWAP4 SWAP3 SWAP2 SWAP1 PUSH2 0xA81 JUMP JUMPDEST PUSH1 0x40 MLOAD DUP1 SWAP2 SUB SWAP1 RETURN JUMPDEST PUSH2 0xC2 PUSH1 0x4 DUP1 CALLDATASIZE SUB DUP2 ADD SWAP1 PUSH2 0xBD SWAP2 SWAP1 PUSH2 0x71B JUMP JUMPDEST PUSH2 0x56F JUMP JUMPDEST STOP JUMPDEST PUSH1 0x60 PUSH1 0x0 DUP3 SWAP1 POP DUP1 PUSH20 0xFFFFFFFFFFFFFFFFFFFFFFFFFFFFFFFFFFFFFFFF AND PUSH4 0xD1D5400D PUSH1 0x40 MLOAD DUP2 PUSH4 0xFFFFFFFF AND PUSH1 0xE0 SHL DUP2 MSTORE PUSH1 0x4 ADD PUSH1 0x0 PUSH1 0x40 MLOAD DUP1 DUP4 SUB DUP2 DUP7 DUP1 EXTCODESIZE ISZERO DUP1 ISZERO PUSH2 0x111 JUMPI PUSH1 0x0 DUP1 REVERT JUMPDEST POP GAS STATICCALL ISZERO DUP1 ISZERO PUSH2 0x125 JUMPI RETURNDATASIZE PUSH1 0x0 DUP1 RETURNDATACOPY RETURNDATASIZE PUSH1 0x0 REVERT JUMPDEST POP POP POP POP PUSH1 0x40 MLOAD RETURNDATASIZE PUSH1 0x0 DUP3 RETURNDATACOPY RETURNDATASIZE PUSH1 0x1F NOT PUSH1 0x1F DUP3 ADD AND DUP3 ADD DUP1 PUSH1 0x40 MSTORE POP DUP2 ADD SWAP1 PUSH2 0x14E SWAP2 SWAP1 PUSH2 0x777 JUMP JUMPDEST DUP2 PUSH20 0xFFFFFFFFFFFFFFFFFFFFFFFFFFFFFFFFFFFFFFFF AND PUSH4 0xCA3740DE PUSH1 0x40 MLOAD DUP2 PUSH4 0xFFFFFFFF AND PUSH1 0xE0 SHL DUP2 MSTORE PUSH1 0x4 ADD PUSH1 0x0 PUSH1 0x40 MLOAD DUP1 DUP4 SUB DUP2 DUP7 DUP1 EXTCODESIZE ISZERO DUP1 ISZERO PUSH2 0x194 JUMPI PUSH1 0x0 DUP1 REVERT JUMPDEST POP GAS STATICCALL ISZERO DUP1 ISZERO PUSH2 0x1A8 JUMPI RETURNDATASIZE PUSH1 0x0 DUP1 RETURNDATACOPY RETURNDATASIZE PUSH1 0x0 REVERT JUMPDEST POP POP POP POP PUSH1 0x40 MLOAD RETURNDATASIZE PUSH1 0x0 DUP3 RETURNDATACOPY RETURNDATASIZE PUSH1 0x1F NOT PUSH1 0x1F DUP3 ADD AND DUP3 ADD DUP1 PUSH1 0x40 MSTORE POP DUP2 ADD SWAP1 PUSH2 0x1D1 SWAP2 SWAP1 PUSH2 0x777 JUMP JUMPDEST DUP3 PUSH20 0xFFFFFFFFFFFFFFFFFFFFFFFFFFFFFFFFFFFFFFFF AND PUSH4 0x1BA7B1F7 PUSH1 0x40 MLOAD DUP2 PUSH4 0xFFFFFFFF AND PUSH1 0xE0 SHL DUP2 MSTORE PUSH1 0x4 ADD PUSH1 0x0 PUSH1 0x40 MLOAD DUP1 DUP4 SUB DUP2 DUP7 DUP1 EXTCODESIZE ISZERO DUP1 ISZERO PUSH2 0x217 JUMPI PUSH1 0x0 DUP1 REVERT JUMPDEST POP GAS STATICCALL ISZERO DUP1 ISZERO PUSH2 0x22B JUMPI RETURNDATASIZE PUSH1 0x0 DUP1 RETURNDATACOPY RETURNDATASIZE PUSH1 0x0 REVERT JUMPDEST POP POP POP POP PUSH1 0x40 MLOAD RETURNDATASIZE PUSH1 0x0 DUP3 RETURNDATACOPY RETURNDATASIZE PUSH1 0x1F NOT PUSH1 0x1F DUP3 ADD AND DUP3 ADD DUP1 PUSH1 0x40 MSTORE POP DUP2 ADD SWAP1 PUSH2 0x254 SWAP2 SWAP1 PUSH2 0x777 JUMP JUMPDEST DUP4 PUSH20 0xFFFFFFFFFFFFFFFFFFFFFFFFFFFFFFFFFFFFFFFF AND PUSH4 0x22E5BA7C PUSH1 0x40 MLOAD DUP2 PUSH4 0xFFFFFFFF AND PUSH1 0xE0 SHL DUP2 MSTORE PUSH1 0x4 ADD PUSH1 0x0 PUSH1 0x40 MLOAD DUP1 DUP4 SUB DUP2 DUP7 DUP1 EXTCODESIZE ISZERO DUP1 ISZERO PUSH2 0x29A JUMPI PUSH1 0x0 DUP1 REVERT JUMPDEST POP GAS STATICCALL ISZERO DUP1 ISZERO PUSH2 0x2AE JUMPI RETURNDATASIZE PUSH1 0x0 DUP1 RETURNDATACOPY RETURNDATASIZE PUSH1 0x0 REVERT JUMPDEST POP POP POP POP PUSH1 0x40 MLOAD RETURNDATASIZE PUSH1 0x0 DUP3 RETURNDATACOPY RETURNDATASIZE PUSH1 0x1F NOT PUSH1 0x1F DUP3 ADD AND DUP3 ADD DUP1 PUSH1 0x40 MSTORE POP DUP2 ADD SWAP1 PUSH2 0x2D7 SWAP2 SWAP1 PUSH2 0x777 JUMP JUMPDEST DUP5 PUSH20 0xFFFFFFFFFFFFFFFFFFFFFFFFFFFFFFFFFFFFFFFF AND PUSH4 0xE12D7DB4 PUSH1 0x40 MLOAD DUP2 PUSH4 0xFFFFFFFF AND PUSH1 0xE0 SHL DUP2 MSTORE PUSH1 0x4 ADD PUSH1 0x0 PUSH1 0x40 MLOAD DUP1 DUP4 SUB DUP2 DUP7 DUP1 EXTCODESIZE ISZERO DUP1 ISZERO PUSH2 0x31D JUMPI PUSH1 0x0 DUP1 REVERT JUMPDEST POP GAS STATICCALL ISZERO DUP1 ISZERO PUSH2 0x331 JUMPI RETURNDATASIZE PUSH1 0x0 DUP1 RETURNDATACOPY RETURNDATASIZE PUSH1 0x0 REVERT JUMPDEST POP POP POP POP PUSH1 0x40 MLOAD RETURNDATASIZE PUSH1 0x0 DUP3 RETURNDATACOPY RETURNDATASIZE PUSH1 0x1F NOT PUSH1 0x1F DUP3 ADD AND DUP3 ADD DUP1 PUSH1 0x40 MSTORE POP DUP2 ADD SWAP1 PUSH2 0x35A SWAP2 SWAP1 PUSH2 0x777 JUMP JUMPDEST DUP6 PUSH20 0xFFFFFFFFFFFFFFFFFFFFFFFFFFFFFFFFFFFFFFFF AND PUSH4 0x50CA0907 PUSH1 0x40 MLOAD DUP2 PUSH4 0xFFFFFFFF AND PUSH1 0xE0 SHL DUP2 MSTORE PUSH1 0x4 ADD PUSH1 0x0 PUSH1 0x40 MLOAD DUP1 DUP4 SUB DUP2 DUP7 DUP1 EXTCODESIZE ISZERO DUP1 ISZERO PUSH2 0x3A0 JUMPI PUSH1 0x0 DUP1 REVERT JUMPDEST POP GAS STATICCALL ISZERO DUP1 ISZERO PUSH2 0x3B4 JUMPI RETURNDATASIZE PUSH1 0x0 DUP1 RETURNDATACOPY RETURNDATASIZE PUSH1 0x0 REVERT JUMPDEST POP POP POP POP PUSH1 0x40 MLOAD RETURNDATASIZE PUSH1 0x0 DUP3 RETURNDATACOPY RETURNDATASIZE PUSH1 0x1F NOT PUSH1 0x1F DUP3 ADD AND DUP3 ADD DUP1 PUSH1 0x40 MSTORE POP DUP2 ADD SWAP1 PUSH2 0x3DD SWAP2 SWAP1 PUSH2 0x777 JUMP JUMPDEST DUP7 PUSH20 0xFFFFFFFFFFFFFFFFFFFFFFFFFFFFFFFFFFFFFFFF AND PUSH4 0xCED7142C PUSH1 0x40 MLOAD DUP2 PUSH4 0xFFFFFFFF AND PUSH1 0xE0 SHL DUP2 MSTORE PUSH1 0x4 ADD PUSH1 0x0 PUSH1 0x40 MLOAD DUP1 DUP4 SUB DUP2 DUP7 DUP1 EXTCODESIZE ISZERO DUP1 ISZERO PUSH2 0x423 JUMPI PUSH1 0x0 DUP1 REVERT JUMPDEST POP GAS STATICCALL ISZERO DUP1 ISZERO PUSH2 0x437 JUMPI RETURNDATASIZE PUSH1 0x0 DUP1 RETURNDATACOPY RETURNDATASIZE PUSH1 0x0 REVERT JUMPDEST POP POP POP POP PUSH1 0x40 MLOAD RETURNDATASIZE PUSH1 0x0 DUP3 RETURNDATACOPY RETURNDATASIZE PUSH1 0x1F NOT PUSH1 0x1F DUP3 ADD AND DUP3 ADD DUP1 PUSH1 0x40 MSTORE POP DUP2 ADD SWAP1 PUSH2 0x460 SWAP2 SWAP1 PUSH2 0x777 JUMP JUMPDEST PUSH1 0x40 MLOAD PUSH1 0x20 ADD PUSH2 0x476 SWAP8 SWAP7 SWAP6 SWAP5 SWAP4 SWAP3 SWAP2 SWAP1 PUSH2 0x98D JUMP JUMPDEST PUSH1 0x40 MLOAD PUSH1 0x20 DUP2 DUP4 SUB SUB DUP2 MSTORE SWAP1 PUSH1 0x40 MSTORE SWAP2 POP POP SWAP2 SWAP1 POP JUMP JUMPDEST PUSH1 0x0 DUP2 DUP2 SLOAD DUP2 LT PUSH2 0x49D JUMPI PUSH1 0x0 DUP1 REVERT JUMPDEST SWAP1 PUSH1 0x0 MSTORE PUSH1 0x20 PUSH1 0x0 KECCAK256 SWAP1 PUSH1 0x3 MUL ADD PUSH1 0x0 SWAP2 POP SWAP1 POP DUP1 PUSH1 0x0 ADD PUSH1 0x0 SWAP1 SLOAD SWAP1 PUSH2 0x100 EXP SWAP1 DIV PUSH20 0xFFFFFFFFFFFFFFFFFFFFFFFFFFFFFFFFFFFFFFFF AND SWAP1 DUP1 PUSH1 0x1 ADD DUP1 SLOAD PUSH2 0x4E6 SWAP1 PUSH2 0xC12 JUMP JUMPDEST DUP1 PUSH1 0x1F ADD PUSH1 0x20 DUP1 SWAP2 DIV MUL PUSH1 0x20 ADD PUSH1 0x40 MLOAD SWAP1 DUP2 ADD PUSH1 0x40 MSTORE DUP1 SWAP3 SWAP2 SWAP1 DUP2 DUP2 MSTORE PUSH1 0x20 ADD DUP3 DUP1 SLOAD PUSH2 0x512 SWAP1 PUSH2 0xC12 JUMP JUMPDEST DUP1 ISZERO PUSH2 0x55F JUMPI DUP1 PUSH1 0x1F LT PUSH2 0x534 JUMPI PUSH2 0x100 DUP1 DUP4 SLOAD DIV MUL DUP4 MSTORE SWAP2 PUSH1 0x20 ADD SWAP2 PUSH2 0x55F JUMP JUMPDEST DUP3 ADD SWAP2 SWAP1 PUSH1 0x0 MSTORE PUSH1 0x20 PUSH1 0x0 KECCAK256 SWAP1 JUMPDEST DUP2 SLOAD DUP2 MSTORE SWAP1 PUSH1 0x1 ADD SWAP1 PUSH1 0x20 ADD DUP1 DUP4 GT PUSH2 0x542 JUMPI DUP3 SWAP1 SUB PUSH1 0x1F AND DUP3 ADD SWAP2 JUMPDEST POP POP POP POP POP SWAP1 DUP1 PUSH1 0x2 ADD SLOAD SWAP1 POP DUP4 JUMP JUMPDEST PUSH1 0x0 DUP3 SWAP1 POP DUP1 PUSH20 0xFFFFFFFFFFFFFFFFFFFFFFFFFFFFFFFFFFFFFFFF AND PUSH4 0x82290DDB DUP4 PUSH1 0x40 MLOAD DUP3 PUSH4 0xFFFFFFFF AND PUSH1 0xE0 SHL DUP2 MSTORE PUSH1 0x4 ADD PUSH2 0x5AD SWAP2 SWAP1 PUSH2 0xABF JUMP JUMPDEST PUSH1 0x0 PUSH1 0x40 MLOAD DUP1 DUP4 SUB DUP2 PUSH1 0x0 DUP8 DUP1 EXTCODESIZE ISZERO DUP1 ISZERO PUSH2 0x5C7 JUMPI PUSH1 0x0 DUP1 REVERT JUMPDEST POP GAS CALL ISZERO DUP1 ISZERO PUSH2 0x5DB JUMPI RETURNDATASIZE PUSH1 0x0 DUP1 RETURNDATACOPY RETURNDATASIZE PUSH1 0x0 REVERT JUMPDEST POP POP POP POP POP POP POP JUMP JUMPDEST PUSH1 0x0 PUSH2 0x5F7 PUSH2 0x5F2 DUP5 PUSH2 0xB06 JUMP JUMPDEST PUSH2 0xAE1 JUMP JUMPDEST SWAP1 POP DUP3 DUP2 MSTORE PUSH1 0x20 DUP2 ADD DUP5 DUP5 DUP5 ADD GT ISZERO PUSH2 0x613 JUMPI PUSH2 0x612 PUSH2 0xCD8 JUMP JUMPDEST JUMPDEST PUSH2 0x61E DUP5 DUP3 DUP6 PUSH2 0xBD0 JUMP JUMPDEST POP SWAP4 SWAP3 POP POP POP JUMP JUMPDEST PUSH1 0x0 PUSH2 0x639 PUSH2 0x634 DUP5 PUSH2 0xB06 JUMP JUMPDEST PUSH2 0xAE1 JUMP JUMPDEST SWAP1 POP DUP3 DUP2 MSTORE PUSH1 0x20 DUP2 ADD DUP5 DUP5 DUP5 ADD GT ISZERO PUSH2 0x655 JUMPI PUSH2 0x654 PUSH2 0xCD8 JUMP JUMPDEST JUMPDEST PUSH2 0x660 DUP5 DUP3 DUP6 PUSH2 0xBDF JUMP JUMPDEST POP SWAP4 SWAP3 POP POP POP JUMP JUMPDEST PUSH1 0x0 DUP2 CALLDATALOAD SWAP1 POP PUSH2 0x677 DUP2 PUSH2 0xE40 JUMP JUMPDEST SWAP3 SWAP2 POP POP JUMP JUMPDEST PUSH1 0x0 DUP3 PUSH1 0x1F DUP4 ADD SLT PUSH2 0x692 JUMPI PUSH2 0x691 PUSH2 0xCD3 JUMP JUMPDEST JUMPDEST DUP2 CALLDATALOAD PUSH2 0x6A2 DUP5 DUP3 PUSH1 0x20 DUP7 ADD PUSH2 0x5E4 JUMP JUMPDEST SWAP2 POP POP SWAP3 SWAP2 POP POP JUMP JUMPDEST PUSH1 0x0 DUP3 PUSH1 0x1F DUP4 ADD SLT PUSH2 0x6C0 JUMPI PUSH2 0x6BF PUSH2 0xCD3 JUMP JUMPDEST JUMPDEST DUP2 MLOAD PUSH2 0x6D0 DUP5 DUP3 PUSH1 0x20 DUP7 ADD PUSH2 0x626 JUMP JUMPDEST SWAP2 POP POP SWAP3 SWAP2 POP POP JUMP JUMPDEST PUSH1 0x0 DUP2 CALLDATALOAD SWAP1 POP PUSH2 0x6E8 DUP2 PUSH2 0xE57 JUMP JUMPDEST SWAP3 SWAP2 POP POP JUMP JUMPDEST PUSH1 0x0 PUSH1 0x20 DUP3 DUP5 SUB SLT ISZERO PUSH2 0x704 JUMPI PUSH2 0x703 PUSH2 0xCE2 JUMP JUMPDEST JUMPDEST PUSH1 0x0 PUSH2 0x712 DUP5 DUP3 DUP6 ADD PUSH2 0x668 JUMP JUMPDEST SWAP2 POP POP SWAP3 SWAP2 POP POP JUMP JUMPDEST PUSH1 0x0 DUP1 PUSH1 0x40 DUP4 DUP6 SUB SLT ISZERO PUSH2 0x732 JUMPI PUSH2 0x731 PUSH2 0xCE2 JUMP JUMPDEST JUMPDEST PUSH1 0x0 PUSH2 0x740 DUP6 DUP3 DUP7 ADD PUSH2 0x668 JUMP JUMPDEST SWAP3 POP POP PUSH1 0x20 DUP4 ADD CALLDATALOAD PUSH8 0xFFFFFFFFFFFFFFFF DUP2 GT ISZERO PUSH2 0x761 JUMPI PUSH2 0x760 PUSH2 0xCDD JUMP JUMPDEST JUMPDEST PUSH2 0x76D DUP6 DUP3 DUP7 ADD PUSH2 0x67D JUMP JUMPDEST SWAP2 POP POP SWAP3 POP SWAP3 SWAP1 POP JUMP JUMPDEST PUSH1 0x0 PUSH1 0x20 DUP3 DUP5 SUB SLT ISZERO PUSH2 0x78D JUMPI PUSH2 0x78C PUSH2 0xCE2 JUMP JUMPDEST JUMPDEST PUSH1 0x0 DUP3 ADD MLOAD PUSH8 0xFFFFFFFFFFFFFFFF DUP2 GT ISZERO PUSH2 0x7AB JUMPI PUSH2 0x7AA PUSH2 0xCDD JUMP JUMPDEST JUMPDEST PUSH2 0x7B7 DUP5 DUP3 DUP6 ADD PUSH2 0x6AB JUMP JUMPDEST SWAP2 POP POP SWAP3 SWAP2 POP POP JUMP JUMPDEST PUSH1 0x0 PUSH1 0x20 DUP3 DUP5 SUB SLT ISZERO PUSH2 0x7D6 JUMPI PUSH2 0x7D5 PUSH2 0xCE2 JUMP JUMPDEST JUMPDEST PUSH1 0x0 PUSH2 0x7E4 DUP5 DUP3 DUP6 ADD PUSH2 0x6D9 JUMP JUMPDEST SWAP2 POP POP SWAP3 SWAP2 POP POP JUMP JUMPDEST PUSH2 0x7F6 DUP2 PUSH2 0xB9A JUMP JUMPDEST DUP3 MSTORE POP POP JUMP JUMPDEST PUSH1 0x0 PUSH2 0x807 DUP3 PUSH2 0xB37 JUMP JUMPDEST PUSH2 0x811 DUP2 DUP6 PUSH2 0xB42 JUMP JUMPDEST SWAP4 POP PUSH2 0x821 DUP2 DUP6 PUSH1 0x20 DUP7 ADD PUSH2 0xBDF JUMP JUMPDEST PUSH2 0x82A DUP2 PUSH2 0xCE7 JUMP JUMPDEST DUP5 ADD SWAP2 POP POP SWAP3 SWAP2 POP POP JUMP JUMPDEST PUSH1 0x0 PUSH2 0x840 DUP3 PUSH2 0xB37 JUMP JUMPDEST PUSH2 0x84A DUP2 DUP6 PUSH2 0xB53 JUMP JUMPDEST SWAP4 POP PUSH2 0x85A DUP2 DUP6 PUSH1 0x20 DUP7 ADD PUSH2 0xBDF JUMP JUMPDEST DUP1 DUP5 ADD SWAP2 POP POP SWAP3 SWAP2 POP POP JUMP JUMPDEST PUSH1 0x0 PUSH2 0x873 PUSH1 0x6 DUP4 PUSH2 0xB53 JUMP JUMPDEST SWAP2 POP PUSH2 0x87E DUP3 PUSH2 0xCF8 JUMP JUMPDEST PUSH1 0x6 DUP3 ADD SWAP1 POP SWAP2 SWAP1 POP JUMP JUMPDEST PUSH1 0x0 PUSH2 0x896 PUSH1 0x11 DUP4 PUSH2 0xB53 JUMP JUMPDEST SWAP2 POP PUSH2 0x8A1 DUP3 PUSH2 0xD21 JUMP JUMPDEST PUSH1 0x11 DUP3 ADD SWAP1 POP SWAP2 SWAP1 POP JUMP JUMPDEST PUSH1 0x0 PUSH2 0x8B9 PUSH1 0x3 DUP4 PUSH2 0xB53 JUMP JUMPDEST SWAP2 POP PUSH2 0x8C4 DUP3 PUSH2 0xD4A JUMP JUMPDEST PUSH1 0x3 DUP3 ADD SWAP1 POP SWAP2 SWAP1 POP JUMP JUMPDEST PUSH1 0x0 PUSH2 0x8DC PUSH1 0x6 DUP4 PUSH2 0xB53 JUMP JUMPDEST SWAP2 POP PUSH2 0x8E7 DUP3 PUSH2 0xD73 JUMP JUMPDEST PUSH1 0x6 DUP3 ADD SWAP1 POP SWAP2 SWAP1 POP JUMP JUMPDEST PUSH1 0x0 PUSH2 0x8FF PUSH1 0x8 DUP4 PUSH2 0xB53 JUMP JUMPDEST SWAP2 POP PUSH2 0x90A DUP3 PUSH2 0xD9C JUMP JUMPDEST PUSH1 0x8 DUP3 ADD SWAP1 POP SWAP2 SWAP1 POP JUMP JUMPDEST PUSH1 0x0 PUSH2 0x922 PUSH1 0x6 DUP4 PUSH2 0xB53 JUMP JUMPDEST SWAP2 POP PUSH2 0x92D DUP3 PUSH2 0xDC5 JUMP JUMPDEST PUSH1 0x6 DUP3 ADD SWAP1 POP SWAP2 SWAP1 POP JUMP JUMPDEST PUSH1 0x0 PUSH2 0x945 PUSH1 0x6 DUP4 PUSH2 0xB53 JUMP JUMPDEST SWAP2 POP PUSH2 0x950 DUP3 PUSH2 0xDEE JUMP JUMPDEST PUSH1 0x6 DUP3 ADD SWAP1 POP SWAP2 SWAP1 POP JUMP JUMPDEST PUSH1 0x0 PUSH2 0x968 PUSH1 0xC DUP4 PUSH2 0xB53 JUMP JUMPDEST SWAP2 POP PUSH2 0x973 DUP3 PUSH2 0xE17 JUMP JUMPDEST PUSH1 0xC DUP3 ADD SWAP1 POP SWAP2 SWAP1 POP JUMP JUMPDEST PUSH2 0x987 DUP2 PUSH2 0xB90 JUMP JUMPDEST DUP3 MSTORE POP POP JUMP JUMPDEST PUSH1 0x0 PUSH2 0x998 DUP3 PUSH2 0x938 JUMP JUMPDEST SWAP2 POP PUSH2 0x9A4 DUP3 DUP11 PUSH2 0x835 JUMP JUMPDEST SWAP2 POP PUSH2 0x9AF DUP3 PUSH2 0x8AC JUMP JUMPDEST SWAP2 POP PUSH2 0x9BA DUP3 PUSH2 0x8CF JUMP JUMPDEST SWAP2 POP PUSH2 0x9C6 DUP3 DUP10 PUSH2 0x835 JUMP JUMPDEST SWAP2 POP PUSH2 0x9D1 DUP3 PUSH2 0x8AC JUMP JUMPDEST SWAP2 POP PUSH2 0x9DC DUP3 PUSH2 0x915 JUMP JUMPDEST SWAP2 POP PUSH2 0x9E8 DUP3 DUP9 PUSH2 0x835 JUMP JUMPDEST SWAP2 POP PUSH2 0x9F3 DUP3 PUSH2 0x8AC JUMP JUMPDEST SWAP2 POP PUSH2 0x9FE DUP3 PUSH2 0x866 JUMP JUMPDEST SWAP2 POP PUSH2 0xA0A DUP3 DUP8 PUSH2 0x835 JUMP JUMPDEST SWAP2 POP PUSH2 0xA15 DUP3 PUSH2 0x8AC JUMP JUMPDEST SWAP2 POP PUSH2 0xA20 DUP3 PUSH2 0x889 JUMP JUMPDEST SWAP2 POP PUSH2 0xA2C DUP3 DUP7 PUSH2 0x835 JUMP JUMPDEST SWAP2 POP PUSH2 0xA37 DUP3 PUSH2 0x8AC JUMP JUMPDEST SWAP2 POP PUSH2 0xA42 DUP3 PUSH2 0x8F2 JUMP JUMPDEST SWAP2 POP PUSH2 0xA4E DUP3 DUP6 PUSH2 0x835 JUMP JUMPDEST SWAP2 POP PUSH2 0xA59 DUP3 PUSH2 0x8AC JUMP JUMPDEST SWAP2 POP PUSH2 0xA64 DUP3 PUSH2 0x95B JUMP JUMPDEST SWAP2 POP PUSH2 0xA70 DUP3 DUP5 PUSH2 0x835 JUMP JUMPDEST SWAP2 POP DUP2 SWAP1 POP SWAP9 SWAP8 POP POP POP POP POP POP POP POP JUMP JUMPDEST PUSH1 0x0 PUSH1 0x60 DUP3 ADD SWAP1 POP PUSH2 0xA96 PUSH1 0x0 DUP4 ADD DUP7 PUSH2 0x7ED JUMP JUMPDEST DUP2 DUP2 SUB PUSH1 0x20 DUP4 ADD MSTORE PUSH2 0xAA8 DUP2 DUP6 PUSH2 0x7FC JUMP JUMPDEST SWAP1 POP PUSH2 0xAB7 PUSH1 0x40 DUP4 ADD DUP5 PUSH2 0x97E JUMP JUMPDEST SWAP5 SWAP4 POP POP POP POP JUMP JUMPDEST PUSH1 0x0 PUSH1 0x20 DUP3 ADD SWAP1 POP DUP2 DUP2 SUB PUSH1 0x0 DUP4 ADD MSTORE PUSH2 0xAD9 DUP2 DUP5 PUSH2 0x7FC JUMP JUMPDEST SWAP1 POP SWAP3 SWAP2 POP POP JUMP JUMPDEST PUSH1 0x0 PUSH2 0xAEB PUSH2 0xAFC JUMP JUMPDEST SWAP1 POP PUSH2 0xAF7 DUP3 DUP3 PUSH2 0xC44 JUMP JUMPDEST SWAP2 SWAP1 POP JUMP JUMPDEST PUSH1 0x0 PUSH1 0x40 MLOAD SWAP1 POP SWAP1 JUMP JUMPDEST PUSH1 0x0 PUSH8 0xFFFFFFFFFFFFFFFF DUP3 GT ISZERO PUSH2 0xB21 JUMPI PUSH2 0xB20 PUSH2 0xCA4 JUMP JUMPDEST JUMPDEST PUSH2 0xB2A DUP3 PUSH2 0xCE7 JUMP JUMPDEST SWAP1 POP PUSH1 0x20 DUP2 ADD SWAP1 POP SWAP2 SWAP1 POP JUMP JUMPDEST PUSH1 0x0 DUP2 MLOAD SWAP1 POP SWAP2 SWAP1 POP JUMP JUMPDEST PUSH1 0x0 DUP3 DUP3 MSTORE PUSH1 0x20 DUP3 ADD SWAP1 POP SWAP3 SWAP2 POP POP JUMP JUMPDEST PUSH1 0x0 DUP2 SWAP1 POP SWAP3 SWAP2 POP POP JUMP JUMPDEST PUSH1 0x0 PUSH2 0xB69 DUP3 PUSH2 0xB70 JUMP JUMPDEST SWAP1 POP SWAP2 SWAP1 POP JUMP JUMPDEST PUSH1 0x0 PUSH20 0xFFFFFFFFFFFFFFFFFFFFFFFFFFFFFFFFFFFFFFFF DUP3 AND SWAP1 POP SWAP2 SWAP1 POP JUMP JUMPDEST PUSH1 0x0 DUP2 SWAP1 POP SWAP2 SWAP1 POP JUMP JUMPDEST PUSH1 0x0 PUSH2 0xBA5 DUP3 PUSH2 0xBAC JUMP JUMPDEST SWAP1 POP SWAP2 SWAP1 POP JUMP JUMPDEST PUSH1 0x0 PUSH2 0xBB7 DUP3 PUSH2 0xBBE JUMP JUMPDEST SWAP1 POP SWAP2 SWAP1 POP JUMP JUMPDEST PUSH1 0x0 PUSH2 0xBC9 DUP3 PUSH2 0xB70 JUMP JUMPDEST SWAP1 POP SWAP2 SWAP1 POP JUMP JUMPDEST DUP3 DUP2 DUP4 CALLDATACOPY PUSH1 0x0 DUP4 DUP4 ADD MSTORE POP POP POP JUMP JUMPDEST PUSH1 0x0 JUMPDEST DUP4 DUP2 LT ISZERO PUSH2 0xBFD JUMPI DUP1 DUP3 ADD MLOAD DUP2 DUP5 ADD MSTORE PUSH1 0x20 DUP2 ADD SWAP1 POP PUSH2 0xBE2 JUMP JUMPDEST DUP4 DUP2 GT ISZERO PUSH2 0xC0C JUMPI PUSH1 0x0 DUP5 DUP5 ADD MSTORE JUMPDEST POP POP POP POP JUMP JUMPDEST PUSH1 0x0 PUSH1 0x2 DUP3 DIV SWAP1 POP PUSH1 0x1 DUP3 AND DUP1 PUSH2 0xC2A JUMPI PUSH1 0x7F DUP3 AND SWAP2 POP JUMPDEST PUSH1 0x20 DUP3 LT DUP2 EQ ISZERO PUSH2 0xC3E JUMPI PUSH2 0xC3D PUSH2 0xC75 JUMP JUMPDEST JUMPDEST POP SWAP2 SWAP1 POP JUMP JUMPDEST PUSH2 0xC4D DUP3 PUSH2 0xCE7 JUMP JUMPDEST DUP2 ADD DUP2 DUP2 LT PUSH8 0xFFFFFFFFFFFFFFFF DUP3 GT OR ISZERO PUSH2 0xC6C JUMPI PUSH2 0xC6B PUSH2 0xCA4 JUMP JUMPDEST JUMPDEST DUP1 PUSH1 0x40 MSTORE POP POP POP JUMP JUMPDEST PUSH32 0x4E487B7100000000000000000000000000000000000000000000000000000000 PUSH1 0x0 MSTORE PUSH1 0x22 PUSH1 0x4 MSTORE PUSH1 0x24 PUSH1 0x0 REVERT JUMPDEST PUSH32 0x4E487B7100000000000000000000000000000000000000000000000000000000 PUSH1 0x0 MSTORE PUSH1 0x41 PUSH1 0x4 MSTORE PUSH1 0x24 PUSH1 0x0 REVERT JUMPDEST PUSH1 0x0 DUP1 REVERT JUMPDEST PUSH1 0x0 DUP1 REVERT JUMPDEST PUSH1 0x0 DUP1 REVERT JUMPDEST PUSH1 0x0 DUP1 REVERT JUMPDEST PUSH1 0x0 PUSH1 0x1F NOT PUSH1 0x1F DUP4 ADD AND SWAP1 POP SWAP2 SWAP1 POP JUMP JUMPDEST PUSH32 0x436F6C6F723A0000000000000000000000000000000000000000000000000000 PUSH1 0x0 DUP3 ADD MSTORE POP JUMP JUMPDEST PUSH32 0x4D6572696B656C726F6F7476616C75653A000000000000000000000000000000 PUSH1 0x0 DUP3 ADD MSTORE POP JUMP JUMPDEST PUSH32 0x207C200000000000000000000000000000000000000000000000000000000000 PUSH1 0x0 DUP3 ADD MSTORE POP JUMP JUMPDEST PUSH32 0x4272616E643A0000000000000000000000000000000000000000000000000000 PUSH1 0x0 DUP3 ADD MSTORE POP JUMP JUMPDEST PUSH32 0x4F77656E6442793A000000000000000000000000000000000000000000000000 PUSH1 0x0 DUP3 ADD MSTORE POP JUMP JUMPDEST PUSH32 0x4D6F64656C3A0000000000000000000000000000000000000000000000000000 PUSH1 0x0 DUP3 ADD MSTORE POP JUMP JUMPDEST PUSH32 0x52656749443A0000000000000000000000000000000000000000000000000000 PUSH1 0x0 DUP3 ADD MSTORE POP JUMP JUMPDEST PUSH32 0x4372656174656454696D653A0000000000000000000000000000000000000000 PUSH1 0x0 DUP3 ADD MSTORE POP JUMP JUMPDEST PUSH2 0xE49 DUP2 PUSH2 0xB5E JUMP JUMPDEST DUP2 EQ PUSH2 0xE54 JUMPI PUSH1 0x0 DUP1 REVERT JUMPDEST POP JUMP JUMPDEST PUSH2 0xE60 DUP2 PUSH2 0xB90 JUMP JUMPDEST DUP2 EQ PUSH2 0xE6B JUMPI PUSH1 0x0 DUP1 REVERT JUMPDEST POP JUMP INVALID LOG2 PUSH5 0x6970667358 0x22 SLT KECCAK256 SWAP13 0xA5 0xC7 LOG3 DELEGATECALL XOR POP LOG0 REVERT PUSH23 0xC27B47DCEF46D4007C682AB7A2AAB286BA2112A2C61364 PUSH20 0x6F6C634300080700330000000000000000000000 "
				},
				"gasEstimates": {
					"creation": {
						"codeDepositCost": "749600",
						"executionCost": "786",
						"totalCost": "750386"
					},
					"external": {
						"VehicleRegistration(address,string)": "infinite",
						"VehicleRegistrationList(uint256)": "infinite",
						"getVehicleDetails(address)": "infinite"
					}
				},
				"methodIdentifiers": {
					"VehicleRegistration(address,string)": "bf834171",
					"VehicleRegistrationList(uint256)": "4e889a93",
					"getVehicleDetails(address)": "45e523b5"
				}
			},
			"storageLayout": {
				"storage": [
					{
						"astId": 1054,
						"contract": "contracts/_Registration.sol:Registration",
						"label": "VehicleRegistrationList",
						"offset": 0,
						"slot": "0",
						"type": "t_array(t_struct(VehicleRegistrationinfo)1050_storage)dyn_storage"
					}
				],
				"types": {
					"t_array(t_struct(VehicleRegistrationinfo)1050_storage)dyn_storage": {
						"base": "t_struct(VehicleRegistrationinfo)1050_storage",
						"encoding": "dynamic_array",
						"label": "struct Registration.VehicleRegistrationinfo[]",
						"numberOfBytes": "32"
					},
					"t_contract(Vehicle)1289": {
						"encoding": "inplace",
						"label": "contract Vehicle",
						"numberOfBytes": "20"
					},
					"t_string_storage": {
						"encoding": "bytes",
						"label": "string",
						"numberOfBytes": "32"
					},
					"t_struct(VehicleRegistrationinfo)1050_storage": {
						"encoding": "inplace",
						"label": "struct Registration.VehicleRegistrationinfo",
						"members": [
							{
								"astId": 1045,
								"contract": "contracts/_Registration.sol:Registration",
								"label": "vehicle",
								"offset": 0,
								"slot": "0",
								"type": "t_contract(Vehicle)1289"
							},
							{
								"astId": 1047,
								"contract": "contracts/_Registration.sol:Registration",
								"label": "ownedBy",
								"offset": 0,
								"slot": "1",
								"type": "t_string_storage"
							},
							{
								"astId": 1049,
								"contract": "contracts/_Registration.sol:Registration",
								"label": "RegistedTime",
								"offset": 0,
								"slot": "2",
								"type": "t_uint256"
							}
						],
						"numberOfBytes": "96"
					},
					"t_uint256": {
						"encoding": "inplace",
						"label": "uint256",
						"numberOfBytes": "32"
					}
				}
			},
			"userdoc": {
				"kind": "user",
				"methods": {},
				"version": 1
			}
		}
	}
}