{
	"contracts/Vehicleinfo.sol": {
		"Vehicleinfo": {
			"abi": [
				{
					"inputs": [
						{
							"internalType": "string",
							"name": "RegisterId",
							"type": "string"
						},
						{
							"internalType": "string",
							"name": "CarBrand",
							"type": "string"
						},
						{
							"internalType": "string",
							"name": "CarModel",
							"type": "string"
						},
						{
							"internalType": "string",
							"name": "CarColor",
							"type": "string"
						},
						{
							"internalType": "string",
							"name": "Merikelrootvalue",
							"type": "string"
						}
					],
					"name": "AddVehicle",
					"outputs": [],
					"stateMutability": "nonpayable",
					"type": "function"
				}
			],
			"devdoc": {
				"kind": "dev",
				"methods": {},
				"version": 1
			},
			"evm": {
				"assembly": "    /* \"contracts/Vehicleinfo.sol\":74:655  contract Vehicleinfo{\r... */\n  mstore(0x40, 0x80)\n  callvalue\n  dup1\n  iszero\n  tag_1\n  jumpi\n  0x00\n  dup1\n  revert\ntag_1:\n  pop\n  dataSize(sub_0)\n  dup1\n  dataOffset(sub_0)\n  0x00\n  codecopy\n  0x00\n  return\nstop\n\nsub_0: assembly {\n        /* \"contracts/Vehicleinfo.sol\":74:655  contract Vehicleinfo{\r... */\n      mstore(0x40, 0x80)\n      callvalue\n      dup1\n      iszero\n      tag_1\n      jumpi\n      0x00\n      dup1\n      revert\n    tag_1:\n      pop\n      jumpi(tag_2, lt(calldatasize, 0x04))\n      shr(0xe0, calldataload(0x00))\n      dup1\n      0xd43cf416\n      eq\n      tag_3\n      jumpi\n    tag_2:\n      0x00\n      dup1\n      revert\n        /* \"contracts/Vehicleinfo.sol\":299:650  function AddVehicle (\r... */\n    tag_3:\n      tag_4\n      0x04\n      dup1\n      calldatasize\n      sub\n      dup2\n      add\n      swap1\n      tag_5\n      swap2\n      swap1\n      tag_6\n      jump\t// in\n    tag_5:\n      tag_7\n      jump\t// in\n    tag_4:\n      stop\n    tag_7:\n        /* \"contracts/Vehicleinfo.sol\":547:642  Vehicle(\r... */\n      mload(0x40)\n      dup1\n      0xa0\n      add\n      0x40\n      mstore\n      dup1\n        /* \"contracts/Vehicleinfo.sol\":573:583  RegisterId */\n      dup7\n        /* \"contracts/Vehicleinfo.sol\":547:642  Vehicle(\r... */\n      dup2\n      mstore\n      0x20\n      add\n        /* \"contracts/Vehicleinfo.sol\":584:592  CarBrand */\n      dup6\n        /* \"contracts/Vehicleinfo.sol\":547:642  Vehicle(\r... */\n      dup2\n      mstore\n      0x20\n      add\n        /* \"contracts/Vehicleinfo.sol\":593:601  CarModel */\n      dup5\n        /* \"contracts/Vehicleinfo.sol\":547:642  Vehicle(\r... */\n      dup2\n      mstore\n      0x20\n      add\n        /* \"contracts/Vehicleinfo.sol\":602:610  CarColor */\n      dup4\n        /* \"contracts/Vehicleinfo.sol\":547:642  Vehicle(\r... */\n      dup2\n      mstore\n      0x20\n      add\n        /* \"contracts/Vehicleinfo.sol\":611:627  Merikelrootvalue */\n      dup3\n        /* \"contracts/Vehicleinfo.sol\":547:642  Vehicle(\r... */\n      dup2\n      mstore\n      pop\n      pop\n        /* \"contracts/Vehicleinfo.sol\":299:650  function AddVehicle (\r... */\n      pop\n      pop\n      pop\n      pop\n      pop\n      jump\t// out\n        /* \"#utility.yul\":7:419   */\n    tag_10:\n        /* \"#utility.yul\":85:90   */\n      0x00\n        /* \"#utility.yul\":110:176   */\n      tag_12\n        /* \"#utility.yul\":126:175   */\n      tag_13\n        /* \"#utility.yul\":168:174   */\n      dup5\n        /* \"#utility.yul\":126:175   */\n      tag_14\n      jump\t// in\n    tag_13:\n        /* \"#utility.yul\":110:176   */\n      tag_15\n      jump\t// in\n    tag_12:\n        /* \"#utility.yul\":101:176   */\n      swap1\n      pop\n        /* \"#utility.yul\":199:205   */\n      dup3\n        /* \"#utility.yul\":192:197   */\n      dup2\n        /* \"#utility.yul\":185:206   */\n      mstore\n        /* \"#utility.yul\":237:241   */\n      0x20\n        /* \"#utility.yul\":230:235   */\n      dup2\n        /* \"#utility.yul\":226:242   */\n      add\n        /* \"#utility.yul\":275:278   */\n      dup5\n        /* \"#utility.yul\":266:272   */\n      dup5\n        /* \"#utility.yul\":261:264   */\n      dup5\n        /* \"#utility.yul\":257:273   */\n      add\n        /* \"#utility.yul\":254:279   */\n      gt\n        /* \"#utility.yul\":251:363   */\n      iszero\n      tag_16\n      jumpi\n        /* \"#utility.yul\":282:361   */\n      tag_17\n      tag_18\n      jump\t// in\n    tag_17:\n        /* \"#utility.yul\":251:363   */\n    tag_16:\n        /* \"#utility.yul\":372:413   */\n      tag_19\n        /* \"#utility.yul\":406:412   */\n      dup5\n        /* \"#utility.yul\":401:404   */\n      dup3\n        /* \"#utility.yul\":396:399   */\n      dup6\n        /* \"#utility.yul\":372:413   */\n      tag_20\n      jump\t// in\n    tag_19:\n        /* \"#utility.yul\":91:419   */\n      pop\n        /* \"#utility.yul\":7:419   */\n      swap4\n      swap3\n      pop\n      pop\n      pop\n      jump\t// out\n        /* \"#utility.yul\":439:779   */\n    tag_21:\n        /* \"#utility.yul\":495:500   */\n      0x00\n        /* \"#utility.yul\":544:547   */\n      dup3\n        /* \"#utility.yul\":537:541   */\n      0x1f\n        /* \"#utility.yul\":529:535   */\n      dup4\n        /* \"#utility.yul\":525:542   */\n      add\n        /* \"#utility.yul\":521:548   */\n      slt\n        /* \"#utility.yul\":511:633   */\n      tag_23\n      jumpi\n        /* \"#utility.yul\":552:631   */\n      tag_24\n      tag_25\n      jump\t// in\n    tag_24:\n        /* \"#utility.yul\":511:633   */\n    tag_23:\n        /* \"#utility.yul\":669:675   */\n      dup2\n        /* \"#utility.yul\":656:676   */\n      calldataload\n        /* \"#utility.yul\":694:773   */\n      tag_26\n        /* \"#utility.yul\":769:772   */\n      dup5\n        /* \"#utility.yul\":761:767   */\n      dup3\n        /* \"#utility.yul\":754:758   */\n      0x20\n        /* \"#utility.yul\":746:752   */\n      dup7\n        /* \"#utility.yul\":742:759   */\n      add\n        /* \"#utility.yul\":694:773   */\n      tag_10\n      jump\t// in\n    tag_26:\n        /* \"#utility.yul\":685:773   */\n      swap2\n      pop\n        /* \"#utility.yul\":501:779   */\n      pop\n        /* \"#utility.yul\":439:779   */\n      swap3\n      swap2\n      pop\n      pop\n      jump\t// out\n        /* \"#utility.yul\":785:2596   */\n    tag_6:\n        /* \"#utility.yul\":930:936   */\n      0x00\n        /* \"#utility.yul\":938:944   */\n      dup1\n        /* \"#utility.yul\":946:952   */\n      0x00\n        /* \"#utility.yul\":954:960   */\n      dup1\n        /* \"#utility.yul\":962:968   */\n      0x00\n        /* \"#utility.yul\":1011:1014   */\n      0xa0\n        /* \"#utility.yul\":999:1008   */\n      dup7\n        /* \"#utility.yul\":990:997   */\n      dup9\n        /* \"#utility.yul\":986:1009   */\n      sub\n        /* \"#utility.yul\":982:1015   */\n      slt\n        /* \"#utility.yul\":979:1099   */\n      iszero\n      tag_28\n      jumpi\n        /* \"#utility.yul\":1018:1097   */\n      tag_29\n      tag_30\n      jump\t// in\n    tag_29:\n        /* \"#utility.yul\":979:1099   */\n    tag_28:\n        /* \"#utility.yul\":1166:1167   */\n      0x00\n        /* \"#utility.yul\":1155:1164   */\n      dup7\n        /* \"#utility.yul\":1151:1168   */\n      add\n        /* \"#utility.yul\":1138:1169   */\n      calldataload\n        /* \"#utility.yul\":1196:1214   */\n      0xffffffffffffffff\n        /* \"#utility.yul\":1188:1194   */\n      dup2\n        /* \"#utility.yul\":1185:1215   */\n      gt\n        /* \"#utility.yul\":1182:1299   */\n      iszero\n      tag_31\n      jumpi\n        /* \"#utility.yul\":1218:1297   */\n      tag_32\n      tag_33\n      jump\t// in\n    tag_32:\n        /* \"#utility.yul\":1182:1299   */\n    tag_31:\n        /* \"#utility.yul\":1323:1386   */\n      tag_34\n        /* \"#utility.yul\":1378:1385   */\n      dup9\n        /* \"#utility.yul\":1369:1375   */\n      dup3\n        /* \"#utility.yul\":1358:1367   */\n      dup10\n        /* \"#utility.yul\":1354:1376   */\n      add\n        /* \"#utility.yul\":1323:1386   */\n      tag_21\n      jump\t// in\n    tag_34:\n        /* \"#utility.yul\":1313:1386   */\n      swap6\n      pop\n        /* \"#utility.yul\":1109:1396   */\n      pop\n        /* \"#utility.yul\":1463:1465   */\n      0x20\n        /* \"#utility.yul\":1452:1461   */\n      dup7\n        /* \"#utility.yul\":1448:1466   */\n      add\n        /* \"#utility.yul\":1435:1467   */\n      calldataload\n        /* \"#utility.yul\":1494:1512   */\n      0xffffffffffffffff\n        /* \"#utility.yul\":1486:1492   */\n      dup2\n        /* \"#utility.yul\":1483:1513   */\n      gt\n        /* \"#utility.yul\":1480:1597   */\n      iszero\n      tag_35\n      jumpi\n        /* \"#utility.yul\":1516:1595   */\n      tag_36\n      tag_33\n      jump\t// in\n    tag_36:\n        /* \"#utility.yul\":1480:1597   */\n    tag_35:\n        /* \"#utility.yul\":1621:1684   */\n      tag_37\n        /* \"#utility.yul\":1676:1683   */\n      dup9\n        /* \"#utility.yul\":1667:1673   */\n      dup3\n        /* \"#utility.yul\":1656:1665   */\n      dup10\n        /* \"#utility.yul\":1652:1674   */\n      add\n        /* \"#utility.yul\":1621:1684   */\n      tag_21\n      jump\t// in\n    tag_37:\n        /* \"#utility.yul\":1611:1684   */\n      swap5\n      pop\n        /* \"#utility.yul\":1406:1694   */\n      pop\n        /* \"#utility.yul\":1761:1763   */\n      0x40\n        /* \"#utility.yul\":1750:1759   */\n      dup7\n        /* \"#utility.yul\":1746:1764   */\n      add\n        /* \"#utility.yul\":1733:1765   */\n      calldataload\n        /* \"#utility.yul\":1792:1810   */\n      0xffffffffffffffff\n        /* \"#utility.yul\":1784:1790   */\n      dup2\n        /* \"#utility.yul\":1781:1811   */\n      gt\n        /* \"#utility.yul\":1778:1895   */\n      iszero\n      tag_38\n      jumpi\n        /* \"#utility.yul\":1814:1893   */\n      tag_39\n      tag_33\n      jump\t// in\n    tag_39:\n        /* \"#utility.yul\":1778:1895   */\n    tag_38:\n        /* \"#utility.yul\":1919:1982   */\n      tag_40\n        /* \"#utility.yul\":1974:1981   */\n      dup9\n        /* \"#utility.yul\":1965:1971   */\n      dup3\n        /* \"#utility.yul\":1954:1963   */\n      dup10\n        /* \"#utility.yul\":1950:1972   */\n      add\n        /* \"#utility.yul\":1919:1982   */\n      tag_21\n      jump\t// in\n    tag_40:\n        /* \"#utility.yul\":1909:1982   */\n      swap4\n      pop\n        /* \"#utility.yul\":1704:1992   */\n      pop\n        /* \"#utility.yul\":2059:2061   */\n      0x60\n        /* \"#utility.yul\":2048:2057   */\n      dup7\n        /* \"#utility.yul\":2044:2062   */\n      add\n        /* \"#utility.yul\":2031:2063   */\n      calldataload\n        /* \"#utility.yul\":2090:2108   */\n      0xffffffffffffffff\n        /* \"#utility.yul\":2082:2088   */\n      dup2\n        /* \"#utility.yul\":2079:2109   */\n      gt\n        /* \"#utility.yul\":2076:2193   */\n      iszero\n      tag_41\n      jumpi\n        /* \"#utility.yul\":2112:2191   */\n      tag_42\n      tag_33\n      jump\t// in\n    tag_42:\n        /* \"#utility.yul\":2076:2193   */\n    tag_41:\n        /* \"#utility.yul\":2217:2280   */\n      tag_43\n        /* \"#utility.yul\":2272:2279   */\n      dup9\n        /* \"#utility.yul\":2263:2269   */\n      dup3\n        /* \"#utility.yul\":2252:2261   */\n      dup10\n        /* \"#utility.yul\":2248:2270   */\n      add\n        /* \"#utility.yul\":2217:2280   */\n      tag_21\n      jump\t// in\n    tag_43:\n        /* \"#utility.yul\":2207:2280   */\n      swap3\n      pop\n        /* \"#utility.yul\":2002:2290   */\n      pop\n        /* \"#utility.yul\":2357:2360   */\n      0x80\n        /* \"#utility.yul\":2346:2355   */\n      dup7\n        /* \"#utility.yul\":2342:2361   */\n      add\n        /* \"#utility.yul\":2329:2362   */\n      calldataload\n        /* \"#utility.yul\":2389:2407   */\n      0xffffffffffffffff\n        /* \"#utility.yul\":2381:2387   */\n      dup2\n        /* \"#utility.yul\":2378:2408   */\n      gt\n        /* \"#utility.yul\":2375:2492   */\n      iszero\n      tag_44\n      jumpi\n        /* \"#utility.yul\":2411:2490   */\n      tag_45\n      tag_33\n      jump\t// in\n    tag_45:\n        /* \"#utility.yul\":2375:2492   */\n    tag_44:\n        /* \"#utility.yul\":2516:2579   */\n      tag_46\n        /* \"#utility.yul\":2571:2578   */\n      dup9\n        /* \"#utility.yul\":2562:2568   */\n      dup3\n        /* \"#utility.yul\":2551:2560   */\n      dup10\n        /* \"#utility.yul\":2547:2569   */\n      add\n        /* \"#utility.yul\":2516:2579   */\n      tag_21\n      jump\t// in\n    tag_46:\n        /* \"#utility.yul\":2506:2579   */\n      swap2\n      pop\n        /* \"#utility.yul\":2300:2589   */\n      pop\n        /* \"#utility.yul\":785:2596   */\n      swap3\n      swap6\n      pop\n      swap3\n      swap6\n      swap1\n      swap4\n      pop\n      jump\t// out\n        /* \"#utility.yul\":2602:2731   */\n    tag_15:\n        /* \"#utility.yul\":2636:2642   */\n      0x00\n        /* \"#utility.yul\":2663:2683   */\n      tag_48\n      tag_49\n      jump\t// in\n    tag_48:\n        /* \"#utility.yul\":2653:2683   */\n      swap1\n      pop\n        /* \"#utility.yul\":2692:2725   */\n      tag_50\n        /* \"#utility.yul\":2720:2724   */\n      dup3\n        /* \"#utility.yul\":2712:2718   */\n      dup3\n        /* \"#utility.yul\":2692:2725   */\n      tag_51\n      jump\t// in\n    tag_50:\n        /* \"#utility.yul\":2602:2731   */\n      swap2\n      swap1\n      pop\n      jump\t// out\n        /* \"#utility.yul\":2737:2812   */\n    tag_49:\n        /* \"#utility.yul\":2770:2776   */\n      0x00\n        /* \"#utility.yul\":2803:2805   */\n      0x40\n        /* \"#utility.yul\":2797:2806   */\n      mload\n        /* \"#utility.yul\":2787:2806   */\n      swap1\n      pop\n        /* \"#utility.yul\":2737:2812   */\n      swap1\n      jump\t// out\n        /* \"#utility.yul\":2818:3126   */\n    tag_14:\n        /* \"#utility.yul\":2880:2884   */\n      0x00\n        /* \"#utility.yul\":2970:2988   */\n      0xffffffffffffffff\n        /* \"#utility.yul\":2962:2968   */\n      dup3\n        /* \"#utility.yul\":2959:2989   */\n      gt\n        /* \"#utility.yul\":2956:3012   */\n      iszero\n      tag_54\n      jumpi\n        /* \"#utility.yul\":2992:3010   */\n      tag_55\n      tag_56\n      jump\t// in\n    tag_55:\n        /* \"#utility.yul\":2956:3012   */\n    tag_54:\n        /* \"#utility.yul\":3030:3059   */\n      tag_57\n        /* \"#utility.yul\":3052:3058   */\n      dup3\n        /* \"#utility.yul\":3030:3059   */\n      tag_58\n      jump\t// in\n    tag_57:\n        /* \"#utility.yul\":3022:3059   */\n      swap1\n      pop\n        /* \"#utility.yul\":3114:3118   */\n      0x20\n        /* \"#utility.yul\":3108:3112   */\n      dup2\n        /* \"#utility.yul\":3104:3119   */\n      add\n        /* \"#utility.yul\":3096:3119   */\n      swap1\n      pop\n        /* \"#utility.yul\":2818:3126   */\n      swap2\n      swap1\n      pop\n      jump\t// out\n        /* \"#utility.yul\":3132:3286   */\n    tag_20:\n        /* \"#utility.yul\":3216:3222   */\n      dup3\n        /* \"#utility.yul\":3211:3214   */\n      dup2\n        /* \"#utility.yul\":3206:3209   */\n      dup4\n        /* \"#utility.yul\":3193:3223   */\n      calldatacopy\n        /* \"#utility.yul\":3278:3279   */\n      0x00\n        /* \"#utility.yul\":3269:3275   */\n      dup4\n        /* \"#utility.yul\":3264:3267   */\n      dup4\n        /* \"#utility.yul\":3260:3276   */\n      add\n        /* \"#utility.yul\":3253:3280   */\n      mstore\n        /* \"#utility.yul\":3132:3286   */\n      pop\n      pop\n      pop\n      jump\t// out\n        /* \"#utility.yul\":3292:3573   */\n    tag_51:\n        /* \"#utility.yul\":3375:3402   */\n      tag_61\n        /* \"#utility.yul\":3397:3401   */\n      dup3\n        /* \"#utility.yul\":3375:3402   */\n      tag_58\n      jump\t// in\n    tag_61:\n        /* \"#utility.yul\":3367:3373   */\n      dup2\n        /* \"#utility.yul\":3363:3403   */\n      add\n        /* \"#utility.yul\":3505:3511   */\n      dup2\n        /* \"#utility.yul\":3493:3503   */\n      dup2\n        /* \"#utility.yul\":3490:3512   */\n      lt\n        /* \"#utility.yul\":3469:3487   */\n      0xffffffffffffffff\n        /* \"#utility.yul\":3457:3467   */\n      dup3\n        /* \"#utility.yul\":3454:3488   */\n      gt\n        /* \"#utility.yul\":3451:3513   */\n      or\n        /* \"#utility.yul\":3448:3536   */\n      iszero\n      tag_62\n      jumpi\n        /* \"#utility.yul\":3516:3534   */\n      tag_63\n      tag_56\n      jump\t// in\n    tag_63:\n        /* \"#utility.yul\":3448:3536   */\n    tag_62:\n        /* \"#utility.yul\":3556:3566   */\n      dup1\n        /* \"#utility.yul\":3552:3554   */\n      0x40\n        /* \"#utility.yul\":3545:3567   */\n      mstore\n        /* \"#utility.yul\":3335:3573   */\n      pop\n        /* \"#utility.yul\":3292:3573   */\n      pop\n      pop\n      jump\t// out\n        /* \"#utility.yul\":3579:3759   */\n    tag_56:\n        /* \"#utility.yul\":3627:3704   */\n      0x4e487b7100000000000000000000000000000000000000000000000000000000\n        /* \"#utility.yul\":3624:3625   */\n      0x00\n        /* \"#utility.yul\":3617:3705   */\n      mstore\n        /* \"#utility.yul\":3724:3728   */\n      0x41\n        /* \"#utility.yul\":3721:3722   */\n      0x04\n        /* \"#utility.yul\":3714:3729   */\n      mstore\n        /* \"#utility.yul\":3748:3752   */\n      0x24\n        /* \"#utility.yul\":3745:3746   */\n      0x00\n        /* \"#utility.yul\":3738:3753   */\n      revert\n        /* \"#utility.yul\":3765:3882   */\n    tag_25:\n        /* \"#utility.yul\":3874:3875   */\n      0x00\n        /* \"#utility.yul\":3871:3872   */\n      dup1\n        /* \"#utility.yul\":3864:3876   */\n      revert\n        /* \"#utility.yul\":3888:4005   */\n    tag_18:\n        /* \"#utility.yul\":3997:3998   */\n      0x00\n        /* \"#utility.yul\":3994:3995   */\n      dup1\n        /* \"#utility.yul\":3987:3999   */\n      revert\n        /* \"#utility.yul\":4011:4128   */\n    tag_33:\n        /* \"#utility.yul\":4120:4121   */\n      0x00\n        /* \"#utility.yul\":4117:4118   */\n      dup1\n        /* \"#utility.yul\":4110:4122   */\n      revert\n        /* \"#utility.yul\":4134:4251   */\n    tag_30:\n        /* \"#utility.yul\":4243:4244   */\n      0x00\n        /* \"#utility.yul\":4240:4241   */\n      dup1\n        /* \"#utility.yul\":4233:4245   */\n      revert\n        /* \"#utility.yul\":4257:4359   */\n    tag_58:\n        /* \"#utility.yul\":4298:4304   */\n      0x00\n        /* \"#utility.yul\":4349:4351   */\n      0x1f\n        /* \"#utility.yul\":4345:4352   */\n      not\n        /* \"#utility.yul\":4340:4342   */\n      0x1f\n        /* \"#utility.yul\":4333:4338   */\n      dup4\n        /* \"#utility.yul\":4329:4343   */\n      add\n        /* \"#utility.yul\":4325:4353   */\n      and\n        /* \"#utility.yul\":4315:4353   */\n      swap1\n      pop\n        /* \"#utility.yul\":4257:4359   */\n      swap2\n      swap1\n      pop\n      jump\t// out\n\n    auxdata: 0xa264697066735822122031969460c7ad231ce747a23b2c4f635b610ccd25e88ef1979a6ace1d85afc6dd64736f6c63430008070033\n}\n",
				"bytecode": {
					"linkReferences": {},
					"object": "608060405234801561001057600080fd5b50610312806100206000396000f3fe608060405234801561001057600080fd5b506004361061002b5760003560e01c8063d43cf41614610030575b600080fd5b61004a600480360381019061004591906100eb565b61004c565b005b6040518060a0016040528086815260200185815260200184815260200183815260200182815250505050505050565b600061008e61008984610217565b6101f2565b9050828152602081018484840111156100aa576100a96102bc565b5b6100b5848285610248565b509392505050565b600082601f8301126100d2576100d16102b7565b5b81356100e284826020860161007b565b91505092915050565b600080600080600060a08688031215610107576101066102c6565b5b600086013567ffffffffffffffff811115610125576101246102c1565b5b610131888289016100bd565b955050602086013567ffffffffffffffff811115610152576101516102c1565b5b61015e888289016100bd565b945050604086013567ffffffffffffffff81111561017f5761017e6102c1565b5b61018b888289016100bd565b935050606086013567ffffffffffffffff8111156101ac576101ab6102c1565b5b6101b8888289016100bd565b925050608086013567ffffffffffffffff8111156101d9576101d86102c1565b5b6101e5888289016100bd565b9150509295509295909350565b60006101fc61020d565b90506102088282610257565b919050565b6000604051905090565b600067ffffffffffffffff82111561023257610231610288565b5b61023b826102cb565b9050602081019050919050565b82818337600083830152505050565b610260826102cb565b810181811067ffffffffffffffff8211171561027f5761027e610288565b5b80604052505050565b7f4e487b7100000000000000000000000000000000000000000000000000000000600052604160045260246000fd5b600080fd5b600080fd5b600080fd5b600080fd5b6000601f19601f830116905091905056fea264697066735822122031969460c7ad231ce747a23b2c4f635b610ccd25e88ef1979a6ace1d85afc6dd64736f6c63430008070033",
					"opcodes": "PUSH1 0x80 PUSH1 0x40 MSTORE CALLVALUE DUP1 ISZERO PUSH2 0x10 JUMPI PUSH1 0x0 DUP1 REVERT JUMPDEST POP PUSH2 0x312 DUP1 PUSH2 0x20 PUSH1 0x0 CODECOPY PUSH1 0x0 RETURN INVALID PUSH1 0x80 PUSH1 0x40 MSTORE CALLVALUE DUP1 ISZERO PUSH2 0x10 JUMPI PUSH1 0x0 DUP1 REVERT JUMPDEST POP PUSH1 0x4 CALLDATASIZE LT PUSH2 0x2B JUMPI PUSH1 0x0 CALLDATALOAD PUSH1 0xE0 SHR DUP1 PUSH4 0xD43CF416 EQ PUSH2 0x30 JUMPI JUMPDEST PUSH1 0x0 DUP1 REVERT JUMPDEST PUSH2 0x4A PUSH1 0x4 DUP1 CALLDATASIZE SUB DUP2 ADD SWAP1 PUSH2 0x45 SWAP2 SWAP1 PUSH2 0xEB JUMP JUMPDEST PUSH2 0x4C JUMP JUMPDEST STOP JUMPDEST PUSH1 0x40 MLOAD DUP1 PUSH1 0xA0 ADD PUSH1 0x40 MSTORE DUP1 DUP7 DUP2 MSTORE PUSH1 0x20 ADD DUP6 DUP2 MSTORE PUSH1 0x20 ADD DUP5 DUP2 MSTORE PUSH1 0x20 ADD DUP4 DUP2 MSTORE PUSH1 0x20 ADD DUP3 DUP2 MSTORE POP POP POP POP POP POP POP JUMP JUMPDEST PUSH1 0x0 PUSH2 0x8E PUSH2 0x89 DUP5 PUSH2 0x217 JUMP JUMPDEST PUSH2 0x1F2 JUMP JUMPDEST SWAP1 POP DUP3 DUP2 MSTORE PUSH1 0x20 DUP2 ADD DUP5 DUP5 DUP5 ADD GT ISZERO PUSH2 0xAA JUMPI PUSH2 0xA9 PUSH2 0x2BC JUMP JUMPDEST JUMPDEST PUSH2 0xB5 DUP5 DUP3 DUP6 PUSH2 0x248 JUMP JUMPDEST POP SWAP4 SWAP3 POP POP POP JUMP JUMPDEST PUSH1 0x0 DUP3 PUSH1 0x1F DUP4 ADD SLT PUSH2 0xD2 JUMPI PUSH2 0xD1 PUSH2 0x2B7 JUMP JUMPDEST JUMPDEST DUP2 CALLDATALOAD PUSH2 0xE2 DUP5 DUP3 PUSH1 0x20 DUP7 ADD PUSH2 0x7B JUMP JUMPDEST SWAP2 POP POP SWAP3 SWAP2 POP POP JUMP JUMPDEST PUSH1 0x0 DUP1 PUSH1 0x0 DUP1 PUSH1 0x0 PUSH1 0xA0 DUP7 DUP9 SUB SLT ISZERO PUSH2 0x107 JUMPI PUSH2 0x106 PUSH2 0x2C6 JUMP JUMPDEST JUMPDEST PUSH1 0x0 DUP7 ADD CALLDATALOAD PUSH8 0xFFFFFFFFFFFFFFFF DUP2 GT ISZERO PUSH2 0x125 JUMPI PUSH2 0x124 PUSH2 0x2C1 JUMP JUMPDEST JUMPDEST PUSH2 0x131 DUP9 DUP3 DUP10 ADD PUSH2 0xBD JUMP JUMPDEST SWAP6 POP POP PUSH1 0x20 DUP7 ADD CALLDATALOAD PUSH8 0xFFFFFFFFFFFFFFFF DUP2 GT ISZERO PUSH2 0x152 JUMPI PUSH2 0x151 PUSH2 0x2C1 JUMP JUMPDEST JUMPDEST PUSH2 0x15E DUP9 DUP3 DUP10 ADD PUSH2 0xBD JUMP JUMPDEST SWAP5 POP POP PUSH1 0x40 DUP7 ADD CALLDATALOAD PUSH8 0xFFFFFFFFFFFFFFFF DUP2 GT ISZERO PUSH2 0x17F JUMPI PUSH2 0x17E PUSH2 0x2C1 JUMP JUMPDEST JUMPDEST PUSH2 0x18B DUP9 DUP3 DUP10 ADD PUSH2 0xBD JUMP JUMPDEST SWAP4 POP POP PUSH1 0x60 DUP7 ADD CALLDATALOAD PUSH8 0xFFFFFFFFFFFFFFFF DUP2 GT ISZERO PUSH2 0x1AC JUMPI PUSH2 0x1AB PUSH2 0x2C1 JUMP JUMPDEST JUMPDEST PUSH2 0x1B8 DUP9 DUP3 DUP10 ADD PUSH2 0xBD JUMP JUMPDEST SWAP3 POP POP PUSH1 0x80 DUP7 ADD CALLDATALOAD PUSH8 0xFFFFFFFFFFFFFFFF DUP2 GT ISZERO PUSH2 0x1D9 JUMPI PUSH2 0x1D8 PUSH2 0x2C1 JUMP JUMPDEST JUMPDEST PUSH2 0x1E5 DUP9 DUP3 DUP10 ADD PUSH2 0xBD JUMP JUMPDEST SWAP2 POP POP SWAP3 SWAP6 POP SWAP3 SWAP6 SWAP1 SWAP4 POP JUMP JUMPDEST PUSH1 0x0 PUSH2 0x1FC PUSH2 0x20D JUMP JUMPDEST SWAP1 POP PUSH2 0x208 DUP3 DUP3 PUSH2 0x257 JUMP JUMPDEST SWAP2 SWAP1 POP JUMP JUMPDEST PUSH1 0x0 PUSH1 0x40 MLOAD SWAP1 POP SWAP1 JUMP JUMPDEST PUSH1 0x0 PUSH8 0xFFFFFFFFFFFFFFFF DUP3 GT ISZERO PUSH2 0x232 JUMPI PUSH2 0x231 PUSH2 0x288 JUMP JUMPDEST JUMPDEST PUSH2 0x23B DUP3 PUSH2 0x2CB JUMP JUMPDEST SWAP1 POP PUSH1 0x20 DUP2 ADD SWAP1 POP SWAP2 SWAP1 POP JUMP JUMPDEST DUP3 DUP2 DUP4 CALLDATACOPY PUSH1 0x0 DUP4 DUP4 ADD MSTORE POP POP POP JUMP JUMPDEST PUSH2 0x260 DUP3 PUSH2 0x2CB JUMP JUMPDEST DUP2 ADD DUP2 DUP2 LT PUSH8 0xFFFFFFFFFFFFFFFF DUP3 GT OR ISZERO PUSH2 0x27F JUMPI PUSH2 0x27E PUSH2 0x288 JUMP JUMPDEST JUMPDEST DUP1 PUSH1 0x40 MSTORE POP POP POP JUMP JUMPDEST PUSH32 0x4E487B7100000000000000000000000000000000000000000000000000000000 PUSH1 0x0 MSTORE PUSH1 0x41 PUSH1 0x4 MSTORE PUSH1 0x24 PUSH1 0x0 REVERT JUMPDEST PUSH1 0x0 DUP1 REVERT JUMPDEST PUSH1 0x0 DUP1 REVERT JUMPDEST PUSH1 0x0 DUP1 REVERT JUMPDEST PUSH1 0x0 DUP1 REVERT JUMPDEST PUSH1 0x0 PUSH1 0x1F NOT PUSH1 0x1F DUP4 ADD AND SWAP1 POP SWAP2 SWAP1 POP JUMP INVALID LOG2 PUSH5 0x6970667358 0x22 SLT KECCAK256 BALANCE SWAP7 SWAP5 PUSH1 0xC7 0xAD 0x23 SHR 0xE7 SELFBALANCE LOG2 EXTCODESIZE 0x2C 0x4F PUSH4 0x5B610CCD 0x25 0xE8 DUP15 CALL SWAP8 SWAP11 PUSH11 0xCE1D85AFC6DD64736F6C63 NUMBER STOP ADDMOD SMOD STOP CALLER "
				},
				"gasEstimates": {
					"creation": {
						"codeDepositCost": "157200",
						"executionCost": "202",
						"totalCost": "157402"
					},
					"external": {
						"AddVehicle(string,string,string,string,string)": "infinite"
					}
				},
				"methodIdentifiers": {
					"AddVehicle(string,string,string,string,string)": "d43cf416"
				}
			},
			"storageLayout": {
				"storage": [],
				"types": null
			},
			"userdoc": {
				"kind": "user",
				"methods": {},
				"version": 1
			}
		}
	}
}