{
	"contracts/_Vehicle.sol": {
		"Vehicle": {
			"abi": [
				{
					"inputs": [
						{
							"internalType": "string",
							"name": "_registerId",
							"type": "string"
						},
						{
							"internalType": "string",
							"name": "_carBrand",
							"type": "string"
						},
						{
							"internalType": "string",
							"name": "_carModel",
							"type": "string"
						},
						{
							"internalType": "string",
							"name": "_carColor",
							"type": "string"
						},
						{
							"internalType": "string",
							"name": "_merikelrootvalue",
							"type": "string"
						}
					],
					"name": "AddVehicle",
					"outputs": [],
					"stateMutability": "nonpayable",
					"type": "function"
				},
				{
					"inputs": [],
					"name": "getvehicleBrand",
					"outputs": [
						{
							"internalType": "string",
							"name": "",
							"type": "string"
						}
					],
					"stateMutability": "view",
					"type": "function"
				},
				{
					"inputs": [],
					"name": "getvehicleColor",
					"outputs": [
						{
							"internalType": "string",
							"name": "",
							"type": "string"
						}
					],
					"stateMutability": "view",
					"type": "function"
				},
				{
					"inputs": [],
					"name": "getvehicleCreatedTime",
					"outputs": [
						{
							"internalType": "string",
							"name": "",
							"type": "string"
						}
					],
					"stateMutability": "view",
					"type": "function"
				},
				{
					"inputs": [],
					"name": "getvehicleMerikelrootvalue",
					"outputs": [
						{
							"internalType": "string",
							"name": "",
							"type": "string"
						}
					],
					"stateMutability": "view",
					"type": "function"
				},
				{
					"inputs": [],
					"name": "getvehicleModel",
					"outputs": [
						{
							"internalType": "string",
							"name": "",
							"type": "string"
						}
					],
					"stateMutability": "view",
					"type": "function"
				},
				{
					"inputs": [],
					"name": "getvehicleOwendBy",
					"outputs": [
						{
							"internalType": "string",
							"name": "",
							"type": "string"
						}
					],
					"stateMutability": "view",
					"type": "function"
				},
				{
					"inputs": [],
					"name": "getvehicleRegisterId",
					"outputs": [
						{
							"internalType": "string",
							"name": "",
							"type": "string"
						}
					],
					"stateMutability": "view",
					"type": "function"
				},
				{
					"inputs": [
						{
							"internalType": "string",
							"name": "oweraddress",
							"type": "string"
						}
					],
					"name": "setOwnerShip",
					"outputs": [],
					"stateMutability": "nonpayable",
					"type": "function"
				},
				{
					"inputs": [
						{
							"internalType": "string",
							"name": "currentMerikelrootvalue",
							"type": "string"
						}
					],
					"name": "verifyMerikelrootvalue",
					"outputs": [
						{
							"internalType": "bool",
							"name": "",
							"type": "bool"
						}
					],
					"stateMutability": "view",
					"type": "function"
				}
			],
			"devdoc": {
				"kind": "dev",
				"methods": {},
				"version": 1
			},
			"evm": {
				"assembly": "    /* \"contracts/_Vehicle.sol\":131:1988  contract Vehicle{\r... */\n  mstore(0x40, 0x80)\n  callvalue\n  dup1\n  iszero\n  tag_1\n  jumpi\n  0x00\n  dup1\n  revert\ntag_1:\n  pop\n  dataSize(sub_0)\n  dup1\n  dataOffset(sub_0)\n  0x00\n  codecopy\n  0x00\n  return\nstop\n\nsub_0: assembly {\n        /* \"contracts/_Vehicle.sol\":131:1988  contract Vehicle{\r... */\n      mstore(0x40, 0x80)\n      callvalue\n      dup1\n      iszero\n      tag_1\n      jumpi\n      0x00\n      dup1\n      revert\n    tag_1:\n      pop\n      jumpi(tag_2, lt(calldatasize, 0x04))\n      shr(0xe0, calldataload(0x00))\n      dup1\n      0xca3740de\n      gt\n      tag_13\n      jumpi\n      dup1\n      0xca3740de\n      eq\n      tag_8\n      jumpi\n      dup1\n      0xced7142c\n      eq\n      tag_9\n      jumpi\n      dup1\n      0xd1d5400d\n      eq\n      tag_10\n      jumpi\n      dup1\n      0xd43cf416\n      eq\n      tag_11\n      jumpi\n      dup1\n      0xe12d7db4\n      eq\n      tag_12\n      jumpi\n      jump(tag_2)\n    tag_13:\n      dup1\n      0x1ba7b1f7\n      eq\n      tag_3\n      jumpi\n      dup1\n      0x22e5ba7c\n      eq\n      tag_4\n      jumpi\n      dup1\n      0x50ca0907\n      eq\n      tag_5\n      jumpi\n      dup1\n      0x82290ddb\n      eq\n      tag_6\n      jumpi\n      dup1\n      0xa8515f8e\n      eq\n      tag_7\n      jumpi\n    tag_2:\n      0x00\n      dup1\n      revert\n        /* \"contracts/_Vehicle.sol\":1308:1404  function getvehicleModel() public view returns(string memory) {\r... */\n    tag_3:\n      tag_14\n      tag_15\n      jump\t// in\n    tag_14:\n      mload(0x40)\n      tag_16\n      swap2\n      swap1\n      tag_17\n      jump\t// in\n    tag_16:\n      mload(0x40)\n      dup1\n      swap2\n      sub\n      swap1\n      return\n        /* \"contracts/_Vehicle.sol\":1412:1508  function getvehicleColor() public view returns(string memory) {\r... */\n    tag_4:\n      tag_18\n      tag_19\n      jump\t// in\n    tag_18:\n      mload(0x40)\n      tag_20\n      swap2\n      swap1\n      tag_17\n      jump\t// in\n    tag_20:\n      mload(0x40)\n      dup1\n      swap2\n      sub\n      swap1\n      return\n        /* \"contracts/_Vehicle.sol\":1881:1978  function getvehicleOwendBy() public view returns(string memory) {\r... */\n    tag_5:\n      tag_21\n      tag_22\n      jump\t// in\n    tag_21:\n      mload(0x40)\n      tag_23\n      swap2\n      swap1\n      tag_17\n      jump\t// in\n    tag_23:\n      mload(0x40)\n      dup1\n      swap2\n      sub\n      swap1\n      return\n        /* \"contracts/_Vehicle.sol\":767:862  function setOwnerShip(string memory oweraddress)public {\r... */\n    tag_6:\n      tag_24\n      0x04\n      dup1\n      calldatasize\n      sub\n      dup2\n      add\n      swap1\n      tag_25\n      swap2\n      swap1\n      tag_26\n      jump\t// in\n    tag_25:\n      tag_27\n      jump\t// in\n    tag_24:\n      stop\n        /* \"contracts/_Vehicle.sol\":870:1094  function verifyMerikelrootvalue(string memory currentMerikelrootvalue) public view returns (bool){\r... */\n    tag_7:\n      tag_28\n      0x04\n      dup1\n      calldatasize\n      sub\n      dup2\n      add\n      swap1\n      tag_29\n      swap2\n      swap1\n      tag_26\n      jump\t// in\n    tag_29:\n      tag_30\n      jump\t// in\n    tag_28:\n      mload(0x40)\n      tag_31\n      swap2\n      swap1\n      tag_32\n      jump\t// in\n    tag_31:\n      mload(0x40)\n      dup1\n      swap2\n      sub\n      swap1\n      return\n        /* \"contracts/_Vehicle.sol\":1204:1300  function getvehicleBrand() public view returns(string memory) {\r... */\n    tag_8:\n      tag_33\n      tag_34\n      jump\t// in\n    tag_33:\n      mload(0x40)\n      tag_35\n      swap2\n      swap1\n      tag_17\n      jump\t// in\n    tag_35:\n      mload(0x40)\n      dup1\n      swap2\n      sub\n      swap1\n      return\n        /* \"contracts/_Vehicle.sol\":1750:1873  function getvehicleCreatedTime() public view returns(string memory) {\r... */\n    tag_9:\n      tag_36\n      tag_37\n      jump\t// in\n    tag_36:\n      mload(0x40)\n      tag_38\n      swap2\n      swap1\n      tag_17\n      jump\t// in\n    tag_38:\n      mload(0x40)\n      dup1\n      swap2\n      sub\n      swap1\n      return\n        /* \"contracts/_Vehicle.sol\":1516:1619  function getvehicleRegisterId() public view returns(string memory) {\r... */\n    tag_10:\n      tag_39\n      tag_40\n      jump\t// in\n    tag_39:\n      mload(0x40)\n      tag_41\n      swap2\n      swap1\n      tag_17\n      jump\t// in\n    tag_41:\n      mload(0x40)\n      dup1\n      swap2\n      sub\n      swap1\n      return\n        /* \"contracts/_Vehicle.sol\":320:759  function AddVehicle (\r... */\n    tag_11:\n      tag_42\n      0x04\n      dup1\n      calldatasize\n      sub\n      dup2\n      add\n      swap1\n      tag_43\n      swap2\n      swap1\n      tag_44\n      jump\t// in\n    tag_43:\n      tag_45\n      jump\t// in\n    tag_42:\n      stop\n        /* \"contracts/_Vehicle.sol\":1627:1742  function getvehicleMerikelrootvalue() public view returns(string memory) {\r... */\n    tag_12:\n      tag_46\n      tag_47\n      jump\t// in\n    tag_46:\n      mload(0x40)\n      tag_48\n      swap2\n      swap1\n      tag_17\n      jump\t// in\n    tag_48:\n      mload(0x40)\n      dup1\n      swap2\n      sub\n      swap1\n      return\n        /* \"contracts/_Vehicle.sol\":1308:1404  function getvehicleModel() public view returns(string memory) {\r... */\n    tag_15:\n        /* \"contracts/_Vehicle.sol\":1355:1368  string memory */\n      0x60\n        /* \"contracts/_Vehicle.sol\":1388:1396  carModel */\n      0x02\n        /* \"contracts/_Vehicle.sol\":1381:1396  return carModel */\n      dup1\n      sload\n      tag_50\n      swap1\n      tag_51\n      jump\t// in\n    tag_50:\n      dup1\n      0x1f\n      add\n      0x20\n      dup1\n      swap2\n      div\n      mul\n      0x20\n      add\n      mload(0x40)\n      swap1\n      dup2\n      add\n      0x40\n      mstore\n      dup1\n      swap3\n      swap2\n      swap1\n      dup2\n      dup2\n      mstore\n      0x20\n      add\n      dup3\n      dup1\n      sload\n      tag_52\n      swap1\n      tag_51\n      jump\t// in\n    tag_52:\n      dup1\n      iszero\n      tag_53\n      jumpi\n      dup1\n      0x1f\n      lt\n      tag_54\n      jumpi\n      0x0100\n      dup1\n      dup4\n      sload\n      div\n      mul\n      dup4\n      mstore\n      swap2\n      0x20\n      add\n      swap2\n      jump(tag_53)\n    tag_54:\n      dup3\n      add\n      swap2\n      swap1\n      0x00\n      mstore\n      keccak256(0x00, 0x20)\n      swap1\n    tag_55:\n      dup2\n      sload\n      dup2\n      mstore\n      swap1\n      0x01\n      add\n      swap1\n      0x20\n      add\n      dup1\n      dup4\n      gt\n      tag_55\n      jumpi\n      dup3\n      swap1\n      sub\n      0x1f\n      and\n      dup3\n      add\n      swap2\n    tag_53:\n      pop\n      pop\n      pop\n      pop\n      pop\n      swap1\n      pop\n        /* \"contracts/_Vehicle.sol\":1308:1404  function getvehicleModel() public view returns(string memory) {\r... */\n      swap1\n      jump\t// out\n        /* \"contracts/_Vehicle.sol\":1412:1508  function getvehicleColor() public view returns(string memory) {\r... */\n    tag_19:\n        /* \"contracts/_Vehicle.sol\":1459:1472  string memory */\n      0x60\n        /* \"contracts/_Vehicle.sol\":1492:1500  carColor */\n      0x03\n        /* \"contracts/_Vehicle.sol\":1485:1500  return carColor */\n      dup1\n      sload\n      tag_57\n      swap1\n      tag_51\n      jump\t// in\n    tag_57:\n      dup1\n      0x1f\n      add\n      0x20\n      dup1\n      swap2\n      div\n      mul\n      0x20\n      add\n      mload(0x40)\n      swap1\n      dup2\n      add\n      0x40\n      mstore\n      dup1\n      swap3\n      swap2\n      swap1\n      dup2\n      dup2\n      mstore\n      0x20\n      add\n      dup3\n      dup1\n      sload\n      tag_58\n      swap1\n      tag_51\n      jump\t// in\n    tag_58:\n      dup1\n      iszero\n      tag_59\n      jumpi\n      dup1\n      0x1f\n      lt\n      tag_60\n      jumpi\n      0x0100\n      dup1\n      dup4\n      sload\n      div\n      mul\n      dup4\n      mstore\n      swap2\n      0x20\n      add\n      swap2\n      jump(tag_59)\n    tag_60:\n      dup3\n      add\n      swap2\n      swap1\n      0x00\n      mstore\n      keccak256(0x00, 0x20)\n      swap1\n    tag_61:\n      dup2\n      sload\n      dup2\n      mstore\n      swap1\n      0x01\n      add\n      swap1\n      0x20\n      add\n      dup1\n      dup4\n      gt\n      tag_61\n      jumpi\n      dup3\n      swap1\n      sub\n      0x1f\n      and\n      dup3\n      add\n      swap2\n    tag_59:\n      pop\n      pop\n      pop\n      pop\n      pop\n      swap1\n      pop\n        /* \"contracts/_Vehicle.sol\":1412:1508  function getvehicleColor() public view returns(string memory) {\r... */\n      swap1\n      jump\t// out\n        /* \"contracts/_Vehicle.sol\":1881:1978  function getvehicleOwendBy() public view returns(string memory) {\r... */\n    tag_22:\n        /* \"contracts/_Vehicle.sol\":1930:1943  string memory */\n      0x60\n        /* \"contracts/_Vehicle.sol\":1963:1970  owendBy */\n      0x05\n        /* \"contracts/_Vehicle.sol\":1956:1970  return owendBy */\n      dup1\n      sload\n      tag_63\n      swap1\n      tag_51\n      jump\t// in\n    tag_63:\n      dup1\n      0x1f\n      add\n      0x20\n      dup1\n      swap2\n      div\n      mul\n      0x20\n      add\n      mload(0x40)\n      swap1\n      dup2\n      add\n      0x40\n      mstore\n      dup1\n      swap3\n      swap2\n      swap1\n      dup2\n      dup2\n      mstore\n      0x20\n      add\n      dup3\n      dup1\n      sload\n      tag_64\n      swap1\n      tag_51\n      jump\t// in\n    tag_64:\n      dup1\n      iszero\n      tag_65\n      jumpi\n      dup1\n      0x1f\n      lt\n      tag_66\n      jumpi\n      0x0100\n      dup1\n      dup4\n      sload\n      div\n      mul\n      dup4\n      mstore\n      swap2\n      0x20\n      add\n      swap2\n      jump(tag_65)\n    tag_66:\n      dup3\n      add\n      swap2\n      swap1\n      0x00\n      mstore\n      keccak256(0x00, 0x20)\n      swap1\n    tag_67:\n      dup2\n      sload\n      dup2\n      mstore\n      swap1\n      0x01\n      add\n      swap1\n      0x20\n      add\n      dup1\n      dup4\n      gt\n      tag_67\n      jumpi\n      dup3\n      swap1\n      sub\n      0x1f\n      and\n      dup3\n      add\n      swap2\n    tag_65:\n      pop\n      pop\n      pop\n      pop\n      pop\n      swap1\n      pop\n        /* \"contracts/_Vehicle.sol\":1881:1978  function getvehicleOwendBy() public view returns(string memory) {\r... */\n      swap1\n      jump\t// out\n        /* \"contracts/_Vehicle.sol\":767:862  function setOwnerShip(string memory oweraddress)public {\r... */\n    tag_27:\n        /* \"contracts/_Vehicle.sol\":843:854  oweraddress */\n      dup1\n        /* \"contracts/_Vehicle.sol\":833:840  owendBy */\n      0x05\n        /* \"contracts/_Vehicle.sol\":833:854  owendBy = oweraddress */\n      swap1\n      dup1\n      mload\n      swap1\n      0x20\n      add\n      swap1\n      tag_69\n      swap3\n      swap2\n      swap1\n      tag_70\n      jump\t// in\n    tag_69:\n      pop\n        /* \"contracts/_Vehicle.sol\":767:862  function setOwnerShip(string memory oweraddress)public {\r... */\n      pop\n      jump\t// out\n        /* \"contracts/_Vehicle.sol\":870:1094  function verifyMerikelrootvalue(string memory currentMerikelrootvalue) public view returns (bool){\r... */\n    tag_30:\n        /* \"contracts/_Vehicle.sol\":962:966  bool */\n      0x00\n        /* \"contracts/_Vehicle.sol\":1068:1084  merikelrootvalue */\n      0x04\n        /* \"contracts/_Vehicle.sol\":1051:1085  abi.encodePacked(merikelrootvalue) */\n      add(0x20, mload(0x40))\n      tag_72\n      swap2\n      swap1\n      tag_73\n      jump\t// in\n    tag_72:\n      mload(0x40)\n      0x20\n      dup2\n      dup4\n      sub\n      sub\n      dup2\n      mstore\n      swap1\n      0x40\n      mstore\n        /* \"contracts/_Vehicle.sol\":1041:1086  keccak256(abi.encodePacked(merikelrootvalue)) */\n      dup1\n      mload\n      swap1\n      0x20\n      add\n      keccak256\n        /* \"contracts/_Vehicle.sol\":1012:1035  currentMerikelrootvalue */\n      dup3\n        /* \"contracts/_Vehicle.sol\":995:1036  abi.encodePacked(currentMerikelrootvalue) */\n      add(0x20, mload(0x40))\n      tag_74\n      swap2\n      swap1\n      tag_75\n      jump\t// in\n    tag_74:\n      mload(0x40)\n      0x20\n      dup2\n      dup4\n      sub\n      sub\n      dup2\n      mstore\n      swap1\n      0x40\n      mstore\n        /* \"contracts/_Vehicle.sol\":985:1037  keccak256(abi.encodePacked(currentMerikelrootvalue)) */\n      dup1\n      mload\n      swap1\n      0x20\n      add\n      keccak256\n        /* \"contracts/_Vehicle.sol\":985:1086  keccak256(abi.encodePacked(currentMerikelrootvalue)) == keccak256(abi.encodePacked(merikelrootvalue)) */\n      eq\n        /* \"contracts/_Vehicle.sol\":978:1086  return keccak256(abi.encodePacked(currentMerikelrootvalue)) == keccak256(abi.encodePacked(merikelrootvalue)) */\n      swap1\n      pop\n        /* \"contracts/_Vehicle.sol\":870:1094  function verifyMerikelrootvalue(string memory currentMerikelrootvalue) public view returns (bool){\r... */\n      swap2\n      swap1\n      pop\n      jump\t// out\n        /* \"contracts/_Vehicle.sol\":1204:1300  function getvehicleBrand() public view returns(string memory) {\r... */\n    tag_34:\n        /* \"contracts/_Vehicle.sol\":1251:1264  string memory */\n      0x60\n        /* \"contracts/_Vehicle.sol\":1284:1292  carBrand */\n      0x01\n        /* \"contracts/_Vehicle.sol\":1277:1292  return carBrand */\n      dup1\n      sload\n      tag_77\n      swap1\n      tag_51\n      jump\t// in\n    tag_77:\n      dup1\n      0x1f\n      add\n      0x20\n      dup1\n      swap2\n      div\n      mul\n      0x20\n      add\n      mload(0x40)\n      swap1\n      dup2\n      add\n      0x40\n      mstore\n      dup1\n      swap3\n      swap2\n      swap1\n      dup2\n      dup2\n      mstore\n      0x20\n      add\n      dup3\n      dup1\n      sload\n      tag_78\n      swap1\n      tag_51\n      jump\t// in\n    tag_78:\n      dup1\n      iszero\n      tag_79\n      jumpi\n      dup1\n      0x1f\n      lt\n      tag_80\n      jumpi\n      0x0100\n      dup1\n      dup4\n      sload\n      div\n      mul\n      dup4\n      mstore\n      swap2\n      0x20\n      add\n      swap2\n      jump(tag_79)\n    tag_80:\n      dup3\n      add\n      swap2\n      swap1\n      0x00\n      mstore\n      keccak256(0x00, 0x20)\n      swap1\n    tag_81:\n      dup2\n      sload\n      dup2\n      mstore\n      swap1\n      0x01\n      add\n      swap1\n      0x20\n      add\n      dup1\n      dup4\n      gt\n      tag_81\n      jumpi\n      dup3\n      swap1\n      sub\n      0x1f\n      and\n      dup3\n      add\n      swap2\n    tag_79:\n      pop\n      pop\n      pop\n      pop\n      pop\n      swap1\n      pop\n        /* \"contracts/_Vehicle.sol\":1204:1300  function getvehicleBrand() public view returns(string memory) {\r... */\n      swap1\n      jump\t// out\n        /* \"contracts/_Vehicle.sol\":1750:1873  function getvehicleCreatedTime() public view returns(string memory) {\r... */\n    tag_37:\n        /* \"contracts/_Vehicle.sol\":1803:1816  string memory */\n      0x60\n        /* \"contracts/_Vehicle.sol\":1836:1865  Strings.toString(CreatedTime) */\n      tag_83\n        /* \"contracts/_Vehicle.sol\":1853:1864  CreatedTime */\n      sload(0x06)\n        /* \"contracts/_Vehicle.sol\":1836:1852  Strings.toString */\n      tag_84\n        /* \"contracts/_Vehicle.sol\":1836:1865  Strings.toString(CreatedTime) */\n      jump\t// in\n    tag_83:\n        /* \"contracts/_Vehicle.sol\":1829:1865  return Strings.toString(CreatedTime) */\n      swap1\n      pop\n        /* \"contracts/_Vehicle.sol\":1750:1873  function getvehicleCreatedTime() public view returns(string memory) {\r... */\n      swap1\n      jump\t// out\n        /* \"contracts/_Vehicle.sol\":1516:1619  function getvehicleRegisterId() public view returns(string memory) {\r... */\n    tag_40:\n        /* \"contracts/_Vehicle.sol\":1568:1581  string memory */\n      0x60\n        /* \"contracts/_Vehicle.sol\":1601:1611  registerId */\n      0x00\n        /* \"contracts/_Vehicle.sol\":1594:1611  return registerId */\n      dup1\n      sload\n      tag_86\n      swap1\n      tag_51\n      jump\t// in\n    tag_86:\n      dup1\n      0x1f\n      add\n      0x20\n      dup1\n      swap2\n      div\n      mul\n      0x20\n      add\n      mload(0x40)\n      swap1\n      dup2\n      add\n      0x40\n      mstore\n      dup1\n      swap3\n      swap2\n      swap1\n      dup2\n      dup2\n      mstore\n      0x20\n      add\n      dup3\n      dup1\n      sload\n      tag_87\n      swap1\n      tag_51\n      jump\t// in\n    tag_87:\n      dup1\n      iszero\n      tag_88\n      jumpi\n      dup1\n      0x1f\n      lt\n      tag_89\n      jumpi\n      0x0100\n      dup1\n      dup4\n      sload\n      div\n      mul\n      dup4\n      mstore\n      swap2\n      0x20\n      add\n      swap2\n      jump(tag_88)\n    tag_89:\n      dup3\n      add\n      swap2\n      swap1\n      0x00\n      mstore\n      keccak256(0x00, 0x20)\n      swap1\n    tag_90:\n      dup2\n      sload\n      dup2\n      mstore\n      swap1\n      0x01\n      add\n      swap1\n      0x20\n      add\n      dup1\n      dup4\n      gt\n      tag_90\n      jumpi\n      dup3\n      swap1\n      sub\n      0x1f\n      and\n      dup3\n      add\n      swap2\n    tag_88:\n      pop\n      pop\n      pop\n      pop\n      pop\n      swap1\n      pop\n        /* \"contracts/_Vehicle.sol\":1516:1619  function getvehicleRegisterId() public view returns(string memory) {\r... */\n      swap1\n      jump\t// out\n        /* \"contracts/_Vehicle.sol\":320:759  function AddVehicle (\r... */\n    tag_45:\n        /* \"contracts/_Vehicle.sol\":559:570  _registerId */\n      dup5\n        /* \"contracts/_Vehicle.sol\":546:556  registerId */\n      0x00\n        /* \"contracts/_Vehicle.sol\":546:570  registerId = _registerId */\n      swap1\n      dup1\n      mload\n      swap1\n      0x20\n      add\n      swap1\n      tag_92\n      swap3\n      swap2\n      swap1\n      tag_70\n      jump\t// in\n    tag_92:\n      pop\n        /* \"contracts/_Vehicle.sol\":592:601  _carBrand */\n      dup4\n        /* \"contracts/_Vehicle.sol\":581:589  carBrand */\n      0x01\n        /* \"contracts/_Vehicle.sol\":581:601  carBrand = _carBrand */\n      swap1\n      dup1\n      mload\n      swap1\n      0x20\n      add\n      swap1\n      tag_93\n      swap3\n      swap2\n      swap1\n      tag_70\n      jump\t// in\n    tag_93:\n      pop\n        /* \"contracts/_Vehicle.sol\":623:632  _carModel */\n      dup3\n        /* \"contracts/_Vehicle.sol\":612:620  carModel */\n      0x02\n        /* \"contracts/_Vehicle.sol\":612:632  carModel = _carModel */\n      swap1\n      dup1\n      mload\n      swap1\n      0x20\n      add\n      swap1\n      tag_94\n      swap3\n      swap2\n      swap1\n      tag_70\n      jump\t// in\n    tag_94:\n      pop\n        /* \"contracts/_Vehicle.sol\":654:663  _carColor */\n      dup2\n        /* \"contracts/_Vehicle.sol\":643:651  carColor */\n      0x03\n        /* \"contracts/_Vehicle.sol\":643:663  carColor = _carColor */\n      swap1\n      dup1\n      mload\n      swap1\n      0x20\n      add\n      swap1\n      tag_95\n      swap3\n      swap2\n      swap1\n      tag_70\n      jump\t// in\n    tag_95:\n      pop\n        /* \"contracts/_Vehicle.sol\":693:710  _merikelrootvalue */\n      dup1\n        /* \"contracts/_Vehicle.sol\":674:690  merikelrootvalue */\n      0x04\n        /* \"contracts/_Vehicle.sol\":674:710  merikelrootvalue = _merikelrootvalue */\n      swap1\n      dup1\n      mload\n      swap1\n      0x20\n      add\n      swap1\n      tag_96\n      swap3\n      swap2\n      swap1\n      tag_70\n      jump\t// in\n    tag_96:\n      pop\n        /* \"contracts/_Vehicle.sol\":735:751  getCurrentTime() */\n      tag_97\n        /* \"contracts/_Vehicle.sol\":735:749  getCurrentTime */\n      tag_98\n        /* \"contracts/_Vehicle.sol\":735:751  getCurrentTime() */\n      jump\t// in\n    tag_97:\n        /* \"contracts/_Vehicle.sol\":721:732  CreatedTime */\n      0x06\n        /* \"contracts/_Vehicle.sol\":721:751  CreatedTime = getCurrentTime() */\n      dup2\n      swap1\n      sstore\n      pop\n        /* \"contracts/_Vehicle.sol\":320:759  function AddVehicle (\r... */\n      pop\n      pop\n      pop\n      pop\n      pop\n      jump\t// out\n        /* \"contracts/_Vehicle.sol\":1627:1742  function getvehicleMerikelrootvalue() public view returns(string memory) {\r... */\n    tag_47:\n        /* \"contracts/_Vehicle.sol\":1685:1698  string memory */\n      0x60\n        /* \"contracts/_Vehicle.sol\":1718:1734  merikelrootvalue */\n      0x04\n        /* \"contracts/_Vehicle.sol\":1711:1734  return merikelrootvalue */\n      dup1\n      sload\n      tag_100\n      swap1\n      tag_51\n      jump\t// in\n    tag_100:\n      dup1\n      0x1f\n      add\n      0x20\n      dup1\n      swap2\n      div\n      mul\n      0x20\n      add\n      mload(0x40)\n      swap1\n      dup2\n      add\n      0x40\n      mstore\n      dup1\n      swap3\n      swap2\n      swap1\n      dup2\n      dup2\n      mstore\n      0x20\n      add\n      dup3\n      dup1\n      sload\n      tag_101\n      swap1\n      tag_51\n      jump\t// in\n    tag_101:\n      dup1\n      iszero\n      tag_102\n      jumpi\n      dup1\n      0x1f\n      lt\n      tag_103\n      jumpi\n      0x0100\n      dup1\n      dup4\n      sload\n      div\n      mul\n      dup4\n      mstore\n      swap2\n      0x20\n      add\n      swap2\n      jump(tag_102)\n    tag_103:\n      dup3\n      add\n      swap2\n      swap1\n      0x00\n      mstore\n      keccak256(0x00, 0x20)\n      swap1\n    tag_104:\n      dup2\n      sload\n      dup2\n      mstore\n      swap1\n      0x01\n      add\n      swap1\n      0x20\n      add\n      dup1\n      dup4\n      gt\n      tag_104\n      jumpi\n      dup3\n      swap1\n      sub\n      0x1f\n      and\n      dup3\n      add\n      swap2\n    tag_102:\n      pop\n      pop\n      pop\n      pop\n      pop\n      swap1\n      pop\n        /* \"contracts/_Vehicle.sol\":1627:1742  function getvehicleMerikelrootvalue() public view returns(string memory) {\r... */\n      swap1\n      jump\t// out\n        /* \"@openzeppelin/contracts/utils/Strings.sol\":415:1111  function toString(uint256 value) internal pure returns (string memory) {... */\n    tag_84:\n        /* \"@openzeppelin/contracts/utils/Strings.sol\":471:484  string memory */\n      0x60\n        /* \"@openzeppelin/contracts/utils/Strings.sol\":520:534  uint256 length */\n      0x00\n        /* \"@openzeppelin/contracts/utils/Strings.sol\":557:558  1 */\n      0x01\n        /* \"@openzeppelin/contracts/utils/Strings.sol\":537:554  Math.log10(value) */\n      tag_106\n        /* \"@openzeppelin/contracts/utils/Strings.sol\":548:553  value */\n      dup5\n        /* \"@openzeppelin/contracts/utils/Strings.sol\":537:547  Math.log10 */\n      tag_107\n        /* \"@openzeppelin/contracts/utils/Strings.sol\":537:554  Math.log10(value) */\n      jump\t// in\n    tag_106:\n        /* \"@openzeppelin/contracts/utils/Strings.sol\":537:558  Math.log10(value) + 1 */\n      add\n        /* \"@openzeppelin/contracts/utils/Strings.sol\":520:558  uint256 length = Math.log10(value) + 1 */\n      swap1\n      pop\n        /* \"@openzeppelin/contracts/utils/Strings.sol\":572:592  string memory buffer */\n      0x00\n        /* \"@openzeppelin/contracts/utils/Strings.sol\":606:612  length */\n      dup2\n        /* \"@openzeppelin/contracts/utils/Strings.sol\":595:613  new string(length) */\n      0xffffffffffffffff\n      dup2\n      gt\n      iszero\n      tag_108\n      jumpi\n      tag_109\n      tag_110\n      jump\t// in\n    tag_109:\n    tag_108:\n      mload(0x40)\n      swap1\n      dup1\n      dup3\n      mstore\n      dup1\n      0x1f\n      add\n      not(0x1f)\n      and\n      0x20\n      add\n      dup3\n      add\n      0x40\n      mstore\n      dup1\n      iszero\n      tag_111\n      jumpi\n      dup2\n      0x20\n      add\n      0x01\n      dup3\n      mul\n      dup1\n      calldatasize\n      dup4\n      calldatacopy\n      dup1\n      dup3\n      add\n      swap2\n      pop\n      pop\n      swap1\n      pop\n    tag_111:\n      pop\n        /* \"@openzeppelin/contracts/utils/Strings.sol\":572:613  string memory buffer = new string(length) */\n      swap1\n      pop\n        /* \"@openzeppelin/contracts/utils/Strings.sol\":627:638  uint256 ptr */\n      0x00\n        /* \"@openzeppelin/contracts/utils/Strings.sol\":753:759  length */\n      dup3\n        /* \"@openzeppelin/contracts/utils/Strings.sol\":749:751  32 */\n      0x20\n        /* \"@openzeppelin/contracts/utils/Strings.sol\":745:760  add(32, length) */\n      add\n        /* \"@openzeppelin/contracts/utils/Strings.sol\":737:743  buffer */\n      dup3\n        /* \"@openzeppelin/contracts/utils/Strings.sol\":733:761  add(buffer, add(32, length)) */\n      add\n        /* \"@openzeppelin/contracts/utils/Strings.sol\":726:761  ptr := add(buffer, add(32, length)) */\n      swap1\n      pop\n        /* \"@openzeppelin/contracts/utils/Strings.sol\":788:1068  while (true) {... */\n    tag_112:\n        /* \"@openzeppelin/contracts/utils/Strings.sol\":795:799  true */\n      0x01\n        /* \"@openzeppelin/contracts/utils/Strings.sol\":788:1068  while (true) {... */\n      iszero\n      tag_113\n      jumpi\n        /* \"@openzeppelin/contracts/utils/Strings.sol\":819:824  ptr-- */\n      dup1\n      dup1\n      0x01\n      swap1\n      sub\n      swap2\n      pop\n      pop\n        /* \"@openzeppelin/contracts/utils/Strings.sol\":958:966  _SYMBOLS */\n      0x3031323334353637383961626364656600000000000000000000000000000000\n        /* \"@openzeppelin/contracts/utils/Strings.sol\":953:955  10 */\n      0x0a\n        /* \"@openzeppelin/contracts/utils/Strings.sol\":946:951  value */\n      dup7\n        /* \"@openzeppelin/contracts/utils/Strings.sol\":942:956  mod(value, 10) */\n      mod\n        /* \"@openzeppelin/contracts/utils/Strings.sol\":937:967  byte(mod(value, 10), _SYMBOLS) */\n      byte\n        /* \"@openzeppelin/contracts/utils/Strings.sol\":932:935  ptr */\n      dup2\n        /* \"@openzeppelin/contracts/utils/Strings.sol\":924:968  mstore8(ptr, byte(mod(value, 10), _SYMBOLS)) */\n      mstore8\n        /* \"@openzeppelin/contracts/utils/Strings.sol\":1012:1014  10 */\n      0x0a\n        /* \"@openzeppelin/contracts/utils/Strings.sol\":1003:1014  value /= 10 */\n      dup6\n      dup2\n      tag_114\n      jumpi\n      tag_115\n      tag_116\n      jump\t// in\n    tag_115:\n    tag_114:\n      div\n      swap5\n      pop\n        /* \"@openzeppelin/contracts/utils/Strings.sol\":1045:1046  0 */\n      0x00\n        /* \"@openzeppelin/contracts/utils/Strings.sol\":1036:1041  value */\n      dup6\n        /* \"@openzeppelin/contracts/utils/Strings.sol\":1036:1046  value == 0 */\n      eq\n        /* \"@openzeppelin/contracts/utils/Strings.sol\":1032:1053  if (value == 0) break */\n      iszero\n      tag_117\n      jumpi\n        /* \"@openzeppelin/contracts/utils/Strings.sol\":1048:1053  break */\n      jump(tag_113)\n        /* \"@openzeppelin/contracts/utils/Strings.sol\":1032:1053  if (value == 0) break */\n    tag_117:\n        /* \"@openzeppelin/contracts/utils/Strings.sol\":788:1068  while (true) {... */\n      jump(tag_112)\n    tag_113:\n        /* \"@openzeppelin/contracts/utils/Strings.sol\":1088:1094  buffer */\n      dup2\n        /* \"@openzeppelin/contracts/utils/Strings.sol\":1081:1094  return buffer */\n      swap4\n      pop\n      pop\n      pop\n      pop\n        /* \"@openzeppelin/contracts/utils/Strings.sol\":415:1111  function toString(uint256 value) internal pure returns (string memory) {... */\n      swap2\n      swap1\n      pop\n      jump\t// out\n        /* \"contracts/_Vehicle.sol\":1102:1196  function getCurrentTime() internal view returns(uint){\r... */\n    tag_98:\n        /* \"contracts/_Vehicle.sol\":1150:1154  uint */\n      0x00\n        /* \"contracts/_Vehicle.sol\":1173:1188  block.timestamp */\n      timestamp\n        /* \"contracts/_Vehicle.sol\":1166:1188  return block.timestamp */\n      swap1\n      pop\n        /* \"contracts/_Vehicle.sol\":1102:1196  function getCurrentTime() internal view returns(uint){\r... */\n      swap1\n      jump\t// out\n        /* \"@openzeppelin/contracts/utils/math/Math.sol\":9889:10779  function log10(uint256 value) internal pure returns (uint256) {... */\n    tag_107:\n        /* \"@openzeppelin/contracts/utils/math/Math.sol\":9942:9949  uint256 */\n      0x00\n        /* \"@openzeppelin/contracts/utils/math/Math.sol\":9961:9975  uint256 result */\n      dup1\n        /* \"@openzeppelin/contracts/utils/math/Math.sol\":9978:9979  0 */\n      0x00\n        /* \"@openzeppelin/contracts/utils/math/Math.sol\":9961:9979  uint256 result = 0 */\n      swap1\n      pop\n        /* \"@openzeppelin/contracts/utils/math/Math.sol\":10026:10032  10**64 */\n      0x184f03e93ff9f4daa797ed6e38ed64bf6a1f010000000000000000\n        /* \"@openzeppelin/contracts/utils/math/Math.sol\":10017:10022  value */\n      dup4\n        /* \"@openzeppelin/contracts/utils/math/Math.sol\":10017:10032  value >= 10**64 */\n      lt\n        /* \"@openzeppelin/contracts/utils/math/Math.sol\":10013:10112  if (value >= 10**64) {... */\n      tag_120\n      jumpi\n        /* \"@openzeppelin/contracts/utils/math/Math.sol\":10061:10067  10**64 */\n      0x184f03e93ff9f4daa797ed6e38ed64bf6a1f010000000000000000\n        /* \"@openzeppelin/contracts/utils/math/Math.sol\":10052:10067  value /= 10**64 */\n      dup4\n      dup2\n      tag_121\n      jumpi\n      tag_122\n      tag_116\n      jump\t// in\n    tag_122:\n    tag_121:\n      div\n      swap3\n      pop\n        /* \"@openzeppelin/contracts/utils/math/Math.sol\":10095:10097  64 */\n      0x40\n        /* \"@openzeppelin/contracts/utils/math/Math.sol\":10085:10097  result += 64 */\n      dup2\n      add\n      swap1\n      pop\n        /* \"@openzeppelin/contracts/utils/math/Math.sol\":10013:10112  if (value >= 10**64) {... */\n    tag_120:\n        /* \"@openzeppelin/contracts/utils/math/Math.sol\":10138:10144  10**32 */\n      0x04ee2d6d415b85acef8100000000\n        /* \"@openzeppelin/contracts/utils/math/Math.sol\":10129:10134  value */\n      dup4\n        /* \"@openzeppelin/contracts/utils/math/Math.sol\":10129:10144  value >= 10**32 */\n      lt\n        /* \"@openzeppelin/contracts/utils/math/Math.sol\":10125:10224  if (value >= 10**32) {... */\n      tag_123\n      jumpi\n        /* \"@openzeppelin/contracts/utils/math/Math.sol\":10173:10179  10**32 */\n      0x04ee2d6d415b85acef8100000000\n        /* \"@openzeppelin/contracts/utils/math/Math.sol\":10164:10179  value /= 10**32 */\n      dup4\n      dup2\n      tag_124\n      jumpi\n      tag_125\n      tag_116\n      jump\t// in\n    tag_125:\n    tag_124:\n      div\n      swap3\n      pop\n        /* \"@openzeppelin/contracts/utils/math/Math.sol\":10207:10209  32 */\n      0x20\n        /* \"@openzeppelin/contracts/utils/math/Math.sol\":10197:10209  result += 32 */\n      dup2\n      add\n      swap1\n      pop\n        /* \"@openzeppelin/contracts/utils/math/Math.sol\":10125:10224  if (value >= 10**32) {... */\n    tag_123:\n        /* \"@openzeppelin/contracts/utils/math/Math.sol\":10250:10256  10**16 */\n      0x2386f26fc10000\n        /* \"@openzeppelin/contracts/utils/math/Math.sol\":10241:10246  value */\n      dup4\n        /* \"@openzeppelin/contracts/utils/math/Math.sol\":10241:10256  value >= 10**16 */\n      lt\n        /* \"@openzeppelin/contracts/utils/math/Math.sol\":10237:10336  if (value >= 10**16) {... */\n      tag_126\n      jumpi\n        /* \"@openzeppelin/contracts/utils/math/Math.sol\":10285:10291  10**16 */\n      0x2386f26fc10000\n        /* \"@openzeppelin/contracts/utils/math/Math.sol\":10276:10291  value /= 10**16 */\n      dup4\n      dup2\n      tag_127\n      jumpi\n      tag_128\n      tag_116\n      jump\t// in\n    tag_128:\n    tag_127:\n      div\n      swap3\n      pop\n        /* \"@openzeppelin/contracts/utils/math/Math.sol\":10319:10321  16 */\n      0x10\n        /* \"@openzeppelin/contracts/utils/math/Math.sol\":10309:10321  result += 16 */\n      dup2\n      add\n      swap1\n      pop\n        /* \"@openzeppelin/contracts/utils/math/Math.sol\":10237:10336  if (value >= 10**16) {... */\n    tag_126:\n        /* \"@openzeppelin/contracts/utils/math/Math.sol\":10362:10367  10**8 */\n      0x05f5e100\n        /* \"@openzeppelin/contracts/utils/math/Math.sol\":10353:10358  value */\n      dup4\n        /* \"@openzeppelin/contracts/utils/math/Math.sol\":10353:10367  value >= 10**8 */\n      lt\n        /* \"@openzeppelin/contracts/utils/math/Math.sol\":10349:10445  if (value >= 10**8) {... */\n      tag_129\n      jumpi\n        /* \"@openzeppelin/contracts/utils/math/Math.sol\":10396:10401  10**8 */\n      0x05f5e100\n        /* \"@openzeppelin/contracts/utils/math/Math.sol\":10387:10401  value /= 10**8 */\n      dup4\n      dup2\n      tag_130\n      jumpi\n      tag_131\n      tag_116\n      jump\t// in\n    tag_131:\n    tag_130:\n      div\n      swap3\n      pop\n        /* \"@openzeppelin/contracts/utils/math/Math.sol\":10429:10430  8 */\n      0x08\n        /* \"@openzeppelin/contracts/utils/math/Math.sol\":10419:10430  result += 8 */\n      dup2\n      add\n      swap1\n      pop\n        /* \"@openzeppelin/contracts/utils/math/Math.sol\":10349:10445  if (value >= 10**8) {... */\n    tag_129:\n        /* \"@openzeppelin/contracts/utils/math/Math.sol\":10471:10476  10**4 */\n      0x2710\n        /* \"@openzeppelin/contracts/utils/math/Math.sol\":10462:10467  value */\n      dup4\n        /* \"@openzeppelin/contracts/utils/math/Math.sol\":10462:10476  value >= 10**4 */\n      lt\n        /* \"@openzeppelin/contracts/utils/math/Math.sol\":10458:10554  if (value >= 10**4) {... */\n      tag_132\n      jumpi\n        /* \"@openzeppelin/contracts/utils/math/Math.sol\":10505:10510  10**4 */\n      0x2710\n        /* \"@openzeppelin/contracts/utils/math/Math.sol\":10496:10510  value /= 10**4 */\n      dup4\n      dup2\n      tag_133\n      jumpi\n      tag_134\n      tag_116\n      jump\t// in\n    tag_134:\n    tag_133:\n      div\n      swap3\n      pop\n        /* \"@openzeppelin/contracts/utils/math/Math.sol\":10538:10539  4 */\n      0x04\n        /* \"@openzeppelin/contracts/utils/math/Math.sol\":10528:10539  result += 4 */\n      dup2\n      add\n      swap1\n      pop\n        /* \"@openzeppelin/contracts/utils/math/Math.sol\":10458:10554  if (value >= 10**4) {... */\n    tag_132:\n        /* \"@openzeppelin/contracts/utils/math/Math.sol\":10580:10585  10**2 */\n      0x64\n        /* \"@openzeppelin/contracts/utils/math/Math.sol\":10571:10576  value */\n      dup4\n        /* \"@openzeppelin/contracts/utils/math/Math.sol\":10571:10585  value >= 10**2 */\n      lt\n        /* \"@openzeppelin/contracts/utils/math/Math.sol\":10567:10663  if (value >= 10**2) {... */\n      tag_135\n      jumpi\n        /* \"@openzeppelin/contracts/utils/math/Math.sol\":10614:10619  10**2 */\n      0x64\n        /* \"@openzeppelin/contracts/utils/math/Math.sol\":10605:10619  value /= 10**2 */\n      dup4\n      dup2\n      tag_136\n      jumpi\n      tag_137\n      tag_116\n      jump\t// in\n    tag_137:\n    tag_136:\n      div\n      swap3\n      pop\n        /* \"@openzeppelin/contracts/utils/math/Math.sol\":10647:10648  2 */\n      0x02\n        /* \"@openzeppelin/contracts/utils/math/Math.sol\":10637:10648  result += 2 */\n      dup2\n      add\n      swap1\n      pop\n        /* \"@openzeppelin/contracts/utils/math/Math.sol\":10567:10663  if (value >= 10**2) {... */\n    tag_135:\n        /* \"@openzeppelin/contracts/utils/math/Math.sol\":10689:10694  10**1 */\n      0x0a\n        /* \"@openzeppelin/contracts/utils/math/Math.sol\":10680:10685  value */\n      dup4\n        /* \"@openzeppelin/contracts/utils/math/Math.sol\":10680:10694  value >= 10**1 */\n      lt\n        /* \"@openzeppelin/contracts/utils/math/Math.sol\":10676:10740  if (value >= 10**1) {... */\n      tag_138\n      jumpi\n        /* \"@openzeppelin/contracts/utils/math/Math.sol\":10724:10725  1 */\n      0x01\n        /* \"@openzeppelin/contracts/utils/math/Math.sol\":10714:10725  result += 1 */\n      dup2\n      add\n      swap1\n      pop\n        /* \"@openzeppelin/contracts/utils/math/Math.sol\":10676:10740  if (value >= 10**1) {... */\n    tag_138:\n        /* \"@openzeppelin/contracts/utils/math/Math.sol\":10766:10772  result */\n      dup1\n        /* \"@openzeppelin/contracts/utils/math/Math.sol\":10759:10772  return result */\n      swap2\n      pop\n      pop\n        /* \"@openzeppelin/contracts/utils/math/Math.sol\":9889:10779  function log10(uint256 value) internal pure returns (uint256) {... */\n      swap2\n      swap1\n      pop\n      jump\t// out\n    tag_70:\n      dup3\n      dup1\n      sload\n      tag_139\n      swap1\n      tag_51\n      jump\t// in\n    tag_139:\n      swap1\n      0x00\n      mstore\n      keccak256(0x00, 0x20)\n      swap1\n      0x1f\n      add\n      0x20\n      swap1\n      div\n      dup2\n      add\n      swap3\n      dup3\n      tag_141\n      jumpi\n      0x00\n      dup6\n      sstore\n      jump(tag_140)\n    tag_141:\n      dup3\n      0x1f\n      lt\n      tag_142\n      jumpi\n      dup1\n      mload\n      not(0xff)\n      and\n      dup4\n      dup1\n      add\n      or\n      dup6\n      sstore\n      jump(tag_140)\n    tag_142:\n      dup3\n      dup1\n      add\n      0x01\n      add\n      dup6\n      sstore\n      dup3\n      iszero\n      tag_140\n      jumpi\n      swap2\n      dup3\n      add\n    tag_143:\n      dup3\n      dup2\n      gt\n      iszero\n      tag_144\n      jumpi\n      dup3\n      mload\n      dup3\n      sstore\n      swap2\n      0x20\n      add\n      swap2\n      swap1\n      0x01\n      add\n      swap1\n      jump(tag_143)\n    tag_144:\n    tag_140:\n      pop\n      swap1\n      pop\n      tag_145\n      swap2\n      swap1\n      tag_146\n      jump\t// in\n    tag_145:\n      pop\n      swap1\n      jump\t// out\n    tag_146:\n    tag_147:\n      dup1\n      dup3\n      gt\n      iszero\n      tag_148\n      jumpi\n      0x00\n      dup2\n      0x00\n      swap1\n      sstore\n      pop\n      0x01\n      add\n      jump(tag_147)\n    tag_148:\n      pop\n      swap1\n      jump\t// out\n        /* \"#utility.yul\":7:419   */\n    tag_150:\n        /* \"#utility.yul\":85:90   */\n      0x00\n        /* \"#utility.yul\":110:176   */\n      tag_152\n        /* \"#utility.yul\":126:175   */\n      tag_153\n        /* \"#utility.yul\":168:174   */\n      dup5\n        /* \"#utility.yul\":126:175   */\n      tag_154\n      jump\t// in\n    tag_153:\n        /* \"#utility.yul\":110:176   */\n      tag_155\n      jump\t// in\n    tag_152:\n        /* \"#utility.yul\":101:176   */\n      swap1\n      pop\n        /* \"#utility.yul\":199:205   */\n      dup3\n        /* \"#utility.yul\":192:197   */\n      dup2\n        /* \"#utility.yul\":185:206   */\n      mstore\n        /* \"#utility.yul\":237:241   */\n      0x20\n        /* \"#utility.yul\":230:235   */\n      dup2\n        /* \"#utility.yul\":226:242   */\n      add\n        /* \"#utility.yul\":275:278   */\n      dup5\n        /* \"#utility.yul\":266:272   */\n      dup5\n        /* \"#utility.yul\":261:264   */\n      dup5\n        /* \"#utility.yul\":257:273   */\n      add\n        /* \"#utility.yul\":254:279   */\n      gt\n        /* \"#utility.yul\":251:363   */\n      iszero\n      tag_156\n      jumpi\n        /* \"#utility.yul\":282:361   */\n      tag_157\n      tag_158\n      jump\t// in\n    tag_157:\n        /* \"#utility.yul\":251:363   */\n    tag_156:\n        /* \"#utility.yul\":372:413   */\n      tag_159\n        /* \"#utility.yul\":406:412   */\n      dup5\n        /* \"#utility.yul\":401:404   */\n      dup3\n        /* \"#utility.yul\":396:399   */\n      dup6\n        /* \"#utility.yul\":372:413   */\n      tag_160\n      jump\t// in\n    tag_159:\n        /* \"#utility.yul\":91:419   */\n      pop\n        /* \"#utility.yul\":7:419   */\n      swap4\n      swap3\n      pop\n      pop\n      pop\n      jump\t// out\n        /* \"#utility.yul\":439:779   */\n    tag_161:\n        /* \"#utility.yul\":495:500   */\n      0x00\n        /* \"#utility.yul\":544:547   */\n      dup3\n        /* \"#utility.yul\":537:541   */\n      0x1f\n        /* \"#utility.yul\":529:535   */\n      dup4\n        /* \"#utility.yul\":525:542   */\n      add\n        /* \"#utility.yul\":521:548   */\n      slt\n        /* \"#utility.yul\":511:633   */\n      tag_163\n      jumpi\n        /* \"#utility.yul\":552:631   */\n      tag_164\n      tag_165\n      jump\t// in\n    tag_164:\n        /* \"#utility.yul\":511:633   */\n    tag_163:\n        /* \"#utility.yul\":669:675   */\n      dup2\n        /* \"#utility.yul\":656:676   */\n      calldataload\n        /* \"#utility.yul\":694:773   */\n      tag_166\n        /* \"#utility.yul\":769:772   */\n      dup5\n        /* \"#utility.yul\":761:767   */\n      dup3\n        /* \"#utility.yul\":754:758   */\n      0x20\n        /* \"#utility.yul\":746:752   */\n      dup7\n        /* \"#utility.yul\":742:759   */\n      add\n        /* \"#utility.yul\":694:773   */\n      tag_150\n      jump\t// in\n    tag_166:\n        /* \"#utility.yul\":685:773   */\n      swap2\n      pop\n        /* \"#utility.yul\":501:779   */\n      pop\n        /* \"#utility.yul\":439:779   */\n      swap3\n      swap2\n      pop\n      pop\n      jump\t// out\n        /* \"#utility.yul\":785:1294   */\n    tag_26:\n        /* \"#utility.yul\":854:860   */\n      0x00\n        /* \"#utility.yul\":903:905   */\n      0x20\n        /* \"#utility.yul\":891:900   */\n      dup3\n        /* \"#utility.yul\":882:889   */\n      dup5\n        /* \"#utility.yul\":878:901   */\n      sub\n        /* \"#utility.yul\":874:906   */\n      slt\n        /* \"#utility.yul\":871:990   */\n      iszero\n      tag_168\n      jumpi\n        /* \"#utility.yul\":909:988   */\n      tag_169\n      tag_170\n      jump\t// in\n    tag_169:\n        /* \"#utility.yul\":871:990   */\n    tag_168:\n        /* \"#utility.yul\":1057:1058   */\n      0x00\n        /* \"#utility.yul\":1046:1055   */\n      dup3\n        /* \"#utility.yul\":1042:1059   */\n      add\n        /* \"#utility.yul\":1029:1060   */\n      calldataload\n        /* \"#utility.yul\":1087:1105   */\n      0xffffffffffffffff\n        /* \"#utility.yul\":1079:1085   */\n      dup2\n        /* \"#utility.yul\":1076:1106   */\n      gt\n        /* \"#utility.yul\":1073:1190   */\n      iszero\n      tag_171\n      jumpi\n        /* \"#utility.yul\":1109:1188   */\n      tag_172\n      tag_173\n      jump\t// in\n    tag_172:\n        /* \"#utility.yul\":1073:1190   */\n    tag_171:\n        /* \"#utility.yul\":1214:1277   */\n      tag_174\n        /* \"#utility.yul\":1269:1276   */\n      dup5\n        /* \"#utility.yul\":1260:1266   */\n      dup3\n        /* \"#utility.yul\":1249:1258   */\n      dup6\n        /* \"#utility.yul\":1245:1267   */\n      add\n        /* \"#utility.yul\":1214:1277   */\n      tag_161\n      jump\t// in\n    tag_174:\n        /* \"#utility.yul\":1204:1277   */\n      swap2\n      pop\n        /* \"#utility.yul\":1000:1287   */\n      pop\n        /* \"#utility.yul\":785:1294   */\n      swap3\n      swap2\n      pop\n      pop\n      jump\t// out\n        /* \"#utility.yul\":1300:3111   */\n    tag_44:\n        /* \"#utility.yul\":1445:1451   */\n      0x00\n        /* \"#utility.yul\":1453:1459   */\n      dup1\n        /* \"#utility.yul\":1461:1467   */\n      0x00\n        /* \"#utility.yul\":1469:1475   */\n      dup1\n        /* \"#utility.yul\":1477:1483   */\n      0x00\n        /* \"#utility.yul\":1526:1529   */\n      0xa0\n        /* \"#utility.yul\":1514:1523   */\n      dup7\n        /* \"#utility.yul\":1505:1512   */\n      dup9\n        /* \"#utility.yul\":1501:1524   */\n      sub\n        /* \"#utility.yul\":1497:1530   */\n      slt\n        /* \"#utility.yul\":1494:1614   */\n      iszero\n      tag_176\n      jumpi\n        /* \"#utility.yul\":1533:1612   */\n      tag_177\n      tag_170\n      jump\t// in\n    tag_177:\n        /* \"#utility.yul\":1494:1614   */\n    tag_176:\n        /* \"#utility.yul\":1681:1682   */\n      0x00\n        /* \"#utility.yul\":1670:1679   */\n      dup7\n        /* \"#utility.yul\":1666:1683   */\n      add\n        /* \"#utility.yul\":1653:1684   */\n      calldataload\n        /* \"#utility.yul\":1711:1729   */\n      0xffffffffffffffff\n        /* \"#utility.yul\":1703:1709   */\n      dup2\n        /* \"#utility.yul\":1700:1730   */\n      gt\n        /* \"#utility.yul\":1697:1814   */\n      iszero\n      tag_178\n      jumpi\n        /* \"#utility.yul\":1733:1812   */\n      tag_179\n      tag_173\n      jump\t// in\n    tag_179:\n        /* \"#utility.yul\":1697:1814   */\n    tag_178:\n        /* \"#utility.yul\":1838:1901   */\n      tag_180\n        /* \"#utility.yul\":1893:1900   */\n      dup9\n        /* \"#utility.yul\":1884:1890   */\n      dup3\n        /* \"#utility.yul\":1873:1882   */\n      dup10\n        /* \"#utility.yul\":1869:1891   */\n      add\n        /* \"#utility.yul\":1838:1901   */\n      tag_161\n      jump\t// in\n    tag_180:\n        /* \"#utility.yul\":1828:1901   */\n      swap6\n      pop\n        /* \"#utility.yul\":1624:1911   */\n      pop\n        /* \"#utility.yul\":1978:1980   */\n      0x20\n        /* \"#utility.yul\":1967:1976   */\n      dup7\n        /* \"#utility.yul\":1963:1981   */\n      add\n        /* \"#utility.yul\":1950:1982   */\n      calldataload\n        /* \"#utility.yul\":2009:2027   */\n      0xffffffffffffffff\n        /* \"#utility.yul\":2001:2007   */\n      dup2\n        /* \"#utility.yul\":1998:2028   */\n      gt\n        /* \"#utility.yul\":1995:2112   */\n      iszero\n      tag_181\n      jumpi\n        /* \"#utility.yul\":2031:2110   */\n      tag_182\n      tag_173\n      jump\t// in\n    tag_182:\n        /* \"#utility.yul\":1995:2112   */\n    tag_181:\n        /* \"#utility.yul\":2136:2199   */\n      tag_183\n        /* \"#utility.yul\":2191:2198   */\n      dup9\n        /* \"#utility.yul\":2182:2188   */\n      dup3\n        /* \"#utility.yul\":2171:2180   */\n      dup10\n        /* \"#utility.yul\":2167:2189   */\n      add\n        /* \"#utility.yul\":2136:2199   */\n      tag_161\n      jump\t// in\n    tag_183:\n        /* \"#utility.yul\":2126:2199   */\n      swap5\n      pop\n        /* \"#utility.yul\":1921:2209   */\n      pop\n        /* \"#utility.yul\":2276:2278   */\n      0x40\n        /* \"#utility.yul\":2265:2274   */\n      dup7\n        /* \"#utility.yul\":2261:2279   */\n      add\n        /* \"#utility.yul\":2248:2280   */\n      calldataload\n        /* \"#utility.yul\":2307:2325   */\n      0xffffffffffffffff\n        /* \"#utility.yul\":2299:2305   */\n      dup2\n        /* \"#utility.yul\":2296:2326   */\n      gt\n        /* \"#utility.yul\":2293:2410   */\n      iszero\n      tag_184\n      jumpi\n        /* \"#utility.yul\":2329:2408   */\n      tag_185\n      tag_173\n      jump\t// in\n    tag_185:\n        /* \"#utility.yul\":2293:2410   */\n    tag_184:\n        /* \"#utility.yul\":2434:2497   */\n      tag_186\n        /* \"#utility.yul\":2489:2496   */\n      dup9\n        /* \"#utility.yul\":2480:2486   */\n      dup3\n        /* \"#utility.yul\":2469:2478   */\n      dup10\n        /* \"#utility.yul\":2465:2487   */\n      add\n        /* \"#utility.yul\":2434:2497   */\n      tag_161\n      jump\t// in\n    tag_186:\n        /* \"#utility.yul\":2424:2497   */\n      swap4\n      pop\n        /* \"#utility.yul\":2219:2507   */\n      pop\n        /* \"#utility.yul\":2574:2576   */\n      0x60\n        /* \"#utility.yul\":2563:2572   */\n      dup7\n        /* \"#utility.yul\":2559:2577   */\n      add\n        /* \"#utility.yul\":2546:2578   */\n      calldataload\n        /* \"#utility.yul\":2605:2623   */\n      0xffffffffffffffff\n        /* \"#utility.yul\":2597:2603   */\n      dup2\n        /* \"#utility.yul\":2594:2624   */\n      gt\n        /* \"#utility.yul\":2591:2708   */\n      iszero\n      tag_187\n      jumpi\n        /* \"#utility.yul\":2627:2706   */\n      tag_188\n      tag_173\n      jump\t// in\n    tag_188:\n        /* \"#utility.yul\":2591:2708   */\n    tag_187:\n        /* \"#utility.yul\":2732:2795   */\n      tag_189\n        /* \"#utility.yul\":2787:2794   */\n      dup9\n        /* \"#utility.yul\":2778:2784   */\n      dup3\n        /* \"#utility.yul\":2767:2776   */\n      dup10\n        /* \"#utility.yul\":2763:2785   */\n      add\n        /* \"#utility.yul\":2732:2795   */\n      tag_161\n      jump\t// in\n    tag_189:\n        /* \"#utility.yul\":2722:2795   */\n      swap3\n      pop\n        /* \"#utility.yul\":2517:2805   */\n      pop\n        /* \"#utility.yul\":2872:2875   */\n      0x80\n        /* \"#utility.yul\":2861:2870   */\n      dup7\n        /* \"#utility.yul\":2857:2876   */\n      add\n        /* \"#utility.yul\":2844:2877   */\n      calldataload\n        /* \"#utility.yul\":2904:2922   */\n      0xffffffffffffffff\n        /* \"#utility.yul\":2896:2902   */\n      dup2\n        /* \"#utility.yul\":2893:2923   */\n      gt\n        /* \"#utility.yul\":2890:3007   */\n      iszero\n      tag_190\n      jumpi\n        /* \"#utility.yul\":2926:3005   */\n      tag_191\n      tag_173\n      jump\t// in\n    tag_191:\n        /* \"#utility.yul\":2890:3007   */\n    tag_190:\n        /* \"#utility.yul\":3031:3094   */\n      tag_192\n        /* \"#utility.yul\":3086:3093   */\n      dup9\n        /* \"#utility.yul\":3077:3083   */\n      dup3\n        /* \"#utility.yul\":3066:3075   */\n      dup10\n        /* \"#utility.yul\":3062:3084   */\n      add\n        /* \"#utility.yul\":3031:3094   */\n      tag_161\n      jump\t// in\n    tag_192:\n        /* \"#utility.yul\":3021:3094   */\n      swap2\n      pop\n        /* \"#utility.yul\":2815:3104   */\n      pop\n        /* \"#utility.yul\":1300:3111   */\n      swap3\n      swap6\n      pop\n      swap3\n      swap6\n      swap1\n      swap4\n      pop\n      jump\t// out\n        /* \"#utility.yul\":3117:3226   */\n    tag_193:\n        /* \"#utility.yul\":3198:3219   */\n      tag_195\n        /* \"#utility.yul\":3213:3218   */\n      dup2\n        /* \"#utility.yul\":3198:3219   */\n      tag_196\n      jump\t// in\n    tag_195:\n        /* \"#utility.yul\":3193:3196   */\n      dup3\n        /* \"#utility.yul\":3186:3220   */\n      mstore\n        /* \"#utility.yul\":3117:3226   */\n      pop\n      pop\n      jump\t// out\n        /* \"#utility.yul\":3232:3596   */\n    tag_197:\n        /* \"#utility.yul\":3320:3323   */\n      0x00\n        /* \"#utility.yul\":3348:3387   */\n      tag_199\n        /* \"#utility.yul\":3381:3386   */\n      dup3\n        /* \"#utility.yul\":3348:3387   */\n      tag_200\n      jump\t// in\n    tag_199:\n        /* \"#utility.yul\":3403:3474   */\n      tag_201\n        /* \"#utility.yul\":3467:3473   */\n      dup2\n        /* \"#utility.yul\":3462:3465   */\n      dup6\n        /* \"#utility.yul\":3403:3474   */\n      tag_202\n      jump\t// in\n    tag_201:\n        /* \"#utility.yul\":3396:3474   */\n      swap4\n      pop\n        /* \"#utility.yul\":3483:3535   */\n      tag_203\n        /* \"#utility.yul\":3528:3534   */\n      dup2\n        /* \"#utility.yul\":3523:3526   */\n      dup6\n        /* \"#utility.yul\":3516:3520   */\n      0x20\n        /* \"#utility.yul\":3509:3514   */\n      dup7\n        /* \"#utility.yul\":3505:3521   */\n      add\n        /* \"#utility.yul\":3483:3535   */\n      tag_204\n      jump\t// in\n    tag_203:\n        /* \"#utility.yul\":3560:3589   */\n      tag_205\n        /* \"#utility.yul\":3582:3588   */\n      dup2\n        /* \"#utility.yul\":3560:3589   */\n      tag_206\n      jump\t// in\n    tag_205:\n        /* \"#utility.yul\":3555:3558   */\n      dup5\n        /* \"#utility.yul\":3551:3590   */\n      add\n        /* \"#utility.yul\":3544:3590   */\n      swap2\n      pop\n        /* \"#utility.yul\":3324:3596   */\n      pop\n        /* \"#utility.yul\":3232:3596   */\n      swap3\n      swap2\n      pop\n      pop\n      jump\t// out\n        /* \"#utility.yul\":3602:3979   */\n    tag_207:\n        /* \"#utility.yul\":3708:3711   */\n      0x00\n        /* \"#utility.yul\":3736:3775   */\n      tag_209\n        /* \"#utility.yul\":3769:3774   */\n      dup3\n        /* \"#utility.yul\":3736:3775   */\n      tag_200\n      jump\t// in\n    tag_209:\n        /* \"#utility.yul\":3791:3880   */\n      tag_210\n        /* \"#utility.yul\":3873:3879   */\n      dup2\n        /* \"#utility.yul\":3868:3871   */\n      dup6\n        /* \"#utility.yul\":3791:3880   */\n      tag_211\n      jump\t// in\n    tag_210:\n        /* \"#utility.yul\":3784:3880   */\n      swap4\n      pop\n        /* \"#utility.yul\":3889:3941   */\n      tag_212\n        /* \"#utility.yul\":3934:3940   */\n      dup2\n        /* \"#utility.yul\":3929:3932   */\n      dup6\n        /* \"#utility.yul\":3922:3926   */\n      0x20\n        /* \"#utility.yul\":3915:3920   */\n      dup7\n        /* \"#utility.yul\":3911:3927   */\n      add\n        /* \"#utility.yul\":3889:3941   */\n      tag_204\n      jump\t// in\n    tag_212:\n        /* \"#utility.yul\":3966:3972   */\n      dup1\n        /* \"#utility.yul\":3961:3964   */\n      dup5\n        /* \"#utility.yul\":3957:3973   */\n      add\n        /* \"#utility.yul\":3950:3973   */\n      swap2\n      pop\n        /* \"#utility.yul\":3712:3979   */\n      pop\n        /* \"#utility.yul\":3602:3979   */\n      swap3\n      swap2\n      pop\n      pop\n      jump\t// out\n        /* \"#utility.yul\":4009:4854   */\n    tag_213:\n        /* \"#utility.yul\":4112:4115   */\n      0x00\n        /* \"#utility.yul\":4149:4154   */\n      dup2\n        /* \"#utility.yul\":4143:4155   */\n      sload\n        /* \"#utility.yul\":4178:4214   */\n      tag_215\n        /* \"#utility.yul\":4204:4213   */\n      dup2\n        /* \"#utility.yul\":4178:4214   */\n      tag_51\n      jump\t// in\n    tag_215:\n        /* \"#utility.yul\":4230:4319   */\n      tag_216\n        /* \"#utility.yul\":4312:4318   */\n      dup2\n        /* \"#utility.yul\":4307:4310   */\n      dup7\n        /* \"#utility.yul\":4230:4319   */\n      tag_211\n      jump\t// in\n    tag_216:\n        /* \"#utility.yul\":4223:4319   */\n      swap5\n      pop\n        /* \"#utility.yul\":4350:4351   */\n      0x01\n        /* \"#utility.yul\":4339:4348   */\n      dup3\n        /* \"#utility.yul\":4335:4352   */\n      and\n        /* \"#utility.yul\":4366:4367   */\n      0x00\n        /* \"#utility.yul\":4361:4498   */\n      dup2\n      eq\n      tag_218\n      jumpi\n        /* \"#utility.yul\":4512:4513   */\n      0x01\n        /* \"#utility.yul\":4507:4848   */\n      dup2\n      eq\n      tag_219\n      jumpi\n        /* \"#utility.yul\":4328:4848   */\n      jump(tag_217)\n        /* \"#utility.yul\":4361:4498   */\n    tag_218:\n        /* \"#utility.yul\":4445:4449   */\n      0xff\n        /* \"#utility.yul\":4441:4450   */\n      not\n        /* \"#utility.yul\":4430:4439   */\n      dup4\n        /* \"#utility.yul\":4426:4451   */\n      and\n        /* \"#utility.yul\":4421:4424   */\n      dup7\n        /* \"#utility.yul\":4414:4452   */\n      mstore\n        /* \"#utility.yul\":4481:4487   */\n      dup2\n        /* \"#utility.yul\":4476:4479   */\n      dup7\n        /* \"#utility.yul\":4472:4488   */\n      add\n        /* \"#utility.yul\":4465:4488   */\n      swap4\n      pop\n        /* \"#utility.yul\":4361:4498   */\n      jump(tag_217)\n        /* \"#utility.yul\":4507:4848   */\n    tag_219:\n        /* \"#utility.yul\":4574:4612   */\n      tag_220\n        /* \"#utility.yul\":4606:4611   */\n      dup6\n        /* \"#utility.yul\":4574:4612   */\n      tag_221\n      jump\t// in\n    tag_220:\n        /* \"#utility.yul\":4634:4635   */\n      0x00\n        /* \"#utility.yul\":4648:4802   */\n    tag_222:\n        /* \"#utility.yul\":4662:4668   */\n      dup4\n        /* \"#utility.yul\":4659:4660   */\n      dup2\n        /* \"#utility.yul\":4656:4669   */\n      lt\n        /* \"#utility.yul\":4648:4802   */\n      iszero\n      tag_224\n      jumpi\n        /* \"#utility.yul\":4736:4743   */\n      dup2\n        /* \"#utility.yul\":4730:4744   */\n      sload\n        /* \"#utility.yul\":4726:4727   */\n      dup2\n        /* \"#utility.yul\":4721:4724   */\n      dup10\n        /* \"#utility.yul\":4717:4728   */\n      add\n        /* \"#utility.yul\":4710:4745   */\n      mstore\n        /* \"#utility.yul\":4786:4787   */\n      0x01\n        /* \"#utility.yul\":4777:4784   */\n      dup3\n        /* \"#utility.yul\":4773:4788   */\n      add\n        /* \"#utility.yul\":4762:4788   */\n      swap2\n      pop\n        /* \"#utility.yul\":4684:4688   */\n      0x20\n        /* \"#utility.yul\":4681:4682   */\n      dup2\n        /* \"#utility.yul\":4677:4689   */\n      add\n        /* \"#utility.yul\":4672:4689   */\n      swap1\n      pop\n        /* \"#utility.yul\":4648:4802   */\n      jump(tag_222)\n    tag_224:\n        /* \"#utility.yul\":4831:4837   */\n      dup4\n        /* \"#utility.yul\":4826:4829   */\n      dup9\n        /* \"#utility.yul\":4822:4838   */\n      add\n        /* \"#utility.yul\":4815:4838   */\n      swap6\n      pop\n        /* \"#utility.yul\":4514:4848   */\n      pop\n      pop\n        /* \"#utility.yul\":4328:4848   */\n    tag_217:\n      pop\n        /* \"#utility.yul\":4116:4854   */\n      pop\n      pop\n        /* \"#utility.yul\":4009:4854   */\n      swap3\n      swap2\n      pop\n      pop\n      jump\t// out\n        /* \"#utility.yul\":4860:5135   */\n    tag_75:\n        /* \"#utility.yul\":4992:4995   */\n      0x00\n        /* \"#utility.yul\":5014:5109   */\n      tag_226\n        /* \"#utility.yul\":5105:5108   */\n      dup3\n        /* \"#utility.yul\":5096:5102   */\n      dup5\n        /* \"#utility.yul\":5014:5109   */\n      tag_207\n      jump\t// in\n    tag_226:\n        /* \"#utility.yul\":5007:5109   */\n      swap2\n      pop\n        /* \"#utility.yul\":5126:5129   */\n      dup2\n        /* \"#utility.yul\":5119:5129   */\n      swap1\n      pop\n        /* \"#utility.yul\":4860:5135   */\n      swap3\n      swap2\n      pop\n      pop\n      jump\t// out\n        /* \"#utility.yul\":5141:5410   */\n    tag_73:\n        /* \"#utility.yul\":5270:5273   */\n      0x00\n        /* \"#utility.yul\":5292:5384   */\n      tag_228\n        /* \"#utility.yul\":5380:5383   */\n      dup3\n        /* \"#utility.yul\":5371:5377   */\n      dup5\n        /* \"#utility.yul\":5292:5384   */\n      tag_213\n      jump\t// in\n    tag_228:\n        /* \"#utility.yul\":5285:5384   */\n      swap2\n      pop\n        /* \"#utility.yul\":5401:5404   */\n      dup2\n        /* \"#utility.yul\":5394:5404   */\n      swap1\n      pop\n        /* \"#utility.yul\":5141:5410   */\n      swap3\n      swap2\n      pop\n      pop\n      jump\t// out\n        /* \"#utility.yul\":5416:5626   */\n    tag_32:\n        /* \"#utility.yul\":5503:5507   */\n      0x00\n        /* \"#utility.yul\":5541:5543   */\n      0x20\n        /* \"#utility.yul\":5530:5539   */\n      dup3\n        /* \"#utility.yul\":5526:5544   */\n      add\n        /* \"#utility.yul\":5518:5544   */\n      swap1\n      pop\n        /* \"#utility.yul\":5554:5619   */\n      tag_230\n        /* \"#utility.yul\":5616:5617   */\n      0x00\n        /* \"#utility.yul\":5605:5614   */\n      dup4\n        /* \"#utility.yul\":5601:5618   */\n      add\n        /* \"#utility.yul\":5592:5598   */\n      dup5\n        /* \"#utility.yul\":5554:5619   */\n      tag_193\n      jump\t// in\n    tag_230:\n        /* \"#utility.yul\":5416:5626   */\n      swap3\n      swap2\n      pop\n      pop\n      jump\t// out\n        /* \"#utility.yul\":5632:5945   */\n    tag_17:\n        /* \"#utility.yul\":5745:5749   */\n      0x00\n        /* \"#utility.yul\":5783:5785   */\n      0x20\n        /* \"#utility.yul\":5772:5781   */\n      dup3\n        /* \"#utility.yul\":5768:5786   */\n      add\n        /* \"#utility.yul\":5760:5786   */\n      swap1\n      pop\n        /* \"#utility.yul\":5832:5841   */\n      dup2\n        /* \"#utility.yul\":5826:5830   */\n      dup2\n        /* \"#utility.yul\":5822:5842   */\n      sub\n        /* \"#utility.yul\":5818:5819   */\n      0x00\n        /* \"#utility.yul\":5807:5816   */\n      dup4\n        /* \"#utility.yul\":5803:5820   */\n      add\n        /* \"#utility.yul\":5796:5843   */\n      mstore\n        /* \"#utility.yul\":5860:5938   */\n      tag_232\n        /* \"#utility.yul\":5933:5937   */\n      dup2\n        /* \"#utility.yul\":5924:5930   */\n      dup5\n        /* \"#utility.yul\":5860:5938   */\n      tag_197\n      jump\t// in\n    tag_232:\n        /* \"#utility.yul\":5852:5938   */\n      swap1\n      pop\n        /* \"#utility.yul\":5632:5945   */\n      swap3\n      swap2\n      pop\n      pop\n      jump\t// out\n        /* \"#utility.yul\":5951:6080   */\n    tag_155:\n        /* \"#utility.yul\":5985:5991   */\n      0x00\n        /* \"#utility.yul\":6012:6032   */\n      tag_234\n      tag_235\n      jump\t// in\n    tag_234:\n        /* \"#utility.yul\":6002:6032   */\n      swap1\n      pop\n        /* \"#utility.yul\":6041:6074   */\n      tag_236\n        /* \"#utility.yul\":6069:6073   */\n      dup3\n        /* \"#utility.yul\":6061:6067   */\n      dup3\n        /* \"#utility.yul\":6041:6074   */\n      tag_237\n      jump\t// in\n    tag_236:\n        /* \"#utility.yul\":5951:6080   */\n      swap2\n      swap1\n      pop\n      jump\t// out\n        /* \"#utility.yul\":6086:6161   */\n    tag_235:\n        /* \"#utility.yul\":6119:6125   */\n      0x00\n        /* \"#utility.yul\":6152:6154   */\n      0x40\n        /* \"#utility.yul\":6146:6155   */\n      mload\n        /* \"#utility.yul\":6136:6155   */\n      swap1\n      pop\n        /* \"#utility.yul\":6086:6161   */\n      swap1\n      jump\t// out\n        /* \"#utility.yul\":6167:6475   */\n    tag_154:\n        /* \"#utility.yul\":6229:6233   */\n      0x00\n        /* \"#utility.yul\":6319:6337   */\n      0xffffffffffffffff\n        /* \"#utility.yul\":6311:6317   */\n      dup3\n        /* \"#utility.yul\":6308:6338   */\n      gt\n        /* \"#utility.yul\":6305:6361   */\n      iszero\n      tag_240\n      jumpi\n        /* \"#utility.yul\":6341:6359   */\n      tag_241\n      tag_110\n      jump\t// in\n    tag_241:\n        /* \"#utility.yul\":6305:6361   */\n    tag_240:\n        /* \"#utility.yul\":6379:6408   */\n      tag_242\n        /* \"#utility.yul\":6401:6407   */\n      dup3\n        /* \"#utility.yul\":6379:6408   */\n      tag_206\n      jump\t// in\n    tag_242:\n        /* \"#utility.yul\":6371:6408   */\n      swap1\n      pop\n        /* \"#utility.yul\":6463:6467   */\n      0x20\n        /* \"#utility.yul\":6457:6461   */\n      dup2\n        /* \"#utility.yul\":6453:6468   */\n      add\n        /* \"#utility.yul\":6445:6468   */\n      swap1\n      pop\n        /* \"#utility.yul\":6167:6475   */\n      swap2\n      swap1\n      pop\n      jump\t// out\n        /* \"#utility.yul\":6481:6622   */\n    tag_221:\n        /* \"#utility.yul\":6530:6534   */\n      0x00\n        /* \"#utility.yul\":6553:6556   */\n      dup2\n        /* \"#utility.yul\":6545:6556   */\n      swap1\n      pop\n        /* \"#utility.yul\":6576:6579   */\n      dup2\n        /* \"#utility.yul\":6573:6574   */\n      0x00\n        /* \"#utility.yul\":6566:6580   */\n      mstore\n        /* \"#utility.yul\":6610:6614   */\n      0x20\n        /* \"#utility.yul\":6607:6608   */\n      0x00\n        /* \"#utility.yul\":6597:6615   */\n      keccak256\n        /* \"#utility.yul\":6589:6615   */\n      swap1\n      pop\n        /* \"#utility.yul\":6481:6622   */\n      swap2\n      swap1\n      pop\n      jump\t// out\n        /* \"#utility.yul\":6628:6727   */\n    tag_200:\n        /* \"#utility.yul\":6680:6686   */\n      0x00\n        /* \"#utility.yul\":6714:6719   */\n      dup2\n        /* \"#utility.yul\":6708:6720   */\n      mload\n        /* \"#utility.yul\":6698:6720   */\n      swap1\n      pop\n        /* \"#utility.yul\":6628:6727   */\n      swap2\n      swap1\n      pop\n      jump\t// out\n        /* \"#utility.yul\":6733:6902   */\n    tag_202:\n        /* \"#utility.yul\":6817:6828   */\n      0x00\n        /* \"#utility.yul\":6851:6857   */\n      dup3\n        /* \"#utility.yul\":6846:6849   */\n      dup3\n        /* \"#utility.yul\":6839:6858   */\n      mstore\n        /* \"#utility.yul\":6891:6895   */\n      0x20\n        /* \"#utility.yul\":6886:6889   */\n      dup3\n        /* \"#utility.yul\":6882:6896   */\n      add\n        /* \"#utility.yul\":6867:6896   */\n      swap1\n      pop\n        /* \"#utility.yul\":6733:6902   */\n      swap3\n      swap2\n      pop\n      pop\n      jump\t// out\n        /* \"#utility.yul\":6908:7056   */\n    tag_211:\n        /* \"#utility.yul\":7010:7021   */\n      0x00\n        /* \"#utility.yul\":7047:7050   */\n      dup2\n        /* \"#utility.yul\":7032:7050   */\n      swap1\n      pop\n        /* \"#utility.yul\":6908:7056   */\n      swap3\n      swap2\n      pop\n      pop\n      jump\t// out\n        /* \"#utility.yul\":7062:7152   */\n    tag_196:\n        /* \"#utility.yul\":7096:7103   */\n      0x00\n        /* \"#utility.yul\":7139:7144   */\n      dup2\n        /* \"#utility.yul\":7132:7145   */\n      iszero\n        /* \"#utility.yul\":7125:7146   */\n      iszero\n        /* \"#utility.yul\":7114:7146   */\n      swap1\n      pop\n        /* \"#utility.yul\":7062:7152   */\n      swap2\n      swap1\n      pop\n      jump\t// out\n        /* \"#utility.yul\":7158:7312   */\n    tag_160:\n        /* \"#utility.yul\":7242:7248   */\n      dup3\n        /* \"#utility.yul\":7237:7240   */\n      dup2\n        /* \"#utility.yul\":7232:7235   */\n      dup4\n        /* \"#utility.yul\":7219:7249   */\n      calldatacopy\n        /* \"#utility.yul\":7304:7305   */\n      0x00\n        /* \"#utility.yul\":7295:7301   */\n      dup4\n        /* \"#utility.yul\":7290:7293   */\n      dup4\n        /* \"#utility.yul\":7286:7302   */\n      add\n        /* \"#utility.yul\":7279:7306   */\n      mstore\n        /* \"#utility.yul\":7158:7312   */\n      pop\n      pop\n      pop\n      jump\t// out\n        /* \"#utility.yul\":7318:7625   */\n    tag_204:\n        /* \"#utility.yul\":7386:7387   */\n      0x00\n        /* \"#utility.yul\":7396:7509   */\n    tag_250:\n        /* \"#utility.yul\":7410:7416   */\n      dup4\n        /* \"#utility.yul\":7407:7408   */\n      dup2\n        /* \"#utility.yul\":7404:7417   */\n      lt\n        /* \"#utility.yul\":7396:7509   */\n      iszero\n      tag_252\n      jumpi\n        /* \"#utility.yul\":7495:7496   */\n      dup1\n        /* \"#utility.yul\":7490:7493   */\n      dup3\n        /* \"#utility.yul\":7486:7497   */\n      add\n        /* \"#utility.yul\":7480:7498   */\n      mload\n        /* \"#utility.yul\":7476:7477   */\n      dup2\n        /* \"#utility.yul\":7471:7474   */\n      dup5\n        /* \"#utility.yul\":7467:7478   */\n      add\n        /* \"#utility.yul\":7460:7499   */\n      mstore\n        /* \"#utility.yul\":7432:7434   */\n      0x20\n        /* \"#utility.yul\":7429:7430   */\n      dup2\n        /* \"#utility.yul\":7425:7435   */\n      add\n        /* \"#utility.yul\":7420:7435   */\n      swap1\n      pop\n        /* \"#utility.yul\":7396:7509   */\n      jump(tag_250)\n    tag_252:\n        /* \"#utility.yul\":7527:7533   */\n      dup4\n        /* \"#utility.yul\":7524:7525   */\n      dup2\n        /* \"#utility.yul\":7521:7534   */\n      gt\n        /* \"#utility.yul\":7518:7619   */\n      iszero\n      tag_253\n      jumpi\n        /* \"#utility.yul\":7607:7608   */\n      0x00\n        /* \"#utility.yul\":7598:7604   */\n      dup5\n        /* \"#utility.yul\":7593:7596   */\n      dup5\n        /* \"#utility.yul\":7589:7605   */\n      add\n        /* \"#utility.yul\":7582:7609   */\n      mstore\n        /* \"#utility.yul\":7518:7619   */\n    tag_253:\n        /* \"#utility.yul\":7367:7625   */\n      pop\n        /* \"#utility.yul\":7318:7625   */\n      pop\n      pop\n      pop\n      jump\t// out\n        /* \"#utility.yul\":7631:7951   */\n    tag_51:\n        /* \"#utility.yul\":7675:7681   */\n      0x00\n        /* \"#utility.yul\":7712:7713   */\n      0x02\n        /* \"#utility.yul\":7706:7710   */\n      dup3\n        /* \"#utility.yul\":7702:7714   */\n      div\n        /* \"#utility.yul\":7692:7714   */\n      swap1\n      pop\n        /* \"#utility.yul\":7759:7760   */\n      0x01\n        /* \"#utility.yul\":7753:7757   */\n      dup3\n        /* \"#utility.yul\":7749:7761   */\n      and\n        /* \"#utility.yul\":7780:7798   */\n      dup1\n        /* \"#utility.yul\":7770:7851   */\n      tag_255\n      jumpi\n        /* \"#utility.yul\":7836:7840   */\n      0x7f\n        /* \"#utility.yul\":7828:7834   */\n      dup3\n        /* \"#utility.yul\":7824:7841   */\n      and\n        /* \"#utility.yul\":7814:7841   */\n      swap2\n      pop\n        /* \"#utility.yul\":7770:7851   */\n    tag_255:\n        /* \"#utility.yul\":7898:7900   */\n      0x20\n        /* \"#utility.yul\":7890:7896   */\n      dup3\n        /* \"#utility.yul\":7887:7901   */\n      lt\n        /* \"#utility.yul\":7867:7885   */\n      dup2\n        /* \"#utility.yul\":7864:7902   */\n      eq\n        /* \"#utility.yul\":7861:7945   */\n      iszero\n      tag_256\n      jumpi\n        /* \"#utility.yul\":7917:7935   */\n      tag_257\n      tag_258\n      jump\t// in\n    tag_257:\n        /* \"#utility.yul\":7861:7945   */\n    tag_256:\n        /* \"#utility.yul\":7682:7951   */\n      pop\n        /* \"#utility.yul\":7631:7951   */\n      swap2\n      swap1\n      pop\n      jump\t// out\n        /* \"#utility.yul\":7957:8238   */\n    tag_237:\n        /* \"#utility.yul\":8040:8067   */\n      tag_260\n        /* \"#utility.yul\":8062:8066   */\n      dup3\n        /* \"#utility.yul\":8040:8067   */\n      tag_206\n      jump\t// in\n    tag_260:\n        /* \"#utility.yul\":8032:8038   */\n      dup2\n        /* \"#utility.yul\":8028:8068   */\n      add\n        /* \"#utility.yul\":8170:8176   */\n      dup2\n        /* \"#utility.yul\":8158:8168   */\n      dup2\n        /* \"#utility.yul\":8155:8177   */\n      lt\n        /* \"#utility.yul\":8134:8152   */\n      0xffffffffffffffff\n        /* \"#utility.yul\":8122:8132   */\n      dup3\n        /* \"#utility.yul\":8119:8153   */\n      gt\n        /* \"#utility.yul\":8116:8178   */\n      or\n        /* \"#utility.yul\":8113:8201   */\n      iszero\n      tag_261\n      jumpi\n        /* \"#utility.yul\":8181:8199   */\n      tag_262\n      tag_110\n      jump\t// in\n    tag_262:\n        /* \"#utility.yul\":8113:8201   */\n    tag_261:\n        /* \"#utility.yul\":8221:8231   */\n      dup1\n        /* \"#utility.yul\":8217:8219   */\n      0x40\n        /* \"#utility.yul\":8210:8232   */\n      mstore\n        /* \"#utility.yul\":8000:8238   */\n      pop\n        /* \"#utility.yul\":7957:8238   */\n      pop\n      pop\n      jump\t// out\n        /* \"#utility.yul\":8244:8424   */\n    tag_116:\n        /* \"#utility.yul\":8292:8369   */\n      0x4e487b7100000000000000000000000000000000000000000000000000000000\n        /* \"#utility.yul\":8289:8290   */\n      0x00\n        /* \"#utility.yul\":8282:8370   */\n      mstore\n        /* \"#utility.yul\":8389:8393   */\n      0x12\n        /* \"#utility.yul\":8386:8387   */\n      0x04\n        /* \"#utility.yul\":8379:8394   */\n      mstore\n        /* \"#utility.yul\":8413:8417   */\n      0x24\n        /* \"#utility.yul\":8410:8411   */\n      0x00\n        /* \"#utility.yul\":8403:8418   */\n      revert\n        /* \"#utility.yul\":8430:8610   */\n    tag_258:\n        /* \"#utility.yul\":8478:8555   */\n      0x4e487b7100000000000000000000000000000000000000000000000000000000\n        /* \"#utility.yul\":8475:8476   */\n      0x00\n        /* \"#utility.yul\":8468:8556   */\n      mstore\n        /* \"#utility.yul\":8575:8579   */\n      0x22\n        /* \"#utility.yul\":8572:8573   */\n      0x04\n        /* \"#utility.yul\":8565:8580   */\n      mstore\n        /* \"#utility.yul\":8599:8603   */\n      0x24\n        /* \"#utility.yul\":8596:8597   */\n      0x00\n        /* \"#utility.yul\":8589:8604   */\n      revert\n        /* \"#utility.yul\":8616:8796   */\n    tag_110:\n        /* \"#utility.yul\":8664:8741   */\n      0x4e487b7100000000000000000000000000000000000000000000000000000000\n        /* \"#utility.yul\":8661:8662   */\n      0x00\n        /* \"#utility.yul\":8654:8742   */\n      mstore\n        /* \"#utility.yul\":8761:8765   */\n      0x41\n        /* \"#utility.yul\":8758:8759   */\n      0x04\n        /* \"#utility.yul\":8751:8766   */\n      mstore\n        /* \"#utility.yul\":8785:8789   */\n      0x24\n        /* \"#utility.yul\":8782:8783   */\n      0x00\n        /* \"#utility.yul\":8775:8790   */\n      revert\n        /* \"#utility.yul\":8802:8919   */\n    tag_165:\n        /* \"#utility.yul\":8911:8912   */\n      0x00\n        /* \"#utility.yul\":8908:8909   */\n      dup1\n        /* \"#utility.yul\":8901:8913   */\n      revert\n        /* \"#utility.yul\":8925:9042   */\n    tag_158:\n        /* \"#utility.yul\":9034:9035   */\n      0x00\n        /* \"#utility.yul\":9031:9032   */\n      dup1\n        /* \"#utility.yul\":9024:9036   */\n      revert\n        /* \"#utility.yul\":9048:9165   */\n    tag_173:\n        /* \"#utility.yul\":9157:9158   */\n      0x00\n        /* \"#utility.yul\":9154:9155   */\n      dup1\n        /* \"#utility.yul\":9147:9159   */\n      revert\n        /* \"#utility.yul\":9171:9288   */\n    tag_170:\n        /* \"#utility.yul\":9280:9281   */\n      0x00\n        /* \"#utility.yul\":9277:9278   */\n      dup1\n        /* \"#utility.yul\":9270:9282   */\n      revert\n        /* \"#utility.yul\":9294:9396   */\n    tag_206:\n        /* \"#utility.yul\":9335:9341   */\n      0x00\n        /* \"#utility.yul\":9386:9388   */\n      0x1f\n        /* \"#utility.yul\":9382:9389   */\n      not\n        /* \"#utility.yul\":9377:9379   */\n      0x1f\n        /* \"#utility.yul\":9370:9375   */\n      dup4\n        /* \"#utility.yul\":9366:9380   */\n      add\n        /* \"#utility.yul\":9362:9390   */\n      and\n        /* \"#utility.yul\":9352:9390   */\n      swap1\n      pop\n        /* \"#utility.yul\":9294:9396   */\n      swap2\n      swap1\n      pop\n      jump\t// out\n\n    auxdata: 0xa2646970667358221220839f5b54a556ff9a423fda23c9ab8e017b08dab3f7a1e2d6d4f3f4bc9d97d35d64736f6c63430008070033\n}\n",
				"bytecode": {
					"linkReferences": {},
					"object": "608060405234801561001057600080fd5b50610e7a806100206000396000f3fe608060405234801561001057600080fd5b506004361061009e5760003560e01c8063ca3740de11610066578063ca3740de14610149578063ced7142c14610167578063d1d5400d14610185578063d43cf416146101a3578063e12d7db4146101bf5761009e565b80631ba7b1f7146100a357806322e5ba7c146100c157806350ca0907146100df57806382290ddb146100fd578063a8515f8e14610119575b600080fd5b6100ab6101dd565b6040516100b89190610c2d565b60405180910390f35b6100c961026f565b6040516100d69190610c2d565b60405180910390f35b6100e7610301565b6040516100f49190610c2d565b60405180910390f35b6101176004803603810190610112919061099c565b610393565b005b610133600480360381019061012e919061099c565b6103ad565b6040516101409190610c12565b60405180910390f35b610151610406565b60405161015e9190610c2d565b60405180910390f35b61016f610498565b60405161017c9190610c2d565b60405180910390f35b61018d6104aa565b60405161019a9190610c2d565b60405180910390f35b6101bd60048036038101906101b891906109e5565b61053c565b005b6101c76105c4565b6040516101d49190610c2d565b60405180910390f35b6060600280546101ec90610d2f565b80601f016020809104026020016040519081016040528092919081815260200182805461021890610d2f565b80156102655780601f1061023a57610100808354040283529160200191610265565b820191906000526020600020905b81548152906001019060200180831161024857829003601f168201915b5050505050905090565b60606003805461027e90610d2f565b80601f01602080910402602001604051908101604052809291908181526020018280546102aa90610d2f565b80156102f75780601f106102cc576101008083540402835291602001916102f7565b820191906000526020600020905b8154815290600101906020018083116102da57829003601f168201915b5050505050905090565b60606005805461031090610d2f565b80601f016020809104026020016040519081016040528092919081815260200182805461033c90610d2f565b80156103895780601f1061035e57610100808354040283529160200191610389565b820191906000526020600020905b81548152906001019060200180831161036c57829003601f168201915b5050505050905090565b80600590805190602001906103a9929190610889565b5050565b600060046040516020016103c19190610bfb565b60405160208183030381529060405280519060200120826040516020016103e89190610be4565b60405160208183030381529060405280519060200120149050919050565b60606001805461041590610d2f565b80601f016020809104026020016040519081016040528092919081815260200182805461044190610d2f565b801561048e5780601f106104635761010080835404028352916020019161048e565b820191906000526020600020905b81548152906001019060200180831161047157829003601f168201915b5050505050905090565b60606104a5600654610656565b905090565b6060600080546104b990610d2f565b80601f01602080910402602001604051908101604052809291908181526020018280546104e590610d2f565b80156105325780601f1061050757610100808354040283529160200191610532565b820191906000526020600020905b81548152906001019060200180831161051557829003601f168201915b5050505050905090565b8460009080519060200190610552929190610889565b508360019080519060200190610569929190610889565b508260029080519060200190610580929190610889565b508160039080519060200190610597929190610889565b5080600490805190602001906105ae929190610889565b506105b761072e565b6006819055505050505050565b6060600480546105d390610d2f565b80601f01602080910402602001604051908101604052809291908181526020018280546105ff90610d2f565b801561064c5780601f106106215761010080835404028352916020019161064c565b820191906000526020600020905b81548152906001019060200180831161062f57829003601f168201915b5050505050905090565b60606000600161066584610736565b01905060008167ffffffffffffffff81111561068457610683610df0565b5b6040519080825280601f01601f1916602001820160405280156106b65781602001600182028036833780820191505090505b509050600082602001820190505b600115610723578080600190039150507f3031323334353637383961626364656600000000000000000000000000000000600a86061a8153600a858161070d5761070c610d92565b5b049450600085141561071e57610723565b6106c4565b819350505050919050565b600042905090565b600080600090507a184f03e93ff9f4daa797ed6e38ed64bf6a1f0100000000000000008310610794577a184f03e93ff9f4daa797ed6e38ed64bf6a1f010000000000000000838161078a57610789610d92565b5b0492506040810190505b6d04ee2d6d415b85acef810000000083106107d1576d04ee2d6d415b85acef810000000083816107c7576107c6610d92565b5b0492506020810190505b662386f26fc10000831061080057662386f26fc1000083816107f6576107f5610d92565b5b0492506010810190505b6305f5e1008310610829576305f5e100838161081f5761081e610d92565b5b0492506008810190505b612710831061084e57612710838161084457610843610d92565b5b0492506004810190505b60648310610871576064838161086757610866610d92565b5b0492506002810190505b600a8310610880576001810190505b80915050919050565b82805461089590610d2f565b90600052602060002090601f0160209004810192826108b757600085556108fe565b82601f106108d057805160ff19168380011785556108fe565b828001600101855582156108fe579182015b828111156108fd5782518255916020019190600101906108e2565b5b50905061090b919061090f565b5090565b5b80821115610928576000816000905550600101610910565b5090565b600061093f61093a84610c74565b610c4f565b90508281526020810184848401111561095b5761095a610e24565b5b610966848285610ced565b509392505050565b600082601f83011261098357610982610e1f565b5b813561099384826020860161092c565b91505092915050565b6000602082840312156109b2576109b1610e2e565b5b600082013567ffffffffffffffff8111156109d0576109cf610e29565b5b6109dc8482850161096e565b91505092915050565b600080600080600060a08688031215610a0157610a00610e2e565b5b600086013567ffffffffffffffff811115610a1f57610a1e610e29565b5b610a2b8882890161096e565b955050602086013567ffffffffffffffff811115610a4c57610a4b610e29565b5b610a588882890161096e565b945050604086013567ffffffffffffffff811115610a7957610a78610e29565b5b610a858882890161096e565b935050606086013567ffffffffffffffff811115610aa657610aa5610e29565b5b610ab28882890161096e565b925050608086013567ffffffffffffffff811115610ad357610ad2610e29565b5b610adf8882890161096e565b9150509295509295909350565b610af581610ce1565b82525050565b6000610b0682610cba565b610b108185610cc5565b9350610b20818560208601610cfc565b610b2981610e33565b840191505092915050565b6000610b3f82610cba565b610b498185610cd6565b9350610b59818560208601610cfc565b80840191505092915050565b60008154610b7281610d2f565b610b7c8186610cd6565b94506001821660008114610b975760018114610ba857610bdb565b60ff19831686528186019350610bdb565b610bb185610ca5565b60005b83811015610bd357815481890152600182019150602081019050610bb4565b838801955050505b50505092915050565b6000610bf08284610b34565b915081905092915050565b6000610c078284610b65565b915081905092915050565b6000602082019050610c276000830184610aec565b92915050565b60006020820190508181036000830152610c478184610afb565b905092915050565b6000610c59610c6a565b9050610c658282610d61565b919050565b6000604051905090565b600067ffffffffffffffff821115610c8f57610c8e610df0565b5b610c9882610e33565b9050602081019050919050565b60008190508160005260206000209050919050565b600081519050919050565b600082825260208201905092915050565b600081905092915050565b60008115159050919050565b82818337600083830152505050565b60005b83811015610d1a578082015181840152602081019050610cff565b83811115610d29576000848401525b50505050565b60006002820490506001821680610d4757607f821691505b60208210811415610d5b57610d5a610dc1565b5b50919050565b610d6a82610e33565b810181811067ffffffffffffffff82111715610d8957610d88610df0565b5b80604052505050565b7f4e487b7100000000000000000000000000000000000000000000000000000000600052601260045260246000fd5b7f4e487b7100000000000000000000000000000000000000000000000000000000600052602260045260246000fd5b7f4e487b7100000000000000000000000000000000000000000000000000000000600052604160045260246000fd5b600080fd5b600080fd5b600080fd5b600080fd5b6000601f19601f830116905091905056fea2646970667358221220839f5b54a556ff9a423fda23c9ab8e017b08dab3f7a1e2d6d4f3f4bc9d97d35d64736f6c63430008070033",
					"opcodes": "PUSH1 0x80 PUSH1 0x40 MSTORE CALLVALUE DUP1 ISZERO PUSH2 0x10 JUMPI PUSH1 0x0 DUP1 REVERT JUMPDEST POP PUSH2 0xE7A DUP1 PUSH2 0x20 PUSH1 0x0 CODECOPY PUSH1 0x0 RETURN INVALID PUSH1 0x80 PUSH1 0x40 MSTORE CALLVALUE DUP1 ISZERO PUSH2 0x10 JUMPI PUSH1 0x0 DUP1 REVERT JUMPDEST POP PUSH1 0x4 CALLDATASIZE LT PUSH2 0x9E JUMPI PUSH1 0x0 CALLDATALOAD PUSH1 0xE0 SHR DUP1 PUSH4 0xCA3740DE GT PUSH2 0x66 JUMPI DUP1 PUSH4 0xCA3740DE EQ PUSH2 0x149 JUMPI DUP1 PUSH4 0xCED7142C EQ PUSH2 0x167 JUMPI DUP1 PUSH4 0xD1D5400D EQ PUSH2 0x185 JUMPI DUP1 PUSH4 0xD43CF416 EQ PUSH2 0x1A3 JUMPI DUP1 PUSH4 0xE12D7DB4 EQ PUSH2 0x1BF JUMPI PUSH2 0x9E JUMP JUMPDEST DUP1 PUSH4 0x1BA7B1F7 EQ PUSH2 0xA3 JUMPI DUP1 PUSH4 0x22E5BA7C EQ PUSH2 0xC1 JUMPI DUP1 PUSH4 0x50CA0907 EQ PUSH2 0xDF JUMPI DUP1 PUSH4 0x82290DDB EQ PUSH2 0xFD JUMPI DUP1 PUSH4 0xA8515F8E EQ PUSH2 0x119 JUMPI JUMPDEST PUSH1 0x0 DUP1 REVERT JUMPDEST PUSH2 0xAB PUSH2 0x1DD JUMP JUMPDEST PUSH1 0x40 MLOAD PUSH2 0xB8 SWAP2 SWAP1 PUSH2 0xC2D JUMP JUMPDEST PUSH1 0x40 MLOAD DUP1 SWAP2 SUB SWAP1 RETURN JUMPDEST PUSH2 0xC9 PUSH2 0x26F JUMP JUMPDEST PUSH1 0x40 MLOAD PUSH2 0xD6 SWAP2 SWAP1 PUSH2 0xC2D JUMP JUMPDEST PUSH1 0x40 MLOAD DUP1 SWAP2 SUB SWAP1 RETURN JUMPDEST PUSH2 0xE7 PUSH2 0x301 JUMP JUMPDEST PUSH1 0x40 MLOAD PUSH2 0xF4 SWAP2 SWAP1 PUSH2 0xC2D JUMP JUMPDEST PUSH1 0x40 MLOAD DUP1 SWAP2 SUB SWAP1 RETURN JUMPDEST PUSH2 0x117 PUSH1 0x4 DUP1 CALLDATASIZE SUB DUP2 ADD SWAP1 PUSH2 0x112 SWAP2 SWAP1 PUSH2 0x99C JUMP JUMPDEST PUSH2 0x393 JUMP JUMPDEST STOP JUMPDEST PUSH2 0x133 PUSH1 0x4 DUP1 CALLDATASIZE SUB DUP2 ADD SWAP1 PUSH2 0x12E SWAP2 SWAP1 PUSH2 0x99C JUMP JUMPDEST PUSH2 0x3AD JUMP JUMPDEST PUSH1 0x40 MLOAD PUSH2 0x140 SWAP2 SWAP1 PUSH2 0xC12 JUMP JUMPDEST PUSH1 0x40 MLOAD DUP1 SWAP2 SUB SWAP1 RETURN JUMPDEST PUSH2 0x151 PUSH2 0x406 JUMP JUMPDEST PUSH1 0x40 MLOAD PUSH2 0x15E SWAP2 SWAP1 PUSH2 0xC2D JUMP JUMPDEST PUSH1 0x40 MLOAD DUP1 SWAP2 SUB SWAP1 RETURN JUMPDEST PUSH2 0x16F PUSH2 0x498 JUMP JUMPDEST PUSH1 0x40 MLOAD PUSH2 0x17C SWAP2 SWAP1 PUSH2 0xC2D JUMP JUMPDEST PUSH1 0x40 MLOAD DUP1 SWAP2 SUB SWAP1 RETURN JUMPDEST PUSH2 0x18D PUSH2 0x4AA JUMP JUMPDEST PUSH1 0x40 MLOAD PUSH2 0x19A SWAP2 SWAP1 PUSH2 0xC2D JUMP JUMPDEST PUSH1 0x40 MLOAD DUP1 SWAP2 SUB SWAP1 RETURN JUMPDEST PUSH2 0x1BD PUSH1 0x4 DUP1 CALLDATASIZE SUB DUP2 ADD SWAP1 PUSH2 0x1B8 SWAP2 SWAP1 PUSH2 0x9E5 JUMP JUMPDEST PUSH2 0x53C JUMP JUMPDEST STOP JUMPDEST PUSH2 0x1C7 PUSH2 0x5C4 JUMP JUMPDEST PUSH1 0x40 MLOAD PUSH2 0x1D4 SWAP2 SWAP1 PUSH2 0xC2D JUMP JUMPDEST PUSH1 0x40 MLOAD DUP1 SWAP2 SUB SWAP1 RETURN JUMPDEST PUSH1 0x60 PUSH1 0x2 DUP1 SLOAD PUSH2 0x1EC SWAP1 PUSH2 0xD2F JUMP JUMPDEST DUP1 PUSH1 0x1F ADD PUSH1 0x20 DUP1 SWAP2 DIV MUL PUSH1 0x20 ADD PUSH1 0x40 MLOAD SWAP1 DUP2 ADD PUSH1 0x40 MSTORE DUP1 SWAP3 SWAP2 SWAP1 DUP2 DUP2 MSTORE PUSH1 0x20 ADD DUP3 DUP1 SLOAD PUSH2 0x218 SWAP1 PUSH2 0xD2F JUMP JUMPDEST DUP1 ISZERO PUSH2 0x265 JUMPI DUP1 PUSH1 0x1F LT PUSH2 0x23A JUMPI PUSH2 0x100 DUP1 DUP4 SLOAD DIV MUL DUP4 MSTORE SWAP2 PUSH1 0x20 ADD SWAP2 PUSH2 0x265 JUMP JUMPDEST DUP3 ADD SWAP2 SWAP1 PUSH1 0x0 MSTORE PUSH1 0x20 PUSH1 0x0 KECCAK256 SWAP1 JUMPDEST DUP2 SLOAD DUP2 MSTORE SWAP1 PUSH1 0x1 ADD SWAP1 PUSH1 0x20 ADD DUP1 DUP4 GT PUSH2 0x248 JUMPI DUP3 SWAP1 SUB PUSH1 0x1F AND DUP3 ADD SWAP2 JUMPDEST POP POP POP POP POP SWAP1 POP SWAP1 JUMP JUMPDEST PUSH1 0x60 PUSH1 0x3 DUP1 SLOAD PUSH2 0x27E SWAP1 PUSH2 0xD2F JUMP JUMPDEST DUP1 PUSH1 0x1F ADD PUSH1 0x20 DUP1 SWAP2 DIV MUL PUSH1 0x20 ADD PUSH1 0x40 MLOAD SWAP1 DUP2 ADD PUSH1 0x40 MSTORE DUP1 SWAP3 SWAP2 SWAP1 DUP2 DUP2 MSTORE PUSH1 0x20 ADD DUP3 DUP1 SLOAD PUSH2 0x2AA SWAP1 PUSH2 0xD2F JUMP JUMPDEST DUP1 ISZERO PUSH2 0x2F7 JUMPI DUP1 PUSH1 0x1F LT PUSH2 0x2CC JUMPI PUSH2 0x100 DUP1 DUP4 SLOAD DIV MUL DUP4 MSTORE SWAP2 PUSH1 0x20 ADD SWAP2 PUSH2 0x2F7 JUMP JUMPDEST DUP3 ADD SWAP2 SWAP1 PUSH1 0x0 MSTORE PUSH1 0x20 PUSH1 0x0 KECCAK256 SWAP1 JUMPDEST DUP2 SLOAD DUP2 MSTORE SWAP1 PUSH1 0x1 ADD SWAP1 PUSH1 0x20 ADD DUP1 DUP4 GT PUSH2 0x2DA JUMPI DUP3 SWAP1 SUB PUSH1 0x1F AND DUP3 ADD SWAP2 JUMPDEST POP POP POP POP POP SWAP1 POP SWAP1 JUMP JUMPDEST PUSH1 0x60 PUSH1 0x5 DUP1 SLOAD PUSH2 0x310 SWAP1 PUSH2 0xD2F JUMP JUMPDEST DUP1 PUSH1 0x1F ADD PUSH1 0x20 DUP1 SWAP2 DIV MUL PUSH1 0x20 ADD PUSH1 0x40 MLOAD SWAP1 DUP2 ADD PUSH1 0x40 MSTORE DUP1 SWAP3 SWAP2 SWAP1 DUP2 DUP2 MSTORE PUSH1 0x20 ADD DUP3 DUP1 SLOAD PUSH2 0x33C SWAP1 PUSH2 0xD2F JUMP JUMPDEST DUP1 ISZERO PUSH2 0x389 JUMPI DUP1 PUSH1 0x1F LT PUSH2 0x35E JUMPI PUSH2 0x100 DUP1 DUP4 SLOAD DIV MUL DUP4 MSTORE SWAP2 PUSH1 0x20 ADD SWAP2 PUSH2 0x389 JUMP JUMPDEST DUP3 ADD SWAP2 SWAP1 PUSH1 0x0 MSTORE PUSH1 0x20 PUSH1 0x0 KECCAK256 SWAP1 JUMPDEST DUP2 SLOAD DUP2 MSTORE SWAP1 PUSH1 0x1 ADD SWAP1 PUSH1 0x20 ADD DUP1 DUP4 GT PUSH2 0x36C JUMPI DUP3 SWAP1 SUB PUSH1 0x1F AND DUP3 ADD SWAP2 JUMPDEST POP POP POP POP POP SWAP1 POP SWAP1 JUMP JUMPDEST DUP1 PUSH1 0x5 SWAP1 DUP1 MLOAD SWAP1 PUSH1 0x20 ADD SWAP1 PUSH2 0x3A9 SWAP3 SWAP2 SWAP1 PUSH2 0x889 JUMP JUMPDEST POP POP JUMP JUMPDEST PUSH1 0x0 PUSH1 0x4 PUSH1 0x40 MLOAD PUSH1 0x20 ADD PUSH2 0x3C1 SWAP2 SWAP1 PUSH2 0xBFB JUMP JUMPDEST PUSH1 0x40 MLOAD PUSH1 0x20 DUP2 DUP4 SUB SUB DUP2 MSTORE SWAP1 PUSH1 0x40 MSTORE DUP1 MLOAD SWAP1 PUSH1 0x20 ADD KECCAK256 DUP3 PUSH1 0x40 MLOAD PUSH1 0x20 ADD PUSH2 0x3E8 SWAP2 SWAP1 PUSH2 0xBE4 JUMP JUMPDEST PUSH1 0x40 MLOAD PUSH1 0x20 DUP2 DUP4 SUB SUB DUP2 MSTORE SWAP1 PUSH1 0x40 MSTORE DUP1 MLOAD SWAP1 PUSH1 0x20 ADD KECCAK256 EQ SWAP1 POP SWAP2 SWAP1 POP JUMP JUMPDEST PUSH1 0x60 PUSH1 0x1 DUP1 SLOAD PUSH2 0x415 SWAP1 PUSH2 0xD2F JUMP JUMPDEST DUP1 PUSH1 0x1F ADD PUSH1 0x20 DUP1 SWAP2 DIV MUL PUSH1 0x20 ADD PUSH1 0x40 MLOAD SWAP1 DUP2 ADD PUSH1 0x40 MSTORE DUP1 SWAP3 SWAP2 SWAP1 DUP2 DUP2 MSTORE PUSH1 0x20 ADD DUP3 DUP1 SLOAD PUSH2 0x441 SWAP1 PUSH2 0xD2F JUMP JUMPDEST DUP1 ISZERO PUSH2 0x48E JUMPI DUP1 PUSH1 0x1F LT PUSH2 0x463 JUMPI PUSH2 0x100 DUP1 DUP4 SLOAD DIV MUL DUP4 MSTORE SWAP2 PUSH1 0x20 ADD SWAP2 PUSH2 0x48E JUMP JUMPDEST DUP3 ADD SWAP2 SWAP1 PUSH1 0x0 MSTORE PUSH1 0x20 PUSH1 0x0 KECCAK256 SWAP1 JUMPDEST DUP2 SLOAD DUP2 MSTORE SWAP1 PUSH1 0x1 ADD SWAP1 PUSH1 0x20 ADD DUP1 DUP4 GT PUSH2 0x471 JUMPI DUP3 SWAP1 SUB PUSH1 0x1F AND DUP3 ADD SWAP2 JUMPDEST POP POP POP POP POP SWAP1 POP SWAP1 JUMP JUMPDEST PUSH1 0x60 PUSH2 0x4A5 PUSH1 0x6 SLOAD PUSH2 0x656 JUMP JUMPDEST SWAP1 POP SWAP1 JUMP JUMPDEST PUSH1 0x60 PUSH1 0x0 DUP1 SLOAD PUSH2 0x4B9 SWAP1 PUSH2 0xD2F JUMP JUMPDEST DUP1 PUSH1 0x1F ADD PUSH1 0x20 DUP1 SWAP2 DIV MUL PUSH1 0x20 ADD PUSH1 0x40 MLOAD SWAP1 DUP2 ADD PUSH1 0x40 MSTORE DUP1 SWAP3 SWAP2 SWAP1 DUP2 DUP2 MSTORE PUSH1 0x20 ADD DUP3 DUP1 SLOAD PUSH2 0x4E5 SWAP1 PUSH2 0xD2F JUMP JUMPDEST DUP1 ISZERO PUSH2 0x532 JUMPI DUP1 PUSH1 0x1F LT PUSH2 0x507 JUMPI PUSH2 0x100 DUP1 DUP4 SLOAD DIV MUL DUP4 MSTORE SWAP2 PUSH1 0x20 ADD SWAP2 PUSH2 0x532 JUMP JUMPDEST DUP3 ADD SWAP2 SWAP1 PUSH1 0x0 MSTORE PUSH1 0x20 PUSH1 0x0 KECCAK256 SWAP1 JUMPDEST DUP2 SLOAD DUP2 MSTORE SWAP1 PUSH1 0x1 ADD SWAP1 PUSH1 0x20 ADD DUP1 DUP4 GT PUSH2 0x515 JUMPI DUP3 SWAP1 SUB PUSH1 0x1F AND DUP3 ADD SWAP2 JUMPDEST POP POP POP POP POP SWAP1 POP SWAP1 JUMP JUMPDEST DUP5 PUSH1 0x0 SWAP1 DUP1 MLOAD SWAP1 PUSH1 0x20 ADD SWAP1 PUSH2 0x552 SWAP3 SWAP2 SWAP1 PUSH2 0x889 JUMP JUMPDEST POP DUP4 PUSH1 0x1 SWAP1 DUP1 MLOAD SWAP1 PUSH1 0x20 ADD SWAP1 PUSH2 0x569 SWAP3 SWAP2 SWAP1 PUSH2 0x889 JUMP JUMPDEST POP DUP3 PUSH1 0x2 SWAP1 DUP1 MLOAD SWAP1 PUSH1 0x20 ADD SWAP1 PUSH2 0x580 SWAP3 SWAP2 SWAP1 PUSH2 0x889 JUMP JUMPDEST POP DUP2 PUSH1 0x3 SWAP1 DUP1 MLOAD SWAP1 PUSH1 0x20 ADD SWAP1 PUSH2 0x597 SWAP3 SWAP2 SWAP1 PUSH2 0x889 JUMP JUMPDEST POP DUP1 PUSH1 0x4 SWAP1 DUP1 MLOAD SWAP1 PUSH1 0x20 ADD SWAP1 PUSH2 0x5AE SWAP3 SWAP2 SWAP1 PUSH2 0x889 JUMP JUMPDEST POP PUSH2 0x5B7 PUSH2 0x72E JUMP JUMPDEST PUSH1 0x6 DUP2 SWAP1 SSTORE POP POP POP POP POP POP JUMP JUMPDEST PUSH1 0x60 PUSH1 0x4 DUP1 SLOAD PUSH2 0x5D3 SWAP1 PUSH2 0xD2F JUMP JUMPDEST DUP1 PUSH1 0x1F ADD PUSH1 0x20 DUP1 SWAP2 DIV MUL PUSH1 0x20 ADD PUSH1 0x40 MLOAD SWAP1 DUP2 ADD PUSH1 0x40 MSTORE DUP1 SWAP3 SWAP2 SWAP1 DUP2 DUP2 MSTORE PUSH1 0x20 ADD DUP3 DUP1 SLOAD PUSH2 0x5FF SWAP1 PUSH2 0xD2F JUMP JUMPDEST DUP1 ISZERO PUSH2 0x64C JUMPI DUP1 PUSH1 0x1F LT PUSH2 0x621 JUMPI PUSH2 0x100 DUP1 DUP4 SLOAD DIV MUL DUP4 MSTORE SWAP2 PUSH1 0x20 ADD SWAP2 PUSH2 0x64C JUMP JUMPDEST DUP3 ADD SWAP2 SWAP1 PUSH1 0x0 MSTORE PUSH1 0x20 PUSH1 0x0 KECCAK256 SWAP1 JUMPDEST DUP2 SLOAD DUP2 MSTORE SWAP1 PUSH1 0x1 ADD SWAP1 PUSH1 0x20 ADD DUP1 DUP4 GT PUSH2 0x62F JUMPI DUP3 SWAP1 SUB PUSH1 0x1F AND DUP3 ADD SWAP2 JUMPDEST POP POP POP POP POP SWAP1 POP SWAP1 JUMP JUMPDEST PUSH1 0x60 PUSH1 0x0 PUSH1 0x1 PUSH2 0x665 DUP5 PUSH2 0x736 JUMP JUMPDEST ADD SWAP1 POP PUSH1 0x0 DUP2 PUSH8 0xFFFFFFFFFFFFFFFF DUP2 GT ISZERO PUSH2 0x684 JUMPI PUSH2 0x683 PUSH2 0xDF0 JUMP JUMPDEST JUMPDEST PUSH1 0x40 MLOAD SWAP1 DUP1 DUP3 MSTORE DUP1 PUSH1 0x1F ADD PUSH1 0x1F NOT AND PUSH1 0x20 ADD DUP3 ADD PUSH1 0x40 MSTORE DUP1 ISZERO PUSH2 0x6B6 JUMPI DUP2 PUSH1 0x20 ADD PUSH1 0x1 DUP3 MUL DUP1 CALLDATASIZE DUP4 CALLDATACOPY DUP1 DUP3 ADD SWAP2 POP POP SWAP1 POP JUMPDEST POP SWAP1 POP PUSH1 0x0 DUP3 PUSH1 0x20 ADD DUP3 ADD SWAP1 POP JUMPDEST PUSH1 0x1 ISZERO PUSH2 0x723 JUMPI DUP1 DUP1 PUSH1 0x1 SWAP1 SUB SWAP2 POP POP PUSH32 0x3031323334353637383961626364656600000000000000000000000000000000 PUSH1 0xA DUP7 MOD BYTE DUP2 MSTORE8 PUSH1 0xA DUP6 DUP2 PUSH2 0x70D JUMPI PUSH2 0x70C PUSH2 0xD92 JUMP JUMPDEST JUMPDEST DIV SWAP5 POP PUSH1 0x0 DUP6 EQ ISZERO PUSH2 0x71E JUMPI PUSH2 0x723 JUMP JUMPDEST PUSH2 0x6C4 JUMP JUMPDEST DUP2 SWAP4 POP POP POP POP SWAP2 SWAP1 POP JUMP JUMPDEST PUSH1 0x0 TIMESTAMP SWAP1 POP SWAP1 JUMP JUMPDEST PUSH1 0x0 DUP1 PUSH1 0x0 SWAP1 POP PUSH27 0x184F03E93FF9F4DAA797ED6E38ED64BF6A1F010000000000000000 DUP4 LT PUSH2 0x794 JUMPI PUSH27 0x184F03E93FF9F4DAA797ED6E38ED64BF6A1F010000000000000000 DUP4 DUP2 PUSH2 0x78A JUMPI PUSH2 0x789 PUSH2 0xD92 JUMP JUMPDEST JUMPDEST DIV SWAP3 POP PUSH1 0x40 DUP2 ADD SWAP1 POP JUMPDEST PUSH14 0x4EE2D6D415B85ACEF8100000000 DUP4 LT PUSH2 0x7D1 JUMPI PUSH14 0x4EE2D6D415B85ACEF8100000000 DUP4 DUP2 PUSH2 0x7C7 JUMPI PUSH2 0x7C6 PUSH2 0xD92 JUMP JUMPDEST JUMPDEST DIV SWAP3 POP PUSH1 0x20 DUP2 ADD SWAP1 POP JUMPDEST PUSH7 0x2386F26FC10000 DUP4 LT PUSH2 0x800 JUMPI PUSH7 0x2386F26FC10000 DUP4 DUP2 PUSH2 0x7F6 JUMPI PUSH2 0x7F5 PUSH2 0xD92 JUMP JUMPDEST JUMPDEST DIV SWAP3 POP PUSH1 0x10 DUP2 ADD SWAP1 POP JUMPDEST PUSH4 0x5F5E100 DUP4 LT PUSH2 0x829 JUMPI PUSH4 0x5F5E100 DUP4 DUP2 PUSH2 0x81F JUMPI PUSH2 0x81E PUSH2 0xD92 JUMP JUMPDEST JUMPDEST DIV SWAP3 POP PUSH1 0x8 DUP2 ADD SWAP1 POP JUMPDEST PUSH2 0x2710 DUP4 LT PUSH2 0x84E JUMPI PUSH2 0x2710 DUP4 DUP2 PUSH2 0x844 JUMPI PUSH2 0x843 PUSH2 0xD92 JUMP JUMPDEST JUMPDEST DIV SWAP3 POP PUSH1 0x4 DUP2 ADD SWAP1 POP JUMPDEST PUSH1 0x64 DUP4 LT PUSH2 0x871 JUMPI PUSH1 0x64 DUP4 DUP2 PUSH2 0x867 JUMPI PUSH2 0x866 PUSH2 0xD92 JUMP JUMPDEST JUMPDEST DIV SWAP3 POP PUSH1 0x2 DUP2 ADD SWAP1 POP JUMPDEST PUSH1 0xA DUP4 LT PUSH2 0x880 JUMPI PUSH1 0x1 DUP2 ADD SWAP1 POP JUMPDEST DUP1 SWAP2 POP POP SWAP2 SWAP1 POP JUMP JUMPDEST DUP3 DUP1 SLOAD PUSH2 0x895 SWAP1 PUSH2 0xD2F JUMP JUMPDEST SWAP1 PUSH1 0x0 MSTORE PUSH1 0x20 PUSH1 0x0 KECCAK256 SWAP1 PUSH1 0x1F ADD PUSH1 0x20 SWAP1 DIV DUP2 ADD SWAP3 DUP3 PUSH2 0x8B7 JUMPI PUSH1 0x0 DUP6 SSTORE PUSH2 0x8FE JUMP JUMPDEST DUP3 PUSH1 0x1F LT PUSH2 0x8D0 JUMPI DUP1 MLOAD PUSH1 0xFF NOT AND DUP4 DUP1 ADD OR DUP6 SSTORE PUSH2 0x8FE JUMP JUMPDEST DUP3 DUP1 ADD PUSH1 0x1 ADD DUP6 SSTORE DUP3 ISZERO PUSH2 0x8FE JUMPI SWAP2 DUP3 ADD JUMPDEST DUP3 DUP2 GT ISZERO PUSH2 0x8FD JUMPI DUP3 MLOAD DUP3 SSTORE SWAP2 PUSH1 0x20 ADD SWAP2 SWAP1 PUSH1 0x1 ADD SWAP1 PUSH2 0x8E2 JUMP JUMPDEST JUMPDEST POP SWAP1 POP PUSH2 0x90B SWAP2 SWAP1 PUSH2 0x90F JUMP JUMPDEST POP SWAP1 JUMP JUMPDEST JUMPDEST DUP1 DUP3 GT ISZERO PUSH2 0x928 JUMPI PUSH1 0x0 DUP2 PUSH1 0x0 SWAP1 SSTORE POP PUSH1 0x1 ADD PUSH2 0x910 JUMP JUMPDEST POP SWAP1 JUMP JUMPDEST PUSH1 0x0 PUSH2 0x93F PUSH2 0x93A DUP5 PUSH2 0xC74 JUMP JUMPDEST PUSH2 0xC4F JUMP JUMPDEST SWAP1 POP DUP3 DUP2 MSTORE PUSH1 0x20 DUP2 ADD DUP5 DUP5 DUP5 ADD GT ISZERO PUSH2 0x95B JUMPI PUSH2 0x95A PUSH2 0xE24 JUMP JUMPDEST JUMPDEST PUSH2 0x966 DUP5 DUP3 DUP6 PUSH2 0xCED JUMP JUMPDEST POP SWAP4 SWAP3 POP POP POP JUMP JUMPDEST PUSH1 0x0 DUP3 PUSH1 0x1F DUP4 ADD SLT PUSH2 0x983 JUMPI PUSH2 0x982 PUSH2 0xE1F JUMP JUMPDEST JUMPDEST DUP2 CALLDATALOAD PUSH2 0x993 DUP5 DUP3 PUSH1 0x20 DUP7 ADD PUSH2 0x92C JUMP JUMPDEST SWAP2 POP POP SWAP3 SWAP2 POP POP JUMP JUMPDEST PUSH1 0x0 PUSH1 0x20 DUP3 DUP5 SUB SLT ISZERO PUSH2 0x9B2 JUMPI PUSH2 0x9B1 PUSH2 0xE2E JUMP JUMPDEST JUMPDEST PUSH1 0x0 DUP3 ADD CALLDATALOAD PUSH8 0xFFFFFFFFFFFFFFFF DUP2 GT ISZERO PUSH2 0x9D0 JUMPI PUSH2 0x9CF PUSH2 0xE29 JUMP JUMPDEST JUMPDEST PUSH2 0x9DC DUP5 DUP3 DUP6 ADD PUSH2 0x96E JUMP JUMPDEST SWAP2 POP POP SWAP3 SWAP2 POP POP JUMP JUMPDEST PUSH1 0x0 DUP1 PUSH1 0x0 DUP1 PUSH1 0x0 PUSH1 0xA0 DUP7 DUP9 SUB SLT ISZERO PUSH2 0xA01 JUMPI PUSH2 0xA00 PUSH2 0xE2E JUMP JUMPDEST JUMPDEST PUSH1 0x0 DUP7 ADD CALLDATALOAD PUSH8 0xFFFFFFFFFFFFFFFF DUP2 GT ISZERO PUSH2 0xA1F JUMPI PUSH2 0xA1E PUSH2 0xE29 JUMP JUMPDEST JUMPDEST PUSH2 0xA2B DUP9 DUP3 DUP10 ADD PUSH2 0x96E JUMP JUMPDEST SWAP6 POP POP PUSH1 0x20 DUP7 ADD CALLDATALOAD PUSH8 0xFFFFFFFFFFFFFFFF DUP2 GT ISZERO PUSH2 0xA4C JUMPI PUSH2 0xA4B PUSH2 0xE29 JUMP JUMPDEST JUMPDEST PUSH2 0xA58 DUP9 DUP3 DUP10 ADD PUSH2 0x96E JUMP JUMPDEST SWAP5 POP POP PUSH1 0x40 DUP7 ADD CALLDATALOAD PUSH8 0xFFFFFFFFFFFFFFFF DUP2 GT ISZERO PUSH2 0xA79 JUMPI PUSH2 0xA78 PUSH2 0xE29 JUMP JUMPDEST JUMPDEST PUSH2 0xA85 DUP9 DUP3 DUP10 ADD PUSH2 0x96E JUMP JUMPDEST SWAP4 POP POP PUSH1 0x60 DUP7 ADD CALLDATALOAD PUSH8 0xFFFFFFFFFFFFFFFF DUP2 GT ISZERO PUSH2 0xAA6 JUMPI PUSH2 0xAA5 PUSH2 0xE29 JUMP JUMPDEST JUMPDEST PUSH2 0xAB2 DUP9 DUP3 DUP10 ADD PUSH2 0x96E JUMP JUMPDEST SWAP3 POP POP PUSH1 0x80 DUP7 ADD CALLDATALOAD PUSH8 0xFFFFFFFFFFFFFFFF DUP2 GT ISZERO PUSH2 0xAD3 JUMPI PUSH2 0xAD2 PUSH2 0xE29 JUMP JUMPDEST JUMPDEST PUSH2 0xADF DUP9 DUP3 DUP10 ADD PUSH2 0x96E JUMP JUMPDEST SWAP2 POP POP SWAP3 SWAP6 POP SWAP3 SWAP6 SWAP1 SWAP4 POP JUMP JUMPDEST PUSH2 0xAF5 DUP2 PUSH2 0xCE1 JUMP JUMPDEST DUP3 MSTORE POP POP JUMP JUMPDEST PUSH1 0x0 PUSH2 0xB06 DUP3 PUSH2 0xCBA JUMP JUMPDEST PUSH2 0xB10 DUP2 DUP6 PUSH2 0xCC5 JUMP JUMPDEST SWAP4 POP PUSH2 0xB20 DUP2 DUP6 PUSH1 0x20 DUP7 ADD PUSH2 0xCFC JUMP JUMPDEST PUSH2 0xB29 DUP2 PUSH2 0xE33 JUMP JUMPDEST DUP5 ADD SWAP2 POP POP SWAP3 SWAP2 POP POP JUMP JUMPDEST PUSH1 0x0 PUSH2 0xB3F DUP3 PUSH2 0xCBA JUMP JUMPDEST PUSH2 0xB49 DUP2 DUP6 PUSH2 0xCD6 JUMP JUMPDEST SWAP4 POP PUSH2 0xB59 DUP2 DUP6 PUSH1 0x20 DUP7 ADD PUSH2 0xCFC JUMP JUMPDEST DUP1 DUP5 ADD SWAP2 POP POP SWAP3 SWAP2 POP POP JUMP JUMPDEST PUSH1 0x0 DUP2 SLOAD PUSH2 0xB72 DUP2 PUSH2 0xD2F JUMP JUMPDEST PUSH2 0xB7C DUP2 DUP7 PUSH2 0xCD6 JUMP JUMPDEST SWAP5 POP PUSH1 0x1 DUP3 AND PUSH1 0x0 DUP2 EQ PUSH2 0xB97 JUMPI PUSH1 0x1 DUP2 EQ PUSH2 0xBA8 JUMPI PUSH2 0xBDB JUMP JUMPDEST PUSH1 0xFF NOT DUP4 AND DUP7 MSTORE DUP2 DUP7 ADD SWAP4 POP PUSH2 0xBDB JUMP JUMPDEST PUSH2 0xBB1 DUP6 PUSH2 0xCA5 JUMP JUMPDEST PUSH1 0x0 JUMPDEST DUP4 DUP2 LT ISZERO PUSH2 0xBD3 JUMPI DUP2 SLOAD DUP2 DUP10 ADD MSTORE PUSH1 0x1 DUP3 ADD SWAP2 POP PUSH1 0x20 DUP2 ADD SWAP1 POP PUSH2 0xBB4 JUMP JUMPDEST DUP4 DUP9 ADD SWAP6 POP POP POP JUMPDEST POP POP POP SWAP3 SWAP2 POP POP JUMP JUMPDEST PUSH1 0x0 PUSH2 0xBF0 DUP3 DUP5 PUSH2 0xB34 JUMP JUMPDEST SWAP2 POP DUP2 SWAP1 POP SWAP3 SWAP2 POP POP JUMP JUMPDEST PUSH1 0x0 PUSH2 0xC07 DUP3 DUP5 PUSH2 0xB65 JUMP JUMPDEST SWAP2 POP DUP2 SWAP1 POP SWAP3 SWAP2 POP POP JUMP JUMPDEST PUSH1 0x0 PUSH1 0x20 DUP3 ADD SWAP1 POP PUSH2 0xC27 PUSH1 0x0 DUP4 ADD DUP5 PUSH2 0xAEC JUMP JUMPDEST SWAP3 SWAP2 POP POP JUMP JUMPDEST PUSH1 0x0 PUSH1 0x20 DUP3 ADD SWAP1 POP DUP2 DUP2 SUB PUSH1 0x0 DUP4 ADD MSTORE PUSH2 0xC47 DUP2 DUP5 PUSH2 0xAFB JUMP JUMPDEST SWAP1 POP SWAP3 SWAP2 POP POP JUMP JUMPDEST PUSH1 0x0 PUSH2 0xC59 PUSH2 0xC6A JUMP JUMPDEST SWAP1 POP PUSH2 0xC65 DUP3 DUP3 PUSH2 0xD61 JUMP JUMPDEST SWAP2 SWAP1 POP JUMP JUMPDEST PUSH1 0x0 PUSH1 0x40 MLOAD SWAP1 POP SWAP1 JUMP JUMPDEST PUSH1 0x0 PUSH8 0xFFFFFFFFFFFFFFFF DUP3 GT ISZERO PUSH2 0xC8F JUMPI PUSH2 0xC8E PUSH2 0xDF0 JUMP JUMPDEST JUMPDEST PUSH2 0xC98 DUP3 PUSH2 0xE33 JUMP JUMPDEST SWAP1 POP PUSH1 0x20 DUP2 ADD SWAP1 POP SWAP2 SWAP1 POP JUMP JUMPDEST PUSH1 0x0 DUP2 SWAP1 POP DUP2 PUSH1 0x0 MSTORE PUSH1 0x20 PUSH1 0x0 KECCAK256 SWAP1 POP SWAP2 SWAP1 POP JUMP JUMPDEST PUSH1 0x0 DUP2 MLOAD SWAP1 POP SWAP2 SWAP1 POP JUMP JUMPDEST PUSH1 0x0 DUP3 DUP3 MSTORE PUSH1 0x20 DUP3 ADD SWAP1 POP SWAP3 SWAP2 POP POP JUMP JUMPDEST PUSH1 0x0 DUP2 SWAP1 POP SWAP3 SWAP2 POP POP JUMP JUMPDEST PUSH1 0x0 DUP2 ISZERO ISZERO SWAP1 POP SWAP2 SWAP1 POP JUMP JUMPDEST DUP3 DUP2 DUP4 CALLDATACOPY PUSH1 0x0 DUP4 DUP4 ADD MSTORE POP POP POP JUMP JUMPDEST PUSH1 0x0 JUMPDEST DUP4 DUP2 LT ISZERO PUSH2 0xD1A JUMPI DUP1 DUP3 ADD MLOAD DUP2 DUP5 ADD MSTORE PUSH1 0x20 DUP2 ADD SWAP1 POP PUSH2 0xCFF JUMP JUMPDEST DUP4 DUP2 GT ISZERO PUSH2 0xD29 JUMPI PUSH1 0x0 DUP5 DUP5 ADD MSTORE JUMPDEST POP POP POP POP JUMP JUMPDEST PUSH1 0x0 PUSH1 0x2 DUP3 DIV SWAP1 POP PUSH1 0x1 DUP3 AND DUP1 PUSH2 0xD47 JUMPI PUSH1 0x7F DUP3 AND SWAP2 POP JUMPDEST PUSH1 0x20 DUP3 LT DUP2 EQ ISZERO PUSH2 0xD5B JUMPI PUSH2 0xD5A PUSH2 0xDC1 JUMP JUMPDEST JUMPDEST POP SWAP2 SWAP1 POP JUMP JUMPDEST PUSH2 0xD6A DUP3 PUSH2 0xE33 JUMP JUMPDEST DUP2 ADD DUP2 DUP2 LT PUSH8 0xFFFFFFFFFFFFFFFF DUP3 GT OR ISZERO PUSH2 0xD89 JUMPI PUSH2 0xD88 PUSH2 0xDF0 JUMP JUMPDEST JUMPDEST DUP1 PUSH1 0x40 MSTORE POP POP POP JUMP JUMPDEST PUSH32 0x4E487B7100000000000000000000000000000000000000000000000000000000 PUSH1 0x0 MSTORE PUSH1 0x12 PUSH1 0x4 MSTORE PUSH1 0x24 PUSH1 0x0 REVERT JUMPDEST PUSH32 0x4E487B7100000000000000000000000000000000000000000000000000000000 PUSH1 0x0 MSTORE PUSH1 0x22 PUSH1 0x4 MSTORE PUSH1 0x24 PUSH1 0x0 REVERT JUMPDEST PUSH32 0x4E487B7100000000000000000000000000000000000000000000000000000000 PUSH1 0x0 MSTORE PUSH1 0x41 PUSH1 0x4 MSTORE PUSH1 0x24 PUSH1 0x0 REVERT JUMPDEST PUSH1 0x0 DUP1 REVERT JUMPDEST PUSH1 0x0 DUP1 REVERT JUMPDEST PUSH1 0x0 DUP1 REVERT JUMPDEST PUSH1 0x0 DUP1 REVERT JUMPDEST PUSH1 0x0 PUSH1 0x1F NOT PUSH1 0x1F DUP4 ADD AND SWAP1 POP SWAP2 SWAP1 POP JUMP INVALID LOG2 PUSH5 0x6970667358 0x22 SLT KECCAK256 DUP4 SWAP16 JUMPDEST SLOAD 0xA5 JUMP SELFDESTRUCT SWAP11 TIMESTAMP EXTCODEHASH 0xDA 0x23 0xC9 0xAB DUP15 ADD PUSH28 0x8DAB3F7A1E2D6D4F3F4BC9D97D35D64736F6C634300080700330000 "
				},
				"gasEstimates": {
					"creation": {
						"codeDepositCost": "741200",
						"executionCost": "773",
						"totalCost": "741973"
					},
					"external": {
						"AddVehicle(string,string,string,string,string)": "infinite",
						"getvehicleBrand()": "infinite",
						"getvehicleColor()": "infinite",
						"getvehicleCreatedTime()": "infinite",
						"getvehicleMerikelrootvalue()": "infinite",
						"getvehicleModel()": "infinite",
						"getvehicleOwendBy()": "infinite",
						"getvehicleRegisterId()": "infinite",
						"setOwnerShip(string)": "infinite",
						"verifyMerikelrootvalue(string)": "infinite"
					},
					"internal": {
						"getCurrentTime()": "22"
					}
				},
				"methodIdentifiers": {
					"AddVehicle(string,string,string,string,string)": "d43cf416",
					"getvehicleBrand()": "ca3740de",
					"getvehicleColor()": "22e5ba7c",
					"getvehicleCreatedTime()": "ced7142c",
					"getvehicleMerikelrootvalue()": "e12d7db4",
					"getvehicleModel()": "1ba7b1f7",
					"getvehicleOwendBy()": "50ca0907",
					"getvehicleRegisterId()": "d1d5400d",
					"setOwnerShip(string)": "82290ddb",
					"verifyMerikelrootvalue(string)": "a8515f8e"
				}
			},
			"storageLayout": {
				"storage": [
					{
						"astId": 1176,
						"contract": "contracts/_Vehicle.sol:Vehicle",
						"label": "registerId",
						"offset": 0,
						"slot": "0",
						"type": "t_string_storage"
					},
					{
						"astId": 1178,
						"contract": "contracts/_Vehicle.sol:Vehicle",
						"label": "carBrand",
						"offset": 0,
						"slot": "1",
						"type": "t_string_storage"
					},
					{
						"astId": 1180,
						"contract": "contracts/_Vehicle.sol:Vehicle",
						"label": "carModel",
						"offset": 0,
						"slot": "2",
						"type": "t_string_storage"
					},
					{
						"astId": 1182,
						"contract": "contracts/_Vehicle.sol:Vehicle",
						"label": "carColor",
						"offset": 0,
						"slot": "3",
						"type": "t_string_storage"
					},
					{
						"astId": 1184,
						"contract": "contracts/_Vehicle.sol:Vehicle",
						"label": "merikelrootvalue",
						"offset": 0,
						"slot": "4",
						"type": "t_string_storage"
					},
					{
						"astId": 1186,
						"contract": "contracts/_Vehicle.sol:Vehicle",
						"label": "owendBy",
						"offset": 0,
						"slot": "5",
						"type": "t_string_storage"
					},
					{
						"astId": 1188,
						"contract": "contracts/_Vehicle.sol:Vehicle",
						"label": "CreatedTime",
						"offset": 0,
						"slot": "6",
						"type": "t_uint256"
					}
				],
				"types": {
					"t_string_storage": {
						"encoding": "bytes",
						"label": "string",
						"numberOfBytes": "32"
					},
					"t_uint256": {
						"encoding": "inplace",
						"label": "uint256",
						"numberOfBytes": "32"
					}
				}
			},
			"userdoc": {
				"kind": "user",
				"methods": {},
				"version": 1
			}
		}
	}
}